:030000000260D0CB
:0C60D000787FE4F6D8FD7581230261178B
:03001E0025730047
:09394A004212C700004112CB003B
:103767007F647E001272FDC2AF30C0FD125371122A
:103777006B4B126A4B12771C1272341274717FE80A
:103787007E031272FD12709DD2AF7F647E001272AB
:10379700FDC200124C6C1269407F647E001272FDFC
:1037A7001277C51276CE1277027F061269F2900C55
:1037B700B0E0600C7B017A0C79B91219D212774EFE
:1037C700900CB8E0601A9011097401F0A3740EF020
:1037D700A374B9F07BFF7A00791E121DAE127767CA
:1037E700124A28201903023927C219126CC6126F10
:1037F700D71279ED9012C7E475F0011209C7FED30D
:10380700E5F094E8EE6480948350030238CDE490A9
:1038170012C7F0A3F0120006B2C11276B490120BD1
:10382700E07002A3E0601190120B74FFF5F012092B
:10383700C745F070031276CE901259E0B4141C906D
:1038470012B174FFF5F01209C745F070051276CE74
:1038570080099012ABE07003126D95901259E0B495
:1038670013119012B174FFF5F01209C745F07003F8
:103877001276CE9012CBE004F0E075F00F84E5F0FD
:10388700F0901259E06401703D90120BE07002A3B2
:10389700E07033901257E0F47003A3E0F4702790C0
:1038A70012CBE0FF600964056005EF640A7017EF4B
:1038B70070047F01800D9012CBE0B405047F008077
:1038C700027F0212553ED3901262E094009012617B
:1038D700E0940040209012597404F0901262E024A2
:1038E700FFF0901261E034FFF0E07002A3E0700592
:1038F7007F631215E7124B4E9012C9E4F0A3EFF065
:103907009012C9E07003A3E0F4600F7F111269F20F
:103917009012C9E0A3E0FF12437F124D8A1270098B
:10392700125B76122F04200A030237B5300D0E7F83
:10393700111269F27B017A1279071267B3127702C3
:033947000237B58F
:106F3A0055415254315F636F6E666967204F4B212A
:106F4A000D0A0055415254335F636F6E66696720BC
:106F5A004F4B210D0A0052657365744B657954696C
:056F6A006D650D0A0039
:103953004212B100004112A7004112A8004112AD6A
:103963001F4112B01F4212AE00004112A9004112C2
:06397300AA004112AB00A6
:1077C5009010817401F0E4A3F0A37407F07B017AB3
:0677D50010798102725DD3
:1072FD007C007D07120960E4FDC3ED9FEC9E5015E7
:10730D00E4FBFA0BBB00010AEB646E4A70F50DBD90
:05731D0000010C80E4FA
:017322002248
:0E79DF0090112EEFF01272D690112EE0FF22C2
:0B732300901106EBF0A3EAF0A3E9F0E4
:10732E00E4FF901106E0FBA3E475F0011209DDA95C
:0A733E00F0FA1208E660030F80E881
:017348002222
:0B509B009010B8EBF0A3EAF0A3E9F0DE
:1050A600E49010BEF0A3F0A3F0A3F09010B8E0FBDC
:1050B600A3E0FAA3E0F99010BEE0FEA3E0F5828E2D
:1050C600831208FFFF700302518E9010BBE0FBA312
:1050D600E0FAA3E0F91208E66F600302517A901035
:1050E600C0F0A3F09010BBE0FBA3E0FAA3E0F990B8
:1050F60010C0E0FEA3E0F5828E831208FF60519097
:1051060010C0A3E0FF9010BFE02FFF9010BEE03E5E
:10511600FE9010B8E0FBA3E0FAA3E0F98F828E833D
:105126001208FFFF9010BBE0FBA3E0FAA3E0F990A2
:1051360010C0E0FCA3E0F5828C831208FFB50710CF
:105146009010C1E004F0709C9010C0E004F08094D0
:105156009010BBE0FBA3E0FAA3E0F99010C0E0FEDC
:10516600A3E0F5828E831208FF70099010BEE0FE60
:10517600A3E0FF229010BFE004F060030250B1905C
:0C51860010BEE004F00250B17EFF7FFF7D
:0151920022FA
:10718800901106EBF0A3EAF0A3E9F0ED1DAE047050
:10719800011C4E6016901106E0FBA3E475F0011285
:0C71A80009DDA9F0FAE412092C80E022B5
:106D0E009010B3EBF0A3EAF0A3E9F09010B974FF82
:106D1E00F5F01209DD45F0602A9010B6E0FBA3E411
:106D2E0075F0011209DDA9F0FA1208E6FF9010B312
:106D3E00E0FBA3E475F0011209DDA9F0FAEF1209E8
:046D4E002C80C822AB
:10712C009010CAEBF0A3EAF0A3E9F0ED1DAE0470E9
:10713C00011C4E60179010CAE0FBA3E475F001121D
:0E714C0009DDA9F0FA1208E660E1C322D322A1
:1053710090108274FFF0E4901081F07B017A107933
:10538100817F02122CB07B017A1079817F01122C6E
:10539100B07B017A1079817F03122CB09010827456
:1053A10001F0FB7A1079817F04122CB09010827485
:1053B10010F07B017A1079817F05122CB090108258
:1053C10074F3F07B017A1079817F06122CB0901072
:1053D100827440F07B017A1079817F07122CB090A2
:1053E100108274FFF09010817403F07B017A1079C0
:1053F10081E4FF122CB090108274BFF07B017A100F
:1054010079817F07122CB090108274C0F07B017AF1
:105411001079817F03122CB0901082741EF07B01F1
:105421007A1079817F04122CB0901082740CF07B79
:10543100017A1079817F05122CB0901082740DF0E1
:105441007B017A1079817F06122CB0D2EED2EDD297
:08545100EFC2C3C2EB027A4274
:106A4B009010817440F0A37402F0A3120C16000096
:106A5B0025809010887401F0E4A3F0A304F0A3F058
:106A6B00E4A3F07B017A1079817F01120D767BFF15
:106A7B007A6F793A121DAE90108C7402F07B017A0A
:106A8B001079817F03120D767F581272AE7BFF7ADD
:066A9B006F794D021DAEF3
:106B4B00E4901081F0A3F0A304F0E4A3F0A3F0A36E
:106B5B0074A2F0A37440F0A37401F0FB7A10798156
:106B6B00E4FF12357790108674FFF0A37410F07B5E
:106B7B00017A1079817F0112357790108674FDF0C0
:106B8B00A37412F07B017A1079817F04123577435D
:026B9B00D180A7
:016B9D0022D5
:10771C009010837401F0E4901082F0901081F07B53
:09772C00017A107981FF0268DD89
:104B4E009012A7E01460361460531460641470035E
:104B5E00024C39147003024C4D24056003024C695B
:104B6E0075A0F0E5A054F064F07003024C69901249
:104B7E00A87414F09012A77401F0024C69E5A054C9
:104B8E00F0FFBFF004E4024C659012A8E014F06050
:104B9E0003024C699012A77402F0024C69E5A0441E
:104BAE000F901081F0E0F5A09012A77403F0024C64
:104BBE0069901081E5A0F075A0F09012A77404F032
:104BCE00901081E0120C474C36774C337B4C307D85
:104BDE004C2D7E4C2AB74C27BB4C24BD4C21BE4CD1
:104BEE001ED74C1BDB4C18DD4C15DE4C12E74C0F60
:104BFE00EB4C0CED4C09EE00004C697F04227F0853
:104C0E00227F0B227F0F227F03227F07227F00222B
:104C1E007F0E227F02227F06227F0A227F0D227FB5
:104C2E0001227F05227F09227F0C22E5A054F0FF8E
:104C3E00BFF0289012A77405F0A37414F0801CE541
:104C4E00A054F064F060089012A77404F0800C90E9
:0D4C5E0012A8E014F070049012A7F07FFF80
:014C6B002226
:104D8A009012A9E0146039047076A2CCE43325E0CD
:104D9A00440125E0FFA2C0E4334F25E0FFA2B5E4B9
:104DAA00334F25E0FFA2B4E4334FFF9012ADE06F1A
:104DBA00604E9012AA741EF09012A97401F08040FD
:104DCA00A2CCE43325E0440125E0FFA2C0E4334F3E
:104DDA0025E0FFA2B5E4334F25E0FFA2B4E4334F48
:104DEA00FF9012ADE0B50707E49012A9F080119088
:104DFA0012AAE014F070099012A9F09012ADEFF027
:104E0A009012ADE0FF9012B0E0FE6F604EEE5403D8
:104E1A00FEEF5403FF6E601AEF64036015BF0103CF
:104E2A00D38001C3920012795D90120BE4F0A3744F
:104E3A0005F09012B0E05404FF9012ADE054046FF4
:104E4A006011A37427F0A37410F07BFF7A6F796066
:104E5A00121DAE9012ADE09012B0F09012B0E020A8
:104E6A00E2299012AEE07002A3E0601F9012AE74C5
:104E7A00FFF5F01209C745F07011D200124C6C12FE
:0B4E8A0079BF90120BE4F0A37405F058
:014E950022FA
:10795D00901255E09012ABF0D2C3A20092010277C3
:01796D0035E4
:106748009010A67401F0A37410F0A3749DF090103B
:106758009D740AF0A37405F0A37409F0A37401F002
:10676800A3EEF0A3EFF0A3EDF0A3E4F0A37455F0CB
:10677800E4FF9010A6E0FBA3E0FAA3E0F98F82758E
:1067880083001208FFFD9010A5E02DF09010A4E002
:106798003400F00FEFB407DA9010A6E0FBA3E0FA9C
:0B67A800A3E0F990109FE0FD0271E0FB
:1068170090109CEDF090109AEEF0A3EFF04E6052BE
:10682700A3E025E0F090109AE0FEA3E0FFD39410D8
:10683700EE94004006A3E0FD02674890109BE02419
:10684700FFF090109AE034FFF090109CE09012ACAB
:10685700F090109AE0FEA3E0FF33333354F844C0BE
:10686700F580C3EF9408EE940050045380BF225381
:03687700807F22FD
:077A42004380C05380C722FE
:1076B4009012ABE0600614F07002C2C39012ACE00A
:0A76C400600714F07003127A4222EE
:1000A600000000384492BAFE828244380000000004
:1000B60000000038448282FEBA92443800000000F4
:1000C6000000003854AAAAAAC692443800000000CC
:1000D600000000384482AAF68A82443800000000F4
:1000E60000003C42A599FF99A5423C000000000093
:1000F60000000000000000000003030000000000F4
:100106000003030F0F3F3FFFFFFFFF00000000004B
:1001160000000000422418182442000000000000DD
:100126000000003844BAC6AAAAAA54380000000043
:1001360000000000000000000000000000000000B9
:100146000000183C3C3C1818180018180000000065
:10015600006363632200000000000000000000004E
:1001660000000036367F3636367F36360000000011
:100176000C0C3E6361603E030343633E0C0C0000BF
:1001860000000000006163060C18336300000000E5
:100196000000001C36361C3B6E66663B0000000005
:1001A6000030303060000000000000000000000059
:1001B60000000C18183030303018180C0000000001
:1001C6000000180C0C060606060C0C1800000000B1
:1001D6000000000042663CFF3C6642000000000052
:1001E60000000000181818FF18181800000000007A
:1001F6000000000000000000000018181830000081
:1002060000000000000000FF0000000000000000E9
:1002160000000000000000000000181800000000A8
:1002260000000103070E1C3870E0C08000000000CB
:1002360000003E6363636B6B6363633E0000000014
:1002460000000C1C3C0C0C0C0C0C0C3F00000000BD
:1002560000003E6303060C183061637F0000000057
:1002660000003E6303031E030303633E0000000019
:100276000000060E1E3666667F06060F00000000AA
:1002860000007F6060607E030363733E0000000031
:1002960000001C3060607E636363633E0000000004
:1002A60000007F630306060C0C18181800000000F7
:1002B60000003E6363633E636363633E00000000C9
:1002C60000003E636363633F0303063C00000000D7
:1002D60000000000001818000000181800000000B8
:1002E6000000000000181800000018181830000060
:1002F600000000060C18306030180C0600000000E4
:100306000000000000007E00007E000000000000EB
:100316000000006030180C060C1830600000000069
:1003260000003E6363060C0C0C000C0C0000000081
:1003360000003E63636F6B6B6E60603E0000000002
:100346000000081C366363637F636363000000007C
:1003560000007E3333333E333333337E00000000F8
:1003660000001E33616060606061331E00000000A3
:1003760000007C36333333333333367C00000000E1
:1003860000007F3331343C343031337F00000000CD
:1003960000007F3331343C343030307800000000C8
:1003A60000001E336160606F6363371D000000004C
:1003B6000000636363637F6363636363000000003D
:1003C60000003C18181818181818183C00000000EF
:1003D60000000F06060606060666663C00000000DC
:1003E6000000733336363C36363333730000000074
:1003F60000007830303030303031337F000000007C
:10040600000063777F6B63636363636300000000D0
:1004160000006363737B7F6F6763636300000000A4
:1004260000001C36636363636363361C00000000D0
:1004360000007E3333333E30303030780000000029
:1004460000003E6363636363636B6F3E06070000F1
:1004560000007E3333333E363633337300000000FC
:1004660000003E6363301C060363633E0000000029
:100476000000FFDB991818181818183C0000000037
:1004860000006363636363636363633E00000000AD
:10049600000063636363636363361C080000000047
:1004A600000063636363636B6B7F36360000000096
:1004B6000000C3C3663C18183C66C3C300000000B6
:1004C6000000C3C3C3663C181818183C000000009F
:1004D60000007F6343060C183061637F0000000054
:1004E60000003C30303030303030303C000000000E
:1004F600000080C0E070381C0E07030100000000F9
:1005060000003C0C0C0C0C0C0C0C0C3C000000000D
:10051600081C366300000000000000000000000018
:10052600000000000000000000000000FF000000C6
:1005360018180C0000000000000000000000000079
:1005460000000000003C46063E66663B00000000D8
:1005560000007030303C36333333336E0000000019
:1005660000000000003E63606060633E0000000023
:1005760000000E06061E36666666663B0000000034
:1005860000000000003E63637E60633E00000000E2
:1005960000001C3632307C303030307800000000ED
:1005A60000000000003B666666663E06663C00008C
:1005B6000000703030363B333333337300000000B5
:1005C60000000C0C001C0C0C0C0C0C1E0000000097
:1005D60000000606000E060606060666663C0000D5
:1005E60000007030303333363C3633730000000081
:1005F60000001C0C0C0C0C0C0C0C0C1E000000005B
:1006060000000000006E7F6B6B6B6B6B00000000E0
:1006160000000000006E3333333333330000000034
:1006260000000000003E63636363633E0000000059
:1006360000000000006E333333333E303078000064
:1006460000000000003B666666663E06060F000078
:1006560000000000006E3B333030307800000000B0
:1006660000000000003E63380E03633E00000000F9
:1006760000000818187E181818181B0E0000000035
:1006860000000000006666666666663B00000000C5
:100696000000000000636336361C1C0800000000E2
:1006A60000000000006363636B6B7F360000000090
:1006B600000000000063361C1C1C366300000000AE
:1006C600000000000063636363633F03063C0000B1
:1006D60000000000007F660C1830637F00000000F9
:1006E60000000E18181870181818180E00000000D0
:1006F6000000181818181800181818181800000004
:100706000000701818180E1818181870000000004D
:1007160000003B6E0000000000000000000000002A
:100726000070D8D870000000000000000000000033
:100736000000C6C66676DCCCC6C600000000000017
:100746000000F80C0C0C0C0C0CFE00000000000065
:1007560000007018181818386C66000000000000B9
:100766000000FE0C0C0C0C0C0C0C00000000000031
:1007760000007C060606666666660000000000004D
:1007860000001818181818181818000000000000A3
:1007960000007818303030303030000000000000A3
:1007A6000000FCC6C6C6C6C6C6C6000000000000DD
:1007B6000000CCC6C6C6C6C6C67C00000000000047
:1007C60000001818181800000000000000000000C3
:1007D60000007018181818181818180000000000E3
:1007E60000007C0606060606067C000000000000E7
:1007F600C0C0FC060606060C181800000000000023
:100806000000FC66C6C6C6C6C6FE000000000000A4
:100816000000DC7666C6C6C6C6DC00000000000026
:1008260000001818181818181818181818000000BA
:100836000000380C0C0C0C0C0C3C000000000000F6
:1008460000007C66C6C6C6C6CC7800000000000064
:1008560000006666663636361C7000000000000032
:100866000000F84CCCCCCC6C0C0C0C0C0E00000030
:100876000000FC46C6C6E606867C000000000000B6
:1008860000666C38181818181818000000000000C8
:100896000000EE666634180C06FE0000000000003C
:1008A6000000FC060666646C6E6060600000000076
:1008B6000000F80C0C0C0C0C0C0C000000000000E6
:1008C6000000D6D6D6D6D6F6E67C0000000000009C
:1008D6000000FC6666666666E6E60000000000004C
:10397900410CA800410CA500C1154208A300004153
:073989000CA6FF410CA7FF93
:107568007590FFC2C4D2CBD2CA00000000E59030AB
:10757800E703D38001C39202C2CA00000000A2023E
:0175880022E0
:056D520090110EEFF0AE
:106D57007FE87E03127568500DEF1F70011E1494B3
:106D670000EE940050EEEF4E70057F111269F2C2EB
:106D7700C4C2CBC2CA000090110EE0F5900000001B
:0D6D87000000000000D2CA00000000C2CAD7
:016D940022DC
:0C6B9E00E0FBA3E0FAA3E0F91208E6FF18
:056BAA0090110EEFF058
:106BAF007FE87E03127568500DEF1F70011E14945D
:106BBF0000EE940050EEEF4E70057F111269F2D285
:106BCF00C4C2CBC2CA90110EE0F5900000000000C5
:0B6BDF00000000D2CA00000000C2CA83
:016BEA002288
:10709D00C2CA7F30126D52000000007F30126D5257
:1070AD00000000007F0C126D52000000007F0112E5
:1070BD006D52000000007F06126D5200000000228C
:1075EC007F01126D52000000007B017A0879A57DA5
:0D75FC00007C041271887DFF7FFF027A3150
:0B5F2200901106EBF0A3EAF0A3E9F0F9
:105F2D002400F9EA3402FA90110BEBF0A3EAF0A386
:105F3D00E9F0E4901109F07F36126D52901109E0ED
:105F4D004480FF126D527F80126D527F30126D5260
:105F5D00E490110AF0901106126B9E901107E475F2
:105F6D00F0011209C7124A2890110AE004F0E0C3AB
:105F7D00941040E190110A7410F090110B126B9E69
:105F8D0090110CE475F0011209C7124A2890110AFC
:105F9D00E004F0E0C3942040E1901109E004F0E04A
:055FAD00C394204092A6
:015FB20022CC
:105A2000901081EFF0A3EDF07F36126D529010824E
:105A3000E0FFD394014006EF24FEFF800590108222
:105A4000E0FFEFC454F0240E4480FF126D5290101A
:105A500081E0C313FFA3E0D3940140047E088002D9
:105A60007E00EF2E4480FF126D527F30126D5290F7
:105A70001081E0FF30E025A3E0FE75F000A424844F
:105A8000F582E5F03409F583EE2583F583E5822F71
:105A9000F582E43583F583E0FF126BAA3000047FC2
:105AA000FF8027901081E0FFA3E0FE75F000A424A2
:105AB00085F582E5F03409F583EE2583F583E582EB
:0D5AC0002FF582E43583F583E0FF026BAA29
:107609001208E6FF6015640A6011EFD39480400206
:0D761900D322740129F9E43AFA80E5C32276
:10797F00900CA8E004F0E05403F0E4900CA5F02282
:0B465100901106EBF0A3EAF0A3E9F0E3
:10465C001276099214901106A3E0FAA3E04A7003B3
:10466C0002479D901106E0FBA3E0FAA3E0F91208C3
:10467C00E6FF700302479D640A700302479D901188
:10468C000AEFF0900CA5E004F0E0D3941040031274
:10469C00797F90110B74FFF0A37403F0A37426F0D0
:1046AC0090110AE0FFC39420406EEFD39480501019
:1046BC00EF75F010A42436F974FF35F0FAA3804F8F
:1046CC00901107E475F0011209C790110AE07F0000
:1046DC00FE901106E0FBA3E0FAA3E0F91208E62F26
:1046EC00FFE43EFEC3EF9490EE94D7402BD3EF94AF
:1046FC00ABEE94D75022EFC4F8540FC868FFEEC449
:10470C0054F048FE74362FF9748E3EFA90110B74E7
:10471C00FFF0A3EAF0A3E9F0900CA5E06007149079
:10472C001109F0800AE4901109F0900CA504F03006
:10473C00140A901109E0FFC3740F9FF0E4FF90116D
:10474C000BE0FBA3E0FAA3E0F98F8275830012085B
:10475C00FFFE900CA8E0C454F02F75F010A424A513
:10476C00F582E5F03408F583C083C082901109E02E
:10477C00D082D0832582F582E43583F583EEF00F69
:10478C00EFB410BA901107E475F0011209C7024694
:01479C006FAD
:01479D0022F9
:0863D200901084EFF0A3EDF040
:1063DA00EB75F010A424A6F9740035F0FA90108831
:1063EA0074FFF0A3EAF0A3E9F0E4FF901088E0FB61
:1063FA00A3E0FAA3E0F98F827583001208FFFE90EA
:10640A001087E05EFE901084E0C454F02F75F010FF
:10641A00A424A5F582E5F03408F583C083C08290F0
:10642A001085E0D082D0832582F582E43583F58316
:07643A00EEF00FEFB410B407
:016441002238
:1077DB00900CA8EFF0900CA5EDF01246517B017ABE
:0677EB000879A5025F22EF
:1079270090108774FFF01263D27B017A0879A50261
:027937005F22CD
:097A3100900CA6EDF0A3EFF02289
:106FD700900CA6E0FFF46029A3E0FDF4602390087D
:106FE700A3E475F0011209C7ABF0FABA0113BB2C81
:106FF70010E49008A3F0A3F0A2159200125A20B251
:02700700152250
:1056FA0025732575002573257300257500446F777A
:10570A006E6C6F6164204E616D656C6973742045BF
:10571A0072723A28206E6F7420696E2073657474F1
:10572A00696E672029210D0A00433A005265764EB8
:10573A00616D656C69737428436E743A2575290D19
:10574A000A00523A0025753B004E3A0052593A0077
:10575A004964783A25642D282564293B20523A2544
:10576A00753B204E3A25733B2052593A25753B0D1D
:10577A000A00446F776E6C6F6164204E616D656CD0
:10578A00697374204F4B21202328257529230D0A7C
:10579A0000446F776E6C6F6164204E616D656C6951
:1057AA007374204572723A28257523257529210DAF
:1057BA000A00969798939495909192A09FA19C9E87
:0D57CA009D999B9AA8A9AAA6A5A7A2A4A391
:103990004112910041129200C1184212610000418F
:0739A00012600041125FFFFD
:1074BA00C374449442FF74129412CF2480CF3400D0
:1074CA00FE7B017A1279449010EBE4F0A37402F087
:0374DA0002615CF0
:0A7A0900E4901244F0A3F00274BAF6
:1078DB00D3901245E094C8901244E09400400312F8
:0378EB007A0922F5
:0B004E009010B8E0FBA3E0FAA3E0F97B
:0B0059009010E3EBF0A3EAF0A3E9F045
:100064007C007D2E120960E42FFFEE3401FE901017
:10007400E3E0FBA3E0FAA3E0F99010EBE4F0A3744F
:050084002EF002615C9A
:0B70CD009010E3EBF0A3EAF0A3E9F061
:1070D8007C007D2E120960E42FFFEE3401FE901033
:1070E800E3E0FBA3E0FAA3E0F99010EBE4F0A3746B
:0570F8002EF002687A91
:0B6BEB009010B3EBF0A3EAF0A3E9F078
:106BF60074FFA3F0A3F07D011261E79010B6EEF0EA
:106C0600A3EFF0F47002EEF4601F9010B6E0FEA35E
:106C1600E0FF9010B3E0FBA3E0FAA3E0F91270CD19
:0D6C26009010B6E0FEA3E0FF227EFF7FFF8E
:016C3300223E
:0B62E4009010B8EBF0A3EAF0A3E9F083
:1062EF0074FFA3F0A3F01209F3FFAEF07D0112616A
:1062FF00E79010BBEEF0A3EFF0F47002EEF4601431
:10630F009010BBE0FEA3E0FF12004E9010BBE0FE2A
:10631F00A3E0FF22901244E0FEA3E0FFC394C8EE77
:10632F009400502312004E901245E004F070069036
:10633F001244E004F01274BA901245E024FFFF906B
:0B634F001244E034FFFE227EFF7FFFBF
:01635A002220
:086442009010B3EEF0A3EFF09F
:10644A00901244E0FCA3E0FDD39FEC9E4058ED245B
:10645A00FFFFEC34FFFE9010B3E0B50616A3E0B5DB
:10646A000711901245E024FFF0901244E034FFF047
:10647A000274BA901245E024FFF0901244E034FF0F
:10648A00F01274BA901244E0FEA3E0FF7B017A1086
:10649A0079B51270CD9010B3E0FEA3E0FF7B017ACC
:0664AA001079B512005943
:0164B00022C9
:10796E007D011261E7EFF47002EEF46003126442DF
:01797E0022E6
:0B3B1C009010B3EBF0A3EAF0A3E9F077
:103B27001275EC9010B3E0FBA3E0FAA3E0F91209D9
:103B3700F3D39400E5F09400406F7BFF7A27796D0B
:103B4700E4FDFF1277DB90110974FFF0A37456F0C0
:103B5700A374FAF0A374FFF0A37427F0A3746DF0B5
:103B67009010B3E0FBA3E0FAA3E0F91209F3FF908A
:103B7700110FE5F0F0A3EFF07B017A1079B6121D73
:103B8700A87B017A1079B6E4FDFF1277DB901291DA
:103B9700E07045901259E0FF64046005EF6405701A
:103BA700377B017A1079B680257BFF7A27796DE418
:103BB700FDFF1277DB901291E0701D901259E0FF24
:103BC70064046004EFB405107BFF7A27796D1273E4
:103BD70023AD07E4FF127A3190110974FFF0A37443
:103BE70056F0A374FFF0A374FFF0A37427F0A37437
:103BF70078F09010B3E0FBA3E0FAA3E02402F9E425
:103C07003AFA90110FEBF0A3EAF0A3E9F07B017AFF
:103C17001079B6121DA87B017A1079B6E4FD7F01F1
:103C27001277DB901291E0B4011D901259E0FF6406
:103C3700046004EFB405107B017A1079B612732380
:103C4700AD077F01127A31200003023CEA9010B3DE
:103C5700E0FBA3E0FAA3E0F990002C120A1EFFAEE6
:103C6700F04E604E90110974FFF0A37456F0A374E0
:103C7700FAF0A374FFF0A37427F0A3747EF0A3EE09
:103C8700F0A3EFF07B017A1079B6121DA87B017AB9
:103C97001079B6E4FD7F031277DB901291E064029E
:103CA7007041901259E0FF64046028EF6405703397
:103CB70080217BFF7A27797EE4FD7F031277DB90F3
:103CC7001291E0B4021D901259E0FF64046004EF02
:103CD700B405107B017A1079B6127323AD077F0301
:033CE700127A311D
:013CEA0022B7
:100026007B017A1279637D2E7C00127188E490122E
:1000360091F0A3F09012597404F07B017A1279635F
:05004600D200023B1C8A
:10545900901291E01460511470030254FF14700308
:105469000255382403600302553DE4901291F0A3DC
:10547900F0901263E0FFA3E0901083CF8024901096
:1054890083E0FEA3E0FFD39400EE9400500302559D
:105499003D901292E004F07C007D0A12097290108E
:1054A90083EEF0A3EFF080D6901263E0FEA3E0FF55
:1054B900901083EEF0A3EFF07B017A107985126BDF
:1054C900EBEFF47002EEF4601E9010B67401F0A3D5
:1054D9007410F0A37485F0A3E4F0A3742EF07B019B
:1054E9007A127963126D0E7B017A12796512732330
:1054F900901292EFF022E4901292F090128FE0FF56
:10550900A3E0901083CF8021901083E0FEA3E0FFF9
:10551900D39400EE9400401C901292E004F07C00B9
:105529007D0A120972901083EEF0A3EFF080D91270
:04553900798FC2188C
:01553D00224B
:0515E700901082EFF0FE
:1015EC00640B600302167F901291E064037062300A
:1015FC0018137B017A1279637D2EFC127188E490AA
:10160C001292F0804CD3901264E09400901263E03C
:10161C0094004037D3901290E0940090128FE09495
:10162C000040287B017A1279631262E4EFF47002B5
:10163C00EEF4600512785F80031278747B017A12E5
:10164C0079637D2E7C001271888003127874D21815
:10165C0022901291E004F0E05403F0125459E490FB
:10166C001260F0A3F0A3F0901291E0640360030207
:10167C0017FD22901082E0B40E15901291E0C394E5
:10168C00045005E004F08022E4901291F0801B904D
:10169C001082E0B40D1A901291E0D394004005E052
:1016AC0014F080069012917402F01254590217F43F
:1016BC00901082E0640A60030217BC901291E0144F
:1016CC0060371470030217861470030217B22403D8
:1016DC0060030217BA901292E0D394004018E01401
:1016EC00F0901263E0FEA3E0FF7C007D0A12097209
:1016FC009012630217A40217C3901261E07002A348
:10170C00E07059901292E0FF2465F582E43412F5F2
:10171C0083E07048EFD39400403A901292E0246535
:10172C00F582E43412F583E4F0901292E014F0E0C8
:10173C00FF2465F582E43412F583E0D39480401CD9
:10174C0074652FF582E43412F583E4F0901292E084
:10175C0014F08008E4901291F0125459901292E017
:10176C00FF2465F582E43412F583E4F074662FF5FA
:10177C0082E43412F583E4F08034901292E0D39436
:10178C0000401CE014F090128FE0FEA3E0FF7C0000
:10179C007D0A12097290128FEEF0A3EFF0800F9079
:1017AC001291E0148004E4901291F0125459803894
:1017BC00901082E0B40F030264B1901082E0646375
:1017CC00702F901291E0B40128A3E02465F582E417
:1017DC003412F583E0601AD394804006901292E0A4
:1017EC0004F0901292E004F0E4901260F0A3F0A3E5
:1017FC00F0901082E0FFC3940050030219BEEFD3A7
:10180C00940940030219BE901291E01460551470B3
:10181C0003021978240260030219BE901292E0C3ED
:10182C009404502F901263E0FEA3E0FF7C007D0A2D
:10183C00120960901263EEF0A3EFF0901082E0FFBB
:10184C00901264E02FF0901263E03400F09012924A
:10185C00E004F0901263E07002A3E060030219BE92
:10186C000219BA901082E0FF90125FE06F60269030
:10187C001292E02465F582E43412F583E06016D30D
:10188C0094804006901292E004F0901292E004F0E2
:10189C00E4901260F0901082E0FF701B901260E0F8
:1018AC0090270993FE901292E02465F582E434129D
:1018BC00F583EEF0021960901292E0FE2466F58238
:1018CC00E43412F583E4F0901260E0FDEF640970EB
:1018DC005AEDC394025009ED2459FF74652E801300
:1018EC00ED64026004EDB40315ED2477FF901292C1
:1018FC00E02465F582E43412F583EFF08056EDB404
:10190C000412901292E02465F582E43412F583748B
:10191C002EF08040ED6405703B901292E02465F54A
:10192C0082E43412F583742CF08029901082E01438
:10193C0075F003A42DFFEDD3940240047E5E80026B
:10194C007E41EF2EFF901292E02465F582E4341272
:10195C00F583EFF0901260E004F0E075F00684E59A
:10196C00F0F0A37403F0A374E8F08046901292E0B8
:10197C00C39403502F90128FE0FEA3E0FF7C007DF8
:10198C000A12096090128FEEF0A3EFF0901082E033
:10199C00FF901290E02FF090128FE03400F0901234
:1019AC0092E004F090128FE07002A3E070049012A9
:1019BC0092F0901082E090125FF07B017A127963C2
:0519CC00D200123B1CDB
:0119D10022F3
:107349007B017A1279637D2E7C00127188E4901298
:1073590091F0A3F09012597405F07B017A127963C8
:05736900C200023B1C04
:05312B00901082EFF09E
:10313000640B600302320E901291E064027026303C
:1031400018137B017A1279637D2EFC127188E4904A
:103150001292F08010901263E0FEA3E0FF12796EED
:10316000D218027889901291E004F0E075F003849F
:10317000AFF0EFF0146046147003023205240260D1
:10318000030232D6E4901292F0901263E0FFA3E0C3
:10319000901083CF8021901083E0FEA3E0FFD394B2
:1031A00000EE94004065901292E004F07C007D0AED
:1031B000120972901083EEF0A3EFF080D9901263A1
:1031C000E0FEA3E0FF7B017A107985126BEBEFF450
:1031D0007002EEF4601E9010B67401F0A37410F04B
:1031E000A37485F0A3E4F0A3742EF07B017A127926
:1031F00063126D0E7B017A1279651273239012921D
:10320000EFF00232D612799FC218220232D6901005
:1032100082E0640A60030232E1901291E0146033AC
:1032200014606F240260030232D6901292E0D394AD
:1032300000401DE014F0901263E0FEA3E0FF7C006C
:103240007D0A120972901263EEF0A3EFF00232D6FB
:103250000232E8E4901291F0A3F0901265F090121F
:1032600063E0FFA3E0901083CF8021901083E0FE05
:10327000A3E0FFD39400EE9400405B901292E00430
:10328000F07C007D0A120972901083EEF0A3EFF03B
:1032900080D9E4901291F0901265F0901263E0FFF3
:1032A000A3E0901083CFF0A3EFF0E4901292F0909F
:1032B0001083E0FEA3E0FFD39400EE94004017904B
:1032C0001292E004F07C007D0A120972901083EEE5
:1032D000F0A3EFF080D9E4901260F0A3F0A3F080A7
:1032E0000A901082E0B40F030264B1901082E0FFF4
:1032F000C394004050EFD39409504A901291E0706B
:1033000044A3E0C39404502F901263E0FEA3E0FFB7
:103310007C007D0A120960901263EEF0A3EFF0903A
:103320001082E0FF901264E02FF0901263E034000E
:10333000F0901292E004F0901263E07002A3E0704B
:1033400004901292F07B017A127963C200123B1C46
:01335000225A
:1077F1009012597406F01275EC7BFF7A277956E4E2
:06780100FD7F010277DBB0
:10778000EF24F6600E24FB600A24047009127A09C3
:077790000278891264B122A6
:1064B1009012597403F01275EC7BFF7A277927E467
:1064C100FDFF1277DB7BFF7A277937E4FD7F01122D
:1064D10077DB7BFF7A277945E4FD7F021277DB7B4F
:1064E100FF7A287930E4FD7F031277DB901109747C
:1064F100FFF0A37457F0A37404F0901244E0FFA3DB
:10650100E090110CCFF0A3EFF07B017A1079B31278
:0F6511001DA87B017A1079B37D067F030277DB2B
:10758900EF24FE601214601224F9601124FB600DCF
:10759900240E700C0200260273490277F1126ECB99
:0175A90022BF
:10754600D3901245E09F901244E09E40147B017A4E
:107556001079831270CD7B017A107983C200123BB9
:017566001C08
:017567002201
:0B519300901083EBF0A3EAF0A3E9F01A
:10519E0090002C120A1ED39400E5F09400500302E6
:1051AE0052821275EC901083E0FBA3E0FAA3E0F9B3
:1051BE0090002C120A1EFFAEF0901252E0FD126803
:1051CE0017901252E0FF7E001279FB901083E0FBE5
:1051DE00A3E0FAA3E02402F9E43AFA127323EF7083
:1051EE00467BFF7A2879AEFD7F011277DB90108324
:1051FE00E0FBA3E0FAA3E0F91209F3FFAEF0D394BB
:10520E0000EE9400406C90110974FFF0A37456F0F8
:10521E00A374FAF0A374FFF0A37428F0A374AEF095
:10522E00A3EEF0A3EF803490110974FFF0A374562F
:10523E00F0A374FFF0A374FFF0A37428F0A374AE70
:10524E00F0901083E0FBA3E0FAA3E02402F9E43A25
:10525E00FA90110FEBF0A3EAF0A3E9F07B017A10BC
:10526E007986121DA87B017A107986E4FD7F0112E2
:05527E0077DBD322C321
:015283002208
:1019D2009010B5EBF0A3EAF0A3E9F0901259E0649D
:1019E2000260147BFF7A577907121DAE900CACE0AF
:1019F2007003021D4280F590120BE4F0A3740FF005
:101A02009010BB74FFF0A37457F0A37433F09010DE
:101A1200B5E0FBA3E0FAA3E0F912509B901081EE2F
:101A2200F0A3EFF0F47002EEF4603AE02402FF90CB
:101A32001081E034009010B68FF01209C79010BBED
:101A420074FFF0A37457F0A37404F0A37401F0A31D
:101A52007410F0A37483F09010B5E0FBA3E0FAA336
:101A6200E0F912246B7BFF7A577936901083E0FFFE
:101A7200A3E0901109CFF0A3EFF0121DAEE4901095
:101A820081F0A3F0901083E0FEA3E0FFC3901082E8
:101A9200E09F901081E09E4003021CEF9010BB7407
:101AA200FFF0A37457F0A3744CF09010B5E0FBA3C1
:101AB200E0FAA3E0F912509B901085EEF0A3EFF04C
:101AC200F47002EEF47003021CD2E02402FF9010C4
:101AD20085E034009010B68FF01209C77B017A10AE
:101AE20079877D2E7C001271889010BB74FFF0A361
:101AF2007457F0A3744FF0A37401F0A37410F0A311
:101B02007487F09010B5E0FBA3E0FAA3E0F9122489
:101B12006B9010BB74FFF0A37457F0A37453F09052
:101B220010B5E0FBA3E0FAA3E0F912509B901085F8
:101B3200EEF0A3EFF0F47002EEF4607BE02402FF1B
:101B4200901085E034009010B68FF01209C7E4902F
:101B52001085F0A3F09010B5E0FBA3E0FAA3E0F942
:101B62001208E6643B603E901085E0FEA3E0FFC3EE
:101B7200942AEE9400502E9010B5A3E475F0011251
:101B820009DDA9F0FA1208E6FD74892FF5827410B6
:101B92003EF583EDF0901086E004F070B890108569
:101BA200E004F080B0901085E0FEA3E02489F58285
:101BB20074103EF583E4F09010BB74FFF0A37457E9
:101BC200F0A37456F09010B5E0FBA3E0FAA3E0F99D
:101BD20012509B901085EEF0A3EFF0F47002EEF439
:101BE2007003021C67E02403FF901085E03400902C
:101BF20010B68FF01209C7E4901085F0A3F0901090
:101C0200B3F0A3F09010B5E0FBA3E0FAA3E0F91261
:101C120008E6FB643B604EC3901086E0940390108C
:101C220085E09400503F9010B3E0FEA3E0FF7C00FB
:101C32007D0A1209609010B3EEF0A3EFF0EB24D00E
:101C4200FFE02FF09010B3E03400F0901086E00433
:101C5200F07006901085E004F09010B6E475F00183
:101C62001209C7809F7B017A1079871262E4901073
:101C720085EEF0FCA3EFF0FD901082E02401FE90CF
:101C82001081E03400901109F0A3CEF0ED2401FEA2
:101C9200E43CA3F0A3CEF0901087E0FFA3E0901104
:101CA2000DCFF0A3EFF0A37401F0A37410F0A374AE
:101CB20089F09010B3E0FFA3E0901112CFF0A3EFF0
:101CC200F07BFF7A57795A121DAE900CACE070FA95
:101CD200901085E0F47003A3E0F46011901082E0AC
:101CE20004F07006901081E004F0021A86901083CE
:101CF200E0FEA3E0FF901081E0B50617A3E0B50770
:101D0200127BFF7A57797C901244E0FFA3E0901196
:101D120009801F7BFF7A57799B901081E0FFA3E037
:101D2200901109CFF0A3EFF0901085E0FFA3E090AF
:101D3200110BCFF0A3EFF0121DAE900CACE070FAD5
:011D4200227E
:10793900AD071FED600BE4FEEEC3946E50F20E80AE
:01794900F746
:01794A00221A
:10780700D2ED0000000000D2EE0000000000C2ED43
:0678170000000000002249
:10781D00C2ED0000000000D2EE0000000000D2ED2D
:06782D0000000000002233
:08736E001278077FA0126E9255
:10737600E4FFD2EE000000000030ED09EFC394FAFE
:0C73860050030F80F4C2EE000000000075
:0173920022D8
:10008E00D2EDC2EE0000000000D2EE000000000033
:05009E00C2EEC2ED22DC
:1078EE00C2EDC2EE0000000000D2EE00000000006B
:0378FE00C2EE22B5
:106E9200E4FEC2EE0000000000EF30E703D3800101
:106EA200C392EDEF25E0FF0000000000D2EE0000EB
:106EB200000000C2EE0EEEB408D8C2EE00000000E0
:086EC20000D2ED000000000009
:016ECA0022A5
:10715A00C2EE0000000000D2ED0000000000E4FED4
:10716A00D2EE0000000000EF25E0FFA2EDE4334F6D
:0D717A00FFC2EE00000000000EEEB408E3BE
:0171870022E5
:10615C009010E6EEF0A3EFF0A3EBF0A3EAF0A3E9C6
:10616C00F0C2EF80559010EB74FFF5F01209DD458D
:10617C00F060609010E8E0FBA3E475F0011209DD1B
:10618C00A9F0FA1208E6FF126E921273769010E7DD
:10619C00E004F070069010E6E004F09010E7E05494
:1061AC003F70C2D39010ECE094009010EBE09400A0
:1061BC0040B312781D7F6412793912736E9010E619
:1061CC00E0FF126E92127376A3E0FF126E921273BE
:0B61DC0076809212781D7F64027939F2
:04687A00AD07AC06B4
:10687E0012736EECFF126E92127376AF05126E9259
:10688E001273761278077FA1126E92127376D390DE
:10689E0010ECE094019010EBE09400401FA3E02474
:1068AE00FFF09010EBE034FFF012715AEF12092C4A
:1068BE001278EE740129F9E43AFA80D212715AEF85
:0E68CE0012092C12008E12781D9010EDE0FFC2
:0168DC002299
:105FB30052696E674F757454733A202562640D0AF3
:105FC30000546F6E65456E3A202562640D0A0043E6
:105FD300616D6572614F6E3A202562640D0A00524D
:105FE30065616C7954696D653A202562640D0A0018
:105FF3004E616D65436F756E743A2025750D0A0009
:10600300507377436F756E743A2025750D0A0043FC
:10601300617264436F756E743A2025750D0A0054DE
:10602300616C6B566F6C756D3A202562640D0A00C6
:0F6033002573257500257300257325002575003D
:1039A7004112590148124200000000000000004285
:1039B7001257FFFF42120B000041123B0641125AF9
:1039C7000042123C000041123F0044125B0000001D
:0A39D7000041123E04421240012C90
:104C6C007B017A12794A9010EBE4F0A3740DF0E416
:104C7C00FFFE12687A90124AE0B45A08A3E0B469B5
:104C8C000330003D90124A745AF0A37469F09012EC
:104C9C00527402F0A314F0E4A3F0A3740AF0A3740A
:104CAC0004F090124C120C16000A2C2A7B017A127A
:104CBC00794A9010EBE4F0A3740DF0E4FFFE12615E
:104CCC005C7BFF7A5F79B3901252E0901109F0127D
:104CDC001DAE7BFF7A5F79C4901253E0901109F0FE
:104CEC00121DAE7BFF7A5F79D2901254E0901109BD
:104CFC00F0121DAE7BFF7A5F79E2901255E09011B5
:104D0C0009F0121DAE7BFF7A5F79F3901244E0FF3D
:104D1C00A3E0901109CFF0A3EFF0121DAE7BFF7A48
:104D2C00607903901246E0FFA3E0901109CFF0A345
:104D3C00EFF0121DAE7BFF7A607912901248E0FF03
:104D4C00A3E0901109CFF0A3EFF0121DAE7BFF7A18
:104D5C00607922901256E0901109F0121DAE90125B
:104D6C0056E0D3940540037403F0901256E0901271
:0E4D7C003BF0901254E06003D2C222C2C22269
:106940007B017A1279429010EBE4F0A37408F07F97
:10695000807E0012687A901242E0645A7004A3E0CC
:106960006469602C901242745AF0A37469F0E4A335
:10697000F0A3F0A3F0A3F0A3F0A3F07B017A1279C7
:10698000429010EBF0A37408F07F807E0012615CEF
:096990001278DB1279010279147E
:10699900ED24FE6017146027240270327C007D2EDE
:1069A900120960E42FFF74013EFE8022EF7802C3D2
:1069B90033CE33CED8F924F0FF74243EFE800F7C09
:1069C900007D0612096074182FFF74253EFE7B01B5
:1069D9007A1079C49010EBE4F0A37402F012687A8B
:0869E9009010C4E0FEA3E0FFE2
:0169F1002283
:0B61E7009010BDEEF0A3EFF0A3EDF070
:1061F200E4A3F0A3F0ED24FE600C14600E24027000
:106202001990124480089012468003901248E0FFD1
:10621200A3E09010C2CFF0A3EFF09010C2E0FCA375
:10622200E0FD9010C0E0FEA3E0FFC39DEE9C503560
:106232009010BFE0FD1269999010BDE0B5060EA363
:10624200E0B507099010C0E0FEA3E0FF22EFF47072
:1062520002EEF460109010C1E004F070BD9010C026
:09626200E004F080B57EFF7FFF2F
:01626B002210
:1076CE009012597401F074FF901257F0A3F0E490E9
:0A76DE00120BF0A3F07F0102553EED
:106ECB009012597402F01275EC7BFF7A2779127DC0
:106EDB00017F011277DB7BFF7A2779227D017F030C
:106EEB001277DB7B037D067F03127927E490123C3C
:086EFB00F0A3F090123FF02219
:1066DC001275EC7BFF7A27796DE4FD7F011277DB75
:1066EC0090123CE0FEA3E0FFD39400EE94009011D6
:1066FC000974FF401CF0A37460F0A37433F0A3740E
:10670C00FFF0A37427F0A3746DF0A3EEF0A3EF8059
:10671C0014F0A37460F0A37438F0A374FFF0A374A6
:10672C0027F0A3746DF07B017A107983121DA87B7E
:0C673C00017A107983E4FD7F010277DB15
:1070FD009012597407F07E0090123CEEF0A3EFF061
:10710D0090123F7401F0EF7001F01266DC7B017A92
:0F711D0012790D7D2E7C001271887F0F025CBCF1
:104E9600901082EFF024F6607C24FB6003024F49F9
:104EA60090123CE0FEA3E0FFD39400EE940040474E
:104EB6007B017A12790D126BEBEFF47002EEF4605F
:104EC60036E490125AF07B017A12790D1251935002
:104ED600199012597413F07F0C125CBC901252E0B8
:104EE600FF9012B1E4F0A3EFF02212787490120B47
:104EF600E4F0A37403F0221279AF7F04125CBC9035
:104F0600120BE4F0A37403F0E490123CF0A3F090CB
:104F1600123FF0802E90123FE0D39400401FE01421
:104F2600F090123CE0FEA3E0FF7C007D0A120972BD
:104F360090123CEEF0A3EFF01266DC8006126F6F63
:104F46001276CE901082E0FFC394004049EFD394CE
:104F560009504390123FE0C39404503AE004F090A5
:104F6600123CE0FEA3E0FF7C007D0A12096090126D
:104F76003CEEF0A3EFF0901082E0FF90123DE02FA0
:104F8600F090123CE03400F0E07002A3E070049070
:074F9600123FF01266DC225D
:065ACD0090125B120C0AAE
:105AD3001275EC901259E0B40E0D7BFF7A287937DA
:105AE300E4FD7F011277DB90110974FFF0A374606A
:105AF300F0A3743BF0A374FFF0A37428F0A3741411
:105B0300F07B017A107983121DA8E49010A1F09024
:105B1300123FE0FF9010A1E0C39F50227BFF7A2841
:105B230079141273239010A1E02F2483F582E434B7
:105B330010F583742AF09010A1E004F080D17BFF6C
:105B43007A2879141273239010A1E02F2483F5820D
:105B5300E43410F583E4F07B017A107983FD7F024E
:105B63001277DB7B017A107983127323AD077F02EF
:035B7300027A3182
:10762600901259740EF090125B120C1600000000B6
:0D763600E490123FF0125AD37F02025CBCB8
:104F9D00901082EFF024F6606724FB700302503509
:104FAD002404600302503BE4FFFEFDFC90125BE025
:104FBD00F8A3E0F9A3E0FAA3E0FBD3120B734027AB
:104FCD0090123FE0B4062090124CE0FCA3E0FDA34C
:104FDD00E0FEA3E0FF90125BE0F8A3A3A3E0C312F1
:104FED000B737003026ECB1278747F05125CBC904C
:104FFD00125B120C1600000000E490123FF0802EA0
:10500D0090123FE0D39400401FE014F090125BE04B
:10501D00FCA3E0FDA3E0FEA3E0FFE47B0AFAF9F8B0
:10502D00120AE1125ACD8006126F6F1276CE9010D1
:10503D0082E0FFC394004055EFD39409504F901276
:10504D003FE0C394065046E004F090125BE0FCA3F1
:10505D00E0FDA3E0FEA3E0FFE47B0AFAF9F8120AF3
:10506D005690125B120C0A90125BE0F8A3E0F9A3C4
:10507D00E0FAA3E0FB901082E0FFE4FCFDFEEB2FD5
:0E508D00FFEE3AFEED39FDEC38FC125ACD2252
:10479E00901082EFF024F5601C14601F1460221438
:1047AE00605E147003024874240560030248D01240
:1047BE0076CE0248D01274960248D012762602485F
:1047CE00D0901244E0FEA3E0FFD39400EE9400508C
:1047DE00030248D0EF24FFFFEE34FFFEC3901258C1
:1047EE00E09F901257E09E500EA3E004F0706A9086
:1047FE001257E004F08062E4901257F0A3F0805953
:10480E00901244E0FEA3E0FFD39400EE9400500318
:10481E000248D0901257E0FCA3E0FD9FEC9E50257D
:10482E00ED9400EC9400400DE024FFF0901257E060
:10483E0034FFF08024EF24FFFFEE34FF901257F088
:10484E00A3EFF08014901245E024FFFE901244E096
:10485E0034FF901257F0A3CEF0901257E0FEA3E073
:10486E00FF127546805C901244E0FCA3E0FD9012AE
:10487E0057E0FEA3E0FFC39DEE9C5041E490125A18
:10488E00F07B017A12790D1270CD7B017A12790DBF
:10489E00125193501A9012597413F07F0C125CBC83
:1048AE00901252E0FF9012B1E4F0A3EFF0801312D9
:1048BE00787490120BE4F0A37403F08005E4FF12F9
:1048CE0070FD901082E0FFD394004009EFD394095D
:0648DE0050031270FD22E0
:1057D700901082EFF0C39400405EE0FBD394095031
:1057E7005790123FE0C39402503AE004F090123C05
:1057F700E0FEA3E0FF7C007D0A12096090123CEEF8
:10580700F0A3EFF0EBFF7E00E02FF090123CE03EBC
:10581700F0D3A3E0940D90123CE09400500302589B
:10582700A5EE8009901082E0FF90123CE4F0A3EF10
:10583700F090123F7401F022901082E0B40F0280C2
:1058470007901082E0B40A030276CE901082E064DB
:105857000B704B90123CE0FEA3E0FFC39404EE9460
:1058670000400EEF940CEE94005006EF2411FF80D9
:105877002A90123CE0FEA3E0FFEE7022EF146010C6
:1058870014601014601024F6600F04701102740283
:0F5897000264B102658F02666D7F1D1258A62252
:0C000E00EF24F67006127A421276CE2221
:1041FF001275EC901259E024E860331470030242F8
:10420F008D24FD60441470030242A824066003024B
:10421F0042CB90110974FFF0A37460F0A37438F0CF
:10422F00A374FFF0A37428F0A374C20242C19011CB
:10423F000974FFF0A37460F0A37438F0A374FFF057
:10424F00A37428F0A374D7806990110974FFF0A3A9
:10425F007460F0A37438F0A374FFF0A37428F0A374
:10426F0074F5F07B017A107983121DA890123CE04F
:10427F007002A3E06004D2C28042C2C2803E90119D
:10428F000974FFF0A37460F0A37438F0A374FFF007
:10429F00A37428F0A374FD801990110974FFF0A383
:1042AF007460F0A37438F0A374FFF0A37429F0A323
:1042BF0074D9F07B017A107983121DA8901259E0FE
:1042CF006418702A7B017A107983FD7F011277DBE6
:1042DF0090123CE07004A3E064017BFF70067A2922
:1042EF00791480047A2979177D067F03807E9012D6
:1042FF0059E0641C702A7B017A107983FD7F0112CB
:10430F0077DB90123CE07004A3E064017BFF700642
:10431F007A29791480047A2979177D067F02804CD7
:10432F007B017A107983E4FD7F011277DB90123CD9
:10433F00E0FEA3E0FFD39400EE94004032901259B8
:10434F00E0641C602A90110974FFF0A37460F0A35D
:10435F00743FF0A3EEF0A3EFF07B017A1079831294
:0F436F001DA87B017A1079837D087F021277DB0E
:01437E00221C
:1058A600EF24E8602514604824FD60311460552417
:1058B60006600302596B90123E7402F0901240E4A7
:1058C600F0A3745AF0901252804C90123E7401F07C
:1058D600901240E4F0A304F0901253803990123EE7
:1058E6007401F0901240E4F0A304F0901254802664
:1058F60090123E7402F0901240E4F0A37463F090AC
:105906001255801290123E7401F0901240E4F0A3FA
:105916007405F0901256E0FD90123CE4F0A3EDF011
:10592600901259EFF0E490123FF090123CE0FEA383
:10593600E0FFD3EF9400EE9400400F90123FE00496
:10594600F07C007D0A12097280E8901259E0FF642B
:10595600186009EF641C6004EFB41D0690123F74D2
:0559660001F01241FFF9
:01596B002219
:10528400901083ECF0A3EDF0EF24E8603014607B21
:1052940024FD605014700302533624066003025345
:1052A4006E901083A3E0901252F0C37452944AFF9C
:1052B40074129412FE7B017A1279528068901083E2
:1052C400E07002A3E07003FF80027F01901253EFAD
:1052D400F0C37453944AFF74129412FE7B017A1241
:1052E40079538041901083E07002A3E07003FF8043
:1052F400027F01901254EFF0C37454944AFF741265
:105304009412FE7B017A127954801A901083A3E0E0
:10531400901255F0C37455944AFF74129412FE7B94
:10532400017A1279559010EBE4F0A304F012615C59
:105334008038901083E0FEA3E0FFD39400EE940045
:105344004028901256EFF07456944AFF7412941247
:10535400FE7B017A1279569010EBE4F0A304F0126C
:0D536400615C901256E090123BF002785F01
:1044FC00901082EFF090123FE0B46302807690103F
:10450C0082E024F5604E24FC60482405706990120A
:10451C0059E0FF6418600BEF641C600690123FE0DA
:10452C00700E901254E06004D2C28002C2C2804469
:10453C0090123FE014F090123CE0FEA3E0FF7C00F0
:10454C007D0A12097290123CEEF0A3EFF01241FFBB
:10455C008025802090123FE0D39400401790125990
:10456C00E0FF90123CE0FCA3E0FD12528490123F5D
:10457C007463F022026ECB901082E0FFC394005063
:10458C000302464DEFD39409400302464D90125955
:10459C00E0FF64186004EFB41C1290123F7401F039
:1045AC00901082E0FF90123CE4024649901259E0D0
:1045BC00B41D27901082E0FFD39400500302464DA7
:1045CC007E00901241E09F901240E09E407390124A
:1045DC003F7401F090123C14806390123EE0FFA3F4
:1045EC00E0C39F505C90123CE0FEA3E0FF7C007D9A
:1045FC000A120960901240E0FCA3E0FDC39FEC9E00
:10460C00403F90123FE004F090123CEEF0A3EFF02C
:10461C00901082E0F92FFFE43EFEC3ED9FEC9E402C
:10462C0011E9FF90123DE02FF090123CE03400F0C5
:10463C00800F901240E0FFA3E090123CCFF0A3EF6C
:05464C00F01241FF2205
:10437F00901081EFF090120BE4F0A3741EF09012E6
:10438F0059E014B41D0040030244CC9043A875F0CB
:10439F0003A4C58325F0C583730243FF02440A02B9
:1043AF00441502442002442B024436024474024452
:1043BF004102444C02445602446002446A0244885B
:1043CF0002447E0244A60244B00244BA0244C4022C
:1043DF0044920244920244CC0244CC02449C0244D4
:1043EF009C02449C0244CC0244CC02449C02449C58
:1043FF00901081E0FF12479E0244CC901081E0FFA5
:10440F001257D70244CC901081E0FF1275890244F5
:10441F00CC901081E0FF1215E70244CC901081E0A0
:10442F00FF12312B0244CC901081E0FF12778002F3
:10443F0044CC901081E0FF1275AA0244CC901081F9
:10444F00E0FF1211C28076901081E0FF124055807C
:10445F006C901081E0FF1277978062901081E0FFDF
:10446F001248E48058901081E0FF124E96804E90D3
:10447F001081E0FF124F9D8044901081E0FF1229C0
:10448F00EF803A901081E0FF12000E803090108183
:10449F00E0FF1244FC8026901081E0FF1275CB8064
:1044AF001C901081E0FF123EA38012901081E0FF5C
:1044BF00123CEB8008901081E0FF1277AED3901280
:1044CF000CE0940A90120BE094004020901259E0F7
:1044DF00FF640E600EEF640C6009EF64076004EF79
:0D44EF00B4010990120BE4F0A3740AF0224E
:1067B300901081EBF0A3EAF0A3E9F0901259E024E2
:1067C300F1605024FE60071460492402700E90109B
:1067D30081E0FBA3E0FAA3E0F9026E57901081E099
:1067E300FBA3E0FAA3E0F9125C1CEFF47002EEF4F1
:1067F3006007D20012795D800312789E901259E0EF
:10680300FF6414600EEF6413600990120BE4F0A3AD
:046813007403F022F8
:1076E800436865636B5073773A25750D0A002573F7
:0A76F8002575002573250025750097
:0E39E1004112BD004112BE00C10EC10FC11047
:1074DD00C374469442FF74129412CF2480CF3400AB
:1074ED00FE7B017A1279469010EBE4F0A37402F062
:0374FD0002615CCD
:0A7A1300E4901246F0A3F00274DDC7
:10790100D3901247E0940A901246E094004003128B
:037911007A1322C4
:0B728600901089E0FBA3E0FAA3E0F900
:10729100EF7802C333CE33CED8F924F0FFEE342495
:0D72A100FE9010EBE4F0A37404F002615CB9
:10764300EF7802C333CE33CED8F924F0FFEE3424DF
:0D765300FE9010EBE4F0A37404F002687ADE
:0B6C34009012CCEBF0A3EAF0A3E9F013
:106C3F0074FFA3F0A3F07D021261E79012CFEEF084
:106C4F00A3EFF0F47002EEF4601F9012CFE0FEA3FA
:106C5F00E0FF9012CCE0FBA3E0FAA3E0F912764339
:0D6C6F009012CFE0FEA3E0FF227EFF7FFF2A
:016C7C0022F5
:08626C00901083EEF0A3EFF0A7
:10627400E4A3F0A3F07BFF7A7679E8901109EEF0BD
:10628400A3EFF0121DAE901246E07002A3E070027C
:10629400C322E4901085F0A3F0901246E0FCA3E042
:1062A400FD901085E0FEA3E0FFC39DEE9C502F7B84
:1062B400017A107987127643901083E0FEA3E0FF01
:1062C400901089E0B50607A3E0B50702D322901029
:0F62D40086E004F070C3901085E004F080BBC337
:0162E3002298
:0B635B00901089EBF0A3EAF0A3E9F03A
:1063660074FFA3F0A3F01209F3FFAEF07D021261F1
:10637600E790108CEEF0A3EFF0F47002EEF46014E8
:1063860090108CE0FEA3E0FF12728690108CE0FE67
:10639600A3E0FF22901246E0FEA3E0FFC3940AEEBC
:1063A60094005023127286901247E004F070069013
:1063B6001246E004F01274DD901247E024FFFF90CD
:0B63C6001246E034FFFE227EFF7FFF46
:0163D10022A9
:08652000901087EEF0A3EFF0EC
:10652800901246E0FCA3E0FDD39FEC9E4058ED247A
:10653800FFFFEC34FFFE901087E0B50616A3E0B528
:106548000711901247E024FFF0901246E034FFF064
:106558000274DD901247E024FFF0901246E034FF09
:10656800F01274DD901246E0FEA3E0FF7B017A1082
:106578007989127643901087E0FEA3E0FF7B017AC9
:06658800107989127291E6
:01658E0022EA
:08739300901085EEF0A3EFF06D
:10739B008013EFF47002EEF46012126520901085EA
:0C73AB00E0FEA3E0FF7D021261E780E637
:0173B70022B3
:0820A8007B017A1279B3D2002A
:0B20B000901089EBF0A3EAF0A3E9F028
:1020BB001275EC901259E0B40D0F7BFF7A2879372B
:1020CB00E4FDFF1277DB02216A901259E0FF640DE9
:1020DB00700302216AEF640C700302216A9010896D
:1020EB00E0FBA3E0FAA3E0F91209F3D39400E5F0C7
:1020FB0094007BFF7A2979E8E4FDFF40491277DBF6
:10210B0090110974FFF0A37476F0A374F6F0A37426
:10211B00FFF0A37429F0A374E8F0901089E0FBA3FF
:10212B00E0FAA3E0F91209F3FF90110FE5F0F0A329
:10213B00EFF07B017A10798C121DA87B017A107954
:10214B008CE4FDFF80001277DB9012BDE070107BFA
:10215B00017A10798C127323AD07E4FF127A3120C8
:10216B0000030223E1901089E0FBA3E0FAA3E0F95E
:10217B00900002120BAAE4FBFAF9F8C3120B73409E
:10218B000302226490110974FFF0A37476F0A37418
:10219B00FBF0A374FFF0A37428F0A37414F00B7A74
:1021AB0010798C121DA89012B5E0FCA3E0FDA3E002
:1021BB00FEA3E0FF9010A1120C0AE49010A0F0E433
:1021CB00FFFEFDFC9010A1E0F8A3E0F9A3E0FAA359
:1021DB00E0FBD3120B73403F7BFF7A287914127309
:1021EB00239010A0E02F248CF582E43410F5837437
:1021FB002AF09010A1E0FCA3E0FDA3E0FEA3E0FF1A
:10220B00E47B0AFAF9F8120AE19010A1120C0A9079
:10221B0010A0E004F080A87BFF7A287914127323B6
:10222B009010A0E02F248CF582E43410F583E4F0B9
:10223B007B017A10798CFD7F011277DB901259E0CC
:10224B00640D60047F0180027F009012BDE06F700F
:10225B003A7B017A10798C80287BFF7A287914E4F9
:10226B00FD7F011277DB901259E0640D60047F0152
:10227B0080027F009012BDE0B507107BFF7A2879B2
:10228B0014127323AD077F01127A31901259E06457
:10229B000C70030223E1901089E0FBA3E0FAA3E0AA
:1022AB00F9900006120BAAE4FBFAF9F8C3120B73B0
:1022BB0040030223A290110974FFF0A37476F0A3DC
:1022CB0074FBF0A374FFF0A37428F0A37426F00B37
:1022DB007A10798C121DA89012B9E0FCA3E0FDA333
:1022EB00E0FEA3E0FF9010A1120C0AE49010A0F006
:1022FB00E4FFFEFDFC9010A1E0F8A3E0F9A3E0FAE7
:10230B00A3E0FBD3120B73403F7BFF7A2879261295
:10231B0073239010A0E02F248CF582E43410F58306
:10232B00742AF09010A1E0FCA3E0FDA3E0FEA3E073
:10233B00FFE47B0AFAF9F8120AE19010A1120C0AD9
:10234B009010A0E004F080A87BFF7A287926127306
:10235B00239010A0E02F248CF582E43410F583E455
:10236B00F07BFF7A28791EFD7F021277DB7B017AE7
:10237B0010798CE4FD7F031277DB901259E0640D2A
:10238B0060047F0280027F019012BDE06F70477B7B
:10239B00017A10798C80357BFF7A287926E4FD7FD2
:1023AB00031277DB7BFF7A28791EE4FD7F0212771D
:1023BB00DB901259E0640D60047F0280027F019074
:1023CB0012BDE0B507107BFF7A287926127323AD77
:0623DB00077F03127A31B6
:0123E10022D9
:1073B8007B017A1279B37D0A7C00127188E49012FD
:1073C800BDF0A3F09012597409F07B017A1279B3D9
:0573D800D2000220B00C
:0511C200901082EFF027
:1011C700640B600302130F9012BDE0640360030217
:1011D7001297300E147B017A1279B37D0AFC1271D3
:1011E70088E49012BEF0021297D39012B4E09400F4
:1011F7009012B3E094005003021294E4FFFEFDFC4A
:101207009012B5E0F8A3E0F9A3E0FAA3E0FB120B14
:1012170073607A9012B9E0FCA3E0FDA3E0FEA3E0BF
:10122700FF9012B5E0F8A3A3A3E0C3120B73705DA0
:101237009012B3E0FFA3E0901085CFF0A3EFF090FA
:1012470012B5A3A3E0FFA3E0901087CFF0A3EFF0C0
:101257007B017A10798512635BEFF47002EEF4601C
:101267000512785F80031278747B017A1279B37D57
:101277000A7C00127188D20E9012B5120C1600006B
:1012870000009012B9120C160000000022027874B8
:101297009012BDE004F0E05403FFF0E4A3F0EF1474
:1012A700604914604B14605A24036003021475E408
:1012B7009012BDF09012B3E0FFA3E0901083CF80AF
:1012C70024901083E0FEA3E0FFD39400EE94005037
:1012D700030214759012BEE004F07C007D0A120927
:1012E70072901083EEF0A3EFF080D69012B58003D2
:1012F7009012B9120C1600000000E49012BEF00222
:10130700147512798FC20E22901082E0640A60036E
:1013170002146B9012BDE014603C1470030213C5F5
:10132700147003021430240360030214759012BE74
:10133700E0D39400401DE014F09012B3E0FEA3E068
:10134700FF7C007D0A1209729012B3EEF0A3EFF052
:101357000214750214729012BEE0D39400401FE08D
:1013670014F09012B5E0FCA3E0FDA3E0FEA3E0FFBC
:10137700E47B0AFAF9F8120AE19012B58066901236
:10138700BDE014F0E4A3F09012B3E0FFA3E09010E7
:1013970083CF8024901083E0FEA3E0FFD39400EE78
:1013A700940050030214759012BEE004F07C007D97
:1013B7000A120972901083EEF0A3EFF080D6901214
:1013C700BEE0D394004023E014F09012B9E0FCA3F0
:1013D700E0FDA3E0FEA3E0FFE47B0AFAF9F8120AB6
:1013E700E19012B9120C0A0214759012BDE014F0C4
:1013F700E4A3F09012B5A3A3E0FFA3E0901083CF7E
:101407008021901083E0FEA3E0FFD39400EE9400C8
:10141700405C9012BEE004F07C007D0A12097290D5
:101427001083EEF0A3EFF080D9E49012BDF0A3F0A3
:101437009012B3E0FFA3E0901083CF802190108338
:10144700E0FEA3E0FFD39400EE940040219012BE8B
:10145700E004F07C007D0A120972901083EEF0A37D
:10146700EFF080D9901082E0B40F0302658F9010DF
:1014770082E0FFC3940050030215E3EFD3940940C1
:10148700030215E39012BDE014606F147003021598
:1014970071240260030215E39012BEE0C394045066
:1014A700499012B3E0FEA3E0FF7C007D0A120960B9
:1014B7009012B3EEF0A3EFF0901082E0FF7E009061
:1014C70012B4E02FF09012B3E03EF09012BEE004A9
:1014D700F0D39012B4E0940A9012B3E09400400A5B
:1014E700EEF0A3EFF0E49012BEF09012B3E07002BA
:1014F700A3E060030215E30215DF9012BEE0C39478
:1015070004504C9012B5E0FCA3E0FDA3E0FEA3E07D
:10151700FFE47B0AFAF9F8120A569012B5120C0A80
:101527009012B5E0F8A3E0F9A3E0FAA3E0FB90106E
:1015370082E0FFE4FCFDFEEB2FFFEE3AFEED39FD06
:10154700EC38FC9012B5120C0A9012BEE004F0E4DD
:10155700FFFEFDFC9012B5E0F8A3E0F9A3E0FAA3C3
:10156700E0FBC3120B737074806E9012BEE0C394DD
:1015770004504C9012B9E0FCA3E0FDA3E0FEA3E009
:10158700FFE47B0AFAF9F8120A569012B9120C0A0C
:101597009012B9E0F8A3E0F9A3E0FAA3E0FB9010FA
:1015A70082E0FFE4FCFDFEEB2FFFEE3AFEED39FD96
:1015B700EC38FC9012B9120C0A9012BEE004F0E469
:1015C700FFFEFDFC9012B9E0F8A3E0F9A3E0FAA34F
:0F15D700E0FBC3120B7370049012BEF01220A839
:0115E60022E2
:1073DD007B017A1279B37D0A7C00127188E49012D8
:1073ED00BDF0A3F0901259740AF07B017A1279B3B3
:0573FD00C2000220B0F7
:05405500901082EFF065
:10405A00640B60030241019012BDE06401703E30BE
:10406A000F137B017A1279B37D0AFC127188E490EE
:10407A0012BEF080289012B3E0FEA3E0FFD39400B2
:10408A00EE940050030241FE1273937B017A127977
:10409A00B37D0A7C00127188D20F0278899012BD12
:1040AA00E004F0E05401FFF0E4A3F0EF14604204EE
:1040BA00600302417DE49012BEF09012B3E0FFA3C8
:1040CA00E0901083CF8024901083E0FEA3E0FFD31A
:1040DA009400EE9400500302417D9012BEE004F079
:1040EA007C007D0A120972901083EEF0A3EFF08033
:1040FA00D612799FC20F22901082E0640A706A90E9
:10410A0012BDE014602804706A9012BEE0D39400D5
:10411A00405EE014F09012B3E0FEA3E0FF7C007D65
:10412A000A1209729012B3EEF0A3EFF08045E49000
:10413A0012BDF0A3F09012B3E0FFA3E0901083CF7A
:10414A008021901083E0FEA3E0FFD39400EE940058
:10415A0040219012BEE004F07C007D0A12097290A0
:10416A001083EEF0A3EFF080D9901082E0B40F0331
:10417A0002658F901082E0FFC39400406CEFD394E5
:10418A000950669012BDE070609012BEE0C39404BC
:10419A0050499012B3E0FEA3E0FF7C007D0A1209A9
:1041AA00609012B3EEF0A3EFF0901082E0FF7E0071
:1041BA009012B4E02FF09012B3E03EF09012BEE0FD
:1041CA0004F0D39012B4E0940A9012B3E094004041
:1041DA000AEEF0A3EFF0E49012BEF09012B3E07092
:1041EA0002A3E070049012BEF07B017A1279B3C286
:0441FA00001220B0DF
:0141FE00229E
:10783300901259740BF01275EC7BFF7A2779C9E427
:06784300FD7F010277DB6E
:10779700EF24F6600E24FB600A24047009127A13A2
:0777A70002788912658F22B0
:10658F009012597408F01275EC7BFF7A2779E4E4C6
:10659F00FDFF1277DB7BFF7A2779F5E4FD7F011290
:1065AF0077DB7BFF7A287906E4FD7F021277DB7BAE
:1065BF00FF7A287930E4FD7F031277DB901109749D
:1065CF00FFF0A37476F0A374FFF0901246E0FFA3E0
:1065DF00E090110CCFF0A3EFF07B017A10798912C4
:0F65EF001DA87B017A1079897D067F030277DB77
:1075AA00EF24FE601214601224F9601124FB600DAE
:1075BA00240E700C0273B80273DD027833126ECB9C
:0175CA00229E
:107496007B017A1279B37D0A7C001271889012BD45
:1074A6007401F0E4A3F0901259740CF01220A87F36
:0474B60002025CBCB6
:1048E400901082EFF0640A70329012BDE0147038B8
:1048F4009012BEE0D394004029E014F09012B5E089
:10490400FCA3E0FDA3E0FEA3E0FFE47B0AFAF9F8D0
:10491400120AE19012B5120C0A800D901082E0B4D4
:104924000F061276CE026F6F901082E0FFC39400E0
:104934005003024A24EFD394094003024A249012FC
:10494400BDE0146003024A249012BEE0C3940450F4
:104954004C9012B5E0FCA3E0FDA3E0FEA3E0FFE46D
:104964007B0AFAF9F8120A569012B5120C0A901240
:10497400B5E0F8A3E0F9A3E0FAA3E0FB901082E02D
:10498400FFE4FCFDFEEB2FFFEE3AFEED39FDEC38C3
:10499400FC9012B5120C0A9012BEE004F0E4FFFE83
:1049A400FDFC9012B5E0F8A3E0F9A3E0FAA3E0FB64
:1049B400C3120B7370049012BEF09012BEE0640434
:1049C400705E9012B5A3A3E0FEA3E0FF12626C50E8
:1049D40029D20012795D90120BE4F0A37403F090D5
:1049E40012B5120C1600000000E49012B3F0A3F00C
:1049F4009012BEF09012BD04F0229012B5120C1663
:104A040000000000E49012BEF09012BD04F0127891
:104A1400747F05125CBC90120BE4F0A37405F022C1
:044A24001220A82292
:107402007B017A1279B37D0A7C00127188E49012B2
:10741200BDF0A3F0901259740DF07B017A1279B38A
:05742200D2000220B0C1
:10766000C3744C944AFF74129412FE7B017A12790F
:0D7670004C9010EBE4F0A37404F002615C98
:0529EF00901082EFF0E2
:1029F400640B6003022AF59012BDE06402600302D6
:102A04002AA83010147B017A1279B37D0AFC127162
:102A140088E49012BEF0022AA8E4FFFEFDFC9012A6
:102A2400B5E0F8A3E0F9A3E0FAA3E0FBC3120B734B
:102A3400605B9012B9E0FCA3E0FDA3E0FEA3E0FF1D
:102A44009012B5E0F8A3A3A3E0C3120B73703E90F9
:102A540012B5E0FCA3E0FDA3E0FEA3E0FF90124C5E
:102A6400120C0A12766012785F7B017A1279B37DB8
:102A74000A7C00127188D2109012B5120C16000054
:102A840000009012B9120C1600000000229012B53A
:102A9400120C16000000009012B9120C160000006F
:102AA400000278749012BDE0B40109A3E0640660EA
:102AB40003022CAF9012BDE004F0E075F00384AF84
:102AC400F0EFF0E4A3F0EF14600F14601E24026032
:102AD40003022BA79012B580039012B9120C1600B2
:102AE400000000E49012BEF0022BA712798FC210EE
:102AF40022901082E0640A6003022B9D9012BDE0D4
:102B0400146037147003022B9424026003022BA771
:102B14009012BEE0D39400401FE014F09012B5E090
:102B2400FCA3E0FDA3E0FEA3E0FFE47B0AFAF9F8CE
:102B3400120AE19012B5802880669012BEE0D39408
:102B4400004022E014F09012B9E0FCA3E0FDA3E001
:102B5400FEA3E0FFE47B0AFAF9F8120AE19012B945
:102B6400120C0A803E9012BDE014F0E4A3F090121F
:102B7400B5A3A3E0FEA3E0FFD3EF9400EE940040DE
:102B8400229012BEE004F07C007D0A12097280E8F3
:102B9400E49012BDF0A3F0800A901082E0B40F0319
:102BA400026ECB901082E0FFC394005003022CAC61
:102BB400EFD394094003022CAC9012BDE01460766C
:102BC400046003022CAC9012BEE0C39406504C90F7
:102BD40012B5E0FCA3E0FDA3E0FEA3E0FFE47B0A62
:102BE400FAF9F8120A569012B5120C0A9012B5E0CE
:102BF400F8A3E0F9A3E0FAA3E0FB901082E0FFE47D
:102C0400FCFDFEEB2FFFEE3AFEED39FDEC38FC90B7
:102C140012B5120C0A9012BEE004F0E4FFFEFDFCB3
:102C24009012B5E0F8A3E0F9A3E0FAA3E0FBC31225
:102C34000B737074806E9012BEE0C39406504C9077
:102C440012B9E0FCA3E0FDA3E0FEA3E0FFE47B0AED
:102C5400FAF9F8120A569012B9120C0A9012B9E055
:102C6400F8A3E0F9A3E0FAA3E0FB901082E0FFE40C
:102C7400FCFDFEEB2FFFEE3AFEED39FDEC38FC9047
:102C840012B9120C0A9012BEE004F0E4FFFEFDFC3F
:102C94009012B9E0F8A3E0F9A3E0FAA3E0FBC312B1
:0B2CA4000B7370049012BEF01220A809
:012CAF002202
:1027040025732575002D222F3A2829275F00537938
:102714007374656D2073657474696E677300312D0D
:10272400313300312D4164642F456469742075731D
:10273400657200322D44656C65746520757365722D
:1027440000332D44656C657465416C6C75736572FA
:10275400730044656C65746520616C6C20202020D6
:10276400202055736572733F0041706172746D650A
:102774006E743A004E616D653A0072656C61793A27
:102784000020436F6E6669726D2053617665203F49
:10279400005361766521004572726F722100436FA8
:1027A4006E6669726D202020202020202020446540
:1027B4006C6574696F6E3F0020202044656C6574FD
:1027C400656420210044656C65746520616C6C202F
:1027D400202020202050617373776F7264733F0050
:1027E400312D41646420612070617373776F72646A
:1027F40000322D44656C65746550617373776F7234
:102804006400332D44656C65746520616C6C200034
:1028140050617373776F72643A00436F6E666972C6
:102824006D0050617373776F72643A00546F746112
:102834006C3A0041646D696E2070617373776F72D6
:10284400643A00312D416464206120636172640044
:10285400322D44656C657465206361726400332DA8
:1028640044656C657465416C6C63617264730044A7
:10287400656C65746520616C6C20202020202063C9
:10288400617264733F00436172643A00436172642D
:10289400206572726F72210054686520646F6F72D4
:1028A400206973206F70656E210043616C6C696EE2
:1028B400673A200054616C6B54696D653A00526943
:1028C4006E672074696D653A0043616C6C54696D80
:1028D400653A00566F69636520202020202020205F
:1028E400202020496E737472756374696F6E733A35
:1028F4000043616D6572613A0052656C61792074C0
:10290400696D653A00556E6C6F636B4B65793A007F
:102914004F6E004F666600202047736D204572722B
:102924006F722100546F2063616E63656C20707256
:102934006573730073656C6563742061206E616DEB
:10294400650066726F6D20746865206C697374002D
:1029540070726573730057656C636F6D6521005405
:102964006F2063616C6C202D00456E74657220616C
:10297400706172746D656E74006E756D626572203F
:102984002B2000546F2063616C6C2C707265737320
:1029940000546F20756E6C6F636B2C70726573736B
:1029A400002B20342044696769747320636F646565
:1029B4000041706172746D656E74204572726F723D
:1029C400210054616C6B696E673A005265736574DB
:1029D400204F4B210053706565636820766F6C75DA
:0B29E4006D653A00526F6F6D3A2000E5
:10798F001275EC7BFF7A277985E4FD7F010277DBA7
:10799F001275EC7BFF7A2779A2E4FD7F010277DB7A
:10785F001275EC7BFF7A277995E4FD7F011277DBB8
:05786F007F06025CBC75
:107874001275EC7BFF7A27799BE4FD7F011277DB9D
:057884007F0B025CBC5B
:107889001275EC7BFF7A2779BCE4FD7F011277DB67
:057899007F06025CBC4B
:10789E001275EC7BFF7A287990E4FD7F011277DB7D
:0578AE007F07025CBC35
:107735001275EC7BFF7A28799CE4FD7F011277DBDB
:097745003001057F03125CBC2237
:1079AF001275EC7BFF7A2979B5E4FD7F010277DB55
:01000A0022D3
:10553E00901083EFF01275EC12000A901083E07059
:10554E004A7BFF7A297928FDFF1277DB7B047D0FDA
:10555E00E4FF1279277BFF7A297938E4FD7F011267
:10556E0077DB7BFF7A297946E4FD7F021277DB7BBE
:10557E00FF7A297954E4FD7F031277DBE4FB7D0685
:10558E007F031279277B017D08803E901083E064B3
:10559E0001703B7BFF7A29795AFDFF1277DB7BFF87
:1055AE007A297963E4FD7F011277DB7BFF7A297913
:1055BE006DE4FD7F021277DB7BFF7A29797DE4FDB6
:1055CE007F031277DB7B027D097F03027927901020
:1055DE0083E0640270377BFF7A297987FDFF1277AB
:1055EE00DB7B027D0EE4FF1279277BFF7A2979950A
:1055FE00E4FD7F011277DB7B037D0F7F011279279C
:0E560E007BFF7A2979A5E4FD7F021277DB226B
:106D95001275EC90110974FFF0A37427F0A3740425
:106DA500F0A374FFF0A37429F0A374C6F09012B198
:106DB500E0FFA3E090110FCFF0A3EFF07B017A1273
:106DC5007993121DA87B017A127993E4FD7F010264
:026DD50077DB6A
:1079BF001275EC7BFF7A2979CFE4FD7F010277DB2B
:10752300436865636B436172643A2562640D0A00C4
:10753300257325750025732500257320256C75009B
:03754300257500AB
:0C39EF004112C5004112C600C116C117EC
:10750000C374489442FF74129412CF2480CF340085
:10751000FE7B017A1279489010EBE4F0A37402F03C
:0375200002615CA9
:0A7A1D00E4901248F0A3F002750097
:10791400D3901249E094F4901248E0940140031289
:037924007A1D22A7
:0B703B00901090EBF0A3EAF0A3E9F046
:107046007C007D06120960EF2418FFEE3425FE90C1
:107056001090E0FBA3E0FAA3E0F99010EBE4F0A3B4
:067066007406F002615CFB
:0B706C00901093EBF0A3EAF0A3E9F012
:107077007C007D06120960EF2418FFEE3425FE9090
:107087001093E0FBA3E0FAA3E0F99010EBE4F0A380
:067097007406F002687AA5
:0B5C1C00901088EBF0A3EAF0A3E9F081
:105C2700E4901091F0A3F0901248E07002A3E070A6
:105C370002807D901248E0FCA3E0FD901091E0FE09
:105C4700A3E0FFC39DEE9C50677B017A10798B120E
:105C5700706CE4FF901088E0FBA3E0FAA3E0F98FF3
:105C6700827583001208FFFE748D2FF582E43410CD
:105C7700F583E0B506050FEFB404D9EFB404217B33
:105C8700FF7A757923901091E0FFA3E0901109CF77
:105C9700F0A3EFF0121DAE901091E0FEA3E0FF22FB
:105CA700901092E004F0708B901091E004F08083E4
:045CB7007EFF7FFFEE
:015CBB0022C6
:0B561C00901085EBF0A3EAF0A3E9F08A
:10562700E490108EF0A3F0901248E0FCA3E0FD9008
:10563700108EE0FEA3E0FFC39DEE9C50737B017AC2
:1056470010798812706C901085E0FBA3E0FAA3E054
:10565700F91209F3FF901088E065F07003A3E06F7B
:10566700703DFF901085E0FBA3E0FAA3E02402F968
:10567700E43AFAEF7C0029F9EC3AFA1208E6FE74EC
:105687008A2FF582E43410F583E0B506050FEFB4F1
:1056970004D1EFB4040990108EE0FEA3E0FF22903E
:1056A700108FE004F0708090108EE004F002562E08
:1056B700901248E0FEA3E0FFC394F4EE9401502E4D
:1056C700901085E0FBA3E0FAA3E0F912703B90127B
:1056D70049E004F07006901248E004F0127500905B
:1056E7001249E024FFFF901248E034FFFE227EFFBC
:0256F7007FFF33
:0156F900228E
:0865FE00901088EEF0A3EFF00D
:10660600901248E0FCA3E0FDD39FEC9E4058ED2499
:10661600FFFFEC34FFFE901088E0B50616A3E0B548
:106626000711901249E024FFF0901248E034FFF081
:10663600027500901249E024FFF0901248E034FF02
:10664600F0127500901248E0FEA3E0FF7B017A107D
:10665600798A12706C901088E0FEA3E0FF7B017AC5
:0666660010798A12703B5E
:01666C00220B
:08742700901085EEF0A3EFF0D8
:10742F008013EFF47002EEF460121265FE90108577
:0C743F00E0FEA3E0FF7D031261E780E6A1
:01744B00221E
:0B720B00901085EBF0A3EAF0A3E9F07F
:107216008016EFF47002EEF460131265FE9010858E
:0D722600E0FBA3E0FAA3E0F9125C1C80E598
:017233002238
:0B335100901087EBF0A3EAF0A3E9F076
:10335C001275EC901087E0FBA3E0FAA3E0F91209D8
:10336C00F3FFAEF0D39400EE940090110974FF407B
:10337C001CF0A37475F0A37433F0A374FFF0A37462
:10338C0029F0A374E8F0A3EEF0A3EF8014F0A3747B
:10339C0075F0A37438F0A374FFF0A37429F0A37430
:1033AC00E8F07B017A10798E121DA87B017A1079D6
:1033BC008EE4FD7F011277DB9012C5E070107B016B
:1033CC007A10798E127323AD077F01127A312000A7
:1033DC00030235767BFF7A28798AE4FD7F02127727
:1033EC00DB901087E0FBA3E0FAA3E02402F9E43AB7
:1033FC00FA7D047C0012712C5003023576901087F4
:10340C00E0FBA3E0FAA3E0F99000021208FFFFE44E
:10341C00FCFDFE90108A120C0A90108AE0FCA3E0CE
:10342C00FDA3E0FEA3E0FF7808120B9790108A1220
:10343C000C0A90108AE0F8A3E0F9A3E0FAA3E0FBF1
:10344C00C000C001C002C003901087E0FBA3E0FAEB
:10345C00A3E0F99000031208FFFFD003D002D001C3
:10346C00D000EB4FFFEAFEE9FDE8FC90108A120C4D
:10347C000A90108AE0FCA3E0FDA3E0FEA3E0FF7835
:10348C0008120B9790108A120C0A90108AE0F8A37D
:10349C00E0F9A3E0FAA3E0FBC000C001C002C00346
:1034AC00901087E0FBA3E0FAA3E0F9900004120867
:1034BC00FFFFD003D002D001D000EB4FFFEAFEE9B2
:1034CC00FDE8FC90108A120C0A90108AE0FCA3E034
:1034DC00FDA3E0FEA3E0FF7808120B9790108A1270
:1034EC000C0A90108AE0F8A3E0F9A3E0FAA3E0FB41
:1034FC00C000C001C002C003901087E0FBA3E0FA3B
:10350C00A3E0F99000051208FFFFD003D002D00110
:10351C00D000EB4FFFEAFEE9FDE8FC90108A120C9C
:10352C000A90110974FFF0A37475F0A3743CF0A316
:10353C0074FFF0A37428F0A3748AF090108AE0FC56
:10354C00A3E0FDA3E0FEA3E0FF7808120B8490112A
:10355C000F120C0A7B017A10798E121DA87B017A4E
:0A356C0010798EE4FD7F021277DB78
:013576002232
:10744C007B017A1279BF7D067C00127188E4901260
:10745C00C5F0A3F09012597410F07B017A1279BF29
:05746C00D200023351C3
:053EA300901082EFF019
:103EA800640B6003023F719012C5E06401706030DA
:103EB80016137B017A1279BF7D06FC127188E49093
:103EC80012C6F0804AD39012C0E094009012BFE06E
:103ED800940040387B017A1279C17D047C0012710C
:103EE8002C40297B017A1279BF12561CEFF470021C
:103EF800EEF4600512785F80031278747B017A1201
:103F080079BF7D067C00127188D2162202787490DF
:103F180012C5E004F0E05401FFF0E4A3F0EF1460F0
:103F280042046003023FEDE49012C6F09012BFE035
:103F3800FFA3E0901083CF8024901083E0FEA3E0DD
:103F4800FFD39400EE94005003023FED9012C6E0B8
:103F580004F07C007D0A120972901083EEF0A3EF42
:103F6800F080D612798FC21622901082E0640A700F
:103F78006A9012C5E014602804706A9012C6E0D3F3
:103F88009400405EE014F09012BFE0FEA3E0FF7CD6
:103F9800007D0A1209729012BFEEF0A3EFF080457F
:103FA800E49012C5F0A3F09012BFE0FFA3E09010D8
:103FB80083CF8021901083E0FEA3E0FFD39400EE2E
:103FC800940040219012C6E004F07C007D0A12099A
:103FD80072901083EEF0A3EFF080D9901082E0B4D5
:103FE8000F0302666D901082E0FFC394004052EF09
:103FF800D39409504C9012C5E070469012C6E0C3A5
:104008009404503D9012BFE0FEA3E0FF7C007D0ABF
:104018001209609012BFEEF0A3EFF0901082E0FF5B
:104028009012C0E02FF09012BFE03400F09012C65A
:10403800E004F09012BFE07002A3E070049012C692
:0C404800F07B017A1279BFD200123351D4
:014054002249
:106E5700901084EBF0A3EAF0A3E9F0901084E0F936
:106E6700A3E0FAA3E09010B6C9F0A3EAF0A3E9F013
:106E7700A3E4F0A37404F07B017A1279C1126D0EBA
:0B6E87007B017A1279BFD20002335168
:106FA4007B017A1279BF7D0A7C00127188E4901209
:106FB400C5F0A3F09012597411F07B017A1279C1D3
:106FC4007D047C0012712CB392007B017A1279BF8C
:036FD40002335134
:053CEB00901082EFF0D3
:103CF000640B6003023DB19012C5E064017058305E
:103D000017137B017A1279BF7D06FC127188E4904B
:103D100012C6F080427B017A1279C17D047C0012C8
:103D2000712C400B7B017A1279C112720B801690B4
:103D300012BFE0FEA3E0FFD39400EE940050030214
:103D40003EA21274277B017A1279BF7D067C001295
:103D50007188D2170278899012C5E004F0E054010E
:103D6000FFF0E4A3F0EF146042046003023E2DE490
:103D70009012C6F09012BFE0FFA3E0901083CF80B6
:103D800024901083E0FEA3E0FFD39400EE94005053
:103D900003023E2D9012C6E004F07C007D0A120959
:103DA00072901083EEF0A3EFF080D612799FC217C5
:103DB00022901082E0640A706A9012C5E0146028B4
:103DC00004706A9012C6E0D39400405EE014F09054
:103DD00012BFE0FEA3E0FF7C007D0A120972901280
:103DE000BFEEF0A3EFF08045E49012C5F0A3F09091
:103DF00012BFE0FFA3E0901083CF8021901083E0FA
:103E0000FEA3E0FFD39400EE940040219012C6E0A0
:103E100004F07C007D0A120972901083EEF0A3EF8B
:103E2000F080D9901082E0B40F0302666D9010828A
:103E3000E0FFC394004052EFD39409504C9012C558
:103E4000E070469012C6E0C39404502F9012BFE079
:103E5000FEA3E0FF7C007D0A1209609012BFEEF025
:103E6000A3EFF0901082E0FF9012C0E02FF09012CC
:103E7000BFE03400F09012C6E004F09012BFE07092
:103E800002A3E070049012C6F07B017A1279C17D22
:103E9000047C0012712CB392007B017A1279BF125C
:023EA00033519C
:013EA20022FD
:107849009012597412F01275EC7BFF7A287973E45F
:06785900FD7F010277DB58
:1077AE00EF24F6600E24FB600A24047009127A1D81
:0777BE0002788912666D22BA
:10666D00901259740FF01275EC7BFF7A287947E47C
:10667D00FDFF1277DB7BFF7A287954E4FD7F011251
:10668D0077DB7BFF7A287962E4FD7F021277DB7B73
:10669D00FF7A287930E4FD7F031277DB90110974BE
:1066AD00FFF0A37475F0A37443F0901248E0FFA3BC
:1066BD00E090110CCFF0A3EFF07B017A10798512E9
:0F66CD001DA87B017A1079857D067F030277DB9C
:1075CB00EF24FE601214601224F9601124FB600D8D
:1075DB00240E700C02744C026FA4027849126ECB0D
:0175EB00227D
:1079CF0043617264526561643A20256C750D0A003B
:1039FB0041120400411203004111FD00411202006B
:103A0B004211FB0000C10AC10D4411BA00000000B5
:103A1B004111D2004411FE0000000042120503E8E0
:103A2B004111B5004411B6000000004411B1000073
:063A3B000000C10BC10CEC
