:030000000260D5C6
:0C60D500787FE4F6D8FD75812302611C81
:03001E0025730047
:09394F004212C700004112CB0036
:103767007F647E00127324C2AF30C0FD12537612FD
:103777006B72126A7212774312725B1274987FE847
:103787007E031273241270C4D2AF7F647E0012735B
:1037970024C200124C711269C07F647E0012732428
:1037A7001277EC1276F51277297F11125CC17F062A
:1037B700126271900CB0E0600C7B017A0C79B9123F
:1037C70019D2127775900CB8E0601A90110974013C
:1037D700F0A3740EF0A374B9F07BFF7A00791E1280
:1037E7001DAE12778E124A2D20190302392CC219E9
:1037F700126CED126FFE127A149012C7E475F00185
:103807001209C7FED3E5F094E8EE64809483500371
:103817000238D2E49012C7F0A3F0120006B2C11228
:1038270076DB90120BE07002A3E0601190120B742C
:10383700FFF5F01209C745F070031276F59012599B
:10384700E0B4141C9012B174FFF5F01209C745F0EB
:1038570070051276F580099012ABE07003126DBC0B
:10386700901259E0B413119012B174FFF5F01209D8
:10387700C745F070031276F59012CBE004F0E075BF
:10388700F00F84E5F0F0901259E06401703D90125A
:103897000BE07002A3E07033901257E0F47003A3BB
:1038A700E0F470279012CBE0FF600964056005EF34
:1038B700640A7017EF70047F01800D9012CBE0B49B
:1038C70005047F0080027F02125543D3901262E005
:1038D7009400901261E0940040209012597404F013
:1038E700901262E024FFF0901261E034FFF0E07084
:1038F70002A3E070057F631215E7124B539012C9BC
:10390700E4F0A3EFF09012C9E07003A3E0F4600FB6
:103917007F101262719012C9E0A3E0FF1243841274
:103927004D8F127030125B7B122F04200A0302376F
:10393700BA300D0E7F101262717B017A127907126D
:0839470068331277290237BA38
:106F610055415254315F636F6E666967204F4B2103
:106F71000D0A0055415254335F636F6E6669672095
:106F81004F4B210D0A0052657365744B6579546945
:056F91006D650D0A0012
:103958004212B100004112A7004112A8004112AD65
:103968001F4112B01F4212AE00004112A9004112BD
:06397800AA004112AB00A1
:1077EC009010817401F0E4A3F0A37407F07B017A8C
:0677FC0010798102728485
:107324007C007D07120960E4FDC3ED9FEC9E5015BF
:10733400E4FBFA0BBB00010AEB646E4A70F50DBD69
:0573440000010C80E4D3
:017349002221
:0E7A060090112EEFF01272FD90112EE0FF2273
:0B734A00901106EBF0A3EAF0A3E9F0BD
:10735500E4FF901106E0FBA3E475F0011209DDA935
:0A736500F0FA1208E660030F80E85A
:01736F0022FB
:0B50A0009010B8EBF0A3EAF0A3E9F0D9
:1050AB00E49010BEF0A3F0A3F0A3F09010B8E0FBD7
:1050BB00A3E0FAA3E0F99010BEE0FEA3E0F5828E28
:1050CB00831208FFFF70030251939010BBE0FBA308
:1050DB00E0FAA3E0F91208E66F600302517F90102B
:1050EB00C0F0A3F09010BBE0FBA3E0FAA3E0F990B3
:1050FB0010C0E0FEA3E0F5828E831208FF60519092
:10510B0010C0A3E0FF9010BFE02FFF9010BEE03E59
:10511B00FE9010B8E0FBA3E0FAA3E0F98F828E8338
:10512B001208FFFF9010BBE0FBA3E0FAA3E0F9909D
:10513B0010C0E0FCA3E0F5828C831208FFB50710CA
:10514B009010C1E004F0709C9010C0E004F08094CB
:10515B009010BBE0FBA3E0FAA3E0F99010C0E0FED7
:10516B00A3E0F5828E831208FF70099010BEE0FE5B
:10517B00A3E0FF229010BFE004F060030250B69052
:0C518B0010BEE004F00250B67EFF7FFF73
:0151970022F5
:1071AF00901106EBF0A3EAF0A3E9F0ED1DAE047029
:1071BF00011C4E6016901106E0FBA3E475F001125E
:0C71CF0009DDA9F0FAE412092C80E0228E
:106D35009010B3EBF0A3EAF0A3E9F09010B974FF5B
:106D4500F5F01209DD45F0602A9010B6E0FBA3E4EA
:106D550075F0011209DDA9F0FA1208E6FF9010B3EB
:106D6500E0FBA3E475F0011209DDA9F0FAEF1209C1
:046D75002C80C82284
:107153009010CAEBF0A3EAF0A3E9F0ED1DAE0470C2
:10716300011C4E60179010CAE0FBA3E475F00112F6
:0E71730009DDA9F0FA1208E660E1C322D3227A
:1053760090108274FFF0E4901081F07B017A10792E
:10538600817F02122CB07B017A1079817F01122C69
:10539600B07B017A1079817F03122CB09010827451
:1053A60001F0FB7A1079817F04122CB09010827480
:1053B60010F07B017A1079817F05122CB090108253
:1053C60074F3F07B017A1079817F06122CB090106D
:1053D600827440F07B017A1079817F07122CB0909D
:1053E600108274FFF09010817403F07B017A1079BB
:1053F60081E4FF122CB090108274BFF07B017A100A
:1054060079817F07122CB090108274C0F07B017AEC
:105416001079817F03122CB0901082741EF07B01EC
:105426007A1079817F04122CB0901082740CF07B74
:10543600017A1079817F05122CB0901082740DF0DC
:105446007B017A1079817F06122CB0D2EED2EDD292
:08545600EFC2C3C2EB027A6948
:106A72009010817440F0A37402F0A3120C1600006F
:106A820025809010887401F0E4A3F0A304F0A3F031
:106A9200E4A3F07B017A1079817F01120D767BFFEE
:106AA2007A6F7961121DAE90108C7402F07B017ABC
:106AB2001079817F03120D767F581272D57BFF7A8F
:066AC2006F7974021DAEA5
:106B7200E4901081F0A3F0A304F0E4A3F0A3F0A347
:106B820074A2F0A37440F0A37401F0FB7A1079812F
:106B9200E4FF12357790108674FFF0A37410F07B37
:106BA200017A1079817F0112357790108674FDF099
:106BB200A37412F07B017A1079817F041235774336
:026BC200D18080
:016BC40022AE
:107743009010837401F0E4901082F0901081F07B2C
:09775300017A107981FF02695DE1
:104B53009012A7E014603614605314606414700359
:104B6300024C3E147003024C5224056003024C6E47
:104B730075A0F0E5A054F064F07003024C6E90123F
:104B8300A87414F09012A77401F0024C6EE5A054BF
:104B9300F0FFBFF004E4024C6A9012A8E014F06046
:104BA30003024C6E9012A77402F0024C6EE5A0440F
:104BB3000F901081F0E0F5A09012A77403F0024C5F
:104BC3006E901081E5A0F075A0F09012A77404F028
:104BD300901081E0120C474C3B774C387B4C357D71
:104BE3004C327E4C2FB74C2CBB4C29BD4C26BE4CB3
:104BF30023D74C20DB4C1DDD4C1ADE4C17E74C143D
:104C0300EB4C11ED4C0EEE00004C6E7F04227F083E
:104C1300227F0B227F0F227F03227F07227F002226
:104C23007F0E227F02227F06227F0A227F0D227FB0
:104C330001227F05227F09227F0C22E5A054F0FF89
:104C4300BFF0289012A77405F0A37414F0801CE53C
:104C5300A054F064F060089012A77404F0800C90E4
:0D4C630012A8E014F070049012A7F07FFF7B
:014C70002221
:104D8F009012A9E0146039047076A2CCE43325E0C8
:104D9F00440125E0FFA2C0E4334F25E0FFA2B5E4B4
:104DAF00334F25E0FFA2B4E4334FFF9012ADE06F15
:104DBF00604E9012AA741EF09012A97401F08040F8
:104DCF00A2CCE43325E0440125E0FFA2C0E4334F39
:104DDF0025E0FFA2B5E4334F25E0FFA2B4E4334F43
:104DEF00FF9012ADE0B50707E49012A9F080119083
:104DFF0012AAE014F070099012A9F09012ADEFF022
:104E0F009012ADE0FF9012B0E0FE6F604EEE5403D3
:104E1F00FEEF5403FF6E601AEF64036015BF0103CA
:104E2F00D38001C3920012798490120BE4F0A37423
:104E3F0005F09012B0E05404FF9012ADE054046FEF
:104E4F006011A37427F0A37410F07BFF7A6F79873A
:104E5F00121DAE9012ADE09012B0F09012B0E020A3
:104E6F00E2299012AEE07002A3E0601F9012AE74C0
:104E7F00FFF5F01209C745F07011D200124C7112F4
:0B4E8F0079E690120BE4F0A37405F02C
:014E9A0022F5
:10798400901255E09012ABF0D2C3A200920102779C
:017994005C96
:1067C8009010A67401F0A37410F0A3749DF09010BB
:1067D8009D740AF0A37405F0A37409F0A37401F082
:1067E800A3EEF0A3EFF0A3EDF0A3E4F0A37455F04B
:1067F800E4FF9010A6E0FBA3E0FAA3E0F98F82750E
:1068080083001208FFFD9010A5E02DF09010A4E081
:106818003400F00FEFB407DA9010A6E0FBA3E0FA1B
:0B682800A3E0F990109FE0FD02720752
:1068970090109CEDF090109AEEF0A3EFF04E60523E
:1068A700A3E025E0F090109AE0FEA3E0FFD3941058
:1068B700EE94004006A3E0FD0267C890109BE02419
:1068C700FFF090109AE034FFF090109CE09012AC2B
:1068D700F090109AE0FEA3E0FF33333354F844C03E
:1068E700F580C3EF9408EE940050045380BF225301
:0368F700807F227D
:077A69004380C05380C722D7
:1076DB009012ABE0600614F07002C2C39012ACE0E3
:0A76EB00600714F07003127A6922A0
:1000A600000000384492BAFE828244380000000004
:1000B60000000038448282FEBA92443800000000F4
:1000C6000000003854AAAAAAC692443800000000CC
:1000D600000000384482AAF68A82443800000000F4
:1000E60000003C42A599FF99A5423C000000000093
:1000F60000000000000000000003030000000000F4
:100106000003030F0F3F3FFFFFFFFF00000000004B
:1001160000000000422418182442000000000000DD
:100126000000003844BAC6AAAAAA54380000000043
:1001360000000000000000000000000000000000B9
:100146000000183C3C3C1818180018180000000065
:10015600006363632200000000000000000000004E
:1001660000000036367F3636367F36360000000011
:100176000C0C3E6361603E030343633E0C0C0000BF
:1001860000000000006163060C18336300000000E5
:100196000000001C36361C3B6E66663B0000000005
:1001A6000030303060000000000000000000000059
:1001B60000000C18183030303018180C0000000001
:1001C6000000180C0C060606060C0C1800000000B1
:1001D6000000000042663CFF3C6642000000000052
:1001E60000000000181818FF18181800000000007A
:1001F6000000000000000000000018181830000081
:1002060000000000000000FF0000000000000000E9
:1002160000000000000000000000181800000000A8
:1002260000000103070E1C3870E0C08000000000CB
:1002360000003E6363636B6B6363633E0000000014
:1002460000000C1C3C0C0C0C0C0C0C3F00000000BD
:1002560000003E6303060C183061637F0000000057
:1002660000003E6303031E030303633E0000000019
:100276000000060E1E3666667F06060F00000000AA
:1002860000007F6060607E030363733E0000000031
:1002960000001C3060607E636363633E0000000004
:1002A60000007F630306060C0C18181800000000F7
:1002B60000003E6363633E636363633E00000000C9
:1002C60000003E636363633F0303063C00000000D7
:1002D60000000000001818000000181800000000B8
:1002E6000000000000181800000018181830000060
:1002F600000000060C18306030180C0600000000E4
:100306000000000000007E00007E000000000000EB
:100316000000006030180C060C1830600000000069
:1003260000003E6363060C0C0C000C0C0000000081
:1003360000003E63636F6B6B6E60603E0000000002
:100346000000081C366363637F636363000000007C
:1003560000007E3333333E333333337E00000000F8
:1003660000001E33616060606061331E00000000A3
:1003760000007C36333333333333367C00000000E1
:1003860000007F3331343C343031337F00000000CD
:1003960000007F3331343C343030307800000000C8
:1003A60000001E336160606F6363371D000000004C
:1003B6000000636363637F6363636363000000003D
:1003C60000003C18181818181818183C00000000EF
:1003D60000000F06060606060666663C00000000DC
:1003E6000000733336363C36363333730000000074
:1003F60000007830303030303031337F000000007C
:10040600000063777F6B63636363636300000000D0
:1004160000006363737B7F6F6763636300000000A4
:1004260000001C36636363636363361C00000000D0
:1004360000007E3333333E30303030780000000029
:1004460000003E6363636363636B6F3E06070000F1
:1004560000007E3333333E363633337300000000FC
:1004660000003E6363301C060363633E0000000029
:100476000000FFDB991818181818183C0000000037
:1004860000006363636363636363633E00000000AD
:10049600000063636363636363361C080000000047
:1004A600000063636363636B6B7F36360000000096
:1004B6000000C3C3663C18183C66C3C300000000B6
:1004C6000000C3C3C3663C181818183C000000009F
:1004D60000007F6343060C183061637F0000000054
:1004E60000003C30303030303030303C000000000E
:1004F600000080C0E070381C0E07030100000000F9
:1005060000003C0C0C0C0C0C0C0C0C3C000000000D
:10051600081C366300000000000000000000000018
:10052600000000000000000000000000FF000000C6
:1005360018180C0000000000000000000000000079
:1005460000000000003C46063E66663B00000000D8
:1005560000007030303C36333333336E0000000019
:1005660000000000003E63606060633E0000000023
:1005760000000E06061E36666666663B0000000034
:1005860000000000003E63637E60633E00000000E2
:1005960000001C3632307C303030307800000000ED
:1005A60000000000003B666666663E06663C00008C
:1005B6000000703030363B333333337300000000B5
:1005C60000000C0C001C0C0C0C0C0C1E0000000097
:1005D60000000606000E060606060666663C0000D5
:1005E60000007030303333363C3633730000000081
:1005F60000001C0C0C0C0C0C0C0C0C1E000000005B
:1006060000000000006E7F6B6B6B6B6B00000000E0
:1006160000000000006E3333333333330000000034
:1006260000000000003E63636363633E0000000059
:1006360000000000006E333333333E303078000064
:1006460000000000003B666666663E06060F000078
:1006560000000000006E3B333030307800000000B0
:1006660000000000003E63380E03633E00000000F9
:1006760000000818187E181818181B0E0000000035
:1006860000000000006666666666663B00000000C5
:100696000000000000636336361C1C0800000000E2
:1006A60000000000006363636B6B7F360000000090
:1006B600000000000063361C1C1C366300000000AE
:1006C600000000000063636363633F03063C0000B1
:1006D60000000000007F660C1830637F00000000F9
:1006E60000000E18181870181818180E00000000D0
:1006F6000000181818181800181818181800000004
:100706000000701818180E1818181870000000004D
:1007160000003B6E0000000000000000000000002A
:100726000070D8D870000000000000000000000033
:100736000000C6C66676DCCCC6C600000000000017
:100746000000F80C0C0C0C0C0CFE00000000000065
:1007560000007018181818386C66000000000000B9
:100766000000FE0C0C0C0C0C0C0C00000000000031
:1007760000007C060606666666660000000000004D
:1007860000001818181818181818000000000000A3
:1007960000007818303030303030000000000000A3
:1007A6000000FCC6C6C6C6C6C6C6000000000000DD
:1007B6000000CCC6C6C6C6C6C67C00000000000047
:1007C60000001818181800000000000000000000C3
:1007D60000007018181818181818180000000000E3
:1007E60000007C0606060606067C000000000000E7
:1007F600C0C0FC060606060C181800000000000023
:100806000000FC66C6C6C6C6C6FE000000000000A4
:100816000000DC7666C6C6C6C6DC00000000000026
:1008260000001818181818181818181818000000BA
:100836000000380C0C0C0C0C0C3C000000000000F6
:1008460000007C66C6C6C6C6CC7800000000000064
:1008560000006666663636361C7000000000000032
:100866000000F84CCCCCCC6C0C0C0C0C0E00000030
:100876000000FC46C6C6E606867C000000000000B6
:1008860000666C38181818181818000000000000C8
:100896000000EE666634180C06FE0000000000003C
:1008A6000000FC060666646C6E6060600000000076
:1008B6000000F80C0C0C0C0C0C0C000000000000E6
:1008C6000000D6D6D6D6D6F6E67C0000000000009C
:1008D6000000FC6666666666E6E60000000000004C
:10397E00410CA800410CA500C1154208A30000414E
:07398E000CA6FF410CA7FF8E
:10758F007590FFC2C4D2CBD2CA00000000E5903084
:10759F00E703D38001C39202C2CA00000000A20217
:0175AF0022B9
:056D790090110EEFF087
:106D7E007FE87E0312758F500DEF1F70011E149465
:106D8E0000EE940050EEEF4E70057F10126271C24D
:106D9E00C4C2CBC2CA000090110EE0F590000000F4
:0D6DAE000000000000D2CA00000000C2CAB0
:016DBB0022B5
:0C6BC500E0FBA3E0FAA3E0F91208E6FFF1
:056BD10090110EEFF031
:106BD6007FE87E0312758F500DEF1F70011E14940F
:106BE60000EE940050EEEF4E70057F10126271D2E7
:106BF600C4C2CBC2CA90110EE0F59000000000009E
:0B6C0600000000D2CA00000000C2CA5B
:016C11002260
:1070C400C2CA7F30126D79000000007F30126D79E2
:1070D400000000007F0C126D79000000007F011297
:1070E4006D79000000007F06126D79000000002217
:107613007F01126D79000000007B017A0879A57D56
:0D762300007C041271AF7DFF7FFF027A58DA
:0B5F2700901106EBF0A3EAF0A3E9F0F4
:105F32002400F9EA3402FA90110BEBF0A3EAF0A381
:105F4200E9F0E4901109F07F36126D79901109E0C1
:105F52004480FF126D797F80126D797F30126D79E6
:105F6200E490110AF0901106126BC5901107E475C6
:105F7200F0011209C7124A2D90110AE004F0E0C3A1
:105F8200941040E190110A7410F090110B126BC53D
:105F920090110CE475F0011209C7124A2D90110AF2
:105FA200E004F0E0C3942040E1901109E004F0E045
:055FB200C394204092A1
:015FB70022C7
:105A2500901081EFF0A3EDF07F36126D7990108222
:105A3500E0FFD394014006EF24FEFF80059010821D
:105A4500E0FFEFC454F0240E4480FF126D799010EE
:105A550081E0C313FFA3E0D3940140047E088002D4
:105A65007E00EF2E4480FF126D797F30126D7990A4
:105A75001081E0FF30E025A3E0FE75F000A424844A
:105A8500F582E5F03409F583EE2583F583E5822F6C
:105A9500F582E43583F583E0FF126BD13000047F96
:105AA500FF8027901081E0FFA3E0FE75F000A4249D
:105AB50085F582E5F03409F583EE2583F583E582E6
:0D5AC5002FF582E43583F583E0FF026BD1FD
:107630001208E6FF6015640A6011EFD394804002DF
:0D764000D322740129F9E43AFA80E5C3224F
:1079A600900CA8E004F0E05403F0E4900CA5F0225B
:0B465600901106EBF0A3EAF0A3E9F0DE
:104661001276309214901106A3E0FAA3E04A700387
:104671000247A2901106E0FBA3E0FAA3E0F91208B9
:10468100E6FF70030247A2640A70030247A2901179
:104691000AEFF0900CA5E004F0E0D394104003126F
:1046A10079A690110B74FFF0A37403F0A37426F0A4
:1046B10090110AE0FFC39420406EEFD39480501014
:1046C100EF75F010A42436F974FF35F0FAA3804F8A
:1046D100901107E475F0011209C790110AE07F00FB
:1046E100FE901106E0FBA3E0FAA3E0F91208E62F21
:1046F100FFE43EFEC3EF9490EE94D7402BD3EF94AA
:10470100ABEE94D75022EFC4F8540FC868FFEEC443
:1047110054F048FE74362FF9748E3EFA90110B74E2
:10472100FFF0A3EAF0A3E9F0900CA5E06007149074
:104731001109F0800AE4901109F0900CA504F03001
:10474100140A901109E0FFC3740F9FF0E4FF901168
:104751000BE0FBA3E0FAA3E0F98F82758300120856
:10476100FFFE900CA8E0C454F02F75F010A424A50E
:10477100F582E5F03408F583C083C082901109E029
:10478100D082D0832582F582E43583F583EEF00F64
:10479100EFB410BA901107E475F0011209C702468F
:0147A10074A3
:0147A20022F4
:08645200901084EFF0A3EDF0BF
:10645A00EB75F010A424A6F9740035F0FA901088B0
:10646A0074FFF0A3EAF0A3E9F0E4FF901088E0FBE0
:10647A00A3E0FAA3E0F98F827583001208FFFE9069
:10648A001087E05EFE901084E0C454F02F75F0107F
:10649A00A424A5F582E5F03408F583C083C0829070
:1064AA001085E0D082D0832582F582E43583F58396
:0764BA00EEF00FEFB410B487
:0164C10022B8
:10780200900CA8EFF0900CA5EDF01246567B017A91
:067812000879A5025F27C2
:10794E0090108774FFF01264527B017A0879A502B9
:02795E005F27A1
:097A5800900CA6EDF0A3EFF02262
:106FFE00900CA6E0FFF46029A3E0FDF46023900856
:10700E00A3E475F0011209C7ABF0FABA0113BB2C59
:10701E0010E49008A3F0A3F0A2159200125A25B224
:02702E00152229
:1056FF0025732575002573257300257500446F7775
:10570F006E6C6F6164204E616D656C6973742045BA
:10571F0072723A28206E6F7420696E2073657474EC
:10572F00696E672029210D0A00433A005265764EB3
:10573F00616D656C69737428436E743A2575290D14
:10574F000A00523A0025753B004E3A0052593A0072
:10575F004964783A25642D282564293B20523A253F
:10576F00753B204E3A25733B2052593A25753B0D18
:10577F000A00446F776E6C6F6164204E616D656CCB
:10578F00697374204F4B21202328257529230D0A77
:10579F0000446F776E6C6F6164204E616D656C694C
:1057AF007374204572723A28257523257529210DAA
:1057BF000A00969798939495909192A09FA19C9E82
:0D57CF009D999B9AA8A9AAA6A5A7A2A4A38C
:103995004112910041129200C1184212610000418A
:0739A50012600041125FFFF8
:1074E100C374449442FF74129412CF2480CF3400A9
:1074F100FE7B017A1279449010EBE4F0A37402F060
:03750100026161C3
:0A7A3000E4901244F0A3F00274E1A8
:10790200D3901245E094C8901244E09400400312D0
:037912007A3022A6
:0B004E009010B8E0FBA3E0FAA3E0F97B
:0B0059009010E3EBF0A3EAF0A3E9F045
:100064007C007D2E120960E42FFFEE3401FE901017
:10007400E3E0FBA3E0FAA3E0F99010EBE4F0A3744F
:050084002EF002616195
:0B70F4009010E3EBF0A3EAF0A3E9F03A
:1070FF007C007D2E120960E42FFFEE3401FE90100C
:10710F00E3E0FBA3E0FAA3E0F99010EBE4F0A37443
:05711F002EF00268FAE9
:0B6C12009010B3EBF0A3EAF0A3E9F050
:106C1D0074FFA3F0A3F07D011261EC9010B6EEF0BD
:106C2D00A3EFF0F47002EEF4601F9010B6E0FEA337
:106C3D00E0FF9010B3E0FBA3E0FAA3E0F91270F4CB
:0D6C4D009010B6E0FEA3E0FF227EFF7FFF67
:016C5A002217
:0B6364009010B8EBF0A3EAF0A3E9F002
:10636F0074FFA3F0A3F01209F3FFAEF07D011261E9
:10637F00EC9010BBEEF0A3EFF0F47002EEF46014AB
:10638F009010BBE0FEA3E0FF12004E9010BBE0FEAA
:10639F00A3E0FF22901244E0FEA3E0FFC394C8EEF7
:1063AF009400502312004E901245E004F0700690B6
:1063BF001244E004F01274E1901245E024FFFF90C4
:0B63CF001244E034FFFE227EFF7FFF3F
:0163DA0022A0
:0864C2009010B3EEF0A3EFF01F
:1064CA00901244E0FCA3E0FDD39FEC9E4058ED24DB
:1064DA00FFFFEC34FFFE9010B3E0B50616A3E0B55B
:1064EA000711901245E024FFF0901244E034FFF0C7
:1064FA000274E1901245E024FFF0901244E034FF68
:10650A00F01274E1901244E0FEA3E0FF7B017A10DE
:10651A0079B51270F49010B3E0FEA3E0FF7B017A24
:06652A001079B5120059C2
:016530002248
:107995007D011261ECEFF47002EEF460031264C233
:0179A50022BF
:0B3B21009010B3EBF0A3EAF0A3E9F072
:103B2C001276139010B3E0FBA3E0FAA3E0F91209AC
:103B3C00F3D39400E5F09400406F7BFF7A27796D06
:103B4C00E4FDFF12780290110974FFF0A37456F093
:103B5C00A374FFF0A374FFF0A37427F0A3746DF0AB
:103B6C009010B3E0FBA3E0FAA3E0F91209F3FF9085
:103B7C00110FE5F0F0A3EFF07B017A1079B6121D6E
:103B8C00A87B017A1079B6E4FDFF127802901291AD
:103B9C00E07045901259E0FF64046005EF64057015
:103BAC00377B017A1079B680257BFF7A27796DE413
:103BBC00FDFF127802901291E0701D901259E0FFF7
:103BCC0064046004EFB405107BFF7A27796D1273DF
:103BDC004AAD07E4FF127A5890110974FFF0A374F0
:103BEC0057F0A37404F0A374FFF0A37427F0A3742C
:103BFC0078F09010B3E0FBA3E0FAA3E02402F9E420
:103C0C003AFA90110FEBF0A3EAF0A3E9F07B017AFA
:103C1C001079B6121DA87B017A1079B6E4FD7F01EC
:103C2C00127802901291E0B4011D901259E0FF64D9
:103C3C00046004EFB405107B017A1079B612734A54
:103C4C00AD077F01127A58200003023CEF9010B3AD
:103C5C00E0FBA3E0FAA3E0F990002C120A1EFFAEE1
:103C6C00F04E604E90110974FFF0A37456F0A374DB
:103C7C00FFF0A374FFF0A37427F0A3747EF0A3EEFF
:103C8C00F0A3EFF07B017A1079B6121DA87B017AB4
:103C9C001079B6E4FD7F03127802901291E0640271
:103CAC007041901259E0FF64046028EF6405703392
:103CBC0080217BFF7A27797EE4FD7F0312780290C6
:103CCC001291E0B4021D901259E0FF64046004EFFD
:103CDC00B405107B017A1079B612734AAD077F03D5
:033CEC00127A58F1
:013CEF0022B2
:100026007B017A1279637D2E7C001271AFE4901207
:1000360091F0A3F09012597404F07B017A1279635F
:05004600D200023B2185
:10545E00901291E0146051147003025504147003FD
:10546E0002553D24036003025542E4901291F0A3CD
:10547E00F0901263E0FFA3E0901083CF8024901091
:10548E0083E0FEA3E0FFD39400EE94005003025598
:10549E0042901292E004F07C007D0A120972901084
:1054AE0083EEF0A3EFF080D6901263E0FEA3E0FF50
:1054BE00901083EEF0A3EFF07B017A107985126CD9
:1054CE0012EFF47002EEF4601E9010B67401F0A3A9
:1054DE007410F0A37485F0A3E4F0A3742EF07B0196
:1054EE007A127963126D357B017A12796512734ADD
:1054FE00901292EFF022E4901292F090128FE0FF51
:10550E00A3E0901083CF8021901083E0FEA3E0FFF4
:10551E00D39400EE9400401C901292E004F07C00B4
:10552E007D0A120972901083EEF0A3EFF080D9126B
:04553E0079B6C21860
:015542002246
:0515E700901082EFF0FE
:1015EC00640B600302167F901291E064037062300A
:1015FC0018137B017A1279637D2EFC1271AFE49083
:10160C001292F0804CD3901264E09400901263E03C
:10161C0094004037D3901290E0940090128FE09495
:10162C000040287B017A127963126364EFF4700234
:10163C00EEF46005127886800312789B7B017A1297
:10164C0079637D2E7C001271AF800312789BD218C7
:10165C0022901291E004F0E05403F012545EE490F6
:10166C001260F0A3F0A3F0901291E0640360030207
:10167C0017FD22901082E0B40E15901291E0C394E5
:10168C00045005E004F08022E4901291F0801B904D
:10169C001082E0B40D1A901291E0D394004005E052
:1016AC0014F080069012917402F012545E0217F43A
:1016BC00901082E0640A60030217BC901291E0144F
:1016CC0060371470030217861470030217B22403D8
:1016DC0060030217BA901292E0D394004018E01401
:1016EC00F0901263E0FEA3E0FF7C007D0A12097209
:1016FC009012630217A40217C3901261E07002A348
:10170C00E07059901292E0FF2465F582E43412F5F2
:10171C0083E07048EFD39400403A901292E0246535
:10172C00F582E43412F583E4F0901292E014F0E0C8
:10173C00FF2465F582E43412F583E0D39480401CD9
:10174C0074652FF582E43412F583E4F0901292E084
:10175C0014F08008E4901291F012545E901292E012
:10176C00FF2465F582E43412F583E4F074662FF5FA
:10177C0082E43412F583E4F08034901292E0D39436
:10178C0000401CE014F090128FE0FEA3E0FF7C0000
:10179C007D0A12097290128FEEF0A3EFF0800F9079
:1017AC001291E0148004E4901291F012545E80388F
:1017BC00901082E0B40F03026531901082E06463F4
:1017CC00702F901291E0B40128A3E02465F582E417
:1017DC003412F583E0601AD394804006901292E0A4
:1017EC0004F0901292E004F0E4901260F0A3F0A3E5
:1017FC00F0901082E0FFC3940050030219BEEFD3A7
:10180C00940940030219BE901291E01460551470B3
:10181C0003021978240260030219BE901292E0C3ED
:10182C009404502F901263E0FEA3E0FF7C007D0A2D
:10183C00120960901263EEF0A3EFF0901082E0FFBB
:10184C00901264E02FF0901263E03400F09012924A
:10185C00E004F0901263E07002A3E060030219BE92
:10186C000219BA901082E0FF90125FE06F60269030
:10187C001292E02465F582E43412F583E06016D30D
:10188C0094804006901292E004F0901292E004F0E2
:10189C00E4901260F0901082E0FF701B901260E0F8
:1018AC0090270993FE901292E02465F582E434129D
:1018BC00F583EEF0021960901292E0FE2466F58238
:1018CC00E43412F583E4F0901260E0FDEF640970EB
:1018DC005AEDC394025009ED2459FF74652E801300
:1018EC00ED64026004EDB40315ED2477FF901292C1
:1018FC00E02465F582E43412F583EFF08056EDB404
:10190C000412901292E02465F582E43412F583748B
:10191C002EF08040ED6405703B901292E02465F54A
:10192C0082E43412F583742CF08029901082E01438
:10193C0075F003A42DFFEDD3940240047E5E80026B
:10194C007E41EF2EFF901292E02465F582E4341272
:10195C00F583EFF0901260E004F0E075F00684E59A
:10196C00F0F0A37403F0A374E8F08046901292E0B8
:10197C00C39403502F90128FE0FEA3E0FF7C007DF8
:10198C000A12096090128FEEF0A3EFF0901082E033
:10199C00FF901290E02FF090128FE03400F0901234
:1019AC0092E004F090128FE07002A3E070049012A9
:1019BC0092F0901082E090125FF07B017A127963C2
:0519CC00D200123B21D6
:0119D10022F3
:107370007B017A1279637D2E7C001271AFE490124A
:1073800091F0A3F09012597405F07B017A127963A1
:05739000C200023B21D8
:05312B00901082EFF09E
:10313000640B600302320E901291E064027026303C
:1031400018137B017A1279637D2EFC1271AFE49023
:103150001292F08010901263E0FEA3E0FF127995C6
:10316000D2180278B0901291E004F0E075F0038478
:10317000AFF0EFF0146046147003023205240260D1
:10318000030232D6E4901292F0901263E0FFA3E0C3
:10319000901083CF8021901083E0FEA3E0FFD394B2
:1031A00000EE94004065901292E004F07C007D0AED
:1031B000120972901083EEF0A3EFF080D9901263A1
:1031C000E0FEA3E0FF7B017A107985126C12EFF428
:1031D0007002EEF4601E9010B67401F0A37410F04B
:1031E000A37485F0A3E4F0A3742EF07B017A127926
:1031F00063126D357B017A12796512734A901292CF
:10320000EFF00232D61279C6C218220232D69010DE
:1032100082E0640A60030232E1901291E0146033AC
:1032200014606F240260030232D6901292E0D394AD
:1032300000401DE014F0901263E0FEA3E0FF7C006C
:103240007D0A120972901263EEF0A3EFF00232D6FB
:103250000232E8E4901291F0A3F0901265F090121F
:1032600063E0FFA3E0901083CF8021901083E0FE05
:10327000A3E0FFD39400EE9400405B901292E00430
:10328000F07C007D0A120972901083EEF0A3EFF03B
:1032900080D9E4901291F0901265F0901263E0FFF3
:1032A000A3E0901083CFF0A3EFF0E4901292F0909F
:1032B0001083E0FEA3E0FFD39400EE94004017904B
:1032C0001292E004F07C007D0A120972901083EEE5
:1032D000F0A3EFF080D9E4901260F0A3F0A3F080A7
:1032E0000A901082E0B40F03026531901082E0FF73
:1032F000C394004050EFD39409504A901291E0706B
:1033000044A3E0C39404502F901263E0FEA3E0FFB7
:103310007C007D0A120960901263EEF0A3EFF0903A
:103320001082E0FF901264E02FF0901263E034000E
:10333000F0901292E004F0901263E07002A3E0704B
:1033400004901292F07B017A127963C200123B2141
:01335000225A
:107818009012597406F01276137BFF7A277956E492
:06782800FD7F0102780261
:1077A700EF24F6600E24FB600A24047009127A3075
:0777B7000278B012653122D7
:106531009012597403F01276137BFF7A277927E4BE
:10654100FDFF1278027BFF7A277937E4FD7F011284
:1065510078027BFF7A277945E4FD7F021278027B7E
:10656100FF7A287930E4FD7F0312780290110974D3
:10657100FFF0A37457F0A37409F0901244E0FFA355
:10658100E090110CCFF0A3EFF07B017A1079B312F8
:0F6591001DA87B017A1079B37D067F0302780283
:1075B000EF24FE601214601224F9601124FB600DA8
:1075C000240E700C020026027370027818126EF2FC
:0175D0002298
:10756D00D3901245E09F901244E09E40147B017A27
:10757D001079831270F47B017A107983C200123B6B
:01758D0021DC
:01758E0022DA
:0B519800901083EBF0A3EAF0A3E9F015
:1051A30090002C120A1ED39400E5F09400500302E1
:1051B3005287127613901083E0FBA3E0FAA3E0F981
:1051C30090002C120A1EFFAEF0901252E0FD1268FE
:1051D30097901252E0FF7E00127A22901083E0FB38
:1051E300A3E0FAA3E02402F9E43AFA12734AEF7057
:1051F300467BFF7A2879AEFD7F01127802901083F7
:10520300E0FBA3E0FAA3E0F91209F3FFAEF0D394B5
:1052130000EE9400406C90110974FFF0A37456F0F3
:10522300A374FFF0A374FFF0A37428F0A374AEF08B
:10523300A3EEF0A3EF803490110974FFF0A3745729
:10524300F0A37404F0A374FFF0A37428F0A374AE66
:10525300F0901083E0FBA3E0FAA3E02402F9E43A20
:10526300FA90110FEBF0A3EAF0A3E9F07B017A10B7
:105273007986121DA87B017A107986E4FD7F0112DD
:055283007802D322C3F4
:015288002203
:1019D2009010B5EBF0A3EAF0A3E9F0901259E0649D
:1019E2000260147BFF7A57790C121DAE900CACE0AA
:1019F2007003021D4280F590120BE4F0A3740FF005
:101A02009010BB74FFF0A37457F0A37438F09010D9
:101A1200B5E0FBA3E0FAA3E0F91250A0901081EE2A
:101A2200F0A3EFF0F47002EEF4603AE02402FF90CB
:101A32001081E034009010B68FF01209C79010BBED
:101A420074FFF0A37457F0A37409F0A37401F0A318
:101A52007410F0A37483F09010B5E0FBA3E0FAA336
:101A6200E0F912246B7BFF7A57793B901083E0FFF9
:101A7200A3E0901109CFF0A3EFF0121DAEE4901095
:101A820081F0A3F0901083E0FEA3E0FFC3901082E8
:101A9200E09F901081E09E4003021CEF9010BB7407
:101AA200FFF0A37457F0A37451F09010B5E0FBA3BC
:101AB200E0FAA3E0F91250A0901085EEF0A3EFF047
:101AC200F47002EEF47003021CD2E02402FF9010C4
:101AD20085E034009010B68FF01209C77B017A10AE
:101AE20079877D2E7C001271AF9010BB74FFF0A33A
:101AF2007457F0A37454F0A37401F0A37410F0A30C
:101B02007487F09010B5E0FBA3E0FAA3E0F9122489
:101B12006B9010BB74FFF0A37457F0A37458F0904D
:101B220010B5E0FBA3E0FAA3E0F91250A0901085F3
:101B3200EEF0A3EFF0F47002EEF4607BE02402FF1B
:101B4200901085E034009010B68FF01209C7E4902F
:101B52001085F0A3F09010B5E0FBA3E0FAA3E0F942
:101B62001208E6643B603E901085E0FEA3E0FFC3EE
:101B7200942AEE9400502E9010B5A3E475F0011251
:101B820009DDA9F0FA1208E6FD74892FF5827410B6
:101B92003EF583EDF0901086E004F070B890108569
:101BA200E004F080B0901085E0FEA3E02489F58285
:101BB20074103EF583E4F09010BB74FFF0A37457E9
:101BC200F0A3745BF09010B5E0FBA3E0FAA3E0F998
:101BD2001250A0901085EEF0A3EFF0F47002EEF434
:101BE2007003021C67E02403FF901085E03400902C
:101BF20010B68FF01209C7E4901085F0A3F0901090
:101C0200B3F0A3F09010B5E0FBA3E0FAA3E0F91261
:101C120008E6FB643B604EC3901086E0940390108C
:101C220085E09400503F9010B3E0FEA3E0FF7C00FB
:101C32007D0A1209609010B3EEF0A3EFF0EB24D00E
:101C4200FFE02FF09010B3E03400F0901086E00433
:101C5200F07006901085E004F09010B6E475F00183
:101C62001209C7809F7B017A1079871263649010F2
:101C720085EEF0FCA3EFF0FD901082E02401FE90CF
:101C82001081E03400901109F0A3CEF0ED2401FEA2
:101C9200E43CA3F0A3CEF0901087E0FFA3E0901104
:101CA2000DCFF0A3EFF0A37401F0A37410F0A374AE
:101CB20089F09010B3E0FFA3E0901112CFF0A3EFF0
:101CC200F07BFF7A57795F121DAE900CACE070FA90
:101CD200901085E0F47003A3E0F46011901082E0AC
:101CE20004F07006901081E004F0021A86901083CE
:101CF200E0FEA3E0FF901081E0B50617A3E0B50770
:101D0200127BFF7A577981901244E0FFA3E0901191
:101D120009801F7BFF7A5779A0901081E0FFA3E032
:101D2200901109CFF0A3EFF0901085E0FFA3E090AF
:101D3200110BCFF0A3EFF0121DAE900CACE070FAD5
:011D4200227E
:10796000AD071FED600BE4FEEEC3946E50F20E8087
:01797000F71F
:0179710022F3
:10782E00D2ED0000000000D2EE0000000000C2ED1C
:06783E0000000000002222
:10784400C2ED0000000000D2EE0000000000D2ED06
:067854000000000000220C
:0873950012782E7FA0126EB9E0
:10739D00E4FFD2EE000000000030ED09EFC394FAD7
:0C73AD0050030F80F4C2EE00000000004E
:0173B90022B1
:10008E00D2EDC2EE0000000000D2EE000000000033
:05009E00C2EEC2ED22DC
:10791500C2EDC2EE0000000000D2EE000000000043
:03792500C2EE228D
:106EB900E4FEC2EE0000000000EF30E703D38001DA
:106EC900C392EDEF25E0FF0000000000D2EE0000C4
:106ED900000000C2EE0EEEB408D8C2EE00000000B9
:086EE90000D2ED0000000000E2
:016EF100227E
:10718100C2EE0000000000D2ED0000000000E4FEAD
:10719100D2EE0000000000EF25E0FFA2EDE4334F46
:0D71A100FFC2EE00000000000EEEB408E397
:0171AE0022BE
:106161009010E6EEF0A3EFF0A3EBF0A3EAF0A3E9C1
:10617100F0C2EF80559010EB74FFF5F01209DD4588
:10618100F060609010E8E0FBA3E475F0011209DD16
:10619100A9F0FA1208E6FF126EB912739D9010E78A
:1061A100E004F070069010E6E004F09010E7E0548F
:1061B1003F70C2D39010ECE094009010EBE094009B
:1061C10040B31278447F641279601273959010E69F
:1061D100E0FF126EB912739DA3E0FF126EB9127344
:0B61E1009D80921278447F6402796078
:0468FA00AD07AC0634
:1068FE00127395ECFF126EB912739DAF05126EB93D
:10690E0012739D12782E7FA1126EB912739DD390C1
:10691E0010ECE094019010EBE09400401FA3E024F3
:10692E00FFF09010EBE034FFF0127181EF12092CA2
:10693E00127915740129F9E43AFA80D2127181EFB5
:0E694E0012092C12008E1278449010EDE0FF1A
:01695C002218
:105FB80052696E674F757454733A202562640D0AEE
:105FC80000546F6E65456E3A202562640D0A0043E1
:105FD800616D6572614F6E3A202562640D0A005248
:105FE80065616C7954696D653A202562640D0A0013
:105FF8004E616D65436F756E743A2025750D0A0004
:10600800507377436F756E743A2025750D0A0043F7
:10601800617264436F756E743A2025750D0A0054D9
:10602800616C6B566F6C756D3A202562640D0A00C1
:0F60380025732575002573002573250025750038
:1039AC004112590148124200000000000000004280
:1039BC001257FFFF42120B000041123B0641125AF4
:1039CC000042123C000041123F0044125B00000018
:0A39DC000041123E04421240012C8B
:104C71007B017A12794A9010EBE4F0A3740DF0E411
:104C8100FFFE1268FA90124AE0B45A08A3E0B46930
:104C91000330003D90124A745AF0A37469F09012E7
:104CA100527402F0A314F0E4A3F0A3740AF0A37405
:104CB10004F090124C120C16000A2C2A7B017A1275
:104CC100794A9010EBE4F0A3740DF0E4FFFE126159
:104CD100617BFF7A5F79B8901252E0901109F0126E
:104CE1001DAE7BFF7A5F79C9901253E0901109F0F4
:104CF100121DAE7BFF7A5F79D7901254E0901109B3
:104D0100F0121DAE7BFF7A5F79E7901255E09011AA
:104D110009F0121DAE7BFF7A5F79F8901244E0FF33
:104D2100A3E0901109CFF0A3EFF0121DAE7BFF7A43
:104D3100607908901246E0FFA3E0901109CFF0A33B
:104D4100EFF0121DAE7BFF7A607917901248E0FFF9
:104D5100A3E0901109CFF0A3EFF0121DAE7BFF7A13
:104D6100607927901256E0901109F0121DAE901251
:104D710056E0D3940540037403F0901256E090126C
:0E4D81003BF0901254E06003D2C222C2C22264
:1069C0007B017A1279429010EBE4F0A37408F07F17
:1069D000807E001268FA901242E0645A7004A3E0CC
:1069E0006469602C901242745AF0A37469F0E4A3B5
:1069F000F0A3F0A3F0A3F0A3F0A3F07B017A127947
:106A0000429010EBF0A37408F07F807E0012616169
:096A100012790212792802793B87
:106A1900ED24FE6017146027240270327C007D2E5D
:106A2900120960E42FFF74013EFE8022EF7802C351
:106A390033CE33CED8F924F0FF74243EFE800F7C88
:106A4900007D0612096074182FFF74253EFE7B0134
:106A59007A1079C49010EBE4F0A37402F01268FA8A
:086A69009010C4E0FEA3E0FF61
:016A71002202
:0B61EC009010BDEEF0A3EFF0A3EDF06B
:1061F700E4A3F0A3F0ED24FE600C14600E240270FB
:106207001990124480089012468003901248E0FFCC
:10621700A3E09010C2CFF0A3EFF09010C2E0FCA370
:10622700E0FD9010C0E0FEA3E0FFC39DEE9C50355B
:106237009010BFE0FD126A199010BDE0B5060EA3DD
:10624700E0B507099010C0E0FEA3E0FF22EFF4706D
:1062570002EEF460109010C1E004F070BD9010C021
:09626700E004F080B57EFF7FFF2A
:01627000220B
:1076F5009012597401F074FF901257F0A3F0E490C2
:0A770500120BF0A3F07F01025543C0
:106EF2009012597402F01276137BFF7A2779127D71
:106F0200017F011278027BFF7A2779227D017F03BC
:106F12001278027B037D067F0312794EE490123CC5
:086F2200F0A3F090123FF022F1
:10675C001276137BFF7A27796DE4FD7F01127802A4
:10676C0090123CE0FEA3E0FFD39400EE9400901155
:10677C000974FF401CF0A37460F0A37438F0A37488
:10678C00FFF0A37427F0A3746DF0A3EEF0A3EF80D9
:10679C0014F0A37460F0A3743DF0A374FFF0A37421
:1067AC0027F0A3746DF07B017A107983121DA87BFE
:0C67BC00017A107983E4FD7F010278026D
:107124009012597407F07E0090123CEEF0A3EFF039
:1071340090123F7401F0EF7001F012675C7B017AEA
:0F71440012790D7D2E7C001271AF7F0F025CC19E
:104E9B00901082EFF024F6607C24FB6003024F4EEF
:104EAB0090123CE0FEA3E0FFD39400EE9400404749
:104EBB007B017A12790D126C12EFF47002EEF46032
:104ECB0036E490125AF07B017A12790D12519850F8
:104EDB00199012597413F07F0C125CC1901252E0AE
:104EEB00FF9012B1E4F0A3EFF02212789B90120B1B
:104EFB00E4F0A37403F0221279D67F04125CC19004
:104F0B00120BE4F0A37403F0E490123CF0A3F090C6
:104F1B00123FF0802E90123FE0D39400401FE0141C
:104F2B00F090123CE0FEA3E0FF7C007D0A120972B8
:104F3B0090123CEEF0A3EFF012675C8006126F96B6
:104F4B001276F5901082E0FFC394004049EFD394A2
:104F5B0009504390123FE0C39404503AE004F090A0
:104F6B00123CE0FEA3E0FF7C007D0A120960901268
:104F7B003CEEF0A3EFF0901082E0FF90123DE02F9B
:104F8B00F090123CE03400F0E07002A3E07004906B
:074F9B00123FF012675C22D7
:065AD20090125B120C0AA9
:105AD800127613901259E0B40E0D7BFF7A287937AD
:105AE800E4FD7F0112780290110974FFF0A374603D
:105AF800F0A37440F0A374FFF0A37428F0A3741407
:105B0800F07B017A107983121DA8E49010A1F0901F
:105B1800123FE0FF9010A1E0C39F50227BFF7A283C
:105B2800791412734A9010A1E02F2483F582E4348B
:105B380010F583742AF09010A1E004F080D17BFF67
:105B48007A28791412734A9010A1E02F2483F582E1
:105B5800E43410F583E4F07B017A107983FD7F0249
:105B68001278027B017A10798312734AAD077F029B
:035B7800027A5856
:10764D00901259740EF090125B120C16000000008F
:0D765D00E490123FF0125AD87F02025CC187
:104FA200901082EFF024F6606724FB700302503AFF
:104FB20024046003025040E4FFFEFDFC90125BE01B
:104FC200F8A3E0F9A3E0FAA3E0FBD3120B734027A6
:104FD20090123FE0B4062090124CE0FCA3E0FDA347
:104FE200E0FEA3E0FF90125BE0F8A3A3A3E0C312EC
:104FF2000B737003026EF212789B7F05125CC190F4
:10500200125B120C1600000000E490123FF0802E9A
:1050120090123FE0D39400401FE014F090125BE046
:10502200FCA3E0FDA3E0FEA3E0FFE47B0AFAF9F8AB
:10503200120AE1125AD28006126F961276F5901079
:1050420082E0FFC394004055EFD39409504F901271
:105052003FE0C394065046E004F090125BE0FCA3EC
:10506200E0FDA3E0FEA3E0FFE47B0AFAF9F8120AEE
:105072005690125B120C0A90125BE0F8A3E0F9A3BF
:10508200E0FAA3E0FB901082E0FFE4FCFDFEEB2FD0
:0E509200FFEE3AFEED39FDEC38FC125AD22248
:1047A300901082EFF024F5601C14601F1460221433
:1047B300605E147003024879240560030248D51231
:1047C30076F50248D51274BD0248D512764D0248DB
:1047D300D5901244E0FEA3E0FFD39400EE94005082
:1047E300030248D5EF24FFFFEE34FFFEC3901258B7
:1047F300E09F901257E09E500EA3E004F0706A9081
:104803001257E004F08062E4901257F0A3F080594D
:10481300901244E0FEA3E0FFD39400EE9400500313
:104823000248D5901257E0FCA3E0FD9FEC9E502573
:10483300ED9400EC9400400DE024FFF0901257E05B
:1048430034FFF08024EF24FFFFEE34FF901257F083
:10485300A3EFF08014901245E024FFFE901244E091
:1048630034FF901257F0A3CEF0901257E0FEA3E06E
:10487300FF12756D805C901244E0FCA3E0FD901282
:1048830057E0FEA3E0FFC39DEE9C5041E490125A13
:10489300F07B017A12790D1270F47B017A12790D93
:1048A300125198501A9012597413F07F0C125CC174
:1048B300901252E0FF9012B1E4F0A3EFF0801312D4
:1048C300789B90120BE4F0A37403F08005E4FF12CD
:1048D3007124901082E0FFD394004009EFD3940930
:0648E300500312712422B3
:1057DC00901082EFF0C39400405EE0FBD39409502C
:1057EC005790123FE0C39402503AE004F090123C00
:1057FC00E0FEA3E0FF7C007D0A12096090123CEEF3
:10580C00F0A3EFF0EBFF7E00E02FF090123CE03EB7
:10581C00F0D3A3E0940D90123CE094005003025896
:10582C00AAEE8009901082E0FF90123CE4F0A3EF06
:10583C00F090123F7401F022901082E0B40F0280BD
:10584C0007901082E0B40A030276F5901082E064AF
:10585C000B704B90123CE0FEA3E0FFC39404EE945B
:10586C0000400EEF940CEE94005006EF2411FF80D4
:10587C002A90123CE0FEA3E0FFEE7022EF146010C1
:10588C0014601014601024F6600F04701102742957
:0F589C0002653102660F0266ED7F1D1258AB22C6
:0C000E00EF24F67006127A691276F522D3
:10420400127613901259E024E860331470030242CA
:104214009224FD60441470030242AD24066003023C
:1042240042D090110974FFF0A37460F0A3743DF0C0
:10423400A374FFF0A37428F0A374C20242C69011C1
:104244000974FFF0A37460F0A3743DF0A374FFF04D
:10425400A37428F0A374D7806990110974FFF0A3A4
:104264007460F0A3743DF0A374FFF0A37428F0A36A
:1042740074F5F07B017A107983121DA890123CE04A
:104284007002A3E06004D2C28042C2C2803E901198
:104294000974FFF0A37460F0A3743DF0A374FFF0FD
:1042A400A37428F0A374FD801990110974FFF0A37E
:1042B4007460F0A3743DF0A374FFF0A37429F0A319
:1042C40074D9F07B017A107983121DA8901259E0F9
:1042D4006418702A7B017A107983FD7F01127802B9
:1042E40090123CE07004A3E064017BFF70067A291D
:1042F400791480047A2979177D067F03807E9012D1
:1043040059E0641C702A7B017A107983FD7F0112C5
:10431400780290123CE07004A3E064017BFF700615
:104324007A29791480047A2979177D067F02804CD2
:104334007B017A107983E4FD7F0112780290123CAC
:10434400E0FEA3E0FFD39400EE94004032901259B3
:10435400E0641C602A90110974FFF0A37460F0A358
:104364007444F0A3EEF0A3EFF07B017A107983128A
:0F4374001DA87B017A1079837D087F02127802E1
:014383002217
:1058AB00EF24E8602514604824FD60311460552412
:1058BB0006600302597090123E7402F0901240E49D
:1058CB00F0A3745AF0901252804C90123E7401F077
:1058DB00901240E4F0A304F0901253803990123EE2
:1058EB007401F0901240E4F0A304F090125480265F
:1058FB0090123E7402F0901240E4F0A37463F090A7
:10590B001255801290123E7401F0901240E4F0A3F5
:10591B007405F0901256E0FD90123CE4F0A3EDF00C
:10592B00901259EFF0E490123FF090123CE0FEA37E
:10593B00E0FFD3EF9400EE9400400F90123FE00491
:10594B00F07C007D0A12097280E8901259E0FF6426
:10595B00186009EF641C6004EFB41D0690123F74CD
:05596B0001F0124204EE
:015970002214
:10528900901083ECF0A3EDF0EF24E8603014607B1C
:1052990024FD605014700302533B2406600302533B
:1052A90073901083A3E0901252F0C37452944AFF92
:1052B90074129412FE7B017A1279528068901083DD
:1052C900E07002A3E07003FF80027F01901253EFA8
:1052D900F0C37453944AFF74129412FE7B017A123C
:1052E90079538041901083E07002A3E07003FF803E
:1052F900027F01901254EFF0C37454944AFF741260
:105309009412FE7B017A127954801A901083A3E0DB
:10531900901255F0C37455944AFF74129412FE7B8F
:10532900017A1279559010EBE4F0A304F01261614F
:105339008038901083E0FEA3E0FFD39400EE940040
:105349004028901256EFF07456944AFF7412941242
:10535900FE7B017A1279569010EBE4F0A304F01267
:0D5369006161901256E090123BF0027886D0
:10450100901082EFF090123FE0B463028076901039
:1045110082E024F5604E24FC604824057069901205
:1045210059E0FF6418600BEF641C600690123FE0D5
:10453100700E901254E06004D2C28002C2C2804464
:1045410090123FE014F090123CE0FEA3E0FF7C00EB
:104551007D0A12097290123CEEF0A3EFF0124204B0
:104561008025802090123FE0D3940040179012598B
:10457100E0FF90123CE0FCA3E0FD12528990123F53
:104581007463F022026EF2901082E0FFC394005037
:1045910003024652EFD39409400302465290125946
:1045A100E0FF64186004EFB41C1290123F7401F034
:1045B100901082E0FF90123CE402464E901259E0C6
:1045C100B41D27901082E0FFD3940050030246529D
:1045D1007E00901241E09F901240E09E4073901245
:1045E1003F7401F090123C14806390123EE0FFA3EF
:1045F100E0C39F505C90123CE0FEA3E0FF7C007D95
:104601000A120960901240E0FCA3E0FDC39FEC9EFA
:10461100403F90123FE004F090123CEEF0A3EFF027
:10462100901082E0F92FFFE43EFEC3ED9FEC9E4027
:1046310011E9FF90123DE02FF090123CE03400F0C0
:10464100800F901240E0FFA3E090123CCFF0A3EF67
:05465100F012420422FA
:10438400901081EFF090120BE4F0A3741EF09012E1
:1043940059E014B41D0040030244D19043AD75F0BC
:1043A40003A4C58325F0C5837302440402440F02A9
:1043B400441A02442502443002443B024479024434
:1043C4004602445102445B02446502446F02448D38
:1043D4000244830244AB0244B50244BF0244C9020E
:1043E40044970244970244D10244D10244A10244B6
:1043F400A10244A10244D10244D10244A10244A135
:10440400901081E0FF1247A30244D1901081E0FF95
:104414001257DC0244D1901081E0FF1275B00244BF
:10442400D1901081E0FF1215E70244D1901081E091
:10443400FF12312B0244D1901081E0FF1277A702C2
:1044440044D1901081E0FF1275D10244D1901081C3
:10445400E0FF1211C28076901081E0FF12405A8072
:104464006C901081E0FF1277BE8062901081E0FFB3
:104474001248E98058901081E0FF124E9B804E90C4
:104484001081E0FF124FA28044901081E0FF1229B6
:10449400EF803A901081E0FF12000E80309010817E
:1044A400E0FF1245018026901081E0FF1275F28032
:1044B4001C901081E0FF123EA88012901081E0FF52
:1044C400123CF08008901081E0FF1277D5D390124F
:1044D4000CE0940A90120BE094004020901259E0F2
:1044E400FF640E600EEF640C6009EF64076004EF74
:0D44F400B4010990120BE4F0A3740AF02249
:10683300901081EBF0A3EAF0A3E9F0901259E02461
:10684300F1605024FE60071460492402700E90101A
:1068530081E0FBA3E0FAA3E0F9026E7E901081E0F1
:10686300FBA3E0FAA3E0F9125C21EFF47002EEF46B
:106873006007D20012798480031278C5901259E020
:10688300FF6414600EEF6413600990120BE4F0A32D
:046893007403F02278
:10770F00436865636B5073773A25750D0A002573CF
:0A771F00257500257325002575006F
:0E39E6004112BD004112BE00C10EC10FC11042
:10750400C374469442FF74129412CF2480CF340083
:10751400FE7B017A1279469010EBE4F0A37402F03A
:03752400026161A0
:0A7A3A00E4901246F0A3F002750478
:10792800D3901247E0940A901246E0940040031264
:037938007A3A2276
:0B72AD00901089E0FBA3E0FAA3E0F9D9
:1072B800EF7802C333CE33CED8F924F0FFEE34246E
:0D72C800FE9010EBE4F0A37404F00261618D
:10766A00EF7802C333CE33CED8F924F0FFEE3424B8
:0D767A00FE9010EBE4F0A37404F00268FA37
:0B6C5B009012CCEBF0A3EAF0A3E9F0EC
:106C660074FFA3F0A3F07D021261EC9012CFEEF058
:106C7600A3EFF0F47002EEF4601F9012CFE0FEA3D3
:106C8600E0FF9012CCE0FBA3E0FAA3E0F912766AEB
:0D6C96009012CFE0FEA3E0FF227EFF7FFF03
:016CA30022CE
:0862EC00901083EEF0A3EFF027
:1062F400E4A3F0A3F07BFF7A77790F901109EEF015
:10630400A3EFF0121DAE901246E07002A3E07002FB
:10631400C322E4901085F0A3F0901246E0FCA3E0C1
:10632400FD901085E0FEA3E0FFC39DEE9C502F7B03
:10633400017A10798712766A901083E0FEA3E0FF59
:10634400901089E0B50607A3E0B50702D3229010A8
:0F63540086E004F070C3901085E004F080BBC3B6
:016363002217
:0B63DB00901089EBF0A3EAF0A3E9F0BA
:1063E60074FFA3F0A3F01209F3FFAEF07D02126171
:1063F600EC90108CEEF0A3EFF0F47002EEF4601463
:1064060090108CE0FEA3E0FF1272AD90108CE0FEBF
:10641600A3E0FF22901246E0FEA3E0FFC3940AEE3B
:10642600940050231272AD901247E004F07006906B
:106436001246E004F0127504901247E024FFFF9024
:0B6446001246E034FFFE227EFF7FFFC5
:016451002228
:0865A000901087EEF0A3EFF06C
:1065A800901246E0FCA3E0FDD39FEC9E4058ED24FA
:1065B800FFFFEC34FFFE901087E0B50616A3E0B5A8
:1065C8000711901247E024FFF0901246E034FFF0E4
:1065D800027504901247E024FFF0901246E034FF61
:1065E800F0127504901246E0FEA3E0FF7B017A10DA
:1065F800798912766A901087E0FEA3E0FF7B017A22
:066608001079891272B83E
:01660E002269
:0873BA00901085EEF0A3EFF046
:1073C2008013EFF47002EEF460121265A090108543
:0C73D200E0FEA3E0FF7D021261EC80E60B
:0173DE00228C
:0820A8007B017A1279B3D2002A
:0B20B000901089EBF0A3EAF0A3E9F028
:1020BB00127613901259E0B40D0F7BFF7A28793703
:1020CB00E4FDFF12780202216A901259E0FF640DC1
:1020DB00700302216AEF640C700302216A9010896D
:1020EB00E0FBA3E0FAA3E0F91209F3D39400E5F0C7
:1020FB0094007BFF7A2979E8E4FDFF4049127802CE
:10210B0090110974FFF0A37477F0A3741DF0A374FE
:10211B00FFF0A37429F0A374E8F0901089E0FBA3FF
:10212B00E0FAA3E0F91209F3FF90110FE5F0F0A329
:10213B00EFF07B017A10798C121DA87B017A107954
:10214B008CE4FDFF80001278029012BDE070107BD2
:10215B00017A10798C12734AAD07E4FF127A58207A
:10216B0000030223E1901089E0FBA3E0FAA3E0F95E
:10217B00900002120BAAE4FBFAF9F8C3120B73409E
:10218B000302226490110974FFF0A37477F0A37417
:10219B0022F0A374FFF0A37428F0A37414F00B7A4D
:1021AB0010798C121DA89012B5E0FCA3E0FDA3E002
:1021BB00FEA3E0FF9010A1120C0AE49010A0F0E433
:1021CB00FFFEFDFC9010A1E0F8A3E0F9A3E0FAA359
:1021DB00E0FBD3120B73403F7BFF7A287914127309
:1021EB004A9010A0E02F248CF582E43410F5837410
:1021FB002AF09010A1E0FCA3E0FDA3E0FEA3E0FF1A
:10220B00E47B0AFAF9F8120AE19010A1120C0A9079
:10221B0010A0E004F080A87BFF7A28791412734A8F
:10222B009010A0E02F248CF582E43410F583E4F0B9
:10223B007B017A10798CFD7F01127802901259E0A4
:10224B00640D60047F0180027F009012BDE06F700F
:10225B003A7B017A10798C80287BFF7A287914E4F9
:10226B00FD7F01127802901259E0640D60047F012A
:10227B0080027F009012BDE0B507107BFF7A2879B2
:10228B001412734AAD077F01127A58901259E06409
:10229B000C70030223E1901089E0FBA3E0FAA3E0AA
:1022AB00F9900006120BAAE4FBFAF9F8C3120B73B0
:1022BB0040030223A290110974FFF0A37477F0A3DB
:1022CB007422F0A374FFF0A37428F0A37426F00B10
:1022DB007A10798C121DA89012B9E0FCA3E0FDA333
:1022EB00E0FEA3E0FF9010A1120C0AE49010A0F006
:1022FB00E4FFFEFDFC9010A1E0F8A3E0F9A3E0FAE7
:10230B00A3E0FBD3120B73403F7BFF7A2879261295
:10231B00734A9010A0E02F248CF582E43410F583DF
:10232B00742AF09010A1E0FCA3E0FDA3E0FEA3E073
:10233B00FFE47B0AFAF9F8120AE19010A1120C0AD9
:10234B009010A0E004F080A87BFF7A287926127306
:10235B004A9010A0E02F248CF582E43410F583E42E
:10236B00F07BFF7A28791EFD7F021278027B017ABF
:10237B0010798CE4FD7F03127802901259E0640D02
:10238B0060047F0280027F019012BDE06F70477B7B
:10239B00017A10798C80357BFF7A287926E4FD7FD2
:1023AB00031278027BFF7A28791EE4FD7F021278F4
:1023BB0002901259E0640D60047F0280027F01904D
:1023CB0012BDE0B507107BFF7A28792612734AAD50
:0623DB00077F03127A588F
:0123E10022D9
:1073DF007B017A1279B37D0A7C001271AFE49012AF
:1073EF00BDF0A3F09012597409F07B017A1279B3B2
:0573FF00D2000220B0E5
:0511C200901082EFF027
:1011C700640B600302130F9012BDE0640360030217
:1011D7001297300E147B017A1279B37D0AFC1271D3
:1011E700AFE49012BEF0021297D39012B4E09400CD
:1011F7009012B3E094005003021294E4FFFEFDFC4A
:101207009012B5E0F8A3E0F9A3E0FAA3E0FB120B14
:1012170073607A9012B9E0FCA3E0FDA3E0FEA3E0BF
:10122700FF9012B5E0F8A3A3A3E0C3120B73705DA0
:101237009012B3E0FFA3E0901085CFF0A3EFF090FA
:1012470012B5A3A3E0FFA3E0901087CFF0A3EFF0C0
:101257007B017A1079851263DBEFF47002EEF4609C
:1012670005127886800312789B7B017A1279B37D09
:101277000A7C001271AFD20E9012B5120C16000044
:1012870000009012B9120C16000000002202789B91
:101297009012BDE004F0E05403FFF0E4A3F0EF1474
:1012A700604914604B14605A24036003021475E408
:1012B7009012BDF09012B3E0FFA3E0901083CF80AF
:1012C70024901083E0FEA3E0FFD39400EE94005037
:1012D700030214759012BEE004F07C007D0A120927
:1012E70072901083EEF0A3EFF080D69012B58003D2
:1012F7009012B9120C1600000000E49012BEF00222
:1013070014751279B6C20E22901082E0640A600347
:1013170002146B9012BDE014603C1470030213C5F5
:10132700147003021430240360030214759012BE74
:10133700E0D39400401DE014F09012B3E0FEA3E068
:10134700FF7C007D0A1209729012B3EEF0A3EFF052
:101357000214750214729012BEE0D39400401FE08D
:1013670014F09012B5E0FCA3E0FDA3E0FEA3E0FFBC
:10137700E47B0AFAF9F8120AE19012B58066901236
:10138700BDE014F0E4A3F09012B3E0FFA3E09010E7
:1013970083CF8024901083E0FEA3E0FFD39400EE78
:1013A700940050030214759012BEE004F07C007D97
:1013B7000A120972901083EEF0A3EFF080D6901214
:1013C700BEE0D394004023E014F09012B9E0FCA3F0
:1013D700E0FDA3E0FEA3E0FFE47B0AFAF9F8120AB6
:1013E700E19012B9120C0A0214759012BDE014F0C4
:1013F700E4A3F09012B5A3A3E0FFA3E0901083CF7E
:101407008021901083E0FEA3E0FFD39400EE9400C8
:10141700405C9012BEE004F07C007D0A12097290D5
:101427001083EEF0A3EFF080D9E49012BDF0A3F0A3
:101437009012B3E0FFA3E0901083CF802190108338
:10144700E0FEA3E0FFD39400EE940040219012BE8B
:10145700E004F07C007D0A120972901083EEF0A37D
:10146700EFF080D9901082E0B40F0302660F90105E
:1014770082E0FFC3940050030215E3EFD3940940C1
:10148700030215E39012BDE014606F147003021598
:1014970071240260030215E39012BEE0C394045066
:1014A700499012B3E0FEA3E0FF7C007D0A120960B9
:1014B7009012B3EEF0A3EFF0901082E0FF7E009061
:1014C70012B4E02FF09012B3E03EF09012BEE004A9
:1014D700F0D39012B4E0940A9012B3E09400400A5B
:1014E700EEF0A3EFF0E49012BEF09012B3E07002BA
:1014F700A3E060030215E30215DF9012BEE0C39478
:1015070004504C9012B5E0FCA3E0FDA3E0FEA3E07D
:10151700FFE47B0AFAF9F8120A569012B5120C0A80
:101527009012B5E0F8A3E0F9A3E0FAA3E0FB90106E
:1015370082E0FFE4FCFDFEEB2FFFEE3AFEED39FD06
:10154700EC38FC9012B5120C0A9012BEE004F0E4DD
:10155700FFFEFDFC9012B5E0F8A3E0F9A3E0FAA3C3
:10156700E0FBC3120B737074806E9012BEE0C394DD
:1015770004504C9012B9E0FCA3E0FDA3E0FEA3E009
:10158700FFE47B0AFAF9F8120A569012B9120C0A0C
:101597009012B9E0F8A3E0F9A3E0FAA3E0FB9010FA
:1015A70082E0FFE4FCFDFEEB2FFFEE3AFEED39FD96
:1015B700EC38FC9012B9120C0A9012BEE004F0E469
:1015C700FFFEFDFC9012B9E0F8A3E0F9A3E0FAA34F
:0F15D700E0FBC3120B7370049012BEF01220A839
:0115E60022E2
:107404007B017A1279B37D0A7C001271AFE4901289
:10741400BDF0A3F0901259740AF07B017A1279B38B
:05742400C2000220B0CF
:05405A00901082EFF060
:10405F00640B60030241069012BDE06401703E30B4
:10406F000F137B017A1279B37D0AFC1271AFE490C2
:10407F0012BEF080289012B3E0FEA3E0FFD39400AD
:10408F00EE940050030242031273BA7B017A127945
:10409F00B37D0A7C001271AFD20F0278B09012BDBF
:1040AF00E004F0E05401FFF0E4A3F0EF14604204E9
:1040BF006003024182E49012BEF09012B3E0FFA3BE
:1040CF00E0901083CF8024901083E0FEA3E0FFD315
:1040DF009400EE940050030241829012BEE004F06F
:1040EF007C007D0A120972901083EEF0A3EFF0802E
:1040FF00D61279C6C20F22901082E0640A706A90BD
:10410F0012BDE014602804706A9012BEE0D39400D0
:10411F00405EE014F09012B3E0FEA3E0FF7C007D60
:10412F000A1209729012B3EEF0A3EFF08045E490FB
:10413F0012BDF0A3F09012B3E0FFA3E0901083CF75
:10414F008021901083E0FEA3E0FFD39400EE940053
:10415F0040219012BEE004F07C007D0A120972909B
:10416F001083EEF0A3EFF080D9901082E0B40F032C
:10417F0002660F901082E0FFC39400406CEFD3945F
:10418F000950669012BDE070609012BEE0C39404B7
:10419F0050499012B3E0FEA3E0FF7C007D0A1209A4
:1041AF00609012B3EEF0A3EFF0901082E0FF7E006C
:1041BF009012B4E02FF09012B3E03EF09012BEE0F8
:1041CF0004F0D39012B4E0940A9012B3E09400403C
:1041DF000AEEF0A3EFF0E49012BEF09012B3E0708D
:1041EF0002A3E070049012BEF07B017A1279B3C281
:0441FF00001220B0DA
:014203002298
:10785A00901259740BF01276137BFF7A2779C9E4D8
:06786A00FD7F010278021F
:1077BE00EF24F6600E24FB600A24047009127A3A54
:0777CE000278B012660F22E1
:10660F009012597408F01276137BFF7A2779E4E41D
:10661F00FDFF1278027BFF7A2779F5E4FD7F0112E7
:10662F0078027BFF7A287906E4FD7F021278027BDD
:10663F00FF7A287930E4FD7F0312780290110974F4
:10664F00FFF0A37477F0A37426F0901246E0FFA337
:10665F00E090110CCFF0A3EFF07B017A1079891243
:0F666F001DA87B017A1079897D067F03027802CE
:1075D100EF24FE601214601224F9601124FB600D87
:1075E100240E700C0273DF02740402785A126EF2D8
:0175F1002277
:1074BD007B017A1279B37D0A7C001271AF9012BDF7
:1074CD007401F0E4A3F0901259740CF01220A87F0F
:0474DD0002025CC18A
:1048E900901082EFF0640A70329012BDE0147038B3
:1048F9009012BEE0D394004029E014F09012B5E084
:10490900FCA3E0FDA3E0FEA3E0FFE47B0AFAF9F8CB
:10491900120AE19012B5120C0A800D901082E0B4CF
:104929000F061276F5026F96901082E0FFC394008D
:104939005003024A29EFD394094003024A299012ED
:10494900BDE0146003024A299012BEE0C3940450EA
:104959004C9012B5E0FCA3E0FDA3E0FEA3E0FFE468
:104969007B0AFAF9F8120A569012B5120C0A90123B
:10497900B5E0F8A3E0F9A3E0FAA3E0FB901082E028
:10498900FFE4FCFDFEEB2FFFEE3AFEED39FDEC38BE
:10499900FC9012B5120C0A9012BEE004F0E4FFFE7E
:1049A900FDFC9012B5E0F8A3E0F9A3E0FAA3E0FB5F
:1049B900C3120B7370049012BEF09012BEE064042F
:1049C900705E9012B5A3A3E0FEA3E0FF1262EC5063
:1049D90029D20012798490120BE4F0A37403F090A9
:1049E90012B5120C1600000000E49012B3F0A3F007
:1049F9009012BEF09012BD04F0229012B5120C165E
:104A090000000000E49012BEF09012BD04F012788C
:104A19009B7F05125CC190120BE4F0A37405F02290
:044A29001220A8228D
:107429007B017A1279B37D0A7C001271AFE4901264
:10743900BDF0A3F0901259740DF07B017A1279B363
:05744900D2000220B09A
:10768700C3744C944AFF74129412FE7B017A1279E8
:0D7697004C9010EBE4F0A37404F00261616C
:0529EF00901082EFF0E2
:1029F400640B6003022AF59012BDE06402600302D6
:102A04002AA83010147B017A1279B37D0AFC127162
:102A1400AFE49012BEF0022AA8E4FFFEFDFC90127F
:102A2400B5E0F8A3E0F9A3E0FAA3E0FBC3120B734B
:102A3400605B9012B9E0FCA3E0FDA3E0FEA3E0FF1D
:102A44009012B5E0F8A3A3A3E0C3120B73703E90F9
:102A540012B5E0FCA3E0FDA3E0FEA3E0FF90124C5E
:102A6400120C0A1276871278867B017A1279B37D6A
:102A74000A7C001271AFD2109012B5120C1600002D
:102A840000009012B9120C1600000000229012B53A
:102A9400120C16000000009012B9120C160000006F
:102AA4000002789B9012BDE0B40109A3E0640660C3
:102AB40003022CAF9012BDE004F0E075F00384AF84
:102AC400F0EFF0E4A3F0EF14600F14601E24026032
:102AD40003022BA79012B580039012B9120C1600B2
:102AE400000000E49012BEF0022BA71279B6C210C7
:102AF40022901082E0640A6003022B9D9012BDE0D4
:102B0400146037147003022B9424026003022BA771
:102B14009012BEE0D39400401FE014F09012B5E090
:102B2400FCA3E0FDA3E0FEA3E0FFE47B0AFAF9F8CE
:102B3400120AE19012B5802880669012BEE0D39408
:102B4400004022E014F09012B9E0FCA3E0FDA3E001
:102B5400FEA3E0FFE47B0AFAF9F8120AE19012B945
:102B6400120C0A803E9012BDE014F0E4A3F090121F
:102B7400B5A3A3E0FEA3E0FFD3EF9400EE940040DE
:102B8400229012BEE004F07C007D0A12097280E8F3
:102B9400E49012BDF0A3F0800A901082E0B40F0319
:102BA400026EF2901082E0FFC394005003022CAC3A
:102BB400EFD394094003022CAC9012BDE01460766C
:102BC400046003022CAC9012BEE0C39406504C90F7
:102BD40012B5E0FCA3E0FDA3E0FEA3E0FFE47B0A62
:102BE400FAF9F8120A569012B5120C0A9012B5E0CE
:102BF400F8A3E0F9A3E0FAA3E0FB901082E0FFE47D
:102C0400FCFDFEEB2FFFEE3AFEED39FDEC38FC90B7
:102C140012B5120C0A9012BEE004F0E4FFFEFDFCB3
:102C24009012B5E0F8A3E0F9A3E0FAA3E0FBC31225
:102C34000B737074806E9012BEE0C39406504C9077
:102C440012B9E0FCA3E0FDA3E0FEA3E0FFE47B0AED
:102C5400FAF9F8120A569012B9120C0A9012B9E055
:102C6400F8A3E0F9A3E0FAA3E0FB901082E0FFE40C
:102C7400FCFDFEEB2FFFEE3AFEED39FDEC38FC9047
:102C840012B9120C0A9012BEE004F0E4FFFEFDFC3F
:102C94009012B9E0F8A3E0F9A3E0FAA3E0FBC312B1
:0B2CA4000B7370049012BEF01220A809
:012CAF002202
:1027040025732575002D222F3A2829275F00537938
:102714007374656D2073657474696E677300312D0D
:10272400313300312D4164642F456469742075731D
:10273400657200322D44656C65746520757365722D
:1027440000332D44656C657465416C6C75736572FA
:10275400730044656C65746520616C6C20202020D6
:10276400202055736572733F0041706172746D650A
:102774006E743A004E616D653A0072656C61793A27
:102784000020436F6E6669726D2053617665203F49
:10279400005361766521004572726F722100436FA8
:1027A4006E6669726D202020202020202020446540
:1027B4006C6574696F6E3F0020202044656C6574FD
:1027C400656420210044656C65746520616C6C202F
:1027D400202020202050617373776F7264733F0050
:1027E400312D41646420612070617373776F72646A
:1027F40000322D44656C65746550617373776F7234
:102804006400332D44656C65746520616C6C200034
:1028140050617373776F72643A00436F6E666972C6
:102824006D0050617373776F72643A00546F746112
:102834006C3A0041646D696E2070617373776F72D6
:10284400643A00312D416464206120636172640044
:10285400322D44656C657465206361726400332DA8
:1028640044656C657465416C6C63617264730044A7
:10287400656C65746520616C6C20202020202063C9
:10288400617264733F00436172643A00436172642D
:10289400206572726F72210054686520646F6F72D4
:1028A400206973206F70656E210043616C6C696EE2
:1028B400673A200054616C6B54696D653A00526943
:1028C4006E672074696D653A0043616C6C54696D80
:1028D400653A00566F69636520202020202020205F
:1028E400202020496E737472756374696F6E733A35
:1028F4000043616D6572613A0052656C61792074C0
:10290400696D653A00556E6C6F636B4B65793A007F
:102914004F6E004F666600202047736D204572722B
:102924006F722100546F2063616E63656C20707256
:102934006573730073656C6563742061206E616DEB
:10294400650066726F6D20746865206C697374002D
:1029540070726573730057656C636F6D6521005405
:102964006F2063616C6C202D00456E74657220616C
:10297400706172746D656E74006E756D626572203F
:102984002B2000546F2063616C6C2C707265737320
:1029940000546F20756E6C6F636B2C70726573736B
:1029A400002B20342044696769747320636F646565
:1029B4000041706172746D656E74204572726F723D
:1029C400210054616C6B696E673A005265736574DB
:1029D400204F4B210053706565636820766F6C75DA
:0B29E4006D653A00526F6F6D3A2000E5
:1079B6001276137BFF7A277985E4FD7F0102780230
:1079C6001276137BFF7A2779A2E4FD7F0102780203
:107886001276137BFF7A277995E4FD7F0112780241
:057896007F06025CC149
:10789B001276137BFF7A27799BE4FD7F0112780226
:0578AB007F0B025CC12F
:1078B0001276137BFF7A2779BCE4FD7F01127802F0
:0578C0007F06025CC11F
:1078C5001276137BFF7A287990E4FD7F0112780206
:0578D5007F07025CC109
:10775C001276137BFF7A28799CE4FD7F0112780264
:09776C003001057F03125CC1220B
:1079D6001276137BFF7A2979B5E4FD7F01027802DE
:01000A0022D3
:10554300901083EFF012761312000A901083E0702C
:105553004A7BFF7A297928FDFF1278027B047D0FAD
:10556300E4FF12794E7BFF7A297938E4FD7F01123B
:1055730078027BFF7A297946E4FD7F021278027B69
:10558300FF7A297954E4FD7F03127802E4FB7D0658
:105593007F0312794E7B017D08803E901083E06487
:1055A30001703B7BFF7A29795AFDFF1278027BFF5A
:1055B3007A297963E4FD7F011278027BFF7A2979E6
:1055C3006DE4FD7F021278027BFF7A29797DE4FD89
:1055D3007F031278027B027D097F0302794E9010CC
:1055E30083E0640270377BFF7A297987FDFF1278A5
:1055F300027B027D0EE4FF12794E7BFF7A297995B7
:10560300E4FD7F011278027B037D0F7F0112794E47
:0E5613007BFF7A2979A5E4FD7F02127802223E
:106DBC0012761390110974FFF0A37427F0A37404D6
:106DCC00F0A374FFF0A37429F0A374C6F09012B171
:106DDC00E0FFA3E090110FCFF0A3EFF07B017A124C
:106DEC007993121DA87B017A127993E4FD7F01023D
:026DFC0078021B
:1079E6001276137BFF7A2979CFE4FD7F01027802B4
:10754A00436865636B436172643A2562640D0A009D
:10755A00257325750025732500257320256C750074
:03756A0025750084
:0C39F4004112C5004112C600C116C117E7
:10752700C374489442FF74129412CF2480CF34005E
:10753700FE7B017A1279489010EBE4F0A37402F015
:037547000261617D
:0A7A4400E4901248F0A3F002752749
:10793B00D3901249E094F4901248E0940140031262
:03794B007A442259
:0B706200901090EBF0A3EAF0A3E9F01F
:10706D007C007D06120960EF2418FFEE3425FE909A
:10707D001090E0FBA3E0FAA3E0F99010EBE4F0A38D
:06708D007406F0026161CF
:0B709300901093EBF0A3EAF0A3E9F0EB
:10709E007C007D06120960EF2418FFEE3425FE9069
:1070AE001093E0FBA3E0FAA3E0F99010EBE4F0A359
:0670BE007406F00268FAFE
:0B5C2100901088EBF0A3EAF0A3E9F07C
:105C2C00E4901091F0A3F0901248E07002A3E070A1
:105C3C0002807D901248E0FCA3E0FD901091E0FE04
:105C4C00A3E0FFC39DEE9C50677B017A10798B1209
:105C5C007093E4FF901088E0FBA3E0FAA3E0F98FC7
:105C6C00827583001208FFFE748D2FF582E43410C8
:105C7C00F583E0B506050FEFB404D9EFB404217B2E
:105C8C00FF7A75794A901091E0FFA3E0901109CF4B
:105C9C00F0A3EFF0121DAE901091E0FEA3E0FF22F6
:105CAC00901092E004F0708B901091E004F08083DF
:045CBC007EFF7FFFE9
:015CC00022C1
:0B562100901085EBF0A3EAF0A3E9F085
:10562C00E490108EF0A3F0901248E0FCA3E0FD9003
:10563C00108EE0FEA3E0FFC39DEE9C50737B017ABD
:10564C00107988127093901085E0FBA3E0FAA3E028
:10565C00F91209F3FF901088E065F07003A3E06F76
:10566C00703DFF901085E0FBA3E0FAA3E02402F963
:10567C00E43AFAEF7C0029F9EC3AFA1208E6FE74E7
:10568C008A2FF582E43410F583E0B506050FEFB4EC
:10569C0004D1EFB4040990108EE0FEA3E0FF229039
:1056AC00108FE004F0708090108EE004F0025633FE
:1056BC00901248E0FEA3E0FFC394F4EE9401502E48
:1056CC00901085E0FBA3E0FAA3E0F912706290124F
:1056DC0049E004F07006901248E004F0127527902F
:1056EC001249E024FFFF901248E034FFFE227EFFB7
:0256FC007FFF2E
:0156FE002289
:08667E00901088EEF0A3EFF08C
:10668600901248E0FCA3E0FDD39FEC9E4058ED2419
:10669600FFFFEC34FFFE901088E0B50616A3E0B5C8
:1066A6000711901249E024FFF0901248E034FFF001
:1066B600027527901249E024FFF0901248E034FF5B
:1066C600F0127527901248E0FEA3E0FF7B017A10D6
:1066D600798A127093901088E0FEA3E0FF7B017A1E
:0666E60010798A127062B7
:0166EC00228B
:08744E00901085EEF0A3EFF0B1
:107456008013EFF47002EEF4601212667E901085CF
:0C746600E0FEA3E0FF7D031261EC80E675
:0174720022F7
:0B723200901085EBF0A3EAF0A3E9F058
:10723D008016EFF47002EEF4601312667E901085E6
:0D724D00E0FBA3E0FAA3E0F9125C2180E56C
:01725A002211
:0B335100901087EBF0A3EAF0A3E9F076
:10335C00127613901087E0FBA3E0FAA3E0F91209B0
:10336C00F3FFAEF0D39400EE940090110974FF407B
:10337C001CF0A37475F0A3745AF0A374FFF0A3743B
:10338C0029F0A374E8F0A3EEF0A3EF8014F0A3747B
:10339C0075F0A3745FF0A374FFF0A37429F0A37409
:1033AC00E8F07B017A10798E121DA87B017A1079D6
:1033BC008EE4FD7F011278029012C5E070107B0143
:1033CC007A10798E12734AAD077F01127A58200059
:1033DC00030235767BFF7A28798AE4FD7F02127826
:1033EC0002901087E0FBA3E0FAA3E02402F9E43A90
:1033FC00FA7D047C001271535003023576901087CD
:10340C00E0FBA3E0FAA3E0F99000021208FFFFE44E
:10341C00FCFDFE90108A120C0A90108AE0FCA3E0CE
:10342C00FDA3E0FEA3E0FF7808120B9790108A1220
:10343C000C0A90108AE0F8A3E0F9A3E0FAA3E0FBF1
:10344C00C000C001C002C003901087E0FBA3E0FAEB
:10345C00A3E0F99000031208FFFFD003D002D001C3
:10346C00D000EB4FFFEAFEE9FDE8FC90108A120C4D
:10347C000A90108AE0FCA3E0FDA3E0FEA3E0FF7835
:10348C0008120B9790108A120C0A90108AE0F8A37D
:10349C00E0F9A3E0FAA3E0FBC000C001C002C00346
:1034AC00901087E0FBA3E0FAA3E0F9900004120867
:1034BC00FFFFD003D002D001D000EB4FFFEAFEE9B2
:1034CC00FDE8FC90108A120C0A90108AE0FCA3E034
:1034DC00FDA3E0FEA3E0FF7808120B9790108A1270
:1034EC000C0A90108AE0F8A3E0F9A3E0FAA3E0FB41
:1034FC00C000C001C002C003901087E0FBA3E0FA3B
:10350C00A3E0F99000051208FFFFD003D002D00110
:10351C00D000EB4FFFEAFEE9FDE8FC90108A120C9C
:10352C000A90110974FFF0A37475F0A37463F0A3EF
:10353C0074FFF0A37428F0A3748AF090108AE0FC56
:10354C00A3E0FDA3E0FEA3E0FF7808120B8490112A
:10355C000F120C0A7B017A10798E121DA87B017A4E
:0A356C0010798EE4FD7F0212780250
:013576002232
:107473007B017A1279BF7D067C001271AFE4901212
:10748300C5F0A3F09012597410F07B017A1279BF02
:05749300D2000233519C
:053EA800901082EFF014
:103EAD00640B6003023F769012C5E06401706030D0
:103EBD0016137B017A1279BF7D06FC1271AFE49067
:103ECD0012C6F0804AD39012C0E094009012BFE069
:103EDD00940040387B017A1279C17D047C00127107
:103EED005340297B017A1279BF125621EFF47002EB
:103EFD00EEF46005127886800312789B7B017A12AE
:103F0D0079BF7D067C001271AFD2162202789B908C
:103F1D0012C5E004F0E05401FFF0E4A3F0EF1460EB
:103F2D0042046003023FF2E49012C6F09012BFE02B
:103F3D00FFA3E0901083CF8024901083E0FEA3E0D8
:103F4D00FFD39400EE94005003023FF29012C6E0AE
:103F5D0004F07C007D0A120972901083EEF0A3EF3D
:103F6D00F080D61279B6C21622901082E0640A70E3
:103F7D006A9012C5E014602804706A9012C6E0D3EE
:103F8D009400405EE014F09012BFE0FEA3E0FF7CD1
:103F9D00007D0A1209729012BFEEF0A3EFF080457A
:103FAD00E49012C5F0A3F09012BFE0FFA3E09010D3
:103FBD0083CF8021901083E0FEA3E0FFD39400EE29
:103FCD00940040219012C6E004F07C007D0A120995
:103FDD0072901083EEF0A3EFF080D9901082E0B4D0
:103FED000F030266ED901082E0FFC394004052EF84
:103FFD00D39409504C9012C5E070469012C6E0C3A0
:10400D009404503D9012BFE0FEA3E0FF7C007D0ABA
:10401D001209609012BFEEF0A3EFF0901082E0FF56
:10402D009012C0E02FF09012BFE03400F09012C655
:10403D00E004F09012BFE07002A3E070049012C68D
:0C404D00F07B017A1279BFD200123351CF
:014059002244
:106E7E00901084EBF0A3EAF0A3E9F0901084E0F90F
:106E8E00A3E0FAA3E09010B6C9F0A3EAF0A3E9F0EC
:106E9E00A3E4F0A37404F07B017A1279C1126D356C
:0B6EAE007B017A1279BFD20002335141
:106FCB007B017A1279BF7D0A7C001271AFE49012BB
:106FDB00C5F0A3F09012597411F07B017A1279C1AC
:106FEB007D047C00127153B392007B017A1279BF3E
:036FFB000233510D
:053CF000901082EFF0CE
:103CF500640B6003023DB69012C5E0640170583054
:103D050017137B017A1279BF7D06FC1271AFE4901F
:103D150012C6F080427B017A1279C17D047C0012C3
:103D25007153400B7B017A1279C112723280169061
:103D350012BFE0FEA3E0FFD39400EE94005003020F
:103D45003EA712744E7B017A1279BF7D067C001264
:103D550071AFD2170278B09012C5E004F0E05401BB
:103D6500FFF0E4A3F0EF146042046003023E32E486
:103D75009012C6F09012BFE0FFA3E0901083CF80B1
:103D850024901083E0FEA3E0FFD39400EE9400504E
:103D950003023E329012C6E004F07C007D0A12094F
:103DA50072901083EEF0A3EFF080D61279C6C21799
:103DB50022901082E0640A706A9012C5E0146028AF
:103DC50004706A9012C6E0D39400405EE014F0904F
:103DD50012BFE0FEA3E0FF7C007D0A12097290127B
:103DE500BFEEF0A3EFF08045E49012C5F0A3F0908C
:103DF50012BFE0FFA3E0901083CF8021901083E0F5
:103E0500FEA3E0FFD39400EE940040219012C6E09B
:103E150004F07C007D0A120972901083EEF0A3EF86
:103E2500F080D9901082E0B40F030266ED90108205
:103E3500E0FFC394004052EFD39409504C9012C553
:103E4500E070469012C6E0C39404502F9012BFE074
:103E5500FEA3E0FF7C007D0A1209609012BFEEF020
:103E6500A3EFF0901082E0FF9012C0E02FF09012C7
:103E7500BFE03400F09012C6E004F09012BFE0708D
:103E850002A3E070049012C6F07B017A1279C17D1D
:103E9500047C00127153B392007B017A1279BF1230
:023EA500335197
:013EA70022F8
:107870009012597412F01276137BFF7A287973E410
:06788000FD7F0102780209
:1077D500EF24F6600E24FB600A24047009127A4433
:0777E5000278B01266ED22EC
:1066ED00901259740FF01276137BFF7A287947E4D4
:1066FD00FDFF1278027BFF7A287954E4FD7F0112A9
:10670D0078027BFF7A287962E4FD7F021278027BA2
:10671D00FF7A287930E4FD7F031278029011097415
:10672D00FFF0A37475F0A3746AF0901248E0FFA314
:10673D00E090110CCFF0A3EFF07B017A1079851268
:0F674D001DA87B017A1079857D067F03027802F3
:1075F200EF24FE601214601224F9601124FB600D66
:10760200240E700C027473026FCB027870126EF249
:017612002255
:1079F60043617264526561643A20256C750D0A0014
:103A000041120400411203004111FD004112020065
:103A10004211FB0000C10AC10D4411BA00000000B0
:103A20004111D2004411FE0000000042120503E8DB
:103A30004111B5004411B6000000004411B100006E
:063A40000000C10BC10CE7
