:030000000280B9C2
:0C80B900787FE4F6D8FD75812502810077
:1096F40025730044746D66446174613A20307825A2
:10970400623032580D0A005573724B657920256218
:04971400640D0A00D6
:094DDA004213B500004113B700BB
:104B9E007F647E00129580C2AF30C0FD1276B212D5
:104BAE008D35128C351299C21295071295587FE8E1
:104BBE007E03129580129718D2AF7F647E001295F5
:104BCE0080C200126861127AC17F647E00129580E5
:104BDE001298331299A81294B5900CABE0600C7B2E
:104BEE00017A0C79B4121394129A26900CB3E060E9
:104BFE002B9011507401F0A3740EF0A374B4F07BDB
:104C0E00FF7A9679F4122F977B017A0E79B4900C75
:104C1E00B0E0FCA3E0FD126D87129A3F125E499040
:104C2E0013A6E060427BFF7A9679F7901150F0124E
:104C3E002F979011E1E0FF9013A6E0B5070C9011AD
:104C4E00E0E0FDD200E4FF1200269011E2E0FF90BA
:104C5E0013A6E0B5070C9011E0E0FDD2007F011223
:104C6E000026E49013A6F0202603024D99C22612C8
:104C7E008E1A126EB19013B7EFF0F4601E7F111200
:104C8E008C8B7BFF7A97790B9013B7E0901150F0D5
:104C9E00122F979013B7E0FF125FCC126B0912928E
:104CAE0035123291129203129CE09013B5E475F016
:104CBE0001120ABDFED3E5F094E8EE940350030210
:104CCE004D68E49013B5F0A3F0B2811299DB901108
:104CDE0076E07002A3E060259012F4E07002A3E08B
:104CEE00701B9012EFE07002A3E0701190117674B9
:104CFE00FFF5F0120ABD45F070031294B59011F64F
:104D0E00E064157021128EE99012EFE07002A3E0BC
:104D1E0060149012EF74FFF5F0120ABD45F07006A4
:104D2E001299F41294B59011C9E004F0E075F00AEE
:104D3E0084E5F0F0901176E07002A3E0701C901103
:104D4E00F6E0640170149011F4E0B4FF0DA3E0B42A
:104D5E00FF089011C9E0FF127C02D390132FE0944C
:104D6E000090132EE0940040229011F6E06404703F
:104D7E001A90132FE024FFF090132EE034FFF0E092
:104D8E007002A3E070057F6312187830190A901133
:104D9E00F6E064017002C219301417120E7E30173D
:104DAE000E7F11128C8B7B017A1279D112898C12A3
:104DBE0099A8201603024BE77F11128C8B7B017A88
:0C4DCE001279D112898C129BA7024BE7CE
:1091020055415254315F636F6E666967204F4B2140
:109112000D0A0055415254335F636F6E66696720D2
:109122004F4B210D0A0052657365744B6579546982
:059132006D650D0A004F
:104DE3004113A6004113A2004113A3004113A71FBF
:104DF3004113AA1F4213A800004113A4004113A5A5
:064E0300004213AB0000A9
:109580007C007D07120A56E4FDC3ED9FEC9E50154A
:10959000E4FBFA0BBB00010AEB646E4A70F50DBDEB
:0595A00000010C80E455
:0195A50022A3
:0E9CD200901175EFF0129437901175E0FF229B
:0B95A600901124EBF0A3EAF0A3E9F021
:1095B100E4FF901124E0FBA3E475F001120AD3A9A2
:0A95C100F0FA1209DC60030F80E8E5
:0195CB00227D
:109A7000E4FF1209DC600F0F64D770011F74012925
:069A8000F9E43AFA80EC63
:019A860022BD
:0B73E0009010D5EBF0A3EAF0A3E9F059
:1073EB00E49010DBF0A3F0A3F0A3F09010D5E0FB3A
:1073FB00A3E0FAA3E0F99010DBE0FEA3E0F5828EA8
:10740B00831209F5FF70030274D39010D8E0FBA32D
:10741B00E0FAA3E0F91209DC6F60030274BF90106D
:10742B00DDF0A3F09010D8E0FBA3E0FAA3E0F99015
:10743B0010DDE0FEA3E0F5828E831209F56051901A
:10744B0010DDA3E0FF9010DCE02FFF9010DBE03E9F
:10745B00FE9010D5E0FBA3E0FAA3E0F98F828E83B8
:10746B001209F5FF9010D8E0FBA3E0FAA3E0F99026
:10747B0010DDE0FCA3E0F5828C831209F5B5071053
:10748B009010DEE004F0709C9010DDE004F080942E
:10749B009010D8E0FBA3E0FAA3E0F99010DDE0FE3A
:1074AB00A3E0F5828E831209F570099010DBE0FEE4
:1074BB00A3E0FF229010DCE004F060030273F6906F
:0C74CB0010DBE004F00273F67EFF7FFF90
:0174D7002292
:1093B400901124EBF0A3EAF0A3E9F0ED1DAE0470E4
:1093C400011C4E6016901124E0FBA3E475F0011219
:0C93D4000AD3A9F0FAE4120A2280E02279
:108E62009010D0EBF0A3EAF0A3E9F09010D674FFD3
:108E7200F5F0120AD345F0602A9010D3E0FBA3E488
:108E820075F001120AD3A9F0FA1209DCFF9010D092
:108E9200E0FBA3E475F001120AD3A9F0FAEF120A7B
:048EA2002280C82240
:0B8B810090109CEBF0A3EAF0A3E9F0D9
:108B8C00E4FFFE90109FE0FBA3E0FAA3E0F91209CA
:108B9C00DC602D90109FA3E475F001120AD3A9F0AC
:108BAC00FA1209DCFD90109CE0FBA3E475F00112B5
:108BBC000AD3A9F0FAED120A220FBF00010E80C3EE
:0F8BCC0090109CE0FBA3E0FAA3E0F9E4020A2278
:109386009010C5EBF0A3EAF0A3E9F0ED1DAE047072
:10939600011C4E60179010C5E0FBA3E475F00112A6
:0E93A6000AD3A9F0FA1209DC60E1C322D32237
:1076B20090107D74FFF0E490107CF07B017A1079D9
:1076C2007C7F011244957B017A10797C7F021244FF
:1076D200957B017A10797C7F0312449590107D741A
:1076E20060F07B017A10797CE4FF12449590107D62
:1076F2007401F0FB7A10797C7F0412449590107D1E
:107702007430F07B017A10797C7F051244959010D9
:107712007D74F3F07B017A10797C7F061244959098
:10772200107D7448F07B017A10797C7F07124495B2
:1077320090107C7403F0A37413F07B017A10797CAF
:10774200E4FF12449590107D741AF07B017A10794F
:107752007C7F0412449590107D740CF07B017A10AA
:10776200797C7F0512449590107D7437F07B017A05
:1077720010797C7F0712449590107D7404F07B0190
:107782007A10797C7F06124495C2F8C2C1D2FAD22D
:07779200FBD2F9C2C3C2845F
:0177990022CD
:108C350090107C7440F0A37402F0A3120D0C000197
:108C4500C2009010837401F0E4A3F0A304F0A3F034
:108C5500E4A3F07B017A10797C7F01121D417BFF33
:108C65007A917902122F979010877402F07B017A1E
:108C750010797C7F03121D417F581293E07BFF7AA8
:068C8500917915022F9702
:108D3500E490107CF0A3F0A304F0E4A3F0A3F0A367
:108D45007496F0A37488F0A37401F0FB7A10797C13
:108D5500E4FF12500B90108174FEF0A374F2F07BC7
:108D6500017A10797C7F0112500B90108174FCF010
:0F8D7500A374B5F07B017A10797C7F0402500B58
:1099C20090107E7401F0E490107DF090107CF07B9A
:0999D200017A10797CFF0287CDB7
:106EB1009013A2E0146036146052146063147003DE
:106EC100026F9B147003026FAF24056003026FCB46
:106ED10075A0F0E5A054F064F07003026FCB90133D
:106EE100A37414F09013A27401F0026FCBE5A054C7
:106EF100F064F07003026FC79013A3E014F0600315
:106F0100026FCB9013A27402F0026FCBE5A0440F85
:106F110090107CF0E0F5A09013A27403F0026FCB07
:106F210090107CE5A0F075A0F09013A27404F0908D
:106F3100107CE0120D496F98776F957B6F927D6F92
:106F41008F7E6F8CB76F89BB6F86BD6F83BE6F807D
:106F5100D76F7DDB6F7ADD6F77DE6F74E76F71EB73
:106F61006F6EED6F6BEE00006FCB7F04227F082206
:106F71007F0B227F0F227F03227F07227F00227F48
:106F81000E227F02227F06227F0A227F0D227F01AD
:106F9100227F05227F09227F0C22E5A054F064F0B4
:106FA10070289013A27405F0A37414F0801CE5A05E
:106FB10054F064F060089013A27404F0800C9013F4
:0C6FC100A3E014F070049013A2F07FFF16
:016FCD0022A1
:106B09009013A4E0146040046003026B94A2CDE4E6
:106B19003325E0FFA2CCE4334F25E0FFA2C0E433E4
:106B29004F25E0FFA285E4334F25E0FFA286E43339
:106B39004FFF9013A7E06F60529013A5741EF09059
:106B490013A47401F08044A2CDE43325E0FFA2CC64
:106B5900E4334F25E0FFA2C0E4334F25E0FFA285CF
:106B6900E4334F25E0FFA286E4334FFF9013A7E0FB
:106B7900B50707E49013A4F080119013A5E014F071
:106B890070099013A4F09013A7EFF09013A7E0FFFA
:106B99009013AAE0FE6F6075EE5401FEEF5401FFF9
:106BA9006E6018EF70159011E0E0FDC200E4FF126D
:106BB9000026901176E4F0A37405F09013AAE0542E
:106BC90002FF9013A7E05402FE6F6018EE70159053
:106BD90011E0E0FDC2007F01120026901176E4F079
:106BE900A37405F09013AAE05404FF9013A7E0548E
:106BF900046F6011A37427F0A37410F07BFF7A91DE
:106C09007928122F979013A7E09013AAF09013AA4E
:106C1900E0540470299013A8E07002A3E0601F906B
:106C290013A874FFF5F0120ABD45F07011D20012D5
:0E6C39006861129CC2901176E4F0A37405F01D
:016C4700222A
:1000260074AB2FF582E43413F583EDF0EFFD7C001D
:100036007004D2C38008ED64014C7002D284A20021
:050046009201029A0D79
:1099DB009013ABE0600614F07002C2C39013ACE0BE
:0999EB00600614F07002C284222F
:1000A600000000384492BAFE828244380000000004
:1000B60000000038448282FEBA92443800000000F4
:1000C6000000003854AAAAAAC692443800000000CC
:1000D600000000384482AAF68A82443800000000F4
:1000E6000000000000000000000303000000000004
:1000F6000003030F0F3F3FFFFFFFFF00000000005C
:1001060000000000422418182442000000000000ED
:100116000000003844BAC6AAAAAA54380000000053
:1001260000003C42A599FF99A5423C000000000052
:1001360000000000000000000000000000000000B9
:100146000000183C3C3C1818180018180000000065
:10015600006363632200000000000000000000004E
:1001660000000036367F3636367F36360000000011
:100176000C0C3E6361603E030343633E0C0C0000BF
:1001860000000000006163060C18336300000000E5
:100196000000001C36361C3B6E66663B0000000005
:1001A6000030303060000000000000000000000059
:1001B60000000C18183030303018180C0000000001
:1001C6000000180C0C060606060C0C1800000000B1
:1001D6000000000042663CFF3C6642000000000052
:1001E60000000000181818FF18181800000000007A
:1001F6000000000000000000000018181830000081
:1002060000000000000000FF0000000000000000E9
:1002160000000000000000000000181800000000A8
:1002260000000103070E1C3870E0C08000000000CB
:1002360000003E6363636B6B6363633E0000000014
:1002460000000C1C3C0C0C0C0C0C0C3F00000000BD
:1002560000003E6303060C183061637F0000000057
:1002660000003E6303031E030303633E0000000019
:100276000000060E1E3666667F06060F00000000AA
:1002860000007F6060607E030363733E0000000031
:1002960000001C3060607E636363633E0000000004
:1002A60000007F630306060C0C18181800000000F7
:1002B60000003E6363633E636363633E00000000C9
:1002C60000003E636363633F0303063C00000000D7
:1002D60000000000001818000000181800000000B8
:1002E6000000000000181800000018181830000060
:1002F600000000060C18306030180C0600000000E4
:100306000000000000007E00007E000000000000EB
:100316000000006030180C060C1830600000000069
:1003260000003E6363060C0C0C000C0C0000000081
:1003360000003E63636F6B6B6E60603E0000000002
:100346000000081C366363637F636363000000007C
:1003560000007E3333333E333333337E00000000F8
:1003660000001E33616060606061331E00000000A3
:1003760000007C36333333333333367C00000000E1
:1003860000007F3331343C343031337F00000000CD
:1003960000007F3331343C343030307800000000C8
:1003A60000001E336160606F6363371D000000004C
:1003B6000000636363637F6363636363000000003D
:1003C60000003C18181818181818183C00000000EF
:1003D60000000F06060606060666663C00000000DC
:1003E6000000733336363C36363333730000000074
:1003F60000007830303030303031337F000000007C
:10040600000063777F6B63636363636300000000D0
:1004160000006363737B7F6F6763636300000000A4
:1004260000001C36636363636363361C00000000D0
:1004360000007E3333333E30303030780000000029
:1004460000003E6363636363636B6F3E06070000F1
:1004560000007E3333333E363633337300000000FC
:1004660000003E6363301C060363633E0000000029
:100476000000FFDB991818181818183C0000000037
:1004860000006363636363636363633E00000000AD
:10049600000063636363636363361C080000000047
:1004A600000063636363636B6B7F36360000000096
:1004B6000000C3C3663C18183C66C3C300000000B6
:1004C6000000C3C3C3663C181818183C000000009F
:1004D60000007F6343060C183061637F0000000054
:1004E60000003C30303030303030303C000000000E
:1004F600000080C0E070381C0E07030100000000F9
:1005060000003C0C0C0C0C0C0C0C0C3C000000000D
:10051600081C366300000000000000000000000018
:10052600000000000000000000000000FF000000C6
:1005360018180C0000000000000000000000000079
:1005460000000000003C46063E66663B00000000D8
:1005560000007030303C36333333336E0000000019
:1005660000000000003E63606060633E0000000023
:1005760000000E06061E36666666663B0000000034
:1005860000000000003E63637E60633E00000000E2
:1005960000001C3632307C303030307800000000ED
:1005A60000000000003B666666663E06663C00008C
:1005B6000000703030363B333333337300000000B5
:1005C60000000C0C001C0C0C0C0C0C1E0000000097
:1005D60000000606000E060606060666663C0000D5
:1005E60000007030303333363C3633730000000081
:1005F60000001C0C0C0C0C0C0C0C0C1E000000005B
:1006060000000000006E7F6B6B6B6B6B00000000E0
:1006160000000000006E3333333333330000000034
:1006260000000000003E63636363633E0000000059
:1006360000000000006E333333333E303078000064
:1006460000000000003B666666663E06060F000078
:1006560000000000006E3B333030307800000000B0
:1006660000000000003E63380E03633E00000000F9
:1006760000000818187E181818181B0E0000000035
:1006860000000000006666666666663B00000000C5
:100696000000000000636336361C1C0800000000E2
:1006A60000000000006363636B6B7F360000000090
:1006B600000000000063361C1C1C366300000000AE
:1006C600000000000063636363633F03063C0000B1
:1006D60000000000007F660C1830637F00000000F9
:1006E60000000E18181870181818180E00000000D0
:1006F6000000181818181800181818181800000004
:100706000000701818180E1818181870000000004D
:1007160000003B6E0000000000000000000000002A
:100726000070D8D870000000000000000000000033
:100736000000C6C66676DCCCC6C600000000000017
:100746000000F80C0C0C0C0C0CFE00000000000065
:1007560000007018181818386C66000000000000B9
:100766000000FE0C0C0C0C0C0C0C00000000000031
:1007760000007C060606666666660000000000004D
:1007860000001818181818181818000000000000A3
:1007960000007818303030303030000000000000A3
:1007A6000000FCC6C6C6C6C6C6C6000000000000DD
:1007B6000000CCC6C6C6C6C6C67C00000000000047
:1007C60000001818181800000000000000000000C3
:1007D60000007018181818181818180000000000E3
:1007E60000007C0606060606067C000000000000E7
:1007F600C0C0FC060606060C181800000000000023
:100806000000FC66C6C6C6C6C6FE000000000000A4
:100816000000DC7666C6C6C6C6DC00000000000026
:1008260000001818181818181818181818000000BA
:100836000000380C0C0C0C0C0C3C000000000000F6
:1008460000007C66C6C6C6C6CC7800000000000064
:1008560000006666663636361C7000000000000032
:100866000000F84CCCCCCC6C0C0C0C0C0E00000030
:100876000000FC46C6C6E606867C000000000000B6
:1008860000666C38181818181818000000000000C8
:100896000000EE666634180C06FE0000000000003C
:1008A6000000FC060666646C6E6060600000000076
:1008B6000000F80C0C0C0C0C0C0C000000000000E6
:1008C6000000D6D6D6D6D6F6E67C0000000000009C
:1008D6000000FC6666666666E6E60000000000004C
:104E0900410CA300410CA000C12242089E000041B0
:074E19000CA1FF410CA2FFF8
:1098FB007590FFC2C4D2CBD2CA0000E590548064ED
:0F990B00807003D38001C39202C2CA0000A2027F
:01991A00222A
:109A58001298FB40FBC2C4C2CBC2CA00008F900060
:089A680000D2CA0000C2CA22AC
:0C981100E0FBA3E0FAA3E0F91209DCFF81
:10981D001298FB40FBD2C4C2CBC2CA8F900000D2BB
:06982D00CA0000C2CA22BD
:10971800C2CA7F30129A580000129A5800007F0C73
:10972800129A5800007F01129A5800007F06129A78
:0497380058000022B3
:109972007F01129A5800007B017A0879A07D007C51
:0B998200041293B47DFF7FFF029D0CD8
:0B7F0300901124EBF0A3EAF0A3E9F0DA
:107F0E002400F9EA3402FA901128EBF0A3EAF0A368
:107F1E00E9F0E4901127F0901127E0C394207480CB
:107F2E00948050637F36129A58E04480FF129A581C
:107F3E007F80129A587F30129A58301E03125E4973
:107F4E00E4FEEEC3941074809480501390112412AA
:107F5E009811901125E475F001120ABD0E80E37E92
:107F6E0010EEC394207480948050139011281298B0
:107F7E0011901129E475F001120ABD0E80E39011E3
:077F8E0027E004F0027F254B
:017F950022C9
:10802800AE077F36129A58EDD3940174809480403D
:1080380006ED24FEFF8002AF05EFC454F0240F4480
:1080480080FF129A58EDD394017480948040047F85
:108058000880027F00EEC3132F4480FF129A587FD6
:1080680030129A58EE30E02175F000EDA4248FF517
:1080780082E5F03409F5832DF583E5822EF582E457
:108088003583F583E0FF12981D3000047FFF801EC2
:1080980075F000EDA42490F582E5F03409F5832D00
:1080A800F583E5822EF582E43583F583E0FF0298B7
:0180B8001DAA
:109877001209DCFF6019640A6015D3EF94807480C5
:1098870094804002D322740129F9E43AFA80E1C3B3
:0198970022AE
:109C5200900CA3E004F0E05403F0E4900CA0F02296
:0B65AB00901124EBF0A3EAF0A3E9F04C
:1065B6001298779221901124A3E0FAA3E04A70037F
:1065C600026707901124E0FBA3E0FAA3E0F91209A1
:1065D600DCFF7003026707640A7003026707901105
:1065E60028EFF0900CA0E004F0E0D39410748094AF
:1065F600804003129C5290112974FFF0A37403F09B
:10660600A37426F0901128E0FFC394204072D3EFC4
:106616009480748094805010E075F010A42436F9AC
:1066260074FF35F0FAA3804F901125E475F001123E
:106636000ABD901128E07F00FE901124E0FBA3E044
:10664600FAA3E0F91209DC2FFFE43EFEC3EF9490B3
:10665600EE94D7402BD3EF94ABEE94D75022EFC4F1
:10666600F8540FC868FFEEC454F048FE74362FF98C
:10667600748E3EFA90112974FFF0A3EAF0A3E9F0B4
:10668600900CA0E0600714901127F0800AE49011A6
:1066960027F0900CA004F030210A901127E0FFC3E8
:1066A600740F9FF0E4FFEFC39410748094805044FD
:1066B600901129E0FBA3E0FAA3E0F98F827583002D
:1066C6001209F5FE900CA3E0C454F02F75F010A447
:1066D60024A0F582E5F03408F583C083C0829011CA
:1066E60027E0D082D0832582F582E43583F583EED8
:1066F600F00F80B2901125E475F001120ABD026513
:01670600C9C9
:01670700226F
:08857C00901089EFF0A3EDF06F
:10858400EB75F010A424A6F9740035F0FA90108D60
:1085940074FFF0A3EAF0A3E9F0E4FFEFC3941074CE
:1085A400809480504A90108DE0FBA3E0FAA3E0F998
:1085B4008F827583001209F5FE90108CE05EFE90A8
:1085C4001089E0C454F02F75F010A424A0F582E5BE
:1085D400F03408F583C083C08290108AE0D082D042
:0F85E400832582F582E43583F583EEF00F80ACBA
:0185F3002265
:109AE300900CA3EFF0900CA0EDF01265AB7B017A24
:069AF3000879A0027F03C8
:109C2F0090108C74FFF012857C7B017A0879A0026A
:029C3F007F03A1
:0A875A009013B8EFF0A3EDF0AC03AC
:10876400E4A3F0EC75F00584FCD394057480948044
:1087740040027C057E01EEC39C500F9013BAE013B7
:1087840013543FF044C0F00E80EC9013B8E0FFA304
:10879400E0FDECD394007480948040047EFF80025A
:1087A4007E0090108CEEF07B0412857C9013B8E070
:1087B400FFA3E004FDA3E090108CF07B0512857C00
:0987C4007B017A0879A0027F0311
:099D0C00900CA1EDF0A3EFF02290
:10920300900CA1E0FFF46029A3E0FDF46023900833
:109213009EE475F001120ABDABF0FABA0113BB2C40
:1092230010E490089EF0A3F0A2229200128028B2CC
:029233002222F5
:1035CA004F4B002B4350494E3A204E4F5420494E00
:1035DA00534552544544004552524F52002B4350D2
:1035EA00494E3A205245414459002B4350494E3ADC
:1035FA00204E4F542052454144590025642C2564DD
:10360A000061742B6370696E3F2072657475726E07
:10361A00202562640D0A002B435245473A200025B3
:10362A0062642C256264004174436D6443625F6383
:10363A007265673A202562642C2562640D0A00616E
:10364A00742B637265673F2072657475726E2025EC
:10365A0062640D0A002B4353513A20004174436DB2
:10366A006443625F6373713A202562642C25626445
:10367A000D0A0061742B6373713F20726574757251
:10368A006E202562640D0A0041540D0A0041542B34
:10369A004350494E3F0D0A0041542B434F50533D6E
:1036AA00300D0A0041542B435245473F0D0A004151
:1036BA00542B434C43433D310D0A0041542B434D97
:1036CA0047463D310D0A0041542B434C564C3D347C
:1036DA000D0A0041542B4353510D0A0041542B4308
:1036EA00504F460D0A0047534D5F5265706F77651C
:1036FA00720D0A0047534D5F496E69743A310D0ADB
:10370A000047534D5F4765744373710D0A00415476
:10371A002B434C564C3D2562640D0A0047534D5FBE
:10372A00536574566F6C756D2028256264293A209A
:10373A0025730D0A00415444003B0D0A0041542BE5
:10374A00434855500D0A0047534D5F496E69743A14
:10375A00320D0A0047534D5F496E69743A330D0AB8
:10376A000047534D5F496E69743A340D0A00475356
:10377A004D5F4174436D643A256264202D202562B1
:10378A00640D0A00415420636D6420657865637591
:10379A0074652031306564204661696C203A2025C1
:1037AA006264205B25735D20210D0A0043616C6C05
:1037BA004F757454696D653A2025640D0A004154A9
:1037CA002B434C43430D0A004154410D0A004E4F0E
:1037DA00524D414C20504F57455220444F574E00AE
:1037EA00554E4445522D564F4C5441474520504F53
:1037FA0057455220444F574E004E4F204449414CA2
:10380A00544F4E45004E4F204341525249455200B3
:10381A0052494E47002B434C43433A20002B445411
:10382A004D463A20002B525844544D463A20002B1C
:10383A00434F4C503A002B51544F4E454445543A4D
:10384A000041542B434D47533D002B434D47533AB8
:10385A0000727370547970653A256264202D2025B0
:10386A00640D0A002562642C2562642C25626400BA
:10387A00434C43433A202562640D0A000D0A2D2D5C
:10388A002D2D50614F70656E2D2D2D2D0D0A0025A1
:10389A0062640044544D463A202562640D0A00FFD2
:1038AA0035CDFF35E1FF35E7FF35F4FF35E1FF366A
:1038BA0021FF35E1FF365FFF37D8FF37EAFF3803CC
:1038CA00FF380FFF381AFF381FFF3827FF382FFF3E
:1038DA003839FF3840FF384BFF3854FF35E141543F
:0B38EA002B5654533D2230220D0A00E3
:104E20004112F1FF4112F8FFC119C11AC118411214
:104E3000D6004112D7004112D8004112D9004112C8
:104E4000DA0041132AFF41132B00603012FAFF36BB
:104E500092FF9137FF3697FF5CC3FF36A2FF913771
:104E6000FF36AEFF614DFF36B9FF916AFF36C5FFD1
:104E70009137FF36D1FF9137FF36DDFF643D421297
:104E8000F400004212F200004212EF00004112F959
:014E90000021
:109137009010D874FFF0A37435F0A374CAF01273BB
:10914700E0EFF47002EEF460037F04229012D6E0A1
:1091570004F0C3940A748094804005E4F07FFF22F2
:029167007F0087
:0191690022E3
:105CC300E490107CF074FFA3F0A3F0E4A3F0A3F03E
:105CD300A3F0A3EBF0A3EAF0A3E9F0E4901081F0C2
:105CE300901081E0FFC39404748094804003025DAC
:105CF300ACEF75F003A424A9F582E43438F583E40A
:105D030093F9740193FA7402939010D8C9F0A3EA3B
:105D1300F0A3E9F0901082E0FBA3E0FAA3E0F9120C
:105D230073E0EFF47002EEF46076901081E0FF7E92
:105D33000090107DEEF0A3EFF06401706C90107D85
:105D4300E0FEA3E09038A975F003120D3DEE75F067
:105D530003A42583F583E493FB740193FA740293FC
:105D6300F91295A67E00901082E0FBA3E0FAA3E06F
:105D73002FF9EE3AFA9010D874FFF0A37436F0A31B
:105D83007405F0A37401F0A37410F0A3747FF0A35F
:105D93007401F0A37410F0A37480F0123CA4800982
:105DA300901081E004F0025CE390107DE0FEA3E03C
:105DB300FFEE707BEF1460441460681460112403D9
:105DC300706D90107C74FFF09012F814F080609066
:105DD30012D7E0C3940A74809480400D90107C74B1
:105DE300FFF0E49012D7F0800BE490107CF0901257
:105DF300D7E004F09012F874FDF080339012D7E0EE
:105E0300C3940A74809480400D90107C74FFF0E476
:105E13009012D7F08019E490107CF09012D7E00430
:105E2300F0800C9012F874FCF090107C7404F07BFA
:105E3300FF7A36790B90107CE0901150F0122F9777
:055E430090107CE0FF5F
:015E48002237
:10614D00E490107CF074FFA3F0A3F0E4A3F0A3F0AF
:10615D00A3F0A3EBF0A3EAF0A3E9F0E4901081F033
:10616D00901081E0FFC3940274809480400302621A
:10617D005EEF75F003A424B5F582E43438F583E4BD
:10618D0093F9740193FA7402939010D8C9F0A3EAAD
:10619D00F0A3E9F0901082E0FBA3E0FAA3E0F9127E
:1061AD0073E0EFF47002EEF4700302625590108309
:1061BD00EE8FF0120ABD901081E0FF7E0090107DF1
:1061CD00EEF0A3EFF06401600302625E90107DE0DB
:1061DD00FEA3E09038B575F003120D3DEE75F0039A
:1061ED00A42583F583E493FB740193FA740293F968
:1061FD001295A67E00901082E0FBA3E0FAA3E02F9B
:10620D00F9EE3AFA9010D874FFF0A37436F0A37437
:10621D0029F0A37401F0A37410F0A3747FF0A3749C
:10622D0001F0A37410F0A37480F0123CA47BFF7AEC
:10623D0036793190107FE0901150F0901080E09001
:10624D001151F0122F978009901081E004F0026136
:10625D006D90107DE0FEA3E0FFEE704AEF1460122A
:10626D000470439012D8E0C3941474809480402B32
:10627D00801C901080E06401700790107C74048085
:10628D00129012D8E0C3941474809480400D901035
:10629D007C74FFF0E49012D8F0800BE490107CF049
:1062AD009012D8E004F07BFF7A36794990107CE0AB
:0C62BD00901150F0122F9790107CE0FF21
:0162C90022B2
:10643D00E490107CF074FFA3F0A3F0E4A3F0A3F0BC
:10644D00A3F0A3EBF0A3EAF0A3E9F0C218E49010D7
:10645D0081F0901081E0FFC394027480948040031A
:10646D00026550EF75F003A424BBF582E43438F5D2
:10647D0083E493F9740193FA7402939010D8C9F0E0
:10648D00A3EAF0A3E9F0901082E0FBA3E0FAA3E009
:10649D00F91273E0EFF47002EEF4700302654790A9
:1064AD001083EE8FF0120ABD901081E0FF7E0090F8
:1064BD00107DEEF0A3EFF0640160030265509010C3
:1064CD007DE0FEA3E09038BB75F003120D3DEE7537
:1064DD00F003A42583F583E493FB740193FA74020E
:1064ED0093F91295A67E00901082E0FBA3E0FAA32B
:1064FD00E02FF9EE3AFA9010D874FFF0A37436F04D
:10650D00A37429F0A37401F0A37410F0A3747FF0A9
:10651D00A37401F0A37410F0A37480F0123CA47B5B
:10652D00FF7A36796690107FE0901150F0901080D0
:10653D00E0901151F0122F978009901081E004F036
:10654D0002645F90107DE0FEA3E0FFEE7039EF1462
:10655D0060250470329012D9E0640A700D90107CA1
:10656D0074FFF0E49012D9F0801DE490107CF0904F
:10657D0012D9E004F0801090107FE09012F8F0D264
:10658D001990107C7404F07BFF7A36797D90107C25
:0D659D00E0901150F0122F9790107CE0FF5D
:0165AA0022CE
:10916A009010D874FFF0A37435F0A374CAF0127388
:10917A00E0EFF47002EEF460037F04229012DAE06A
:10918A0004F0C3940A748094804005E4F07FFF22BF
:02919A007F0054
:01919C0022B0
:10973C007BFF7A3679E61291D09012F1740AF09090
:10974C0012F67407F0A374D0F0D2197BFF7A367935
:04975C00F0022F9751
:10983300D2F89012F67403F0A374E8F09012F17466
:1098430001F09012F874FFF0D219FB7A3679FE0218
:029853002F974D
:109462009012F1E0640760219012F67403F0A37485
:10947200E8F09012F17404F090132A7407F0D218F5
:0A9482007BFF7A37790B122F972237
:1083F600901088EFF09012F67403F0A374E8F090F2
:1084060012F17404F090132A7406F090115074FF60
:10841600F0A37437F0A37418F0A3EFF07B017A127F
:1084260079DB122F9190132AE0FF75F006A424FA47
:10843600F582E43412F5837401F0A37412F0A37488
:10844600DBF0901088E0901150F0EF75F006A42450
:10845600FAF582E43412F583E0F9A3E0FAA3E0909A
:108466001151C9F0A3EAF0A3E9F07BFF7A37792628
:03847600022F973B
:108A5E009010B4EBF0A3EAF0A3E9F09012F1E0FF6E
:108A6E0064056008EF640960033018467BFF7A37AF
:108A7E00793F1291D09010B4E0FBA3E0FAA3E0F995
:108A8E001291D07BFF7A3779431291D09011DDE0AD
:108A9E00FF9012F4E4F0A3EFF0A37403F0A374E8D4
:108AAE00F09012F17406F0C21AE49012F9F0D2802E
:048ABE00D322C322DA
:1099F400D2807BFF7A3779471291D09012F17405A7
:099A0400F0E49012EFF0A3F0224F
:103291009012F1E0B40B0040030235C99032A4F85A
:1032A1002828730232EC02330002332C0233580215
:1032B10033D102345F0234730235020235600235C4
:1032C100790232C59012F674FFF5F0120ABD45F08D
:1032D10060030235C9C2F89012F6743AF0A37498EB
:1032E100F0E49012F1F090132BF0229012F674FF9B
:1032F100F5F0120ABD45F060030235C9029833901A
:1033010012F674FFF5F0120ABD45F060030235C9EB
:10331100D2C19012F67404F0A374B0F09012F1745B
:1033210002F07BFF7A37795102342D9012F674FF47
:10333100F5F0120ABD45F060030235C9C2C1901211
:10334100F67402F0A37458F09012F17403F07BFF4D
:103351007A37795E02342D9012F674FFF5F0120A75
:10336100BD45F060030235C99012F17404F0E49098
:10337100132AF0A3F090115074FFF0A37437F0A357
:103381007418F09011E3E0901153F07B017A1279F7
:10339100DB122F9190131E7401F0A37412F0A37429
:1033A100DBF090132AE075F006A424FAF582E434E8
:1033B10012F583E0FBA3E0FAA3E0F91291D0901299
:1033C100F67407F0A374D0F07BFF7A37796B805CD9
:1033D1009012F674FFF5F0120ABD45F06003023554
:1033E100C990132BE004F0C394157480948090135A
:1033F1002AE0503B75F006A424FAF582E43412F574
:1034010083E0FBA3E0FAA3E0F91291D09012F674E5
:1034110007F0A374D0F07BFF7A37797890132AE014
:10342100901150F090132BE0901151F0022F9790D2
:103431001150F075F006A424FAF582E43412F583F4
:10344100E0F9A3E0FAA3E0901151C9F0A3EAF0A3D7
:10345100E9F07BFF7A37798E122F9702973C901211
:10346100F674FFF5F0120ABD45F060030235C9029A
:1034710094629012F674FFF5F0120ABD45F06003F4
:103481000235C99012F67403F0A374E8F07BFF7A59
:103491003779B69012F4E0FFA3E0901150CFF0A37A
:1034A100EFF0122F979012F474FFF5F0120ABD4558
:1034B100F070451299F4E49012EFF0A3F09011F737
:1034C100E075F00CA424B0F9741135F0FA7B011207
:1034D10095A6D3EF94007480948040109012F174FB
:1034E10009F09012F4E4F0A37402F022129C82908D
:1034F1001176E4F0A37405F07BFF7A3779C8029165
:10350100D09012F674FFF5F0120ABD45F060030287
:1035110035C99012F67403F0A374E8F09012F274B6
:10352100FFF5F0120ABD45F060030235C97BFF7A51
:103531003779D21291D09011F67415F09012F1747E
:1035410008F0C2809011DAE0FFA3E09012EFCFF013
:10355100A3EFF09011E3E0FF9011C8F00283F69021
:1035610012F674FFF5F0120ABD45F0705B9012F689
:103571007403F0A374E8F0229012F674FFF5F012D0
:103581000ABD45F070429012F67403F0A374E8F09E
:103591009012F474FFF5F0120ABD45F0702A9011F3
:1035A100F7E0C39402748094805017E004F07B012B
:1035B1007A117978E0FD1274D850E39011F6741401
:0935C100F0221299F41294B522D3
:10265F0074FF90107FF0A3F0E4A3F0A3F0A3EBF0CE
:10266F00A3EAF0A3E9F0E4901081F0A3F0901081B9
:10267F00E0FEA3E0FFC3940DEE64809480505F9062
:10268F0038C175F003EF120D3DEE75F003A42583ED
:10269F00F583E493F9740193FA7402939010D8C9F7
:1026AF00F0A3EAF0A3E9F0901083E0FBA3E0FAA314
:1026BF00E0F91273E0EFF47002EEF4601190108104
:1026CF00E0FFA3E090107FCFF0A3EFF08010901009
:1026DF0082E004F07097901081E004F0808F7BFF10
:1026EF007A38795B9012F1E0901150F090107FE002
:1026FF00FFA3E0901151CFF0A3EFF0122F9790109E
:10270F007FE0FEA3E0FFEE6003022AE5EFB40A00CC
:10271F004003022AE590272BF82828730227490245
:10272F00274902274902276B0227AC0227CE02292D
:10273F00070229A9022AE5022A479012F1E0FF6455
:10274F0006600AEF64086005EF6409700C129CA222
:10275F00901176E4F0A37405F002973C9012F1E02B
:10276F006406702B9011F7E075F00CA424B0F97487
:10277F001135F0FA7B011295A6D3EF940074809473
:10278F0080400C9012F17409F09012F4E4802790BD
:10279F0012F1E064097003022AE50229019012F197
:1027AF00E064077003022AE57407F09011DCE0641F
:1027BF000170099012F2F0A37402F0220299F490C2
:1027CF0038D0E493F9740193FA7402939010D8C936
:1027DF00F0A3EAF0A3E9F0901083E0FBA3E0FAA3E3
:1027EF00E0F91273E0901081EEF0A3EFF0901081FA
:1027FF00E0F47003A3E0F47003022AE59038D0E40C
:10280F0093FB740193FA740293F91295A6901082B8
:10281F00E02FFF901081E034009010848FF0120AA7
:10282F00BD9010D874FFF0A37438F0A3746EF0A3AA
:10283F007401F0A37410F0A37481F0A37401F0A3DA
:10284F007410F0A37486F0A37401F0A37410F0A3B6
:10285F007487F0901083E0FBA3E0FAA3E0F9123C39
:10286F00A47BFF7A38797A901087E0901150F0129C
:10287F002F97901087E070319011F67415F0901229
:10288F00F17408F0E49012F4F0A3F09011DAE0FF85
:10289F00A3E09012EFCFF0A3EFF09011E3E0FF90E1
:1028AF0011C8F01283F6C28022901087E064037083
:1028BF002B201A0FD21A9011DDE0FF9012F4E4F0E2
:1028CF00A3EFF09012F9E004F064056003022AE52B
:1028DF007BFF7A387986122F97C28022901087E07B
:1028EF0064066003022AE59012F1E06409700302A6
:1028FF002AE51299F40294B59038D3E493F9740150
:10290F0093FA7402939010D8C9F0A3EAF0A3E9F0F8
:10291F00901083E0FBA3E0FAA3E0F91273E09010AC
:10292F0081EEF0A3EFF0901081E0F47003A3E0F4D8
:10293F007003022AE59038D3E493FB740193FA7481
:10294F000293F91295A6901082E02FFF901081E06C
:10295F0034009010848FF0120ABD9010D874FFF0DD
:10296F00A37438F0A37499F0A37401F0A37410F05A
:10297F00A37487F0901083E0FBA3E0FAA3E0F912B1
:10298F003CA4901087E0FE24D09013A6F07BFF7A32
:10299F0038799D901150EE022AE19038D6E493F9E0
:1029AF00740193FA7402939010D8C9F0A3EAF0A3BC
:1029BF00E9F0901083E0FBA3E0FAA3E0F91273E0D3
:1029CF00901081EEF0A3EFF0901081E0F47003A36C
:1029DF00E0F47003022AE59038D6E493FB74019378
:1029EF00FA740293F91295A6901082E02FFF9010BF
:1029FF0081E034009010848FF0120ABD9010D874CB
:102A0F00FFF0A37438F0A37499F0A37401F0A374CA
:102A1F0010F0A37487F0901083E0FBA3E0FAA3E01B
:102A2F00F9123CA4901087E09013A6F07BFF7A3840
:102A3F00799D901150022AE19038DCE493F97401EA
:102A4F0093FA7402939010D8C9F0A3EAF0A3E9F0B7
:102A5F00901083E0FBA3E0FAA3E0F91273E090106B
:102A6F0081EEF0A3EFF0901081E0F47003A3E0F497
:102A7F0060649038DCE493FB740193FA740293F969
:102A8F001295A6901082E02FFF901081E0340090F5
:102A9F0010848FF0120ABD9010D874FFF0A3743811
:102AAF00F0A37499F0A37401F0A37410F0A37487CA
:102ABF00F0901083E0FBA3E0FAA3E0F9123CA4909E
:102ACF001087E024D09013A6F07BFF7A38799D9081
:062ADF001150F0122F97C8
:012AE50022CE
:0B6D870090107CEBF0A3EAF0A3E9F011
:106D920090107CE0FBA3E0FAA3E0F9AE04AF058F0C
:106DA200828E83E4120A349012F1E06404600302DA
:106DB2006EA290132AE0FFC394087480948040036B
:106DC200026EA2EF75F006A424FDF582E43412F5FA
:106DD20083A3E0FAA3E04A7003026EB090107CE055
:106DE200FBA3E0FAA3E0F9C00290132AE075F006D3
:106DF200A424FDF582E43412F583A3E0FAA3E0F5BE
:106E0200828A83D002120D73EF24FC600B2405608A
:106E12007324FE6003026EB0E490132BF090132AE9
:106E2200E004C3940874809480503FE004F0E0755D
:106E3200F006A424FAF582E43412F583E0FBA3E021
:106E4200FAA3E0F91291D09012F67403F0A374E859
:106E5200F07BFF7A37797890132AE0901150F09006
:106E6200132BE0901151F0022F979012F67427F035
:106E7200A37410F09012F17405F09011F6E064150D
:106E8200702C80089011F6E0641570119012F6745F
:106E920003F0A374E8F09012F17408F02202973C18
:0E6EA20090107CE0FBA3E0FAA3E0F912265F5B
:016EB00022BF
:05940C0090107EEFF05E
:10941100787F7C107D017BFF7A3879E87E007F0DB3
:109421001209B690107EE02430901087F07B017A0B
:0694310010797F0291D0CA
:1071E60025732562643A00257500257325730025ED
:1071F60073257500446F776E6C6F6164204E616D08
:10720600656C697374204572723A28206E6F74201B
:10721600696E2073657474696E672029210D0A00F2
:10722600433A002564005265764E616D656C69735C
:107236007428436E743A2564290D0A00523A0025D3
:10724600753B004E3A0054313A0054323A005433FA
:107256003A004964783A25642D282564293B205252
:107266003A25753B204E3A25733B2054313A257317
:107276003B2054323A25733B2054333A25733B0D59
:107286000A00446F776E6C6F6164204E616D656CA9
:10729600697374204F4B21202328257529230D0A55
:1072A60000446F776E6C6F6164204E616D656C692A
:1072B6007374204572723A28257523257529210D88
:1072C6000A00969798939495909192A09FA19C9E60
:0D72D6009D999B9AA8A9AAA6A5A7A2A4A36A
:104E91004113800041138100C12542132E000041BE
:074EA100132D0041132CFF4B
:1097A800C374D294D0FF74119411CF2480CF3400A5
:1097B800FE7B017A1179D290112AE4F0A37402F0A9
:0397C8000281D04B
:0A000E00E49011D2F0A3F00297A8CD
:109BE300D39011D3E094649011D2E0940040031217
:039BF300000E223F
:0B8FAC009010D5E0FBA3E0FAA3E0F971
:0B8FB700901122EBF0A3EAF0A3E9F018
:108FC2007C007D50120A56E42FFFEE3401FE901110
:108FD20022E0FBA3E0FAA3E0F990112AE4F0A374E3
:058FE20050F00281D0F7
:0B92C900901122EBF0A3EAF0A3E9F003
:1092D4007C007D50120A56E42FFFEE3401FE9011FB
:1092E40022E0FBA3E0FAA3E0F990112AE4F0A374CE
:0592F40050F0028AC2E7
:0B8DD1009010D0EBF0A3EAF0A3E9F053
:108DDC0074FFA3F0A3F07D011283719010D3EEF019
:108DEC00A3EFF0F47002EEF4601F9010D3E0FEA33A
:108DFC00E0FF9010D0E0FBA3E0FAA3E0F91292C9D7
:0D8E0C009010D3E0FEA3E0FF227EFF7FFF69
:018E19002236
:0B866C009010D5EBF0A3EAF0A3E9F0BA
:1086770074FFA3F0A3F0120AE9FFAEF07D011283A5
:10868700719010D8EEF0A3EFF0F47002EEF46014DE
:108697009010D8E0FEA3E0FF128FAC9010D8E0FE58
:1086A700A3E0FF229011D2E0FEA3E0FFC39464EEA3
:1086B70094005023128FAC9011D3E004F070069011
:1086C70011D2E004F01297A89011D3E024FFFF9095
:0B86D70011D2E034FFFE227EFF7FFF87
:0186E2002275
:08883F009010D0EEF0A3EFF061
:108847009011D2E0FCA3E0FDD39FEC9E4058ED24AD
:10885700FFFFEC34FFFE9010D0E0B50616A3E0B59D
:1088670007119011D3E024FFF09011D2E034FFF00C
:108877000297A89011D3E024FFF09011D2E034FFC3
:10888700F01297A89011D2E0FEA3E0FF7B017A10C7
:1088970079D21292C99010D0E0FEA3E0FF7B017A53
:0688A7001079D2128FB718
:0188AD0022A8
:109C41007D01128371EFF47002EEF4600312883F1C
:019C510022F0
:0B4218009010D0EBF0A3EAF0A3E9F057
:1042230012997220000302430FE4901123F09011BE
:1042330023E0FFC39403748094804003024494906A
:10424300115074FFF0A37471F0A374E6F0A374FF2C
:10425300F0A37422F0A3747CF0EF04A3F07B017A43
:104263001079D3122F91901123E004FF7B017A1070
:1042730079D3E4FD129AE39010D0E0FBA3E0FAA314
:10428300E0242CF9E43AFA901123E075F00CA42908
:10429300F9EA35F0FA1295A6C0077B017A1079D3B3
:1042A300129A70C374109FD007C39FFD9010D0E083
:1042B300FBA3E0FAA3E0242CF9E43AFA901123E0FB
:1042C30075F00CA429F9EA35F0FAE004FF129AE339
:1042D300901123E02402FF901380E06F702590116A
:1042E300F6E0FF64046005EF640570177B017A1044
:1042F30079D3129A70C3740F9FFD901123E004FFCA
:10430300129D0C901123E004F00242319010D0E092
:10431300FBA3E0FAA3E0F9120AE9D39400E5F094D1
:104323000050030243B07BFF7A227964E4FD7F01EE
:10433300129AE390115074FFF0A37471F0A374ED1B
:10434300F09010D0E0FBA3E0FAA3E0F9120AE9FF32
:10435300901153E5F0F0A3EFF07B017A1079D312BB
:104363002F917BFF7A227964129A70C374109FFF96
:10437300C0077B017A1079D31295A6C3D0E09FFDC5
:104383007B017A1079D37F01129AE3901380E07056
:104393004C9011F6E0FF64046005EF6405703E7B0A
:1043A300FF7A227964129A70C3740F80297BFF7A93
:1043B300227964E4FD7F01129AE3901380E0701D7B
:1043C3009011F6E0FF64046005EF6405700F90132D
:1043D30081E0FFC3740A9FFD7F01129D0C90115071
:1043E30074FFF0A37471F0A374F0F0A374FFF0A34F
:1043F3007422F0A37476F09010D0E0FBA3E0FAA34C
:10440300E02402F9E43AFA901156EBF0A3EAF0A3A0
:10441300E9F07B017A1079D3122F917B017A10791D
:10442300D3E4FD7F02129AE3901380E0640170618C
:104433009011F6E0FF64046005EF6405705390107B
:10444300D0E0FBA3E0FAA3E02402F9E43AFA129ADB
:1044530070901123EFF0E0FF90132EE07002A3E0C1
:104463007003FE80027E01C3EF9E901123F0D3946C
:104473000C74809480500BE0FFC3740C9FFD7F028B
:10448300800C901123E0FFC3741C9FFD7F03129DDA
:014493000C1C
:014494002205
:1095CC007B017A1379307D507C001293B4E49013B4
:1095DC0080F0A3F09011F67404F07B017A137930CB
:0595EC00C2000242185C
:10795600901380E014605124FC40030279F5700313
:10796600027A1024056003027A15E4901380F0A3CE
:10797600F0901330E0FFA3E090107ECF80249010AB
:107986007EE0FEA3E0FFD39400EE94005003027A5B
:1079960015901381E004F07C007D0A120A689010AD
:1079A6007EEEF0A3EFF080D6901330E0FEA3E0FF6A
:1079B60090107EEEF0A3EFF07B017A107980128DA5
:1079C600D1EFF47002EEF4601E9010D37401F0A3B0
:1079D6007410F0A37480F0A3E4F0A37450F07B015C
:1079E6007A137930128E627B017A13793280129083
:1079F6001380E075F00CA42444F9741335F0FA7B77
:0F7A0600011295A6901381EFF022129C62C22507
:017A1500224E
:0518780090107DEFF06F
:10187D00640B6003021918901380E06405706630E4
:10188D0025137B017A1379307D50FC1293B4E490CB
:10189D001381F08050D3901331E09400901330E019
:1018AD009400403B7B017A13795C1295A6D3EF949B
:1018BD00007480948040287B017A13793012866CF5
:1018CD00EFF47002EEF46005129B7D8003129C8292
:1018DD007B017A1379307D507C001293B480031212
:1018ED009C82D22522901380E004F0E075F00684EE
:1018FD00E5F0F0127956E490132DF0A3F0A3F090DB
:10190D001380E064056003021ABF2290107DE0642D
:10191D000E7019901380E0C3940474809480500568
:10192D00E004F08027E4901380F0802090107DE09B
:10193D00640D701E901380E0D394007480948040E9
:10194D0005E014F080069013807404F012795602AD
:10195D001AB690107DE0640A6003021A7890138025
:10196D00E014604024FC4003021A367003021A6E24
:10197D0024056003021A76901381E0D394007480DD
:10198D009480401DE014F0901330E0FEA3E0FF7C46
:10199D00007D0A120A68901330EEF0A3EFF0021AE0
:1019AD0076021A8090132EE07002A3E070619013FE
:1019BD0081E0FF2432F582E43413F583E07050D3D7
:1019CD00EF940074809480403E901381E02432F5B2
:1019DD0082E43413F583E4F0901381E014F0E0FF1A
:1019ED002432F582E43413F583E0D394807480942B
:1019FD0080401C74322FF582E43413F583E4F090AB
:101A0D001381E014F08008E4901380F01279569061
:101A1D001381E0FF2432F582E43413F583E4F0748E
:101A2D00332FF582E43413802B901381E0D394008F
:101A3D00748094804024E014F0E0FF901380E075F2
:101A4D00F00CA42444F582E43413F583E5822FF5DC
:101A5D0082E43583F583E4F0800F901380E01480E9
:101A6D0004E4901380F0127956803E90107DE0646E
:101A7D000F700302814590107DE064637034901304
:101A8D0080E06401702CA3E02432F582E43413F578
:101A9D0083E0601ED39480748094804006901381FF
:101AAD00E004F0901381E004F0E490132DF0A3F026
:101ABD00A3F090107DE0FF7E00C3748094805003EE
:101ACD00021D1CD3EF9409748094804003021D1CE9
:101ADD00901380E014605E24FC4003021CE4240596
:101AED006003021D1C901381E0C3940474809480E4
:101AFD00502F901330E0FEA3E0FF7C007D0A120A08
:101B0D0056901330EEF0A3EFF090107DE0FF9013A0
:101B1D0031E02FF0901330E03400F0901381E004A9
:101B2D00F0901330E07002A3E06003021D1C9013CF
:101B3D0081F0021D1C7B017A137932129A70C3EF6A
:101B4D00941474809480401C90132EE07002A3E0D6
:101B5D007003021D4090107DE0FF90132CE06F602C
:101B6D0003021D4090107DE0FF90132CE06F602A62
:101B7D00901381E02432F582E43413F583E0601A8A
:101B8D00D39480748094804006901381E004F0908B
:101B9D001381E004F0E490132DF0EF700B90132DF2
:101BAD00E09021EB93021C9090132DE0FFFD7C0043
:101BBD00C3940374809480503B901381E0FE2432D3
:101BCD00F582E43413F58374D7F090107DE075F051
:101BDD0003A42FF582E435F0F583E58224C5F58263
:101BED00E5833472F583E493FF74332EF582E43488
:101BFD0013021C9CED64034C7018901381E0FF24BC
:101C0D0033F582E43413F583E4F090107DE0243055
:101C1D008030901381E0FF2433F582E43413F58393
:101C2D00E4F090132DE024FCFE90107DE0F96409A2
:101C3D007063EEFD7C00C39402748094805012EEAC
:101C4D002459FE74322FF582E43413F583EEF080BF
:101C5D006EED64024C7012901381E02432F582E433
:101C6D003413F583742EF08056EE640570129013C4
:101C7D0081E02432F582E43413F583742CF0803F37
:101C8D00EE2476FF901381E02432F582E43413F5CF
:101C9D0083EFF0802AE91475F003A42EFFEED394A0
:101CAD00027480948040047E5E80027E41EF2EFFA0
:101CBD00901381E02432F582E43413F583EFF09034
:101CCD00132DE004F0E075F00A84E5F0F0A3740341
:101CDD00F0A374E8F08038901381E0C3940B748006
:101CED009480502B90107DE02430FF901381E0FE06
:101CFD0004F0901380E075F00CA42444F582E434D4
:101D0D0013F583E5822EF582E43583F583EFF090AC
:101D1D00107DE090132CF07B017A137930901380B5
:101D2D00E0D39401748094804003D38001C392006A
:031D3D0012421837
:011D40002280
:1095F1007B017A1379307D507C001293B4E490138F
:1096010080F0A3F09011F67405F07B017A137930A4
:05961100C20002421836
:05495E0090107DEFF058
:10496300640B6003024A45901380E06402702A30AE
:1049730025177B017A1379307D50FC1293B4E490B0
:104983001381F0901380F08010901330E0FEA3E0C9
:10499300FF129C41D225029B7D901380E004F0E03E
:1049A30075F00384AFF0EFF0146046147003024A0D
:1049B3003C24026003024B16E4901381F090133001
:1049C300E0FFA3E090107ECF802190107EE0FEA355
:1049D300E0FFD39400EE94004065901381E004F06F
:1049E3007C007D0A120A6890107EEEF0A3EFF0803F
:1049F300D9901330E0FEA3E0FF7B017A1079801297
:104A03008DD1EFF47002EEF4601E9010D37401F0B8
:104A1300A37410F0A37480F0A3E4F0A37450F07BAC
:104A2300017A137930128E627B017A1379321295EF
:104A3300A6901381EFF0024B16129C72C22522023C
:104A43004B1690107DE0640A6003024B21901380A3
:104A5300E014603714607824026003024B1690134D
:104A630081E0D3940074809480401DE014F090138F
:104A730030E0FEA3E0FF7C007D0A120A6890133049
:104A8300EEF0A3EFF0024B16024B29E4901380F0F3
:104A9300901332F0901330E0FFA3E090107ECFF03C
:104AA300A3EFF0E4901381F090107EE0FEA3E0FF0B
:104AB300D39400EE9400405B901381E004F07C00FB
:104AC3007D0A120A6890107EEEF0A3EFF080D9E41D
:104AD300901380F0901332F0901330E0FFA3E09036
:104AE300107ECFF0A3EFF0E4901381F090107EE0FE
:104AF300FEA3E0FFD39400EE94004017901381E0EF
:104B030004F07C007D0A120A6890107EEEF0A3EF99
:104B1300F080D9E490132DF0A3F0A3F0800B901054
:104B23007DE0640F700302814590107DE0FF7E00FD
:104B3300C3748094804058D3EF9409748094805058
:104B43004E901380E07048A3E0C394047480948073
:104B5300502F901330E0FEA3E0FF7C007D0A120A81
:104B630056901330EEF0A3EFF090107DE0FF90131A
:104B730031E02FF0901330E03400F0901381E00423
:104B8300F0901330E07002A3E07004901381F07B87
:0A4B9300017A137930C200124218B3
:014B9D0022F5
:109AF9009011F67406F01299727BFF7A227949E483
:069B0900FD7F01029AE35A
:109A8700EF24F6600E24FB600A2404700912000E0E
:079A9700029C92128145229E
:108145009011F67403F01299727BFF7A227911E48B
:10815500FDFF129AE37BFF7A22792AE4FD7F011263
:108165009AE37BFF7A227938E4FD7F02129AE37B5A
:10817500FF7A23793EE4FD7F03129AE39011507450
:10818500FFF0A37471F0A374EDF09011D2E0FFA39A
:10819500E0901153CFF0A3EFF07B017A1079D01264
:1081A5002F917BFF7A23793E129A70C3740F9FFF3C
:1081B500C0077B017A1079D01295A6C3D0E09FFD48
:0B81C5007B017A1079D07F03029AE35F
:10989800EF24FE601214601224F9601124FB600D9D
:1098A800240E700C0295CC0295F1029AF912905D83
:0198B800228D
:10985500D39011D3E09F9011D2E09E40147B017A02
:1098650010797E1292C97B017A10797EC20012426C
:0198750018DA
:0198760022CF
:1074D800901081EDF090107EEBF0A3EAF0A3E9F0B4
:1074E800242CF9E43AFAA3E075F00CA429F9EA355A
:1074F800F0FA1295A6D3EF9400748094805003029A
:1075080075C690107EE0FBA3E0FAA3E0242CF9E412
:107518003AFAA3E075F00CA429F9EA35F0FA128AD0
:107528005E40030275C412997290107EE0FBA3E0DE
:10753800FAA3E02402F9E43AFA1295A6EF90115062
:10754800703074FFF0A37471F0A374F5F0A374FFA6
:10755800F0A37424F0A37408F090107EE0FBA3E07D
:10756800FAA3E0F9120AE9FF901156E5F0F0A3EF4B
:10757800803174FFF0A37471F0A374F0F0A374FF6A
:10758800F0A37424F0A37408F090107EE0FBA3E04D
:10759800FAA3E02402F9E43AFA901156EBF0A3EAD0
:1075A800F0A3E9F07B017A107982122F917B017A9E
:0F75B800107982E4FD7F01129AE3D322C322C32C
:0175C70022A1
:101394009010D2EBF0A3EAF0A3E9F09011F6E06428
:1013A4000260147BFF7A7179FA122F97900CA7E0F0
:1013B400700302187780F5901176E4F0A3740FF0AF
:1013C4009010D874FFF0A37472F0A37426F09010F8
:1013D400D2E0FBA3E0FAA3E0F91273E090107CEEF4
:1013E400F0A3EFF0F47002EEF4603AE02402FF9010
:1013F400107CE034009010D38FF0120ABD9010D806
:1014040074FFF0A37472F0A37429F0A37401F0A321
:101414007410F0A3747EF09010D2E0FBA3E0FAA362
:10142400E0F9123CA47BFF7A72792C90107EE0FFE5
:10143400A3E0901150CFF0A3EFF0122F97E4901097
:101444007CF0A3F090107EE0FEA3E0FFC390107D3B
:10145400E09FEE6480F890107CE064809840030282
:1014640018249010D874FFF0A37472F0A37442F09F
:101474009010D2E0FBA3E0FAA3E0F91273E090101D
:1014840080EEF0A3EFF0F47002EEF470030218079C
:10149400E02402FF901080E034009010D38FF0120B
:1014A4000ABD7B017A1079827D507C001293B4903E
:1014B40010D874FFF0A37472F0A37445F0A3740100
:1014C400F0A37410F0A37482F09010D2E0FBA3E0B8
:1014D400FAA3E0F9123CA49010D874FFF0A374723C
:1014E400F0A37449F09010D2E0FBA3E0FAA3E0F972
:1014F4001273E0901080EEF0A3EFF0F47002EEF4BB
:101504007003021586E02402FF901080E0340090FE
:1015140010D38FF0120ABDE4901080F0A3F0901065
:10152400D2E0FBA3E0FAA3E0F91209DC643B6040DB
:10153400901080E0FEA3E0FFC3942AEE64809480C0
:10154400502E9010D2A3E475F001120AD3A9F0FA38
:101554001209DCFD74842FF58274103EF583EDF0DE
:10156400901081E004F070B6901080E004F080AE3A
:10157400901080E0FEA3E02484F58274103EF5838D
:10158400E4F09010D874FFF0A37472F0A3744CF0DC
:101594009010D2E0FBA3E0FAA3E0F91273E09010FC
:1015A40080EEF0A3EFF0F47002EEF4700302163153
:1015B400E02403FF901080E034009010D38FF012E9
:1015C4000ABDE4901080F0A3F09010D2E0FBA3E0F9
:1015D400FAA3E0F91209DC643B6040901080E0FE5D
:1015E400A3E0FFC3940CEE64809480502E9010D23C
:1015F400A3E475F001120AD3A9F0FA1209DCFD7410
:10160400AE2FF58274103EF583EDF0901081E00466
:10161400F070B6901080E004F080AE901080E0FE90
:10162400A3E024AEF58274103EF583E4F09010D864
:1016340074FFF0A37472F0A37450F09010D2E0FB26
:10164400A3E0FAA3E0F91273E0901080EEF0A3EFA8
:10165400F0F47002EEF470030216DCE02403FF9051
:101664001080E034009010D38FF0120ABDE4901083
:1016740080F0A3F09010D2E0FBA3E0FAA3E0F9120B
:1016840009DC643B6040901080E0FEA3E0FFC3945B
:101694000CEE64809480502E9010D2A3E475F00177
:1016A400120AD3A9F0FA1209DCFD74BA2FF5827478
:1016B400103EF583EDF0901081E004F070B69010C8
:1016C40080E004F080AE901080E0FEA3E024BAF540
:1016D4008274103EF583E4F09010D874FFF0A37484
:1016E40072F0A37454F09010D2E0FBA3E0FAA3E0EC
:1016F400F91273E0901080EEF0A3EFF0F47002EEB4
:10170400F47003021787E02403FF901080E0340094
:101714009010D38FF0120ABDE4901080F0A3F090E3
:1017240010D2E0FBA3E0FAA3E0F91209DC643B6009
:1017340040901080E0FEA3E0FFC3940CEE6480941C
:1017440080502E9010D2A3E475F001120AD3A9F0B0
:10175400FA1209DCFD74C62FF58274103EF583ED90
:10176400F0901081E004F070B6901080E004F080F6
:10177400AE901080E0FEA3E024C6F58274103EF51E
:1017840083E4F07B017A10798212866C901080EEEB
:10179400F0FCA3EFF0FD90107DE02401FE90107C9E
:1017A400E03400901150F0A3CEF0ED2401FEE43CAF
:1017B400A3F0A3CEF0901082E0FFA3E0901154CFE9
:1017C400F0A3EFF0A37401F0A37410F0A37484F0F9
:1017D400A37401F0A37410F0A374AEF0A37401F029
:1017E400A37410F0A374BAF0A37401F0A37410F0FE
:1017F400A374C6F07BFF7A727958122F97900CA7C6
:10180400E070FA901080E0F47003A3E0F4601190AB
:10181400107DE004F0700690107CE004F00214489F
:1018240090107EE0FEA3E0FF90107CE0B50617A3C5
:10183400E0B507127BFF7A7279889011D2E0FFA39A
:10184400E0901150801F7BFF7A7279A790107CE0A2
:10185400FFA3E0901150CFF0A3EFF0901080E0FFD1
:10186400A3E0901152CFF0A3EFF0122F97900CA7A2
:03187400E070FA27
:01187700224E
:109B0F00AD071FED600FE4FEEEC3946E748094807A
:059B1F0050EE0E80F382
:019B2400221E
:109B2500D2FB0000000000D2FA0000000000C2FBDA
:069B350000000000002208
:109B3B00C2FB0000000000D2FA0000000000D2FBC4
:069B4B00000000000022F2
:08948C00129B257FA0128EA6A1
:10949400E4FFD2FA000000000030FB0DEFC394FAA1
:1094A4007480948050030F80F0C2FA000000000022
:0194B4002295
:10008E00D2FBC2FA0000000000D2FA00000000000D
:05009E00C2FAC2FB22C2
:109BF600C2FBC2FA0000000000D2FA00000000001A
:039C0600C2FA227D
:108EA600E4FEEEC39408748094805028C2FA000051
:108EB600000000EF5480648070028001C392FBEFD3
:108EC60025E0FF0000000000D2FA0000000000C20A
:108ED600FA0E80CEC2FA0000000000D2FB000000AD
:028EE60000008A
:018EE8002267
:1090CC00C2FA0000000000D2FB0000000000E4FE29
:1090DC00EEC3940874809480501BD2FA00000000F8
:1090EC0000EF25E0FFA2FBE4334FFFC2FA000000C3
:0590FC0000000E80DB06
:01910100224B
:1081D000901125EEF0A3EFF0A3EBF0A3EAF0A3E9F2
:1081E000F0C2F9805590112A74FFF5F0120AD345B8
:1081F000F06060901127E0FBA3E475F001120AD350
:10820000A9F0FA1209DCFF128EA61294949011269E
:10821000E004F07006901125E004F0901126E0547F
:108220003F70C2D390112BE0940090112AE094008B
:1082300040B3129B3B7F64129B0F12948C901125CC
:10824000E0FF128EA6129494A3E0FF128EA6129461
:0B825000948092129B3B7F64029B0F06
:048AC200AD07AC064A
:108AC60012948CECFF128EA6129494AF05128EA609
:108AD600129494129B257FA1128EA6129494D39081
:108AE600112BE0940190112AE09400401FA3E0248A
:108AF600FFF090112AE034FFF01290CCEF120A2218
:108B0600129BF6740129F9E43AFA80D21290CCEF5E
:0E8B1600120A2212008E129B3B90112CE0FFDF
:018B2400222E
:10787E0054616C6B54696D653A2025750D0A005282
:10788E00696E67496E54733A202562640D0A005280
:10789E00696E674F757454733A202562640D0A0041
:1078AE00546F6E65456E3A202562640D0A00436181
:1078BE006D6572614F6E3A202562640D0A00526545
:1078CE00616C7954696D653A202562640D0A005524
:1078DE006E6C6F636B4B657920313A202562640DB7
:1078EE000A00556E6C6F636B4B657920323A20251A
:1078FE0062640D0A0054616C6B566F6C756D3A20A4
:10790E002562640D0A00536D7354656C3A2025731D
:10791E000D0A004E616D65436F756E743A202575C4
:10792E000D0A00507377436F756E743A2025750DEE
:10793E000A0043617264436F756E743A2025750DAB
:08794E000A00257500257300F5
:104EA8004111F6014811D000000000000000004246
:104EB80011F4FFFF42117600004111C8034111F7B8
:104EC800004211CA00004111CD004111C90044112E
:0E4ED800F8000000004111CC044211CE012C64
:106861007B017A1179D890112AE4F0A3741CF0E429
:10687100FFFE128AC29011D8E0B45A08A3E0B461B5
:10688100033000589011D8745AF0A37461F0A3E456
:10689100F0A3741EF0A37401F0A3740FF0A37401AC
:1068A100F0A3F0A3740AF0A37401F0A304F0A3749D
:1068B10004F0A3120D0C000A2C2A7B017A1179E84D
:1068C1007D0C7C001293B47B017A1179D890112A46
:1068D100E4F0A3741CF0E4FFFE1281D07BFF7A7810
:1068E100797E9011DAE0FFA3E0901150CFF0A3EF91
:1068F100F0122F977BFF7A78798D9011DCE090115F
:1069010050F0122F977BFF7A78799D9011DDE090FE
:106911001150F0122F977BFF7A7879AE9011DEE05B
:10692100901150F0122F977BFF7A7879BC9011DF8C
:10693100E0901150F0122F977BFF7A7879CC90116B
:10694100E0E0901150F0122F977BFF7A7879DD907B
:1069510011E1E0901150F0122F977BFF7A7879F0D6
:106961009011E2E0901150F0122F977BFF7A797924
:10697100039011E3E0901150F0122F979011507491
:1069810001F0A37411F0A374E8F07BFF7A79791414
:10699100122F979011E3E0D3940574809480400303
:1069A1007403F09011E3E09011C8F09011DFE06002
:0769B10003D2E922C2E92232
:107AC1007B017A1179D090112AE4F0A37408F07F38
:107AD100807E00128AC29011D0E0645A7004A3E043
:107AE1006461602C9011D0745AF0A37461F0E4A326
:107AF100F0A3F0A3F0A3F0A3F0A3F07B017A117936
:107B0100D090112AF0A37408F07F807E001281D0FA
:107B11007BFF7A7979219011D2E0FFA3E090115097
:107B2100CFF0A3EFF0122F977BFF7A797931901183
:107B3100D4E0FFA3E0901150CFF0A3EFF0122F9704
:107B41007BFF7A7979409011D6E0FFA3E090115044
:107B5100CFF0A3EFF0122F97129BE3129C09029C26
:017B61001C07
:108CE100ED24FE60171460222402702D7C007D505B
:108CF100120A56E42FFF74013EFE801DEF7802C375
:108D010033CE33CED8F92440800A7C007D06120A86
:108D11005674682FFF74203EFE7B017A1079E19032
:108D2100112AE4F0A37402F0128AC29010E1E0FE6D
:038D3100A3E0FFBD
:018D3400221C
:0B8371009010DAEEF0A3EFF0A3EDF0A7
:10837C00E4A3F0A3F0ED24FE600C14600E24027054
:10838C00199011D280089011D480039011D6E0FF7F
:10839C00A3E09010DFCFF0A3EFF09010DFE0FCA390
:1083AC00E0FD9010DDE0FEA3E0FFC39DEE9C503598
:1083BC009010DCE0FD128CE19010DAE0B5060EA313
:1083CC00E0B507099010DDE0FEA3E0FF22EFF470AA
:1083DC0002EEF460109010DEE004F070BD9010DD41
:0983EC00E004F080B57EFF7FFF84
:0183F5002265
:1094B5009011F67401F074FF9011F4F0A3F0E490AC
:1094C5001176F0A3F09011C9F09012F4F0A3F0908A
:0994D50012EFF0A3F0FF027C028B
:10905D009011F67402F01299727BFF7A2179F67DE8
:10906D00017F01129AE37BFF7A22790C7D017F0348
:10907D00129AE37B027D067F03129C2FE49011CAA6
:08908D00F0A3F09011CDF022D8
:1089F7001299727BFF7A227964E4FD7F01129AE370
:108A07009011CAE0FEA3E0FFD39400EE9400404625
:108A170090115074FFF0A37479F0A37450F0A3EE93
:108A2700F0A3EFF07B017A10797E122F917BFF7A0A
:108A3700227964129A70C3740F9FFFC0077B017A73
:108A470010797E1295A6C3D0E09FFD7B017A10793D
:068A57007E7F01129AE38C
:018A5D0022F6
:1092F9009011F67407F07E009011CAEEF0A3EFF01A
:109309009011CD7401F0EF7001F01289F77B017AA9
:0F9319001179787D507C001293B47F10027E6E24
:1070DC0090107DEFF024F6607C24FB60030271932A
:1070EC009011CAE0FEA3E0FFD39400EE9400404759
:1070FC007B017A117978128DD1EFF47002EEF46085
:10710C0036E49011F7F07B017A117978FD1274D87E
:10711C0050079011F67414F0227B017A1179A412A5
:10712C0095A6EF7005129C828003129CA29011769A
:10713C00E4F0A37405F022129CB27F04127E6E90D0
:10714C001176E4F0A37405F0E49011CAF0A3F0906A
:10715C0011CDF080329011CDE0D3940074809480E6
:10716C00401FE014F09011CAE0FEA3E0FF7C007D0C
:10717C000A120A689011CAEEF0A3EFF01289F78098
:10718C00061293571294B590107DE0FFC37480944F
:10719C00804046D3EF940974809480503C9011CD7C
:1071AC00E0C3940474809480502FE004F09011CAD2
:1071BC00E0FEA3E0FF7C007D0A120A569011CAEE95
:1071CC00F0A3EFF090107DE0FF9011CBE02FF0904A
:0A71DC0011CAE03400F01289F72216
:068479009011F8120D0045
:10847F001299729011F6E0640E700C7BFF7A2379DB
:10848F004BFD7F01129AE390109F74FFF0A37423AA
:10849F00F0A3742AF07B017A10797E128B81E4FDB0
:1084AF009011CDE0FCEDC39C5016ED2FFBE43EFA8E
:1084BF00747E2BF58274103AF583742AF00D80E0E8
:1084CF00ED2FFFE43EFE747E2FF58274103EF58390
:1084DF00E4F07B017A10797EFD7F02129AE390110E
:0D84EF00CDE0FFC374099FFD7F02029D0CCC
:10991B009011F6740EF09011F8120D0C000000006F
:0D992B00E49011CDF012847F7F02027E6E69
:106FCE0090107DEFF024F6606724FB700302706F63
:106FDE0024046003027072E4FFFEFDFC9011F8E0E1
:106FEE00F8A3E0F9A3E0FAA3E0FBD3120C69402763
:106FFE009011CDE06406701F9011E4E0FCA3E0FD5B
:10700E00A3E0FEA3E0FF9011F8E0F8A3A3A3E01223
:10701E000C69700302905D129C827F05127E6E9049
:10702E0011F8120D0C00000000E49011CDF0803428
:10703E009011CDE0D3940074809480401FE014F042
:10704E009011F8E0FCA3E0FDA3E0FEA3E0FFE47BDB
:10705E000AFAF9F8120BD712847980081293578026
:10706E00001294B590107DE0FFC374809480405D53
:10707E00D3EF94097480948050539011CDE0C39453
:10708E0006748094805046E004F09011F8E0FCA362
:10709E00E0FDA3E0FEA3E0FFE47B0AFAF9F8120B91
:1070AE004C9011F8120D009011F8E0F8A3E0F9A33E
:1070BE00E0FAA3E0FB90107DE0FFE4FCFDFEEB2F79
:0E70CE00FFEE3AFEED39FDEC38FC128479221B
:1069B80090107DEFF024F5601C14601F1460221401
:1069C800605E147003026A8E24056003026AEB128B
:1069D80094B5026AEB129760026AEB12991B026A7D
:1069E800EB9011D2E0FEA3E0FFD39400EE940050A8
:1069F80003026AEBEF24FFFFEE34FFFEC39011F5AC
:106A0800E09F9011F4E09E500EA3E004F0706A90AD
:106A180011F4E004F08062E49011F4F0A3F08059DE
:106A28009011D2E0FEA3E0FFD39400EE940050034F
:106A3800026AEB9011F4E0FCA3E0FD9FEC9E502568
:106A4800ED9400EC9400400DE024FFF09011F4E088
:106A580034FFF08024EF24FFFFEE34FF9011F4F0B0
:106A6800A3EFF080149011D3E024FFFE9011D2E040
:106A780034FF9011F4F0A3CEF09011F4E0FEA3E0FF
:106A8800FF129855805D9011D2E0FCA3E0FD9011B3
:106A9800F4E0FEA3E0FFC39DEE9C5042E49011F7A2
:106AA800F07B017A1179781292C97B017A11797891
:106AB800E4FD1274D850089011F67414F080247B09
:106AC800017A1179A41295A6EF7005129C828003B1
:106AD800129CA2901176E4F0A37405F08005E4FFFF
:106AE8001292F990107DE0FF7E00D3940074809498
:106AF80080400DD3EF94097480948050031292F96A
:016B0800226A
:10779A0090107DEFF07E00C374809480406BD3EF2D
:1077AA0094097480948050619011CDE0C39402745E
:1077BA008094805040E004F09011CAE0FEA3E0FFFC
:1077CA007C007D0A120A569011CAEEF0A3EFF090DF
:1077DA00107DE0FF7E009011CBE02FF09011CAE0FF
:1077EA003EF0D3A3E0940D9011CAE0940050030236
:1077FA00787DEE800990107DE0FF9011CAE4F0A335
:10780A00EFF09011CD7401F02290107DE0640F70BA
:10781A0002800890107DE0640A70030294B590100B
:10782A007DE0640B704D9011CAE0FEA3E0FFC394A3
:10783A0004EE9400400EEF940CEE94005006EF24F0
:10784A0012FF802C9011CAE0FEA3E0FFEE7024EF35
:10785A0024FE601114601124F76010146010240CC7
:10786A00701102814502825B0282E60296857F1EC2
:04787A001262CA22AA
:108B250090107DEFF07E00C374809480400FD3EFEA
:108B35009409748094805005E0FF02940C90107D98
:108B4500E024F3601014601E1460042405702C12D8
:108B550099F40294B59011C8E0C39405748094808B
:108B65005019E004800F9011C8E0D39401748094EB
:0C8B7500804008E014F0E0FF1283F622BC
:105228001299729011F6E024EAB40900400302537F
:105238007B90524775F003A4C58325F0C58373029C
:10524800526202527E02529A0252B6025307025327
:105258002202533D0252D202535890115074FFF06B
:10526800A37479F0A37453F0A374FFF0A37424F02B
:10527800A3741402537190115074FFF0A37479F061
:10528800A37453F0A374FFF0A37424F0A37427024B
:10529800537190115074FFF0A37479F0A37453F014
:1052A800A374FFF0A37424F0A37440025371901107
:1052B8005074FFF0A37479F0A37453F0A374FFF053
:1052C800A37424F0A3745302537190115074FFF027
:1052D800A37479F0A37453F0A374FFF0A37424F0BB
:1052E800A3746EF07B017A10797E122F919011CA07
:1052F800E07002A3E06004D2E98078C2E98074908B
:10530800115074FFF0A37479F0A37453F0A374FFE1
:10531800F0A37424F0A3747A804F90115074FFF0B6
:10532800A37479F0A37453F0A374FFF0A37424F06A
:10533800A3748B803490115074FFF0A37479F0A398
:105348007453F0A374FFF0A37424F0A3749F80191E
:1053580090115074FFF0A37479F0A37453F0A37400
:10536800FFF0A37423F0A374F2F07B017A10797E26
:10537800122F919011F6E0FF6419600AEF641D6026
:1053880005EF641770297B017A10797EE4FD7F01AF
:10539800129AE39011CAE07004A3E064017BFF70E5
:1053A800067A2479B380047A2479BC7D0580507B01
:1053B800017A10797EE4FD7F01129AE39011CAE028
:1053C800FEA3E0FFD39400EE94004038901150748F
:1053D800FFF0A37479F0A37450F0A3EEF0A3EFF0FC
:1053E8007B017A10797E122F917B017A10797E12D7
:1053F80095A6C374109FC313FD7B017A10797E7F35
:0454080002129AE30F
:01540C00227D
:1062CA009011F6EFF024EAB4090040030263F29059
:1062DA0062E775F003A4C58325F0C58373026302E0
:1062EA0002632002633A0263550263880263A202D0
:1062FA0063BC02636F0263D69011CC7403F09011F1
:10630A00CE7401F0A3742CF09011DAE0FFA3E090B0
:10631A0011CACF0263EE9011CC7402F09011CEE450
:10632A00F0A304F09011DCE0FF9011CAE40263EEDE
:10633A009011CC7402F09011CEE4F0A3745AF0904C
:10634A0011DDE0FF9011CAE40263EE9011CC7401F2
:10635A00F09011CEE4F0A304F09011DEE0FF90116A
:10636A00CAE40263EE9011CC7401F09011CEE4F00D
:10637A00A304F09011DFE0FF9011CAE48066901147
:10638A00CC7402F09011CEE4F0A37463F09011E0A3
:10639A00E0FF9011CAE4804C9011CC7401F0901186
:1063AA00CEE4F0A37409F09011E1E0FF9011CAE481
:1063BA0080329011CC7401F09011CEE4F0A37409EC
:1063CA00F09011E2E0FF9011CAE480189011CC74A9
:1063DA0001F09011CEE4F0A37405F09011E3E0FF10
:1063EA009011CAE4F0A3EFF0E49011CDF09011CA35
:1063FA00E0FEA3E0FFD3EF9400EE9400400F90116B
:10640A00CDE004F07C007D0A120A6880E89011F65B
:10641A00E0FF64196014EF641D600FEF641B600AEB
:10642A00EF641C6005EF641E70069011CD7401F0D4
:03643A00025228E3
:10540D0090107EECF0A3EDF0EF24EAB40900400318
:10541D000255D890542E75F003A4C58325F0C5838D
:10542D00730254490254740254980254BC02551A22
:10543D0002553D02556E0254EB0255A090107EE0D0
:10544D00FFA3E09011DACFF0A3EFF0C374DA94D894
:10545D00FF74119411FE7B017A1179DA90112AE40F
:10546D00F0A3740202559A90107EA3E09011DCF027
:10547D00C374DC94D8FF74119411FE7B017A1179F9
:10548D00DC90112AE4F0A30402559A90107EA3E05B
:10549D009011DDF0C374DD94D8FF74119411FE7B6F
:1054AD00017A1179DD90112AE4F0A30402559A9046
:1054BD00107EE07002A3E07003FF80027F01901167
:1054CD00DEEFF0C374DE94D8FF74119411FE7B01EE
:1054DD007A1179DE90112AE4F0A30402559A901006
:1054ED007EE07002A3E07003FF80027F019011DF68
:1054FD00EFF0C374DF94D8FF74119411FE7B017A21
:10550D001179DF90112AE4F0A30402559A90107ED0
:10551D00A3E09011E0F0C374E094D8FF74119411DE
:10552D00FE7B017A1179E090112AE4F0A304805DED
:10553D0090107EE0FEA3E0FFD39400EE94005003A4
:10554D000255D89011E1EFF074E194D8FF741194E5
:10555D0011FE7B017A1179E190112AE4F0A3048008
:10556D002C90107EE0FEA3E0FFD39400EE9400405B
:10557D005A9011E2EFF074E294D8FF74119411FE79
:10558D007B017A1179E290112AE4F0A304F01281E3
:10559D00D0803890107EE0FEA3E0FFD39400EE940F
:1055AD000040289011E3EFF074E394D8FF74119448
:1055BD0011FE7B017A1179E390112AE4F0A304F036
:0E55CD001281D09011E3E09011C8F0029B7D96
:105B220090107DEFF09011CDE064637003025BB1E1
:105B320090107DE024F5605324FC604D24057072C2
:105B42009011F6E0FF64196010EF641D600BEF64C2
:105B52001760069011CDE0700E9011DFE06004D264
:105B6200E98002C2E980489011CDE014F09011CA98
:105B7200E0FEA3E0FF7C007D0A120A689011CAEEE3
:105B8200F0A3EFF0125228802980249011CDE0D3A7
:105B920094007480948040179011F6E0FF9011CA2F
:105BA200E0FCA3E0FD12540D9011CD7463F02202CB
:105BB200905D90107DE0FF7E00C37480948050035E
:105BC200025CBFD3EF9409748094804003025CBFEF
:105BD2009011F6E0FF6419600AEF641D6005EF643E
:105BE2001770129011CD7401F090107DE0FF9011AA
:105BF200CAE4025CBB9011F6E0FF641B6005EF642F
:105C02001C702090107DE0FFD3940074809480502B
:105C120003025CBF9011CD7401F07E009011CA1492
:105C2200025CBB9011F6E0641E702B90107DE0FFC9
:105C3200D39400748094805003025CBF7E00901164
:105C4200CFE09F9011CEE09E40739011CD7401F091
:105C52009011CA1480639011CCE0FFA3E0C39F505F
:105C62005C9011CAE0FEA3E0FF7C007D0A120A5696
:105C72009011CEE0FCA3E0FDC39FEC9E403F90114B
:105C8200CDE004F09011CAEEF0A3EFF090107DE0A9
:105C9200F92FFFE43EFEC3ED9FEC9E4011E9FF9019
:105CA20011CBE02FF09011CAE03400F0800F901178
:105CB200CEE0FFA3E09011CACFF0A3EFF01252287A
:015CC20022BF
:105FCC0090107CEFF0901176E4F0A3741EF0901119
:105FDC00F6E014B41E00400302611C905FF575F0EE
:105FEC0003A4C58325F0C5837302604F02605A0277
:105FFC00606502607002607B0260860260C40260B1
:10600C009102609C0260A60260B00260BA0260D885
:10601C000260CE0260E20260EC0260F602610002F5
:10602C00611C02610A02610A0261140261140261BC
:10603C0014026114026114026114026114026114ED
:10604C0002611490107CE0FF1269B802611C901080
:10605C007CE0FF12779A02611C90107CE0FF129892
:10606C009802611C90107CE0FF12187802611C9061
:10607C00107CE0FF12495E02611C90107CE0FF1264
:10608C009A8702611C90107CE0FF1298B902611C87
:10609C0090107CE0FF122AE6807690107CE0FF12D4
:1060AC005967806C90107CE0FF129A9E8062901071
:1060BC007CE0FF126708805890107CE0FF1270DCC7
:1060CC00804E90107CE0FF126FCE804490107CE0EC
:1060DC00FF123F3D803A90107CE0FF1298DA80303E
:1060EC0090107CE0FF1257A4802690107CE0FF12E9
:1060FC0055DB801C90107CE0FF129AB5801290103A
:10610C007CE0FF128B25800890107CE0FF125B2254
:10611C00D3901177E0940A901176E094004021908E
:10612C0011F6E0FF640E600FEF640C600AEF640779
:10613C006005EF64017009901176E4F0A3740AF025
:01614C002230
:10898C0090107CEBF0A3EAF0A3E9F09011F6E02450
:10899C00F1605724FE60071460502402700E901092
:1089AC007CE0FBA3E0FAA3E0F9028FE790107CE0F7
:1089BC00FBA3E0FAA3E0F9127A16EFF47002EEF4DE
:1089CC00600E9011E0E0FDD200E4FF12002680035F
:1089DC00129B929011F6E0FF6415600EEF64146028
:0B89EC0009901176E4F0A37405F0225E
:10978400436865636B5073773A25750D0A0041642D
:10979400645073774974656D20310D0A0025750096
:0497A4002573250004
:0E4EE6004113A0004113A100C11BC11CC11D3E
:1097CB00C374D494D0FF74119411CF2480CF340080
:1097DB00FE7B017A1179D490112AE4F0A37402F084
:0397EB000281D028
:0A9CEE00E49011D4F0A3F00297CB2C
:109C0900D39011D5E0940A9011D4E0940040031246
:039C19009CEE229C
:0B953000901084E0FBA3E0FAA3E0F938
:10953B00EF7802C333CE33CED8F92440FFEE34207C
:0D954B00FE90112AE4F0A37404F00281D018
:10993800EF7802C333CE33CED8F92440FFEE34207B
:0D994800FE90112AE4F0A37404F0028AC21C
:0885F40090107EEEF0A3EFF001
:1085FC00E4A3F0A3F07BFF7A977984901150EEF00E
:10860C00A3EFF0122F979011D4E07002A3E0700248
:10861C00C322E4901080F0A3F09011D4E0FCA3E00E
:10862C00FD901080E0FEA3E0FFC39DEE9C502F7BDD
:10863C00017A10798212993890107EE0FEA3E0FF47
:10864C00901084E0B50607A3E0B50702D322901082
:0F865C0081E004F070C3901080E004F080BBC395
:01866B0022EC
:0B84FC00901084EBF0A3EAF0A3E9F07D
:1085070074FFA3F0A3F0120AE9FFAEF07D02128315
:1085170071901087EEF0A3EFF0F47002EEF4601D97
:108527007BFF7A977992122F97901087E0FEA3E04E
:10853700FF129530901087E0FEA3E0FF229011D440
:10854700E0FEA3E0FFC3940AEE9400502312953097
:108557009011D5E004F070069011D4E004F0129762
:10856700CB9011D5E024FFFF9011D4E034FFFE2219
:048577007EFF7FFF05
:01857B0022DD
:0888AE00901082EEF0A3EFF040
:1088B6009011D4E0FCA3E0FDD39FEC9E4058ED243C
:1088C600FFFFEC34FFFE901082E0B50616A3E0B57C
:1088D60007119011D5E024FFF09011D4E034FFF099
:1088E6000297CB9011D5E024FFF09011D4E034FF2D
:1088F600F01297CB9011D4E0FEA3E0FF7B017A1033
:108906007984129938901082E0FEA3E0FF7B017A09
:0689160010798412953B6C
:01891C002238
:08961600901080EEF0A3EFF0CC
:10961E008013EFF47002EEF460121288AE90108098
:0C962E00E0FEA3E0FF7D0212837180E6E5
:01963A00220D
:0838F5007B017A137996D200E1
:0B38FD00901084EBF0A3EAF0A3E9F0C8
:103908001299729011F6E0640D700E7BFF7A23799C
:103918004BFDFF129AE30239C39011F6E0640C7074
:10392800030239C3901084E0FBA3E0FAA3E0F91284
:103938000AE9D39400E5F094007BFF7A22796FE4DA
:10394800FD7F01405A129AE390115074FFF0A3745E
:1039580097F0A374A1F0901084E0FBA3E0FAA3E031
:10396800F9120AE9FF901153E5F0F0A3EFF07B019B
:103978007A107987122F917BFF7A22796F129A70C9
:10398800C374109FFFC0077B017A1079871295A630
:10399800C3D0E09FFD7B017A1079877F01800012F8
:1039A8009AE39013A0E070137BFF7A22796F129A42
:1039B80070C3740F9FFD7F01129D0C200003023C11
:1039C8001A901084E0FBA3E0FAA3E0F99000021239
:1039D8000CA0E4FBFAF9F8C3120C694003023AB7E9
:1039E80090115074FFF0A37497F0A374A4F0A3741B
:1039F800FFF0A37423F0A3742AF00B7A10798712CE
:103A08002F91901398E0FCA3E0FDA3E0FEA3E0FF54
:103A18009010A8120D00E49010A7F0E4FFFEFDFC42
:103A28009010A8E0F8A3E0F9A3E0FAA3E0FBD31212
:103A38000C69403F7BFF7A23792A1295A69010A73C
:103A4800E02F2487F582E43410F583742AF090106F
:103A5800A8E0FCA3E0FDA3E0FEA3E0FFE47B0AFAF4
:103A6800F9F8120BD79010A8120D009010A7E004D7
:103A7800F080A87BFF7A23792A1295A69010A7E0F8
:103A88002F2487F582E43410F583E4F07B017A1063
:103A98007987FD7F02129AE39011F6E0640D6004C5
:103AA8007F0180027F009013A0E06F703780227B37
:103AB800FF7A23792AE4FD7F02129AE39011F6E057
:103AC800640D60047F0180027F009013A0E0B507B9
:103AD800137BFF7A23792A129A70C3740F9FFD7F94
:103AE80002129D0C9011F6E0640C7003023C1A90CF
:103AF8001084E0FBA3E0FAA3E0F9900006120CA002
:103B0800E4FBFAF9F8C3120C694003023BE5901193
:103B18005074FFF0A37497F0A374A4F0A374FFF09B
:103B2800A37423F0A37436F00B7A107987122F91BF
:103B380090139CE0FCA3E0FDA3E0FEA3E0FF90103F
:103B4800A8120D00E49010A7F0E4FFFEFDFC901011
:103B5800A8E0F8A3E0F9A3E0FAA3E0FBD3120C690C
:103B6800403F7BFF7A2379361295A69010A7E02F65
:103B78002487F582E43410F583742AF09010A8E0C5
:103B8800FCA3E0FDA3E0FEA3E0FFE47B0AFAF9F85A
:103B9800120BD79010A8120D009010A7E004F08027
:103BA800A87BFF7A2379361295A69010A7E02F24D8
:103BB80087F582E43410F583E4F07B017A10798785
:103BC800FD7F03129AE39011F6E0640D60047F0212
:103BD80080027F019013A0E06F703780227BFF7A0C
:103BE800237936E4FD7F03129AE39011F6E0640D21
:103BF80060047F0280027F019013A0E0B507137B69
:103C0800FF7A237936129A70C3740F9FFD7F0312CF
:023C18009D0C01
:013C1A002287
:10963B007B017A1379967D0A7C001293B4E4901324
:10964B00A0F0A3F09011F67409F07B017A137996D0
:05965B00D2000238FD01
:052AE60090107DEFF0EF
:102AEB00640B6003022C339013A0E06403600302B9
:102AFB002BBB301B147B017A1379967D0AFC129346
:102B0B00B4E49013A1F0022BBBD3901397E0940085
:102B1B00901396E094005003022BB8E4FFFEFDFCEB
:102B2B00901398E0F8A3E0F9A3E0FAA3E0FB120CF2
:102B3B0069607A90139CE0FCA3E0FDA3E0FEA3E0A8
:102B4B00FF901398E0F8A3A3A3E0C3120C69705D88
:102B5B00901396E0FFA3E0901080CFF0A3EFF090DE
:102B6B001398A3A3E0FFA3E0901082CFF0A3EFF0A4
:102B7B007B017A1079801284FCEFF47002EEF46022
:102B8B0005129B7D8003129C827B017A1379967DC3
