:03000000027A7E03
:0C7A7E00787FE4F6D8FD758123027AC5FC
:10918D0025730044746D66446174613A203078250E
:10919D00623032580D0A005573724B657920256285
:0491AD00640D0A0043
:094B490042137E000041138000BC
:104207007F647E00129019C2AF30C0FD12713D125B
:1042170087861286DC129470128F2A128F7B7FE8B2
:104227007E031290191291B1D2AF7F647E00129073
:1042370019C20012629612764F7F647E001290199F
:104247001292A8129456128EAF900CA3E0600C7BCA
:10425700017A0C79AC120E7E1294D4900CABE0600C
:104267002B90111F7401F0A3740EF0A374ACF07BB4
:10427700FF7A91798D122D197B017A0E79AC900C0A
:10428700A8E0FCA3E0FD12690C1294ED1259CE9040
:10429700136FE0FF60427BFF7A91799090111FF0D6
:1042A700122D199011B0E0FF90136FE0B5070C9035
:1042B70011AFE0FDD200E4FF12934F9011B1E0FF80
:1042C70090136FE0B5070C9011AFE0FDD2007F01AE
:1042D70012934FE490136FF0201B03024444C21B58
:1042E7001288B2126A2D901380EFF0F4601E7F10CF
:1042F700127F2D7BFF7A9179A4901380E090111F94
:10430700F0122D19901380E0FF125B511267CA1249
:104317008C26123013128BF490137EE475F0011281
:104327000ABDFED3E5F094E8EE940350030244146B
:10433700E490137EF0A3F0B281129489901145E0C6
:104347007002A3E0602590126BE07002A3E0701B7F
:10435700901266E07002A3E0701190114574FFF5AA
:10436700F0120ABD45F07003128EAF9011C5E064DC
:1043770015704612893E901266E0FEA3E0FF4E607C
:10438700159011A9E0FCA3E0FDEFB50509EEB50412
:10439700057F0D12795B901266E07002A3E0601949
:1043A70090126674FFF5F0120ABD45F0700B129477
:1043B700A27F0812795B128EAF901198E004F0E0AB
:1043C70075F00F84E5F0F09011C5E06401703E9040
:1043D7001145E07002A3E070349011C3E0F470035C
:1043E700A3E0F47028901198E0FF60096405600568
:1043F700EF640A7018EFB40A047F01800D901198DA
:10440700E0B405047F0080027F02127225D3901268
:10441700A6E094009012A5E0940040219011C5E019
:10442700B4041A9012A6E024FFF09012A5E034FF1E
:10443700F0E07002A3E070057F6312253E300B09A0
:104447009011C5E0B40102C20B20110302425012C1
:10445700136230120E7F10127F2D7B017A1379467B
:094467001284ED12945602425039
:108B590055415254315F636F6E666967204F4B21EF
:108B69000D0A0055415254335F636F6E6669672081
:108B79004F4B210D0A0052657365744B6579546931
:058B89006D650D0A00FE
:104B520041136F0041136B0041136C004113701F2E
:104B62004113731F421371000041136D0041136E14
:064B720000421374000074
:109019007C007D07120A56E4FDC3ED9FEC9E5015B6
:10902900E4FBFA0BBB00010AEB646E4A70F50DBD57
:0590390000010C80E4C1
:01903E00220F
:0E975F00901144EFF0128FF2901144E0FF22BF
:0B903F0090111CEBF0A3EAF0A3E9F095
:10904A00E4FF90111CE0FBA3E475F001120AD3A916
:0A905A00F0FA1209DC60030F80E851
:0190640022E9
:10956300E4FF1209DC600E0FB4D7011F740129F95F
:05957300E43AFA80ED6E
:0195780022D0
:0B6F59009010CDEBF0A3EAF0A3E9F0EC
:106F6400E49010D3F0A3F0A3F0A3F09010CDE0FBD5
:106F7400A3E0FAA3E0F99010D3E0FEA3E0F5828E3B
:106F8400831209F5FF700302704C9010D0E0FBA34C
:106F9400E0FAA3E0F91209DC6F6003027038901084
:106FA400D5F0A3F09010D0E0FBA3E0FAA3E0F990B1
:106FB40010D5E0FEA3E0F5828E831209F5605190AE
:106FC40010D5A3E0FF9010D4E02FFF9010D3E03E43
:106FD400FE9010CDE0FBA3E0FAA3E0F98F828E834C
:106FE4001209F5FF9010D0E0FBA3E0FAA3E0F990BA
:106FF40010D5E0FCA3E0F5828C831209F5B50710E7
:107004009010D6E004F0709C9010D5E004F08094C9
:107014009010D0E0FBA3E0FAA3E0F99010D5E0FED5
:10702400A3E0F5828E831209F570099010D3E0FE77
:10703400A3E0FF229010D4E004F06003026F6F908D
:0C70440010D3E004F0026F6F7EFF7FFFAE
:01705000221D
:108E020090111CEBF0A3EAF0A3E9F0ED1DAE0470A3
:108E1200011C4E601690111CE0FBA3E475F00112D8
:0C8E22000AD3A9F0FAE4120A2280E02230
:1088FA009010C8EBF0A3EAF0A3E9F09010CE74FF51
:10890A00F5F0120AD345F0602A9010CBE0FBA3E4FD
:10891A0075F001120AD3A9F0FA1209DCFF9010C807
:10892A00E0FBA3E475F001120AD3A9F0FAEF120AE8
:04893A002280C822AD
:0B868200901094EBF0A3EAF0A3E9F0E5
:10868D00E4FFFE901097E0FBA3E0FAA3E0F91209D6
:10869D00DC602D901097A3E475F001120AD3A9F0B8
:1086AD00FA1209DCFD901094E0FBA3E475F00112C1
:1086BD000AD3A9F0FAED120A220FBF00010E80C3F2
:0F86CD00901094E0FBA3E0FAA3E0F9E4020A2284
:108DA6009010BDEBF0A3EAF0A3E9F0ED1DAE047060
:108DB600011C4E60179010BDE0FBA3E475F0011294
:0E8DC6000AD3A9F0FA1209DC60E1C322D3221D
:10713D0090107574FFF0E4901074F07B017A107963
:10714D00747F011246C67B017A1079747F02124654
:10715D00C67B017A1079747F031246C69010757440
:10716D0060F07B017A107974E4FF1246C6901075B9
:10717D007401F0FB7A1079747F041246C690107575
:10718D007430F07B017A1079747F051246C6901029
:10719D007574F3F07B017A1079747F061246C690F0
:1071AD0010757448F07B017A1079747F071246C60A
:1071BD009010747403F0A37413F07B017A1079743A
:1071CD00E4FF1246C6901075741AF07B017A10799F
:1071DD00747F041246C6901075740CF07B017A1002
:1071ED0079747F051246C69010757437F07B017A5D
:1071FD001079747F071246C69010757404F07B01E8
:10720D007A1079747F061246C6C2F8C2C1D2FAD27C
:07721D00FBD2F9C2C3C284D9
:017224002247
:1086DC009010747440F0A37402F0A3120D0C0001FE
:1086EC00C20090107B7401F0E4A3F0A304F0A3F09B
:1086FC00E4A3F07B017A1079747F01121CCD7BFF0F
:10870C007A8B7959122D1990107F7402F07B017AB3
:10871C001079747F03121CCD7F58128FA37BFF7AC4
:06872C008B796C022D198F
:10878600E4901074F0A3F0A304F0E4A3F0A3F0A324
:108796007496F0A37488F0A37401F0FB7A107974D0
:1087A600E4FF124F7490107974FEF0A374F2F07B1C
:1087B600017A1079747F01124F7490107974FCF06D
:0F87C600A374B5F07B017A1079747F04024F74AD
:109470009010767401F0E4901075F0901074F07B09
:09948000017A107974FF02861FC5
:106A2D0090136BE01460361460531460641470039B
:106A3D00026B18147003026B2C24056003026B4863
:106A4D0075A0F0E5A054F064F07003026B4890134C
:106A5D006C7414F090136B7401F0026B48E5A05444
:106A6D00F0FFBFF004E4026B4490136CE014F0608F
:106A7D0003026B4890136B7402F0026B48E5A0445F
:106A8D000F901074F0E0F5A090136B7403F0026B8F
:106A9D0048901074E5A0F075A0F090136B7404F09D
:106AAD00901074E0120D496B15776B127B6B0F7D97
:106ABD006B0C7E6B09B76B06BB6B03BD6B00BE6ABF
:106ACD00FDD76AFADB6AF7DD6AF4DE6AF1E76AEE92
:106ADD00EB6AEBED6AE8EE00006B487F04227F085D
:106AED00227F0B227F0F227F03227F07227F00222E
:106AFD007F0E227F02227F06227F0A227F0D227FB8
:106B0D0001227F05227F09227F0C22E5A054F0FF90
:106B1D00BFF02890136B7405F0A37414F0801CE57E
:106B2D00A054F064F0600890136B7404F0800C9026
:0D6B3D00136CE014F0700490136BF07FFFF8
:016B4A002228
:1067CA0090136DE0146040046003026855A2CDE4A2
:1067DA003325E0FFA2CCE4334F25E0FFA2C0E43327
:1067EA004F25E0FFA285E4334F25E0FFA286E4337C
:1067FA004FFF901370E06F605290136E741EF0900A
:10680A00136D7401F08044A2CDE43325E0FFA2CCDD
:10681A00E4334F25E0FFA2C0E4334F25E0FFA28511
:10682A00E4334F25E0FFA286E4334FFF901370E074
:10683A00B50707E490136DF0801190136EE014F021
:10684A00700990136DF0901370EFF0901370E0FFE1
:10685A00901373E0FE6F6079EE5401FEEF54016EFF
:10686A00601C901370E020E0159011AFE0FDC200AB
:10687A00E4FF12934F901145E4F0A37405F09013CE
:10688A0073E05402FF901370E0FE54026F6019EE39
:10689A0020E1159011AFE0FDC2007F0112934F90E5
:1068AA001145E4F0A37405F0901373E05404FF90CB
:1068BA001370E054046F6011A37427F0A37410F0EE
:1068CA007BFF7A8B797F122D19901370E0901373E6
:1068DA00F0901373E020E229901371E07002A3E0B4
:1068EA00601F90137174FFF5F0120ABD45F0701124
:1068FA00D20012629612974F901145E4F0A37405E4
:01690A00F09C
:01690B002269
:10934F0074742FF582E43413F583EDF0EF7004D2CB
:10935F00C38006EFB40102D284A20092010294BB33
:10948900901374E0600614F07002C2C3901375E083
:09949900600614F07002C2842286
:1000A600000000384492BAFE828244380000000004
:1000B60000000038448282FEBA92443800000000F4
:1000C6000000003854AAAAAAC692443800000000CC
:1000D600000000384482AAF68A82443800000000F4
:1000E60000003C42A599FF99A5423C000000000093
:1000F60000000000000000000003030000000000F4
:100106000003030F0F3F3FFFFFFFFF00000000004B
:1001160000000000422418182442000000000000DD
:100126000000003844BAC6AAAAAA54380000000043
:1001360000000000000000000000000000000000B9
:100146000000183C3C3C1818180018180000000065
:10015600006363632200000000000000000000004E
:1001660000000036367F3636367F36360000000011
:100176000C0C3E6361603E030343633E0C0C0000BF
:1001860000000000006163060C18336300000000E5
:100196000000001C36361C3B6E66663B0000000005
:1001A6000030303060000000000000000000000059
:1001B60000000C18183030303018180C0000000001
:1001C6000000180C0C060606060C0C1800000000B1
:1001D6000000000042663CFF3C6642000000000052
:1001E60000000000181818FF18181800000000007A
:1001F6000000000000000000000018181830000081
:1002060000000000000000FF0000000000000000E9
:1002160000000000000000000000181800000000A8
:1002260000000103070E1C3870E0C08000000000CB
:1002360000003E6363636B6B6363633E0000000014
:1002460000000C1C3C0C0C0C0C0C0C3F00000000BD
:1002560000003E6303060C183061637F0000000057
:1002660000003E6303031E030303633E0000000019
:100276000000060E1E3666667F06060F00000000AA
:1002860000007F6060607E030363733E0000000031
:1002960000001C3060607E636363633E0000000004
:1002A60000007F630306060C0C18181800000000F7
:1002B60000003E6363633E636363633E00000000C9
:1002C60000003E636363633F0303063C00000000D7
:1002D60000000000001818000000181800000000B8
:1002E6000000000000181800000018181830000060
:1002F600000000060C18306030180C0600000000E4
:100306000000000000007E00007E000000000000EB
:100316000000006030180C060C1830600000000069
:1003260000003E6363060C0C0C000C0C0000000081
:1003360000003E63636F6B6B6E60603E0000000002
:100346000000081C366363637F636363000000007C
:1003560000007E3333333E333333337E00000000F8
:1003660000001E33616060606061331E00000000A3
:1003760000007C36333333333333367C00000000E1
:1003860000007F3331343C343031337F00000000CD
:1003960000007F3331343C343030307800000000C8
:1003A60000001E336160606F6363371D000000004C
:1003B6000000636363637F6363636363000000003D
:1003C60000003C18181818181818183C00000000EF
:1003D60000000F06060606060666663C00000000DC
:1003E6000000733336363C36363333730000000074
:1003F60000007830303030303031337F000000007C
:10040600000063777F6B63636363636300000000D0
:1004160000006363737B7F6F6763636300000000A4
:1004260000001C36636363636363361C00000000D0
:1004360000007E3333333E30303030780000000029
:1004460000003E6363636363636B6F3E06070000F1
:1004560000007E3333333E363633337300000000FC
:1004660000003E6363301C060363633E0000000029
:100476000000FFDB991818181818183C0000000037
:1004860000006363636363636363633E00000000AD
:10049600000063636363636363361C080000000047
:1004A600000063636363636B6B7F36360000000096
:1004B6000000C3C3663C18183C66C3C300000000B6
:1004C6000000C3C3C3663C181818183C000000009F
:1004D60000007F6343060C183061637F0000000054
:1004E60000003C30303030303030303C000000000E
:1004F600000080C0E070381C0E07030100000000F9
:1005060000003C0C0C0C0C0C0C0C0C3C000000000D
:10051600081C366300000000000000000000000018
:10052600000000000000000000000000FF000000C6
:1005360018180C0000000000000000000000000079
:1005460000000000003C46063E66663B00000000D8
:1005560000007030303C36333333336E0000000019
:1005660000000000003E63606060633E0000000023
:1005760000000E06061E36666666663B0000000034
:1005860000000000003E63637E60633E00000000E2
:1005960000001C3632307C303030307800000000ED
:1005A60000000000003B666666663E06663C00008C
:1005B6000000703030363B333333337300000000B5
:1005C60000000C0C001C0C0C0C0C0C1E0000000097
:1005D60000000606000E060606060666663C0000D5
:1005E60000007030303333363C3633730000000081
:1005F60000001C0C0C0C0C0C0C0C0C1E000000005B
:1006060000000000006E7F6B6B6B6B6B00000000E0
:1006160000000000006E3333333333330000000034
:1006260000000000003E63636363633E0000000059
:1006360000000000006E333333333E303078000064
:1006460000000000003B666666663E06060F000078
:1006560000000000006E3B333030307800000000B0
:1006660000000000003E63380E03633E00000000F9
:1006760000000818187E181818181B0E0000000035
:1006860000000000006666666666663B00000000C5
:100696000000000000636336361C1C0800000000E2
:1006A60000000000006363636B6B7F360000000090
:1006B600000000000063361C1C1C366300000000AE
:1006C600000000000063636363633F03063C0000B1
:1006D60000000000007F660C1830637F00000000F9
:1006E60000000E18181870181818180E00000000D0
:1006F6000000181818181800181818181800000004
:100706000000701818180E1818181870000000004D
:1007160000003B6E0000000000000000000000002A
:100726000070D8D870000000000000000000000033
:100736000000C6C66676DCCCC6C600000000000017
:100746000000F80C0C0C0C0C0CFE00000000000065
:1007560000007018181818386C66000000000000B9
:100766000000FE0C0C0C0C0C0C0C00000000000031
:1007760000007C060606666666660000000000004D
:1007860000001818181818181818000000000000A3
:1007960000007818303030303030000000000000A3
:1007A6000000FCC6C6C6C6C6C6C6000000000000DD
:1007B6000000CCC6C6C6C6C6C67C00000000000047
:1007C60000001818181800000000000000000000C3
:1007D60000007018181818181818180000000000E3
:1007E60000007C0606060606067C000000000000E7
:1007F600C0C0FC060606060C181800000000000023
:100806000000FC66C6C6C6C6C6FE000000000000A4
:100816000000DC7666C6C6C6C6DC00000000000026
:1008260000001818181818181818181818000000BA
:100836000000380C0C0C0C0C0C3C000000000000F6
:1008460000007C66C6C6C6C6CC7800000000000064
:1008560000006666663636361C7000000000000032
:100866000000F84CCCCCCC6C0C0C0C0C0E00000030
:100876000000FC46C6C6E606867C000000000000B6
:1008860000666C38181818181818000000000000C8
:100896000000EE666634180C06FE0000000000003C
:1008A6000000FC060666646C6E6060600000000076
:1008B6000000F80C0C0C0C0C0C0C000000000000E6
:1008C6000000D6D6D6D6D6F6E67C0000000000009C
:1008D6000000FC6666666666E6E60000000000004C
:104B7800410C9B00410C9800C11742089600004167
:074B88000C99FF410C9AFF9C
:10938F007590FFC2C4D2CBD2CA0000E59030E7037C
:0C939F00D38001C39202C2CA0000A202E7
:0193AB00229F
:1095060012938F40FBC2C4C2CBC2CA00008F900028
:0895160000D2CA0000C2CA2203
:0C928600E0FBA3E0FAA3E0F91209DCFF12
:1092920012938F40FBD2C4C2CBC2CA8F900000D2BD
:0692A200CA0000C2CA224E
:1091B100C2CA7F30129506000012950600007F0C8E
:1091C10012950600007F0112950600007F06129598
:0491D1000600002272
:109420007F0112950600007B017A0879987D007C07
:0B94300004128E027DFF7FFF02978B6D
:0B7EB10090111CEBF0A3EAF0A3E9F035
:107EBC002400F9EA3402FA901120EBF0A3EAF0A3C3
:107ECC00E9F0E490111FF07F3612950690111FE037
:107EDC004480FF1295067F801295067F301295061E
:107EEC003013031259CEE4FE90111C12928690119D
:107EFC001DE475F001120ABD0EEEB410EB7E10906D
:107F0C001120129286901121E475F001120ABD0E17
:107F1C00EEB420EB90111FE004F0E0C3942040A7D6
:017F2C002232
:107B0A00AE077F36129506EDD394014006ED24FEAA
:107B1A00FF8002AF05EFC454F0240F4480FF129592
:107B2A0006EEC313FFEDD3940140047C0880027C67
:107B3A0000EF2C4480FF1295067F30129506EE3036
:107B4A00E02175F000EDA42487F582E5F03409F50B
:107B5A00832DF583E5822EF582E43583F583E0FFF4
:107B6A001292923000047FFF801E75F000EDA4246B
:107B7A0088F582E5F03409F5832DF583E5822EF543
:0B7B8A0082E43583F583E0FF02929255
:1093AC001209DCFF6015640A6011EFD3948040024F
:0D93BC00D322740129F9E43AFA80E5C322B6
:10970F00900C9BE004F0E05403F0E4900C98F022EE
:0B63E90090111CEBF0A3EAF0A3E9F018
:1063F4001293AC921690111CA3E0FAA3E04A700326
:1064040002653590111CE0FBA3E0FAA3E0F9120940
:10641400DCFF7003026535640A7003026535901170
:1064240020EFF0900C98E004F0E0D39410400312B5
:10643400970F90112174FFF0A37403F0A37426F056
:10644400901120E0FFC39420406EEFD3948050104D
:10645400EF75F010A42436F974FF35F0FAA3804FD9
:1064640090111DE475F001120ABD901120E07F0027
:10647400FE90111CE0FBA3E0FAA3E0F91209DC2F63
:10648400FFE43EFEC3EF9490EE94D7402BD3EF94F9
:10649400ABEE94D75022EFC4F8540FC868FFEEC493
:1064A40054F048FE74362FF9748E3EFA901121741C
:1064B400FFF0A3EAF0A3E9F0900C98E060071490D1
:1064C400111FF0800AE490111FF0900C9804F03032
:1064D400160A90111FE0FFC3740F9FF0E4FF9011A0
:1064E40021E0FBA3E0FAA3E0F98F8275830012098F
:1064F400F5FE900C9BE0C454F02F75F010A4249882
:10650400F582E5F03408F583C083C08290111FE062
:10651400D082D0832582F582E43583F583EEF00FB3
:10652400EFB410BA90111DE475F001120ABD0264B3
:01653400075F
:016535002243
:08810C00901081EFF0A3EDF0EB
:10811400EB75F010A424A6F9740035F0FA901085DC
:1081240074FFF0A3EAF0A3E9F0E4FF901085E0FB0C
:10813400A3E0FAA3E0F98F827583001209F5FE909B
:108144001084E05EFE901081E0C454F02F75F010AE
:10815400A42498F582E5F03408F583C083C08290A6
:108164001082E0D082D0832582F582E43583F583C2
:07817400EEF00FEFB410B4B0
:01817B0022E1
:10957900900C9BEFF0900C98EDF01263E97B017A67
:06958900087998027EB192
:1096DA0090108474FFF012810C7B017A0879980249
:0296EA007EB14F
:0A848200901381EFF0A3EDF0AC03BE
:10848C00E4A3F0EC75F00584FCD3940540027C0564
:10849C007E01EEC39C500F901383E01313543FF0F6
:1084AC0044C0F00E80EC901381E0FFA3E0FDECD310
:1084BC00940040047EFF80027E00901084EEF07BDE
:1084CC000412810C901381E0FFA3E004FDA3E09063
:1084DC001084F07B0512810C7B017A087998027E5E
:0184EC00B1DE
:09978B00900C99EDF0A3EFF0221F
:108BF400900C99E0FFF46029A3E0FDF46023900851
:108C040096E475F001120ABDABF0FABA0113BB2C5D
:108C140010E4900896F0A3F0A2179200127B0AB217
:028C2400172215
:10367A004F4B002B4350494E3A204E4F5420494E4F
:10368A00534552544544004552524F52002B435021
:10369A00494E3A205245414459002B4350494E3A2B
:1036AA00204E4F542052454144590025642C25642C
:1036BA000061742B6370696E3F2072657475726E57
:1036CA00202562640D0A002B435245473A20002503
:1036DA0062642C256264004174436D6443625F63D3
:1036EA007265673A202562642C2562640D0A0061BE
:1036FA00742B637265673F2072657475726E20253C
:10370A0062640D0A002B4353513A20004174436D01
:10371A006443625F6373713A202562642C25626494
:10372A000D0A0061742B6373713F207265747572A0
:10373A006E202562640D0A0041540D0A0041542B83
:10374A004350494E3F0D0A0041542B434F50533DBD
:10375A00300D0A0041542B435245473F0D0A0041A0
:10376A00542B434C43433D310D0A0041542B434DE6
:10377A0047463D310D0A0041542B434C564C3D34CB
:10378A000D0A0041542B4353510D0A0041542B4357
:10379A00504F460D0A0047534D5F5265706F77656B
:1037AA00720D0A0047534D5F496E69743A310D0A2A
:1037BA000047534D5F4765744373710D0A004154C6
:1037CA002B434C564C3D2562640D0A0047534D5F0E
:1037DA00536574566F6C756D2028256264293A20EA
:1037EA0025730D0A00415444003B0D0A0041542B35
:1037FA00434855500D0A0047534D5F496E69743A64
:10380A00320D0A0047534D5F496E69743A330D0A07
:10381A000047534D5F496E69743A340D0A004753A5
:10382A004D5F4174436D643A256264202D20256200
:10383A00640D0A00415420636D64206578656375E0
:10384A0074652031306564204661696C203A202510
:10385A006264205B25735D20210D0A0043616C6C54
:10386A004F757454696D653A2025640D0A004154F8
:10387A002B434C43430D0A004154410D0A004E4F5D
:10388A00524D414C20504F57455220444F574E00FD
:10389A00554E4445522D564F4C5441474520504FA2
:1038AA0057455220444F574E004E4F204449414CF1
:1038BA00544F4E45004E4F20434152524945520003
:1038CA0052494E47002B434C43433A20002B445461
:1038DA004D463A20002B525844544D463A20002B6C
:1038EA00434F4C503A002B51544F4E454445543A9D
:1038FA000041542B434D47533D002B434D47533A08
:10390A0000727370547970653A256264202D2025FF
:10391A00640D0A002562642C2562642C2562640009
:10392A00434C43433A202562640D0A000D0A2D2DAB
:10393A002D2D50614F70656E2D2D2D2D0D0A0025F0
:10394A0062640044544D463A202562640D0A00FF21
:10395A00367DFF3691FF3697FF36A4FF3691FF3644
:10396A00D1FF3691FF370FFF3888FF389AFF38B3F7
:10397A00FF38BFFF38CAFF38CFFF38D7FF38DFFF1D
:10398A0038E9FF38F0FF38FBFF3904FF369141541C
:0B399A002B5654533D2230220D0A0032
:104B8F00411268FF41126FFFC10BC10CC10A4112E4
:104B9F004D0041124E0041124F0041125000411280
:104BAF0051004112A1FF4112A20060301271FF3774
:104BBF0042FF8CEAFF3747FF5CD1FF3752FF8CEA89
:104BCF00FF375EFF5FBDFF3769FF8D19FF3775FF39
:104BDF008CEAFF3781FF8CEAFF378DFF612D421280
:104BEF006B00004212690000421266000041127011
:014BFF0000B5
:108CEA009010D074FFF0A37436F0A3747AF0126F68
:108CFA0059EFF47002EEF460037F042290124DE003
:0E8D0A0004F0C3940A4005E4F07FFF227F00CE
:018D18002238
:105CD100E4901074F074FFA3F0A3F0E4A3F0A3F038
:105CE100A3F0A3EBF0A3EAF0A3E9F0E4901079F0BC
:105CF100901079E0FFC394044003025DB6EF75F0A4
:105D010003A42459F582E43439F583E493F9740149
:105D110093FA7402939010D0C9F0A3EAF0A3E9F0CA
:105D210090107AE0FBA3E0FAA3E0F9126F59EFF4C7
:105D31007002EEF46076901079E0FF7E00901075AD
:105D4100EEF0A3EFF06401706C901075E0FEA3E03B
:105D510090395975F003120D3DEE75F003A42583BA
:105D6100F583E493FB740193FA740293F912903F63
:105D71007E0090107AE0FBA3E0FAA3E02FF9EE3A5F
:105D8100FA9010D074FFF0A37436F0A374B5F0A3A9
:105D91007401F0A37410F0A37477F0A37401F0A35D
:105DA1007410F0A37478F0123A2E8009901079E003
:105DB10004F0025CF1901075E0FEA3E0FFEE707359
:105DC100EF1460401460601460112403706590103A
:105DD1007474FFF090126F14F0805890124EE0C36B
:105DE100940A400D90107474FFF0E490124EF0800C
:105DF1000BE4901074F090124EE004F090126F7466
:105E0100FDF0802F90124EE0C3940A400D90107463
:105E110074FFF0E490124EF08019E4901074F09049
:105E2100124EE004F0800C90126F74FCF09010742C
:105E31007404F07BFF7A3679BB901074E090111FE7
:095E4100F0122D19901074E0FF1D
:015E4A002235
:105FBD00E4901074F074FFA3F0A3F0E4A3F0A3F049
:105FCD00A3F0A3EBF0A3EAF0A3E9F0E4901079F0CD
:105FDD00901079E0FFC3940240030260CAEF75F0A0
:105FED0003A42465F582E43439F583E493F974014F
:105FFD0093FA7402939010D0C9F0A3EAF0A3E9F0DC
:10600D0090107AE0FBA3E0FAA3E0F9126F59EFF4D8
:10601D007002EEF470030260C190107BEE8FF012EF
:10602D000ABD901079E0FF7E00901075EEF0A3EFA1
:10603D00F0640160030260CA901075E0FEA3E09069
:10604D00396575F003120D3DEE75F003A42583F54A
:10605D0083E493FB740193FA740293F912903F7EDB
:10606D000090107AE0FBA3E0FAA3E02FF9EE3AFAE4
:10607D009010D074FFF0A37436F0A374D9F0A3740C
:10608D0001F0A37410F0A37477F0A37401F0A3745E
:10609D0010F0A37478F0123A2E7BFF7A3679E190E6
:1060AD001077E090111FF0901078E0901120F01211
:1060BD002D198009901079E004F0025FDD901075C4
:1060CD00E0FEA3E0FFEE7041EF14600E04703A9015
:1060DD00124FE0C3941440268017901078E0B4015D
:1060ED00079010747404800E90124FE0C394144006
:1060FD000D90107474FFF0E490124FF0800BE4904B
:10610D001074F090124FE004F07BFF7A3679F9901D
:0F611D001074E090111FF0122D19901074E0FF14
:01612C002250
:10612D00E4901074F074FFA3F0A3F0E4A3F0A3F0D7
:10613D00A3F0A3EBF0A3EAF0A3E9F0C20AE49010F8
:10614D0079F0901079E0FFC39402400302623CEFB6
:10615D0075F003A4246BF582E43439F583E493F9E7
:10616D00740193FA7402939010D0C9F0A3EAF0A3CE
:10617D00E9F090107AE0FBA3E0FAA3E0F9126F5971
:10618D00EFF47002EEF4700302623390107BEE8F29
:10619D00F0120ABD901079E0FF7E00901075EEF0C0
:1061AD00A3EFF06401600302623C901075E0FEA362
:1061BD00E090396B75F003120D3DEE75F003A425DB
:1061CD0083F583E493FB740193FA740293F91290AF
:1061DD003F7E0090107AE0FBA3E0FAA3E02FF9EEEA
:1061ED003AFA9010D074FFF0A37436F0A374D9F07E
:1061FD00A37401F0A37410F0A37477F0A37401F0ED
:10620D00A37410F0A37478F0123A2E7BFF7A3779CD
:10621D0016901077E090111FF0901078E0901120FB
:10622D00F0122D198009901079E004F002614F9061
:10623D001075E0FEA3E0FFEE7038EF1460240470DB
:10624D0031901250E0B40A0D90107474FFF0E49088
:10625D001250F0801DE4901074F0901250E004F094
:10626D008010901077E090126FF0D20B9010747434
:10627D0004F07BFF7A37792D901074E090111FF0A8
:08628D00122D19901074E0FFBE
:0162950022E6
:108D19009010D074FFF0A37436F0A3747AF0126F38
:108D290059EFF47002EEF460037F0422901251E0CF
:0E8D390004F0C3940A4005E4F07FFF227F009F
:018D47002209
:1091D5007BFF7A377996128BC1901268740AF090EA
:1091E500126D7407F0A374D0F0D20B7BFF7A377938
:0491F500A0022D198E
:1092A800D2F890126D7403F0A374E8F09012687409
:1092B80001F090126F74FFF0D20BFB7A3779AE028F
:0292C8002D195E
:108E8500901268E06407602190126D7403F0A3747A
:108E9500E8F09012687404F09012A17407F0D20AF9
:0A8EA5007BFF7A3779BB122D1922EA
:107DAE00901080EFF090126D7403F0A374E8F090D1
:107DBE0012687404F09012A17406F090111F74FFF3
:107DCE00F0A37437F0A374C8F0A3EFF07B017A121E
:107DDE007952122D139012A1E0FF75F006A42471B2
:107DEE00F582E43412F5837401F0A37412F0A374D7
:107DFE0052F0901080E090111FF0EF75F006A42461
:107E0E0071F582E43412F583E0F9A3E0FAA3E09071
:107E1E001120C9F0A3EAF0A3E9F07BFF7A3779D6F7
:037E2E00022D1909
:108558009010ACEBF0A3EAF0A3E9F0901268E0FF0A
:1085680064056008EF64096003300A467BFF7A37C8
:1085780079EF128BC19010ACE0FBA3E0FAA3E0F90D
:10858800128BC17BFF7A3779F3128BC19011ACE063
:10859800FF90126BE4F0A3EFF0A37403F0A374E868
:1085A800F09012687406F0C20CE4901270F0D28059
:0485B800D322C322E5
:1094A200D2807BFF7A3779F7128BC19012687405EC
:0994B200F0E4901266F0A3F02230
:10301300901268E0B40B004003023348903026F866
:1030230028287302306E0230820230AE0230DA0298
:1030330031530231DD0231F10232810232DF0232D9
:10304300F802304790126D74FFF5F0120ABD45F097
:103053006003023348C2F890126D743AF0A3749877
:10306300F0E4901268F09012A2F02290126D74FFB7
:10307300F5F0120ABD45F060030233480292A890AE
:10308300126D74FFF5F0120ABD45F0600302334878
:10309300D2C190126D7404F0A374B0F090126874EE
:1030A30002F07BFF7A3879010231AB90126D74FF25
:1030B300F5F0120ABD45F06003023348C2C1901215
:1030C3006D7402F0A37458F09012687403F07BFFE0
:1030D3007A38790E0231AB90126D74FFF5F0120A53
:1030E300BD45F060030233489012687404F0E49025
:1030F30012A1F0A3F090111F74FFF0A37437F0A393
:1031030074C8F09011B2E0901122F07B017A127929
:1031130052122D139012957401F0A37412F0A3743C
:1031230052F09012A1E075F006A42471F582E43404
:1031330012F583E0FBA3E0FAA3E0F9128BC190122E
:103143006D7407F0A374D0F07BFF7A38791B805835
:1031530090126D74FFF5F0120ABD45F0600302335F
:10316300489012A2E004F0C394159012A1E0503BE2
:1031730075F006A42471F582E43412F583E0FBA311
:10318300E0FAA3E0F9128BC190126D7407F0A374F7
:10319300D0F07BFF7A3879289012A1E090111FF0CC
:1031A3009012A2E0901120F0022D1990111FF075DA
:1031B300F006A42471F582E43412F583E0F9A3E068
:1031C300FAA3E0901120C9F0A3EAF0A3E9F07BFF92
:1031D3007A38793E122D190291D590126D74FFF54C
:1031E300F0120ABD45F06003023348028E85901247
:1031F3006D74FFF5F0120ABD45F060030233489089
:10320300126D7403F0A374E8F07BFF7A387966904B
:10321300126BE0FFA3E090111FCFF0A3EFF0122D8C
:103223001990126B74FFF5F0120ABD45F070461247
:1032330094A27F0812795BE4901266F0A3F09011D8
:10324300C6E075F00CA4247FF9741135F0FA7B0104
:1032530012903FEFD3940040109012687409F090DD
:10326300126BE4F0A37402F022129612901145E45B
:10327300F0A37405F07BFF7A387978028BC1901242
:103283006D74FFF5F0120ABD45F0600302334890F8
:10329300126D7403F0A374E8F090126974FFF5F0F3
:1032A300120ABD45F060030233487BFF7A38798206
:1032B300128BC19011C57415F09012687408F0C296
:1032C300809011A9E0FFA3E0901266CFF0A3EFF086
:1032D3009011B2E0FF901197F0027DAE90126D74E1
:1032E300FFF5F0120ABD45F0705B90126D7403F0A8
:1032F300A374E8F02290126D74FFF5F0120ABD4535
:10330300F0704290126D7403F0A374E8F090126BA6
:1033130074FFF5F0120ABD45F0702A9011C6E0C3A0
:103323009402501BE004F07B017A117947E0FD120F
:10333300705150E79011C57414F07F0E02795B123F
:0633430094A2128EAF22DD
:1018430074FF901077F0A3F0E4A3F0A3F0A3EBF000
:10185300A3EAF0A3E9F0E4901079F0A3F0901079F3
:10186300E0FEA3E0FFC3940DEE64809480505F908C
:10187300397175F003EF120D3DEE75F003A4258366
:10188300F583E493F9740193FA7402939010D0C929
:10189300F0A3EAF0A3E9F090107BE0FBA3E0FAA346
:1018A300E0F9126F59EFF47002EEF46011901079C1
:1018B300E0FFA3E0901077CFF0A3EFF0801090103B
:1018C3007AE004F07097901079E004F0808F7BFF4A
:1018D3007A39790B901268E090111FF0901077E03D
:1018E300FFA3E0901120CFF0A3EFF0122D19901079
:1018F30077E0FEA3E0FFEE6003021CCCEFB40A0026
:101903004003021CCC90190FF828287302192D02EA
:10191300192D02192D02194E0219890219B0021A42
:10192300EE021B90021CCC021C2E901268E0FF6496
:10193300066009EF64086004EFB4090C1296519035
:101943001145E4F0A37405F00291D5901268E0B458
:1019530006269011C6E075F00CA4247FF9741135A6
:10196300F0FA7B0112903FEFD39400400B90126882
:101973007409F090126B8026901268E0640970037A
:10198300021CCC021AE3901268E064077003021C85
:10199300CC7407F09011ABE0B4010A901269E4F043
:1019A300A37402F0221294A27F0802795B9039801B
:1019B300E493F9740193FA7402939010D0C9F0A3DD
:1019C300EAF0A3E9F090107BE0FBA3E0FAA3E0F9CF
:1019D300126F59901079EEF0A3EFF0901079E0F4C4
:1019E3007003A3E0F47003021CCC903980E493FBF2
:1019F300740193FA740293F912903F90107AE02FD6
:101A0300FF901079E0340090107C8FF0120ABD90A3
:101A130010D074FFF0A37439F0A3741EF0A3740103
:101A2300F0A37410F0A37479F0A37401F0A37410FD
:101A3300F0A3747EF0A37401F0A37410F0A3747F79
:101A4300F090107BE0FBA3E0FAA3E0F9123A2E7BBF
:101A5300FF7A39792A90107FE090111FF0122D1927
:101A630090107FE070319011C57415F09012687476
:101A730008F0E490126BF0A3F09011A9E0FFA3E04B
:101A8300901266CFF0A3EFF09011B2E0FF901197A0
:101A9300F0127DAEC2802290107FE06403702B2091
:101AA3000C0FD20C9011ACE0FF90126BE4F0A3EF9B
:101AB300F0901270E004F064056003021CCC7BFF1D
:101AC3007A397936122D19C2802290107FE064068C
:101AD3006003021CCC901268E064097003021CCC02
:101AE3001294A27F0812795B028EAF903983E4933C
:101AF300F9740193FA7402939010D0C9F0A3EAF039
:101B0300A3E9F090107BE0FBA3E0FAA3E0F9126FE6
:101B130059901079EEF0A3EFF0901079E0F4700390
:101B2300A3E0F47003021CCC903983E493FB7401AB
:101B330093FA740293F912903F90107AE02FFF907A
:101B43001079E0340090107C8FF0120ABD9010D011
:101B530074FFF0A37439F0A37449F0A37401F0A3E4
:101B63007410F0A3747FF090107BE0FBA3E0FAA362
:101B7300E0F9123A2E90107FE0FE24D090136FF01C
:101B83007BFF7A39794D90111FEE021CC89039867C
:101B9300E493F9740193FA7402939010D0C9F0A3FB
:101BA300EAF0A3E9F090107BE0FBA3E0FAA3E0F9ED
:101BB300126F59901079EEF0A3EFF0901079E0F4E2
:101BC3007003A3E0F47003021CCC903986E493FB0A
:101BD300740193FA740293F912903F90107AE02FF4
:101BE300FF901079E0340090107C8FF0120ABD90C2
:101BF30010D074FFF0A37439F0A37449F0A37401F7
:101C0300F0A37410F0A3747FF090107BE0FBA3E0CB
:101C1300FAA3E0F9123A2E90107FE090136FF07B55
:101C2300FF7A39794D90111F021CC890398CE493C7
:101C3300F9740193FA7402939010D0C9F0A3EAF0F7
:101C4300A3E9F090107BE0FBA3E0FAA3E0F9126FA5
:101C530059901079EEF0A3EFF0901079E0F470034F
:101C6300A3E0F4606490398CE493FB740193FA74F9
:101C73000293F912903F90107AE02FFF901079E0D1
:101C8300340090107C8FF0120ABD9010D074FFF0D6
:101C9300A37439F0A37449F0A37401F0A37410F092
:101CA300A3747FF090107BE0FBA3E0FAA3E0F912AA
:101CB3003A2E90107FE024D090136FF07BFF7A3997
:091CC300794D90111FF0122D194A
:011CCC0022F5
:0B690C00901074EBF0A3EAF0A3E9F098
:10691700901074E0FBA3E0FAA3E0F9AE04AF058F93
:10692700828E83E4120A34901268E06404600302E2
:106937006A1E9012A1E0FFC394084003026A1EEF8B
:1069470075F006A42474F582E43412F583A3E0FA03
:10695700A3E04A7003026A2C901074E0FBA3E0FAEC
:10696700A3E0F9C0029012A1E075F006A42474F523
:1069770082E43412F583A3E0FAA3E0F5828A83D098
:1069870002120D73EF24FC600B2405606F24FE6078
:1069970003026A2CE49012A2F09012A1E004C394BF
:1069A70008503FE004F0E075F006A42471F582E496
:1069B7003412F583E0FBA3E0FAA3E0F9128BC19050
:1069C700126D7403F0A374E8F07BFF7A387928908E
:1069D70012A1E090111FF09012A2E0901120F00296
:1069E7002D1990126D7427F0A37410F0901268742B
:1069F70005F09011C5E06415702B80079011C5E074
:106A0700B4151190126D7403F0A374E8F090126836
:106A17007408F0220291D5901074E0FBA3E0FAA36A
:056A2700E0F912184324
:016A2C002247
:058E5A00901076EFF01E
:108E5F0078777C107D017BFF7A3979987E007F0DC2
:108E6F001209B6901076E0243090107FF07B017AD3
:068E7F00107977028BC19F
:106E5C0025732562643A0025732575002573257307
:106E6C0000257500446F776E6C6F6164204E616D08
:106E7C00656C697374204572723A28206E6F7420A9
:106E8C00696E2073657474696E672029210D0A0080
:106E9C00433A002564005265764E616D656C6973EA
:106EAC007428436E743A2564290D0A00523A002561
:106EBC00753B004E3A0054313A0054323A00543388
:106ECC003A004964783A25642D282564293B2052E0
:106EDC003A25753B204E3A25733B2054313A2573A5
:106EEC003B2054323A25733B2054333A25733B0DE7
:106EFC000A00446F776E6C6F6164204E616D656C37
:106F0C00697374204F4B21202328257529230D0AE2
:106F1C0000446F776E6C6F6164204E616D656C69B7
:106F2C007374204572723A28257523257529210D15
:106F3C000A00969798939495909192A09FA19C9EED
:0D6F4C009D999B9AA8A9AAA6A5A7A2A4A3F7
:104C00004112F7004112F800C11A4212A5000041FA
:074C100012A4004112A3FFF2
:10921D00C374A1949FFF74119411CF2480CF340097
:10922D00FE7B017A1179A1901122E4F0A37402F072
:03923D00027B951C
:0A000E00E49011A1F0A3F002921D8E
:10968E00D39011A2E094649011A1E09400400312D3
:03969E00000E2299
:0B8A00009010CDE0FBA3E0FAA3E0F92A
:0B8A0B0090111AEBF0A3EAF0A3E9F0D1
:108A16007C007D50120A56E42FFFEE3401FE9011C1
:108A26001AE0FBA3E0FAA3E0F9901122E4F0A374A4
:058A360050F0027B95E9
:0B8CBA0090111AEBF0A3EAF0A3E9F020
:108CC5007C007D50120A56E42FFFEE3401FE901110
:108CD5001AE0FBA3E0FAA3E0F9901122E4F0A374F3
:058CE50050F00285BC07
:0B8820009010C8EBF0A3EAF0A3E9F011
:10882B0074FFA3F0A3F07D01127C209010CBEEF02F
:10883B00A3EFF0F47002EEF4601F9010CBE0FEA3F8
:10884B00E0FF9010C8E0FBA3E0FAA3E0F9128CBAAA
:0D885B009010CBE0FEA3E0FF227EFF7FFF28
:0188680022ED
:0B801E009010CDEBF0A3EAF0A3E9F016
:1080290074FFA3F0A3F0120AE9FFAEF07D01127C00
:10803900209010D0EEF0A3EFF0F47002EEF460148B
:108049009010D0E0FEA3E0FF128A009010D0E0FE6D
:10805900A3E0FF229011A1E0FEA3E0FFC39464EE28
:1080690094005023128A009011A2E004F070069047
:1080790011A1E004F012921D9011A2E024FFFF90DB
:0B80890011A1E034FFFE227EFF7FFF0C
:0180940022C9
:08817C009010C8EEF0A3EFF033
:108184009011A1E0FCA3E0FDD39FEC9E4058ED24A8
:10819400FFFFEC34FFFE9010C8E0B50616A3E0B56F
:1081A40007119011A2E024FFF09011A1E034FFF038
:1081B40002921D9011A2E024FFF09011A1E034FF7F
:1081C400F012921D9011A1E0FEA3E0FF7B017A1052
:1081D40079CA128CBA9010C8E0FEA3E0FF7B017A42
:0681E4001079CA128A0B9B
:0181EA002272
:1096FE007D01127C20EFF47002EEF4600312817C87
:01970E002238
:0B4470009010C8EBF0A3EAF0A3E9F005
:10447B0012942020000302459E9010C8A3E0FAA3DB
:10448B00E0242CF9E43AFA90111BE075F00CA42906
:10449B00F9EA35F0FED3E99400EE9400500302469E
:1044AB00C5E4F090111BE0FFC3940340030246C523
:1044BB0090111F74FFF0A3746EF0A3745CF0A374DF
:1044CB00FFF0A37429F0A374BFF0EF04A3F07B01FA
:1044DB007A1079CB122D1390111BE004FF7B017A1C
:1044EB001079CBE4FD1295799010C8E0FBA3E0FAAC
:1044FB00A3E0242CF9E43AFA90111BE075F00CA41C
:10450B0029F9EA35F0FAE004FF7D0512957990114F
:10451B001BE0FF2402FE9012F7E06E706D9011C548
:10452B00E0FE64046005EE6405705F9010C8E0FB6C
:10453B00A3E0FAA3E0242CF9E43AFAEF75F00CA40B
:10454B0029F9EA35F0FA12903FEF2405FD90111B83
:10455B00E004FF12978B9010C8E0FBA3E0FAA3E0F6
:10456B00242CF9E43AFA90111BE075F00CA429F90C
:10457B00EA35F0FA12903FEF2405C3940F400B90ED
:10458B00111BE004FF7D0F12978B90111BE004F0C1
:10459B000244AE9010C8E0FBA3E0FAA3E0F9120AC4
:1045AB00E9D39400E5F0940040717BFF7A2979AE52
:1045BB00E4FD7F0112957990111F74FFF0A3746EC7
:1045CB00F0A37463F0A374FFF0A37429F0A374AE8B
:1045DB00F09010C8E0FBA3E0FAA3E0F9120AE9FFA0
:1045EB00901125E5F0F0A3EFF07B017A1079CB1257
:1045FB002D137B017A1079CBE4FD7F011295799015
:10460B0012F7E070469011C5E0FF64046005EF649B
:10461B000570387B017A1079CB80267BFF7A29795C
:10462B00AEE4FD7F011295799012F7E0701D9011A9
:10463B00C5E0FF64046004EFB405107BFF7A2979B1
:10464B00AE12903FAD077F0112978B90111F74FF35
:10465B00F0A3746EF0A37468F0A374FFF0A3742935
:10466B00F0A374B9F09010C8E0FBA3E0FAA3E02428
:10467B0002F9E43AFA901125EBF0A3EAF0A3E9F082
:10468B007B017A1079CB122D137B017A1079CBE455
:10469B00FD7F021295799012F7E0B4011D9011C5C0
:1046AB00E0FF64046004EFB405107B017A1079CB52
:0A46BB0012903FAD077F0212978BAB
:0146C50022D2
:100026007B017A1279A77D507C00128E02E4901231
:10003600F7F0A3F09011C57404F07B017A1279A74A
:05004600C2000244703D
:10758F009012F7E014605124FC400302762E700332
:10759F000276492405600302764EE49012F7F0A3B9
:1075AF00F09012A7E0FFA3E0901076CF8024901008
:1075BF0076E0FEA3E0FFD39400EE94005003027632
:1075CF004E9012F8E004F07C007D0A120A689010C9
:1075DF0076EEF0A3EFF080D69012A7E0FEA3E0FFC7
:1075EF00901076EEF0A3EFF07B017A107978128885
:1075FF0020EFF47002EEF4601E9010CB7401F0A334
:10760F007410F0A37478F0A3E4F0A37450F07B012E
:10761F007A1279A71288FA7B017A1279A9801290CF
:10762F0012F7E075F00CA424BBF9741235F0FA7B55
:0F763F000112903F9012F8EFF02212971FC21A1B
:01764E002219
:05253E00901075EFF0A4
:10254300640B60030225DA9012F7E06405706230D1
:102553001A137B017A1279A77D50FC128E02E49044
:1025630012F8F0804CD39012A8E094009012A7E0E8
:10257300940040377B017A1279D312903FEFD394C2
:102583000040287B017A1279A712801EEFF47002B3
:10259300EEF460051295FD80031296127B017A1208
:1025A30079A77D507C00128E028003129612D21AF4
:1025B300229012F7E004F0E075F00684E5F0F012E3
:1025C300758FE49012A4F0A3F0A3F09012F7E064E7
:1025D30005600302276122901075E0B40E15901276
:1025E300F7E0C394045005E004F08022E49012F76E
:1025F300F0801B901075E0B40D1A9012F7E0D3949D
:10260300004005E014F080069012F77404F0127590
:102613008F022758901075E0640A60030227209008
:1026230012F7E014603C24FC40030226E27003022C
:1026330027162405600302271E9012F8E0D39400A6
:10264300401DE014F09012A7E0FEA3E0FF7C007DA4
:102653000A120A689012A7EEF0A3EFF002271E02F7
:1026630027279012A5E07002A3E070599012F8E0BA
:10267300FF24A9F582E43412F583E07048EFD39484
:1026830000403A9012F8E024A9F582E43412F5836D
:10269300E4F09012F8E014F0E0FF24A9F582E434AA
:1026A30012F583E0D39480401C74A92FF582E4349F
:1026B30012F583E4F09012F8E014F08008E490122D
:1026C300F7F012758F9012F8E0FF24A9F582E43435
:1026D30012F583E4F074AA2FF582E4341280279074
:1026E30012F8E0D394004024E014F0E0FF9012F7D6
:1026F300E075F00CA424BBF582E43412F583E58283
:102703002FF582E43583F583E4F0800F9012F7E030
:10271300148004E49012F7F012758F8038901075CE
:10272300E0B40F030281EB901075E06463702F90A7
:1027330012F7E0B40128A3E024A9F582E43412F5EA
:1027430083E0601AD3948040069012F8E004F0907E
:1027530012F8E004F0E49012A4F0A3F0A3F09010B8
:1027630075E0FFC394005003022913EFD39409408B
:10277300030229139012F7E0FB14605A24FC400370
:102783000228E2240560030229139012F8E0C3949F
:1027930004502F9012A7E0FEA3E0FF7C007D0A12F5
:1027A3000A569012A7EEF0A3EFF0901075E0FF9099
:1027B30012A8E02FF09012A7E03400F09012F8E096
:1027C30004F09012A7E07002A3E0600302291390C3
:1027D30012F8F0022913901075E0FF9012A3E06F36
:1027E30060269012F8E024A9F582E43412F583E020
:1027F3006016D3948040069012F8E004F09012F82B
:10280300E004F0E49012A4F0901075E0FF701B90C8
:1028130012A4E090294A93FE9012F8E024A9F582CD
:10282300E43412F583EEF00228CA9012F8E0FE2495
:10283300AAF582E43412F583E4F09012A4E0FDEFEC
:102843006409705AEDC394025009ED2459FF74A929
:102853002E8013ED64026004EDB40315ED2477FFBD
:102863009012F8E024A9F582E43412F583EFF080A6
:1028730056EDB404129012F8E024A9F582E4341260
:10288300F583742EF08040ED6405703B9012F8E000
:1028930024A9F582E43412F583742CF08029901076
:1028A30075E01475F003A42DFFEDD3940240047E6C
:1028B3005E80027E41EF2EFF9012F8E024A9F5829C
:1028C300E43412F583EFF09012A4E004F0E075F025
:1028D3000684E5F0F0A37403F0A374E8F08031906C
:1028E30012F8E0C3940B5028901075E02430FF9049
:1028F30012F8E0FE04F0EB75F00CA424BBF582E4BF
:102903003412F583E5822EF582E43583F583EFF007
:10291300901075E09012A3F07B017A1279A79012C0
:10292300F7E0D394014003D38001C39200124470B3
:012933002281
:109065007B017A1279A77D507C00128E02E4901262
:10907500F7F0A3F09011C57405F07B017A1279A77A
:05908500C2000244706E
:05491A00901075EFF0A4
:10491F00640B6003024A019012F7E06402702A30C0
:10492F001A177B017A1279A77D50FC128E02E49040
:10493F0012F8F09012F7F080109012A7E0FEA3E0AB
:10494F00FF1296FED21A0296279012F7E004F0E0BB
:10495F0075F00384AFF0EFF0146046147003024952
:10496F00F824026003024ACEE49012F8F09012A7E6
:10497F00E0FFA3E0901076CF8021901076E0FEA3A9
:10498F00E0FFD39400EE940040659012F8E004F03D
:10499F007C007D0A120A68901076EEF0A3EFF0808B
:1049AF00D99012A7E0FEA3E0FF7B017A107978126D
:1049BF008820EFF47002EEF4601E9010CB7401F0BB
:1049CF00A37410F0A37478F0A3E4F0A37450F07BF9
:1049DF00017A1279A71288FA7B017A1279A91290BB
:1049EF003F9012F8EFF0024ACE12972FC21A22020E
:1049FF004ACE901075E0640A6003024AD99012F70C
:104A0F00E014603314607424026003024ACE9012E3
:104A1F00F8E0D39400401DE014F09012A7E0FEA33D
:104A2F00E0FF7C007D0A120A689012A7EEF0A3EF58
:104A3F00F0024ACE024AE0E49012F7F09012A9F089
:104A4F009012A7E0FFA3E0901076CFF0A3EFF0E471
:104A5F009012F8F0901076E0FEA3E0FFD39400EEF2
:104A6F009400405B9012F8E004F07C007D0A120A7B
:104A7F0068901076EEF0A3EFF080D9E49012F7F083
:104A8F009012A9F09012A7E0FFA3E0901076CFF05C
:104A9F00A3EFF0E49012F8F0901076E0FEA3E0FFA1
:104AAF00D39400EE940040179012F8E004F07C00CD
:104ABF007D0A120A68901076EEF0A3EFF080D9E429
:104ACF009012A4F0A3F0A3F0800A901075E0B40F39
:104ADF00030281EB901075E0FFC394004050EFD3B9
:104AEF009409504A9012F7E07044A3E0C394045025
:104AFF002F9012A7E0FEA3E0FF7C007D0A120A565A
:104B0F009012A7EEF0A3EFF0901075E0FF9012A8AF
:104B1F00E02FF09012A7E03400F09012F8E004F0CC
:104B2F009012A7E07002A3E070049012F8F07B01DE
:094B3F007A1279A7C20012447039
:014B4800224A
:10958F009011C57406F01294207BFF7A297997E425
:06959F00FD7F0102957939
:10951E00EF24F6600E24FB600A2404700912000E7C
:07952E000296271281EB22D7
:1081EB009011C57403F01294207BFF7A297968E40F
:1081FB00FDFF1295797BFF7A297978E4FD7F0112D7
:10820B0095797BFF7A297986E4FD7F021295797B3C
:10821B00FF7A2A796EE4FD7F0312957990111F7412
:10822B00FFF0A3746EF0A3746DF09011A1E0FFA3A7
:10823B00E0901122CFF0A3EFF07B017A1079C812F6
:0F824B002D137B017A1079C87D067F0302957988
:1092EC00EF24FE601214601224F9601124FB600D4F
:1092FC00240E700C02002602906502958F128AEAE9
:01930C00223E
:1092CA00D39011A2E09F9011A1E09E40147B017AF5
:1092DA00107976128CBA7B017A107976C200124420
:0192EA007013
:0192EB002260
:10705100901079EDF0901076EBF0A3EAF0A3E9F04F
:10706100242CF9E43AFAA3E075F00CA429F9EA35E5
:10707100F0FA12903FEFD39400500302713B90104D
:1070810076E0FBA3E0FAA3E0242CF9E43AFAA3E0CA
:1070910075F00CA429F9EA35F0FA1285584003027B
:1070A1007139129420901076E0FBA3E0FAA3E0245A
:1070B10002F9E43AFA12903FEF90111F703074FF19
:1070C100F0A3746EF0A37463F0A374FFF0A3742AA9
:1070D100F0A374ECF0901076E0FBA3E0FAA3E0F9E2
:1070E100120AE9FF901125E5F0F0A3EF803174FF5A
:1070F100F0A3746EF0A37468F0A374FFF0A3742A74
:10710100F0A374ECF0901076E0FBA3E0FAA3E02486
:1071110002F9E43AFA901125EBF0A3EAF0A3E9F0C1
:107121007B017A10797A122D137B017A10797AE436
:0B713100FD7F01129579D322C322C319
:01713C002230
:100E7E009010CAEBF0A3EAF0A3E9F09011C5E0647C
:100E8E000260147BFF7A6E7970122D19900C9FE020
:100E9E00700302136180F5901145E4F0A3740FF016
:100EAE009010D074FFF0A3746EF0A3749CF09010A9
:100EBE00CAE0FBA3E0FAA3E0F9126F59901074EEAA
:100ECE00F0A3EFF0F47002EEF4603AE02402FF902B
:100EDE001074E034009010CB8FF0120ABD9010D039
:100EEE0074FFF0A3746EF0A3749FF0A37401F0A3CB
:100EFE007410F0A37476F09010CAE0FBA3E0FAA38E
:100F0E00E0F9123A2E7BFF7A6E79A2901076E0FF0E
:100F1E00A3E090111FCFF0A3EFF0122D19E4901063
:100F2E0074F0A3F0901076E0FEA3E0FFC39010756E
:100F3E00E09FEE6480F8901074E0648098400302A5
:100F4E00130E9010D074FFF0A3746EF0A374B8F06B
:100F5E009010CAE0FBA3E0FAA3E0F9126F599010CB
:100F6E0078EEF0A3EFF0F47002EEF470030212F1DB
:100F7E00E02402FF901078E034009010CB8FF01236
:100F8E000ABD7B017A10797A7D507C00128E029018
:100F9E0010D074FFF0A3746EF0A374BBF0A37401B1
:100FAE00F0A37410F0A3747AF09010CAE0FBA3E0E3
:100FBE00FAA3E0F9123A2E9010D074FFF0A3746EDB
:100FCE00F0A374BFF09010CAE0FBA3E0FAA3E0F91F
:100FDE00126F59901078EEF0A3EFF0F47002EEF469
:100FEE007003021070E02402FF901078E03400903D
:100FFE0010CB8FF0120ABDE4901078F0A3F0901091
:10100E00CAE0FBA3E0FAA3E0F91209DC643B6040FE
:10101E00901078E0FEA3E0FFC3942AEE64809480E3
:10102E00502E9010CAA3E475F001120AD3A9F0FA5B
:10103E001209DCFD747C2FF58274103EF583EDF001
:10104E00901079E004F070B6901078E004F080AE65
:10105E00901078E0FEA3E0247CF58274103EF583B8
:10106E00E4F09010D074FFF0A3746EF0A374C2F08D
:10107E009010CAE0FBA3E0FAA3E0F9126F599010AA
:10108E0078EEF0A3EFF0F47002EEF4700302111B91
:10109E00E02403FF901078E034009010CB8FF01214
:1010AE000ABDE4901078F0A3F09010CAE0FBA3E024
:1010BE00FAA3E0F91209DC643B6040901078E0FE80
:1010CE00A3E0FFC3940CEE64809480502E9010CA5F
:1010DE00A3E475F001120AD3A9F0FA1209DCFD742B
:1010EE00A62FF58274103EF583EDF0901079E00492
:1010FE00F070B6901078E004F080AE901078E0FEBC
:10110E00A3E024A6F58274103EF583E4F09010D08F
:10111E0074FFF0A3746EF0A374C6F09010CAE0FBD7
:10112E00A3E0FAA3E0F9126F59901078EEF0A3EF56
:10113E00F0F47002EEF470030211C6E02403FF9087
:10114E001078E034009010CB8FF0120ABDE49010AE
:10115E0078F0A3F09010CAE0FBA3E0FAA3E0F91236
:10116E0009DC643B6040901078E0FEA3E0FFC3947E
:10117E000CEE64809480502E9010CAA3E475F0019A
:10118E00120AD3A9F0FA1209DCFD74B22FF582749B
:10119E00103EF583EDF0901079E004F070B69010EB
:1011AE0078E004F080AE901078E0FEA3E024B2F573
:1011BE008274103EF583E4F09010D074FFF0A374A7
:1011CE006EF0A374CAF09010CAE0FBA3E0FAA3E09D
:1011DE00F9126F59901078EEF0A3EFF0F47002EE62
:1011EE00F47003021271E02403FF901078E03400D3
:1011FE009010CB8FF0120ABDE4901078F0A3F0900F
:10120E0010CAE0FBA3E0FAA3E0F91209DC643B602C
:10121E0040901078E0FEA3E0FFC3940CEE6480943F
:10122E0080502E9010CAA3E475F001120AD3A9F0D3
:10123E00FA1209DCFD74BE2FF58274103EF583EDB3
:10124E00F0901079E004F070B6901078E004F08021
:10125E00AE901078E0FEA3E024BEF58274103EF549
:10126E0083E4F07B017A10797A12801E901078EE6A
:10127E00F0FCA3EFF0FD901075E02401FE901074C9
:10128E00E0340090111FF0A3CEF0ED2401FEE43CFB
:10129E00A3F0A3CEF090107AE0FFA3E0901123CF3D
:1012AE00F0A3EFF0A37401F0A37410F0A3747CF01C
:1012BE00A37401F0A37410F0A374A6F0A37401F04C
:1012CE00A37410F0A374B2F0A37401F0A37410F021
:1012DE00A374BEF07BFF7A6E79CE122D19900C9FFF
:1012EE00E070FA901078E0F47003A3E0F4601190CF
:1012FE001075E004F07006901074E004F0020F32E6
:10130E00901076E0FEA3E0FF901074E0B50617A3F0
:10131E00E0B507127BFF7A6E79FE9011A1E0FFA374
:10132E00E090111F801F7BFF7A6F791D901074E083
:10133E00FFA3E090111FCFF0A3EFF0901078E0FF25
:10134E00A3E0901121CFF0A3EFF0122D19900C9F76
:03135E00E070FA42
:011361002269
:1096EC00AD071FED600BE4FEEEC3946E50F20E80DE
:0196FC00F776
:0196FD00224A
:1095A500D2FB0000000000D2FA0000000000C2FB60
:0695B5000000000000228E
:1095BB00C2FB0000000000D2FA0000000000D2FB4A
:0695CB0000000000002278
:08908A001295A57FA0128AB126
:10909200E4FFD2FA000000000030FB09EFC394FAAB
:0C90A20050030F80F4C2FA000000000030
:0190AE00229F
:10008E00D2FBC2FA0000000000D2FA00000000000D
:05009E00C2FAC2FB22C2
:1096A100C2FBC2FA0000000000D2FA000000000074
:0396B100C2FA22D8
:108AB100E4FEC2FA0000000000EF30E703D38001BA
:108AC100C392FBEF25E0FF0000000000D2FA000096
:108AD100000000C2FA0EEEB408D8C2FA000000008D
:088AE10000D2FB0000000000C0
:018AE900226A
:108DD400C2FA0000000000D2FB0000000000E4FE24
:108DE400D2FA0000000000EF25E0FFA2FBE4334FBD
:0D8DF400FFC2FA00000000000EEEB408E31C
:018E0100224E
:107B950090111DEEF0A3EFF0A3EBF0A3EAF0A3E93B
:107BA500F0C2F9805590112274FFF5F0120AD34501
:107BB500F0606090111FE0FBA3E475F001120AD399
:107BC500A9F0FA1209DCFF128AB112909290111EE7
:107BD500E004F0700690111DE004F090111EE054D1
:107BE5003F70C2D3901123E09400901122E09400DD
:107BF50040B31295BB7F641296EC12908A90111DCA
:107C0500E0FF128AB1129092A3E0FF128AB112909E
:0B7C15009280921295BB7F640296ECF7
:0485BC00AD07AC0655
:1085C00012908AECFF128AB1129092AF05128AB112
:1085D0001290921295A57FA1128AB1129092D39017
:1085E0001123E09401901122E09400401FA3E024A5
:1085F000FFF0901122E034FFF0128DD4EF120A2226
:108600001296A1740129F9E43AFA80D2128DD4EFBE
:0E861000120A2212008E1295BB901124E0FF78
:01861E002239
:1073E10054616C6B54696D653A2025750D0A005224
:1073F100696E67496E54733A202562640D0A005222
:10740100696E674F757454733A202562640D0A00E2
:10741100546F6E65456E3A202562640D0A00436122
:107421006D6572614F6E3A202562640D0A005265E6
:10743100616C7954696D653A202562640D0A0055C5
:107441006E6C6F636B4B657920313A202562640D58
:107451000A00556E6C6F636B4B657920323A2025BB
:1074610062640D0A0054616C6B566F6C756D3A2045
:107471002562640D0A00536D7354656C3A202573BF
:107481000D0A004E616D65436F756E743A20257566
:107491000D0A00507377436F756E743A2025750D90
:1074A1000A0043617264436F756E743A2025750D4D
:0D74B1000A00257325750025730025750060
:104C17004111C50148119F0000000000000000423B
:104C270011C3FFFF4211450000411197034111C60F
:104C370000421199000041119C0041119800441154
:0E4C4700C70000000041119B0442119D012C8A
:106296007B017A1179A7901122E4F0A3741CF0E433
:1062A600FFFE1285BC9011A7E0B45A08A3E0B461C2
:1062B600033000589011A7745AF0A37461F0A3E458
:1062C600F0A3741EF0A37401F0A3740FF0A374017D
:1062D600F0A3F0A3740AF0A37401F0A304F0A3746E
:1062E60005F0A3120D0C000A2C2A7B017A1179B74E
:1062F6007D0C7C00128E027B017A1179A790112207
:10630600E4F0A3741CF0E4FFFE127B957BFF7A7326
:1063160079E19011A9E0FFA3E090111FCFF0A3EF60
:10632600F0122D197BFF7A7379F09011ABE0901182
:106336001FF0122D197BFF7A7479009011ACE09052
:10634600111FF0122D197BFF7A7479119011ADE0AF
:1063560090111FF0122D197BFF7A74791F9011AEE0
:10636600E090111FF0122D197BFF7A74792F90118E
:10637600AFE090111FF0122D197BFF7A74794090CF
:1063860011B0E090111FF0122D197BFF7A7479532A
:106396009011B1E090111FF0122D197BFF7A7479DC
:1063A600669011B2E090111FF0122D1990111F7412
:1063B60001F0A37411F0A374B7F07BFF7A747977B8
:1063C600122D199011B2E0D3940540037403F09096
:1063D60011B2E0901197F09011AEE06003D2E9227D
:0363E600C2E922E7
:10764F007B017A11799F901122E4F0A37408F07FE7
:10765F00807E001285BC90119FE0645A7004A3E0F5
:10766F006461602C90119F745AF0A37461F0E4A3CD
:10767F00F0A3F0A3F0A3F0A3F0A3F07B017A1179AC
:10768F009F901122F0A37408F07F807E00127B95EB
:10769F007BFF7A7479849011A1E0FFA3E090111F12
:1076AF00CFF0A3EFF0122D197BFF7A74799490111C
:1076BF00A3E0FFA3E090111FCFF0A3EFF0122D195D
:1076CF007BFF7A7479A39011A5E0FFA3E090111FBF
:1076DF00CFF0A3EFF0122D1912968E1296B40296D8
:0176EF00C7D3
:10873200ED24FE60171460222402702D7C007D500F
:10874200120A56E42FFF74013EFE801DEF7802C329
:1087520033CE33CED8F92440800A7C007D06120A3B
:108762005674682FFF74203EFE7B017A1079D990EF
:108772001122E4F0A37402F01285BC9010D9E0FE3D
:03878200A3E0FF72
:0187850022D1
:0B7C20009010D2EEF0A3EFF0A3EDF007
:107C2B00E4A3F0A3F0ED24FE600C14600E240270AC
:107C3B00199011A180089011A380039011A5E0FF6A
:107C4B00A3E09010D7CFF0A3EFF09010D7E0FCA3F8
:107C5B00E0FD9010D5E0FEA3E0FFC39DEE9C5035F8
:107C6B009010D4E0FD1287329010D2E0B5060EA32F
:107C7B00E0B507099010D5E0FEA3E0FF22EFF4700A
:107C8B0002EEF460109010D6E004F070BD9010D5A9
:097C9B00E004F080B57EFF7FFFDC
:017CA40022BD
:108EAF009011C57401F074FF9011C3F0A3F0E4901A
:108EBF001145F0A3F0901198F090126BF0A3F09081
:098ECF001266F0A3F0FF02722507
:108AEA009011C57402F01294207BFF7A2979537D84
:108AFA00017F011295797BFF7A2979637D017F02D3
:108B0A001295797B037D067F021296DAE490119919
:088B1A00F0A3F090119CF02281
:108416001294207BFF7A2979AEE4FD7F01129579CB
:10842600901199E0FEA3E0FFD39400EE9400901122
:108436001F74FF401CF0A37474F0A374B3F0A3740C
:10844600FFF0A37429F0A374AEF0A3EEF0A3EF80BF
:1084560014F0A37474F0A374B8F0A374FFF0A374BB
:1084660029F0A374AEF07B017A107976122D137B76
:0C847600017A107976E4FD7F010295790F
:108D48009011C57407F07E00901199EEF0A3EFF032
:108D580090119C7401F0EF7001F01284167B017A77
:0F8D68001179477D507C00128E027F0F02795BDC
:106C5800901075EFF024F67003026CE524FB6003D6
:106C6800026D13901199E0FEA3E0FFD39400EE9417
:106C780000404C7B017A117947128820EFF47002AA
:106C8800EEF4603BE49011C6F07B017A117947FD80
:106C9800127051500C7F0C12795B9011C57414F06E
:106CA800227B017A11797312903FEF7005129612C8
:106CB8008003129651901145E4F0A37405F0221256
:106CC800973F7F0412795B901145E4F0A37405F0B7
:106CD800E4901199F0A3F090119CF0802E90119CF3
:106CE800E0D39400401FE014F0901199E0FEA3E077
:106CF800FF7C007D0A120A68901199EEF0A3EFF06C
:106D08001284168006128D77128EAF901075E0FFF0
:106D1800C39400403EEFD39409503890119CE0C3CF
:106D28009404502FE004F0901199E0FEA3E0FF7C5A
:106D3800007D0A120A56901199EEF0A3EFF0901018
:106D480075E0FF90119AE02FF0901199E03400F06F
:046D58001284162269
:067D2A009011C7120D00CC
:107D30001294209011C5E0B40E0D7BFF7A2A79755C
:107D4000E4FD7F0112957990109774FFF0A3742AD7
:107D5000F0A37452F07B017A107976128682E4FDEA
:107D600090119CE0FCEDC39C5016ED2FFBE43EFA15
:107D700074762BF58274103AF583742AF00D80E046
:107D8000ED2FFFE43EFE74762FF58274103EF583EE
:107D9000E4F07B017A107976FD7F021295797B0100
:0E7DA0007A10797612903FAD077F0202978B22
:1093C9009011C5740EF09011C7120D0C0000000029
:0D93D900E490119CF0127D307F0202795B60
:106D5C00901075EFF024F6606724FB7003026DF958
:106D6C0024046003026DFCE4FFFEFDFC9011C7E0FF
:106D7C00F8A3E0F9A3E0FAA3E0FBD3120C694027D7
:106D8C0090119CE0B406209011B3E0FCA3E0FDA3AD
:106D9C00E0FEA3E0FF9011C7E0F8A3A3A3E0C312A9
:106DAC000C697003028AEA1296127F0512795B90C5
:106DBC0011C7120D0C00000000E490119CF0803003
:106DCC0090119CE0D39400401FE014F09011C7E0A8
:106DDC00FCA3E0FDA3E0FEA3E0FFE47B0AFAF9F8D4
:106DEC00120BD7127D2A8008128D778000128EAF7D
:106DFC00901075E0FFC394004055EFD39409504FA9
:106E0C0090119CE0C394065046E004F09011C7E04A
:106E1C00FCA3E0FDA3E0FEA3E0FFE47B0AFAF9F893
:106E2C00120B4C9011C7120D009011C7E0F8A3E0A3
:106E3C00F9A3E0FAA3E0FB901075E0FFE4FCFDFE83
:106E4C00EB2FFFEE3AFEED39FDEC38FC127D2A22D9
:10653600901075EFF024F5601C14601F146022148F
:10654600605E14700302660C2405600302666E1218
:106556008EAF02666E1291F902666E1293C90266DA
:106566006E9011A1E0FEA3E0FFD39400EE940050DC
:106576000302666EEF24FFFFEE34FFFEC39011C4E4
:10658600E09F9011C3E09E500EA3E004F0706A9065
:1065960011C3E004F08062E49011C3F0A3F08059C7
:1065A6009011A1E0FEA3E0FFD39400EE9400500307
:1065B60002666E9011C3E0FCA3E0FD9FEC9E5025A1
:1065C600ED9400EC9400400DE024FFF09011C3E040
:1065D60034FFF08024EF24FFFFEE34FF9011C3F068
:1065E600A3EFF080149011A2E024FFFE9011A1E029
:1065F60034FF9011C3F0A3CEF09011C3E0FEA3E0E8
:10660600FF1292CA80629011A1E0FCA3E0FD9011F6
:10661600C3E0FEA3E0FFC39DEE9C5047E49011C685
:10662600F07B017A117947128CBA7B017A1179478E
:10663600E4FD127051500D9011C57414F07F0C12C8
:10664600795B80247B017A11797312903FEF700594
:106656001296128003129651901145E4F0A3740528
:10666600F08005E4FF128D48901075E0FFD394008A
:0C6676004009EFD394095003128D482214
:1074BE00901075EFF0C39400405EE0FBD39409503A
:1074CE005790119CE0C39402503AE004F090119949
:1074DE00E0FEA3E0FF7C007D0A120A56901199EEA1
:1074EE00F0A3EFF0EBFF7E00E02FF0901199E03E5D
:1074FE00F0D3A3E0940D901199E09400500302751F
:10750E008EEE8009901075E0FF901199E4F0A3EFD4
:10751E00F090119C7401F022901075E0B40F02806F
:10752E0007901075E0B40A03028EAF901075E064F8
:10753E000B704D901199E0FEA3E0FFC39404EE94FE
:10754E0000400EEF940CEE94005006EF2412FF80D4
:10755E002C901199E0FEA3E0FFEE7024EF24FE6064
:10756E001114601124F76010146010240C701102B5
:10757E0081EB0282C90283A702911E7F1E125E4B0F
:01758E0022DA
:1087D500901075EFF0C39400400AE0FFD394095060
:1087E50003028E5A901075E024F3601014601A1479
:1087F5006004240570241294A2028EAF901197E0B4
:10880500C394055015E004800B901197E0D39401B3
:0B8815004008E014F0E0FF127DAE22EE
:104D5F001294209011C5E024EAB409004003024EDA
:104D6F00B2904D7E75F003A4C58325F0C583730201
:104D7F004D99024DB5024DD1024DED024E3E024E00
:104D8F0059024E74024E09024E8F90111F74FFF09C
:104D9F00A37474F0A374B8F0A374FFF0A3742AF093
:104DAF00A374F6024EA890111F74FFF0A37474F051
:104DBF00A374B8F0A374FFF0A3742BF0A3740102D3
:104DCF004EA890111F74FFF0A37474F0A374B8F081
:104DDF00A374FFF0A3742BF0A3740D024EA89011CF
:104DEF001F74FFF0A37474F0A374B8F0A374FFF0F2
:104DFF00A3742BF0A37418024EA890111F74FFF028
:104E0F00A37474F0A374B8F0A374FFF0A3742BF021
:104E1F00A37436F07B017A107976122D13901199C5
:104E2F00E07002A3E06004D2E98078C2E980749058
:104E3F00111F74FFF0A37474F0A374B8F0A374FF80
:104E4F00F0A3742BF0A3743E804F90111F74FFF0EA
:104E5F00A37474F0A374B8F0A374FFF0A3742CF0D0
:104E6F00A37464803490111F74FFF0A37474F0A3C3
:104E7F0074B8F0A374FFF0A3742CF0A3747C8019A2
:104E8F0090111F74FFF0A37474F0A374B8F0A3749F
:104E9F00FFF0A3742CF0A37494F07B017A10797651
:104EAF00122D139011C5E06419702B7B017A1079C4
:104EBF0076FD7F01129579901199E07004A3E0645B
:104ECF00017BFF70067A2B794A80047A2B794D7D0E
:104EDF00067F03024F709011C5E0FF641D6005EF60
:104EEF006417702B7B017A107976E4FD7F011295A0
:104EFF0079901199E07004A3E064017BFF70067A4A
:104F0F002B794A80047A2B794D7D067F0280527B64
:104F1F00017A107976E4FD7F01129579901199E06D
:104F2F00FEA3E0FFD39400EE9400403890111F745D
:104F3F00FFF0A37474F0A374BBF0A3EEF0A3EFF033
:104F4F007B017A107976122D137B017A1079761204
:104F5F00903FC374109FC313FD7B017A1079767F46
:044F6F00021295791C
:014F7300221B
:105E4B009011C5EFF024EAB409004003025F739090
:105E5B005E6875F003A4C58325F0C58373025E836A
:105E6B00025EA1025EBB025ED6025F09025F2302E5
:105E7B005F3D025EF0025F5790119B7403F090112F
:105E8B009D7401F0A3742CF09011A9E0FFA3E09096
:105E9B001199CF025F6F90119B7402F090119DE4EA
:105EAB00F0A304F09011ABE0FF901199E4025F6F47
:105EBB0090119B7402F090119DE4F0A3745AF09032
:105ECB0011ACE0FF901199E4025F6F90119B74018C
:105EDB00F090119DE4F0A304F09011ADE0FF901150
:105EEB0099E4025F6F90119B7401F090119DE4F0A7
:105EFB00A304F09011AEE0FF901199E4806690112D
:105F0B009B7402F090119DE4F0A37463F09011AFB9
:105F1B00E0FF901199E4804C90119B7401F090116B
:105F2B009DE4F0A37409F09011B0E0FF901199E497
:105F3B00803290119B7401F090119DE4F0A37409D1
:105F4B00F09011B1E0FF901199E4801890119B74BF
:105F5B0001F090119DE4F0A37405F09011B2E0FFF5
:105F6B00901199E4F0A3EFF0E490119CF09011994B
:105F7B00E0FEA3E0FFD3EF9400EE9400400F9011EE
:105F8B009CE004F07C007D0A120A6880E89011C541
:105F9B00E0FF64196013EF641D600EEF641B600972
:105FAB00EF641C6004EFB41E0690119C7401F002A8
:025FBB004D5F38
:10516400901076ECF0A3EDF0EF24EAB409004003CC
:1051740002532F90518575F003A4C58325F0C58390
:10518400730251A00251CB0251EF02521302527129
:105194000252940252C50252420252F7901076E033
:1051A400FFA3E09011A9CFF0A3EFF0C374A994A7D3
:1051B400FF74119411FE7B017A1179A9901122E4F4
:1051C400F0A374020252F1901076A3E09011ABF0B8
:1051D400C374AB94A7FF74119411FE7B017A117907
:1051E400AB901122E4F0A3040252F1901076A3E0F4
:1051F4009011ACF0C374AC94A7FF74119411FE7BAE
:10520400017A1179AC901122E4F0A3040252F190D6
:105214001076E07002A3E07003FF80027F0190111A
:10522400ADEFF0C374AD94A7FF74119411FE7B012C
:105234007A1179AD901122E4F0A3040252F1901096
:1052440076E07002A3E07003FF80027F019011AE4C
:10525400EFF0C374AE94A7FF74119411FE7B017A2E
:105264001179AE901122E4F0A3040252F190107669
:10527400A3E09011AFF0C374AF94A7FF741194111D
:10528400FE7B017A1179AF901122E4F0A304805DD2
:10529400901076E0FEA3E0FFD39400EE9400500358
:1052A40002532F9011B0EFF074B094A7FF741194CF
:1052B40011FE7B017A1179B0901122E4F0A30480ED
:1052C4002C901076E0FEA3E0FFD39400EE9400400F
:1052D4005A9011B1EFF074B194A7FF74119411FEB8
:1052E4007B017A1179B1901122E4F0A304F0127BCE
:1052F400958038901076E0FEA3E0FFD39400EE94FE
:105304000040289011B2EFF074B294A7FF74119486
:1053140011FE7B017A1179B2901122E4F0A304F01A
:0E532400127B959011B2E0901197F00295FD6A
:10584600901075EFF090119CE0B46302807B90108D
:1058560075E024F5605324FC604D2405706E9011AC
:10586600C5E0FF64196010EF641D600BEF641760FC
:105876000690119CE0700E9011AEE06004D2E980B3
:1058860002C2E9804490119CE014F0901199E0FE68
:10589600A3E0FF7C007D0A120A68901199EEF0A33E
:1058A600EFF0124D5F8025802090119CE0D394008C
:1058B60040179011C5E0FF901199E0FCA3E0FD129E
:1058C600516490119C7463F022028AEA901075E08C
:1058D600FFC3940050030259CAEFD3940940030250
:1058E60059CA9011C5E0FF64196009EF641D600490
:1058F600EFB4171290119C7401F0901075E0FF90B0
:105906001199E40259C69011C5E0FF641B6004EFCB
:10591600B41C1C901075E0FFD3940050030259CAC2
:1059260090119C7401F07E00901199140259C69052
:1059360011C5E0B41E27901075E0FFD39400500304
:105946000259CA7E0090119EE09F90119DE09E40F4
:105956007390119C7401F090119914806390119BBF
:10596600E0FFA3E0C39F505C901199E0FEA3E0FF27
:105976007C007D0A120A5690119DE0FCA3E0FDC34F
:105986009FEC9E403F90119CE004F0901199EEF040
:10599600A3EFF0901075E0F92FFFE43EFEC3ED9FF4
:1059A600EC9E4011E9FF90119AE02FF0901199E0DA
:1059B6003400F0800F90119DE0FFA3E0901199CF85
:0859C600F0A3EFF0124D5F2287
:105B5100901074EFF0901145E4F0A3741EF09011D1
:105B6100C5E014B41E004003025CA1905B7A75F09D
:105B710003A4C58325F0C58373025BD4025BDF02F6
:105B81005BEA025BF5025C00025C0B025C49025CB1
:105B910016025C21025C2B025C35025C3F025C5DFB
:105BA100025C53025C67025C71025C7B025C8502F1
:105BB1005CA1025C8F025C8F025C99025C99025CC1
:105BC10099025C99025C99025C99025C99025C9968
:105BD100025C99901074E0FF126536025CA190108E
:105BE10074E0FF1274BE025CA1901074E0FF129287
:105BF100EC025CA1901074E0FF12253E025CA190C2
:105C01001074E0FF12491A025CA1901074E0FF12B7
:105C1100951E025CA1901074E0FF12930D025CA12D
:105C2100901074E0FF1221198076901074E0FF1239
:105C3100569C806C901074E0FF1295358062901034
:105C410074E0FF1266828058901074E0FF126C5865
:105C5100804E901074E0FF126D5C8044901074E0EF
:105C6100FF123CC7803A901074E0FF12932E8030EF
:105C7100901074E0FF1254EA8026901074E0FF1235
:105C81005332801C901074E0FF12954C80129010DA
:105C910074E0FF1287D58008901074E0FF12584617
:105CA100D3901146E0940A901145E0940040209071
:105CB10011C5E0FF640E600EEF640C6009EF64072C
:105CC1006004EFB40109901145E4F0A3740AF022D5
:1084ED00901074EBF0A3EAF0A3E9F09011C5E0242D
:1084FD00F1605724FE60071460502402700E901036
:10850D0074E0FBA3E0FAA3E0F9028A3B901074E05B
:10851D00FBA3E0FAA3E0F91276F0EFF47002EEF4AB
:10852D00600E9011AFE0FDD200E4FF12934F800377
:10853D0012963C9011C5E0FF6415600EEF64146057
:0B854D0009901145E4F0A37405F02232
:108ED800436865636B5073773A25750D0A004164E2
:108EE800645073774974656D20310D0A0025732528
:098EF800750025732500257500A5
:0E4C55004113690041136A00C10DC10EC10F69
:10924000C374A3949FFF74119411CF2480CF340072
:10925000FE7B017A1179A3901122E4F0A37402F04D
:03926000027B95F9
:0A976D00E49011A3F0A3F002924073
:1096B400D39011A4E0940A9011A3E0940040031203
:0396C400976D227D
:0B8F530090107CE0FBA3E0FAA3E0F923
:108F5E00EF7802C333CE33CED8F92440FFEE34205F
:0D8F6E00FE901122E4F0A37404F0027B9544
:1093E600EF7802C333CE33CED8F92440FFEE3420D3
:0D93F600FE901122E4F0A37404F00285BC87
:087FA600901076EEF0A3EFF05D
:107FAE00E4A3F0A3F07BFF7A8E79D890111FEEF048
:107FBE00A3EFF0122D199011A3E07002A3E070024E
:107FCE00C322E4901078F0A3F09011A3E0FCA3E09C
:107FDE00FD901078E0FEA3E0FFC39DEE9C502F7B3A
:107FEE00017A10797A1293E6901076E0FEA3E0FF04
:107FFE0090107CE0B50607A3E0B50702D3229010DF
:0F800E0079E004F070C3901078E004F080BBC3F9
:01801D002240
:0B7E310090107CEBF0A3EAF0A3E9F056
:107E3C0074FFA3F0A3F0120AE9FFAEF07D02127CEE
:107E4C002090107FEEF0A3EFF0F47002EEF4601DC2
:107E5C007BFF7A8E79E6122D1990107FE0FEA3E05D
:107E6C00FF128F5390107FE0FEA3E0FF229011A32E
:107E7C00E0FEA3E0FFC3940AEE94005023128F534C
:107E8C009011A4E004F070069011A3E004F012929B
:107E9C00409011A4E024FFFF9011A3E034FFFE22D8
:047EAC007EFF7FFFD7
:017EB00022AF
:08825A0090107AEEF0A3EFF0A2
:108262009011A3E0FCA3E0FDD39FEC9E4058ED24C7
:10827200FFFFEC34FFFE90107AE0B50616A3E0B5DE
:1082820007119011A4E024FFF09011A3E034FFF055
:108292000292409011A4E024FFF09011A3E034FF79
:1082A200F01292409011A3E0FEA3E0FF7B017A104E
:1082B200797C1293E690107AE0FEA3E0FF7B017ACC
:0682C20010797C128F5EB2
:0182C8002293
:0890AF00901078EEF0A3EFF041
:1090B7008013EFF47002EEF4601212825A90107867
:0C90C700E0FEA3E0FF7D02127C2080E6AA
:0190D300227A
:083349007B017A13795FD200C9
:0B33510090107CEBF0A3EAF0A3E9F081
:10335C001294209011C5E0B40D0F7BFF7A2A797579
:10336C00E4FDFF1295790234029011C5E0640C70F3
:10337C000302340290107CE0FBA3E0FAA3E0F91204
:10338C000AE9D39400E5F094007BFF7A2C79A3E44E
:10339C00FDFF404912957990111F74FFF0A3748EB4
:1033AC00F0A374F5F0A374FFF0A3742CF0A374A332
:1033BC00F090107CE0FBA3E0FAA3E0F9120AE9FF1D
:1033CC00901125E5F0F0A3EFF07B017A10797F12D4
:1033DC002D137B017A10797FE4FDFF800012957923
:1033EC00901369E070107B017A10797F12903FADD9
:1033FC0007E4FF12978B20000302367990107CE0D3
:10340C00FBA3E0FAA3E0F9900002120CA0E4FBFA93
:10341C00F9F8C3120C6940030234FC90111F74FFBD
:10342C00F0A3748EF0A374FAF0A374FFF0A3742AC3
:10343C00F0A37452F00B7A10797F122D1390136154
:10344C00E0FCA3E0FDA3E0FEA3E0FF9010A0120DB2
:10345C0000E490109FF0E4FFFEFDFC9010A0E0F85B
:10346C00A3E0F9A3E0FAA3E0FBD3120C69403F7B85
:10347C00FF7A2A795212903F90109FE02F247FF50B
:10348C0082E43410F583742AF09010A0E0FCA3E0E1
:10349C00FDA3E0FEA3E0FFE47B0AFAF9F8120BD7D8
:1034AC009010A0120D0090109FE004F080A87BFFFC
:1034BC007A2A795212903F90109FE02F247FF58248
:1034CC00E43410F583E4F07B017A10797FFD7F0101
:1034DC001295799011C5E0640D60047F0180027F24
:1034EC0000901369E06F703A7B017A10797F802825
:1034FC007BFF7A2A7952E4FD7F011295799011C5F0
:10350C00E0640D60047F0180027F00901369E0B5D8
:10351C0007107BFF7A2A795212903FAD077F011278
:10352C00978B9011C5E0640C700302367990107C77
:10353C00E0FBA3E0FAA3E0F9900006120CA0E4FB78
:10354C00FAF9F8C3120C69400302363A90111F7451
:10355C00FFF0A3748EF0A374FAF0A374FFF0A374BD
:10356C002AF0A37464F00B7A10797F122D13901348
:10357C0065E0FCA3E0FDA3E0FEA3E0FF9010A01229
:10358C000D00E490109FF0E4FFFEFDFC9010A0E015
:10359C00F8A3E0F9A3E0FAA3E0FBD3120C69403FD7
:1035AC007BFF7A2A796412903F90109FE02F247F42
:1035BC00F582E43410F583742AF09010A0E0FCA39B
:1035CC00E0FDA3E0FEA3E0FFE47B0AFAF9F8120B9E
:1035DC00D79010A0120D0090109FE004F080A87BF3
:1035EC00FF7A2A796412903F90109FE02F247FF588
:1035FC0082E43410F583E4F07BFF7A2A795CFD7F5A
:10360C00021295797B017A10797FE4FD7F03129584
:10361C00799011C5E0640D60047F0280027F0190F7
:10362C001369E06F70477B017A10797F80357BFFDF
:10363C007A2A795CE4FD7F021295797BFF7A2A79EC
:10364C0064E4FD7F031295799011C5E0640D60046C
:10365C007F0280027F01901369E0B507107BFF7A2F
:0D366C002A796412903FAD077F0312978BFF
:01367900222E
:1090D4007B017A13795F7D0A7C00128E02E490137F
:1090E40069F0A3F09011C57409F07B017A13795FDC
:0590F400D2000233511F
:05211900901075EFF0CD
:10211E00640B6003022266901369E064036003029D
:10212E0021EE300D147B017A13795F7D0AFC128E3D
:10213E0002E490136AF00221EED3901360E0940053
:10214E0090135FE0940050030221EBE4FFFEFDFCD0
:10215E00901361E0F8A3E0F9A3E0FAA3E0FB120C00
:10216E0069607A901365E0FCA3E0FDA3E0FEA3E0B6
:10217E00FF901361E0F8A3A3A3E0C3120C69705D96
:10218E0090135FE0FFA3E0901078CFF0A3EFF090F4
:10219E001361A3A3E0FFA3E090107ACFF0A3EFF0BA
:1021AE007B017A107978127E31EFF47002EEF460D2
:1021BE00051295FD80031296127B017A13795F7DCD
:1021CE000A7C00128E02D20D901361120D0C0000CB
:1021DE000000901365120D0C0000000022029612F2
:1021EE00901369E004F0E05403FFF0E4A3F0EF1461
:1021FE00604914604B14605A240360030223CCE43C
:10220E00901369F090135FE0FFA3E0901076CF80FB
:10221E0024901076E0FEA3E0FFD39400EE940050DD
:10222E00030223CC90136AE004F07C007D0A120AAC
:10223E0068901076EEF0A3EFF080D69013618003D5
:10224E00901365120D0C00000000E490136AF0026A
:10225E0023CC12971FC20D22901075E0640A600302
:10226E000223C2901369E014603C14700302231C15
:10227E00147003022387240360030223CC90136A95
:10228E00E0D39400401DE014F090135FE0FEA3E055
:10229E00FF7C007D0A120A6890135FEEF0A3EFF048
:1022AE000223CC0223C990136AE0D39400401FE0AE
:1022BE0014F0901361E0FCA3E0FDA3E0FEA3E0FFA9
:1022CE00E47B0AFAF9F8120BD7901361806690132B
:1022DE0069E014F0E4A3F090135FE0FFA3E0901028
:1022EE0076CF8024901076E0FEA3E0FFD39400EE2C
:1022FE00940050030223CC90136AE004F07C007D1E
:10230E000A120A68901076EEF0A3EFF080D69013C2
:10231E006AE0D394004023E014F0901365E0FCA330
:10232E00E0FDA3E0FEA3E0FFE47B0AFAF9F8120B4E
:10233E00D7901365120D000223CC901369E014F0B0
:10234E00E4A3F0901361A3A3E0FFA3E0901076CF77
:10235E008021901076E0FEA3E0FFD39400EE94006F
:10236E00405C90136AE004F07C007D0A120A6890CB
:10237E001076EEF0A3EFF080D9E4901369F0A3F09D
