:03000000027A88F9
:0C7A8800787FE4F6D8FD758123027ACFE8
:1091970025730044746D66446174613A2030782504
:1091A700623032580D0A005573724B65792025627B
:0491B700640D0A0039
:094B530042137E000041138000B2
:10420C007F647E00129023C2AF30C0FD1271471242
:10421C0087901286E612947A128F34128F857FE87B
:10422C007E031290231291BBD2AF7F647E0012905A
:10423C0023C2001262A01276597F647E0012902372
:10424C001292B2129460128EB97F0D127965900C95
:10425C00A3E0600C7B017A0C79AC120E7E1294DE1A
:10426C00900CABE0602B90111F7401F0A3740EF056
:10427C00A374ACF07BFF7A917997122D197B017A9C
:10428C000E79AC900CA8E0FCA3E0FD126916129418
:10429C00F71259D890136FE0FF60427BFF7A917947
:1042AC009A90111FF0122D199011B0E0FF90136F1E
:1042BC00E0B5070C9011AFE0FDD200E4FF1293596A
:1042CC009011B1E0FF90136FE0B5070C9011AFE0C7
:1042DC00FDD2007F01129359E490136FF0201B0361
:1042EC0002444EC21B1288BC126A37901380EFF046
:1042FC00F4601E7F10127F377BFF7A9179AE90139A
:10430C0080E090111FF0122D19901380E0FF125BCA
:10431C005B1267D4128C30123013128BFE90137E0A
:10432C00E475F001120ABDFED3E5F094E8EE9403B7
:10433C00500302441EE490137EF0A3F0B281129459
:10434C0093901145E07002A3E0602590126BE07031
:10435C0002A3E0701B901266E07002A3E070119053
:10436C00114574FFF5F0120ABD45F07003128EB9B9
:10437C009011C5E064157046128948901266E0FEF3
:10438C00A3E0FF4E60159011A9E0FCA3E0FDEFB592
:10439C000509EEB504057F0D127965901266E07083
:1043AC0002A3E0601990126674FFF5F0120ABD4585
:1043BC00F0700B1294AC7F08127965128EB99011C3
:1043CC0098E004F0E075F00F84E5F0F09011C5E092
:1043DC006401703E901145E07002A3E070349011BE
:1043EC00C3E0F47003A3E0F47028901198E0FF6030
:1043FC000964056005EF640A7018EFB40A047F01C4
:10440C00800D901198E0B405047F0080027F0212A9
:10441C00722FD39012A6E094009012A5E094004065
:10442C00219011C5E0B4041A9012A6E024FFF0907C
:10443C0012A5E034FFF0E07002A3E070057F631278
:10444C00253E300B099011C5E0B40102C20B2011BE
:10445C000302425A12136230120E7F10127F377B06
:0E446C00017A1379461284F712946002425AC4
:108B630055415254315F636F6E666967204F4B21E5
:108B73000D0A0055415254335F636F6E6669672077
:108B83004F4B210D0A0052657365744B6579546927
:058B93006D650D0A00F4
:104B5C0041136F0041136B0041136C004113701F24
:104B6C004113731F421371000041136D0041136E0A
:064B7C000042137400006A
:109023007C007D07120A56E4FDC3ED9FEC9E5015AC
:10903300E4FBFA0BBB00010AEB646E4A70F50DBD4D
:0590430000010C80E4B7
:019048002205
:0E976900901144EFF0128FFC901144E0FF22AB
:0B90490090111CEBF0A3EAF0A3E9F08B
:10905400E4FF90111CE0FBA3E475F001120AD3A90C
:0A906400F0FA1209DC60030F80E847
:01906E0022DF
:10956D00E4FF1209DC600E0FB4D7011F740129F955
:05957D00E43AFA80ED64
:0195820022C6
:0B6F63009010CDEBF0A3EAF0A3E9F0E2
:106F6E00E49010D3F0A3F0A3F0A3F09010CDE0FBCB
:106F7E00A3E0FAA3E0F99010D3E0FEA3E0F5828E31
:106F8E00831209F5FF70030270569010D0E0FBA338
:106F9E00E0FAA3E0F91209DC6F6003027042901070
:106FAE00D5F0A3F09010D0E0FBA3E0FAA3E0F990A7
:106FBE0010D5E0FEA3E0F5828E831209F5605190A4
:106FCE0010D5A3E0FF9010D4E02FFF9010D3E03E39
:106FDE00FE9010CDE0FBA3E0FAA3E0F98F828E8342
:106FEE001209F5FF9010D0E0FBA3E0FAA3E0F990B0
:106FFE0010D5E0FCA3E0F5828C831209F5B50710DD
:10700E009010D6E004F0709C9010D5E004F08094BF
:10701E009010D0E0FBA3E0FAA3E0F99010D5E0FECB
:10702E00A3E0F5828E831209F570099010D3E0FE6D
:10703E00A3E0FF229010D4E004F06003026F799079
:0C704E0010D3E004F0026F797EFF7FFF9A
:01705A002213
:108E0C0090111CEBF0A3EAF0A3E9F0ED1DAE047099
:108E1C00011C4E601690111CE0FBA3E475F00112CE
:0C8E2C000AD3A9F0FAE4120A2280E02226
:108904009010C8EBF0A3EAF0A3E9F09010CE74FF46
:10891400F5F0120AD345F0602A9010CBE0FBA3E4F3
:1089240075F001120AD3A9F0FA1209DCFF9010C8FD
:10893400E0FBA3E475F001120AD3A9F0FAEF120ADE
:048944002280C822A3
:0B868C00901094EBF0A3EAF0A3E9F0DB
:10869700E4FFFE901097E0FBA3E0FAA3E0F91209CC
:1086A700DC602D901097A3E475F001120AD3A9F0AE
:1086B700FA1209DCFD901094E0FBA3E475F00112B7
:1086C7000AD3A9F0FAED120A220FBF00010E80C3E8
:0F86D700901094E0FBA3E0FAA3E0F9E4020A227A
:108DB0009010BDEBF0A3EAF0A3E9F0ED1DAE047056
:108DC000011C4E60179010BDE0FBA3E475F001128A
:0E8DD0000AD3A9F0FA1209DC60E1C322D32213
:1071470090107574FFF0E4901074F07B017A107959
:10715700747F011246D07B017A1079747F02124640
:10716700D07B017A1079747F031246D09010757422
:1071770060F07B017A107974E4FF1246D0901075A5
:107187007401F0FB7A1079747F041246D090107561
:107197007430F07B017A1079747F051246D0901015
:1071A7007574F3F07B017A1079747F061246D090DC
:1071B70010757448F07B017A1079747F071246D0F6
:1071C7009010747403F0A37413F07B017A10797430
:1071D700E4FF1246D0901075741AF07B017A10798B
:1071E700747F041246D0901075740CF07B017A10EE
:1071F70079747F051246D09010757437F07B017A49
:107207001079747F071246D09010757404F07B01D3
:107217007A1079747F061246D0C2F8C2C1D2FAD268
:07722700FBD2F9C2C3C284CF
:01722E00223D
:1086E6009010747440F0A37402F0A3120D0C0001F4
:1086F600C20090107B7401F0E4A3F0A304F0A3F091
:10870600E4A3F07B017A1079747F01121CCD7BFF04
:108716007A8B7963122D1990107F7402F07B017A9F
:108726001079747F03121CCD7F58128FAD7BFF7AB0
:068736008B7976022D197B
:10879000E4901074F0A3F0A304F0E4A3F0A3F0A31A
:1087A0007496F0A37488F0A37401F0FB7A107974C6
:1087B000E4FF124F7E90107974FEF0A374F2F07B08
:1087C000017A1079747F01124F7E90107974FCF059
:0F87D000A374B5F07B017A1079747F04024F7E99
:10947A009010767401F0E4901075F0901074F07BFF
:09948A00017A107974FF028629B1
:106A370090136BE014603614605314606414700391
:106A4700026B22147003026B3624056003026B523B
:106A570075A0F0E5A054F064F07003026B52901338
:106A67006C7414F090136B7401F0026B52E5A05430
:106A7700F0FFBFF004E4026B4E90136CE014F0607B
:106A870003026B5290136B7402F0026B52E5A04441
:106A97000F901074F0E0F5A090136B7403F0026B85
:106AA70052901074E5A0F075A0F090136B7404F089
:106AB700901074E0120D496B1F776B1C7B6B197D6F
:106AC7006B167E6B13B76B10BB6B0DBD6B0ABE6B82
:106AD70007D76B04DB6B01DD6AFEDE6AFBE76AF84A
:106AE700EB6AF5ED6AF2EE00006B527F04227F0835
:106AF700227F0B227F0F227F03227F07227F002224
:106B07007F0E227F02227F06227F0A227F0D227FAD
:106B170001227F05227F09227F0C22E5A054F0FF86
:106B2700BFF02890136B7405F0A37414F0801CE574
:106B3700A054F064F0600890136B7404F0800C901C
:0D6B4700136CE014F0700490136BF07FFFEE
:016B5400221E
:1067D40090136DE014604004600302685FA2CDE48E
:1067E4003325E0FFA2CCE4334F25E0FFA2C0E4331D
:1067F4004F25E0FFA285E4334F25E0FFA286E43372
:106804004FFF901370E06F605290136E741EF090FF
:10681400136D7401F08044A2CDE43325E0FFA2CCD3
:10682400E4334F25E0FFA2C0E4334F25E0FFA28507
:10683400E4334F25E0FFA286E4334FFF901370E06A
:10684400B50707E490136DF0801190136EE014F017
:10685400700990136DF0901370EFF0901370E0FFD7
:10686400901373E0FE6F6079EE5401FEEF54016EF5
:10687400601C901370E020E0159011AFE0FDC200A1
:10688400E4FF129359901145E4F0A37405F09013BA
:1068940073E05402FF901370E0FE54026F6019EE2F
:1068A40020E1159011AFE0FDC2007F0112935990D1
:1068B4001145E4F0A37405F0901373E05404FF90C1
:1068C4001370E054046F6011A37427F0A37410F0E4
:1068D4007BFF7A8B7989122D19901370E0901373D2
:1068E400F0901373E020E229901371E07002A3E0AA
:1068F400601F90137174FFF5F0120ABD45F070111A
:10690400D2001262A0129759901145E4F0A37405C5
:01691400F092
:01691500225F
:1093590074742FF582E43413F583EDF0EF7004D2C1
:10936900C38006EFB40102D284A20092010294C51F
:10949300901374E0600614F07002C2C3901375E079
:0994A300600614F07002C284227C
:1000A600000000384492BAFE828244380000000004
:1000B60000000038448282FEBA92443800000000F4
:1000C6000000003854AAAAAAC692443800000000CC
:1000D600000000384482AAF68A82443800000000F4
:1000E60000003C42A599FF99A5423C000000000093
:1000F60000000000000000000003030000000000F4
:100106000003030F0F3F3FFFFFFFFF00000000004B
:1001160000000000422418182442000000000000DD
:100126000000003844BAC6AAAAAA54380000000043
:1001360000000000000000000000000000000000B9
:100146000000183C3C3C1818180018180000000065
:10015600006363632200000000000000000000004E
:1001660000000036367F3636367F36360000000011
:100176000C0C3E6361603E030343633E0C0C0000BF
:1001860000000000006163060C18336300000000E5
:100196000000001C36361C3B6E66663B0000000005
:1001A6000030303060000000000000000000000059
:1001B60000000C18183030303018180C0000000001
:1001C6000000180C0C060606060C0C1800000000B1
:1001D6000000000042663CFF3C6642000000000052
:1001E60000000000181818FF18181800000000007A
:1001F6000000000000000000000018181830000081
:1002060000000000000000FF0000000000000000E9
:1002160000000000000000000000181800000000A8
:1002260000000103070E1C3870E0C08000000000CB
:1002360000003E6363636B6B6363633E0000000014
:1002460000000C1C3C0C0C0C0C0C0C3F00000000BD
:1002560000003E6303060C183061637F0000000057
:1002660000003E6303031E030303633E0000000019
:100276000000060E1E3666667F06060F00000000AA
:1002860000007F6060607E030363733E0000000031
:1002960000001C3060607E636363633E0000000004
:1002A60000007F630306060C0C18181800000000F7
:1002B60000003E6363633E636363633E00000000C9
:1002C60000003E636363633F0303063C00000000D7
:1002D60000000000001818000000181800000000B8
:1002E6000000000000181800000018181830000060
:1002F600000000060C18306030180C0600000000E4
:100306000000000000007E00007E000000000000EB
:100316000000006030180C060C1830600000000069
:1003260000003E6363060C0C0C000C0C0000000081
:1003360000003E63636F6B6B6E60603E0000000002
:100346000000081C366363637F636363000000007C
:1003560000007E3333333E333333337E00000000F8
:1003660000001E33616060606061331E00000000A3
:1003760000007C36333333333333367C00000000E1
:1003860000007F3331343C343031337F00000000CD
:1003960000007F3331343C343030307800000000C8
:1003A60000001E336160606F6363371D000000004C
:1003B6000000636363637F6363636363000000003D
:1003C60000003C18181818181818183C00000000EF
:1003D60000000F06060606060666663C00000000DC
:1003E6000000733336363C36363333730000000074
:1003F60000007830303030303031337F000000007C
:10040600000063777F6B63636363636300000000D0
:1004160000006363737B7F6F6763636300000000A4
:1004260000001C36636363636363361C00000000D0
:1004360000007E3333333E30303030780000000029
:1004460000003E6363636363636B6F3E06070000F1
:1004560000007E3333333E363633337300000000FC
:1004660000003E6363301C060363633E0000000029
:100476000000FFDB991818181818183C0000000037
:1004860000006363636363636363633E00000000AD
:10049600000063636363636363361C080000000047
:1004A600000063636363636B6B7F36360000000096
:1004B6000000C3C3663C18183C66C3C300000000B6
:1004C6000000C3C3C3663C181818183C000000009F
:1004D60000007F6343060C183061637F0000000054
:1004E60000003C30303030303030303C000000000E
:1004F600000080C0E070381C0E07030100000000F9
:1005060000003C0C0C0C0C0C0C0C0C3C000000000D
:10051600081C366300000000000000000000000018
:10052600000000000000000000000000FF000000C6
:1005360018180C0000000000000000000000000079
:1005460000000000003C46063E66663B00000000D8
:1005560000007030303C36333333336E0000000019
:1005660000000000003E63606060633E0000000023
:1005760000000E06061E36666666663B0000000034
:1005860000000000003E63637E60633E00000000E2
:1005960000001C3632307C303030307800000000ED
:1005A60000000000003B666666663E06663C00008C
:1005B6000000703030363B333333337300000000B5
:1005C60000000C0C001C0C0C0C0C0C1E0000000097
:1005D60000000606000E060606060666663C0000D5
:1005E60000007030303333363C3633730000000081
:1005F60000001C0C0C0C0C0C0C0C0C1E000000005B
:1006060000000000006E7F6B6B6B6B6B00000000E0
:1006160000000000006E3333333333330000000034
:1006260000000000003E63636363633E0000000059
:1006360000000000006E333333333E303078000064
:1006460000000000003B666666663E06060F000078
:1006560000000000006E3B333030307800000000B0
:1006660000000000003E63380E03633E00000000F9
:1006760000000818187E181818181B0E0000000035
:1006860000000000006666666666663B00000000C5
:100696000000000000636336361C1C0800000000E2
:1006A60000000000006363636B6B7F360000000090
:1006B600000000000063361C1C1C366300000000AE
:1006C600000000000063636363633F03063C0000B1
:1006D60000000000007F660C1830637F00000000F9
:1006E60000000E18181870181818180E00000000D0
:1006F6000000181818181800181818181800000004
:100706000000701818180E1818181870000000004D
:1007160000003B6E0000000000000000000000002A
:100726000070D8D870000000000000000000000033
:100736000000C6C66676DCCCC6C600000000000017
:100746000000F80C0C0C0C0C0CFE00000000000065
:1007560000007018181818386C66000000000000B9
:100766000000FE0C0C0C0C0C0C0C00000000000031
:1007760000007C060606666666660000000000004D
:1007860000001818181818181818000000000000A3
:1007960000007818303030303030000000000000A3
:1007A6000000FCC6C6C6C6C6C6C6000000000000DD
:1007B6000000CCC6C6C6C6C6C67C00000000000047
:1007C60000001818181800000000000000000000C3
:1007D60000007018181818181818180000000000E3
:1007E60000007C0606060606067C000000000000E7
:1007F600C0C0FC060606060C181800000000000023
:100806000000FC66C6C6C6C6C6FE000000000000A4
:100816000000DC7666C6C6C6C6DC00000000000026
:1008260000001818181818181818181818000000BA
:100836000000380C0C0C0C0C0C3C000000000000F6
:1008460000007C66C6C6C6C6CC7800000000000064
:1008560000006666663636361C7000000000000032
:100866000000F84CCCCCCC6C0C0C0C0C0E00000030
:100876000000FC46C6C6E606867C000000000000B6
:1008860000666C38181818181818000000000000C8
:100896000000EE666634180C06FE0000000000003C
:1008A6000000FC060666646C6E6060600000000076
:1008B6000000F80C0C0C0C0C0C0C000000000000E6
:1008C6000000D6D6D6D6D6F6E67C0000000000009C
:1008D6000000FC6666666666E6E60000000000004C
:104B8200410C9B00410C9800C1174208960000415D
:074B92000C99FF410C9AFF92
:109399007590FFC2C4D2CBD2CA0000E59030E70372
:0C93A900D38001C39202C2CA0000A202DD
:0193B5002295
:1095100012939940FBC2C4C2CBC2CA00008F900014
:0895200000D2CA0000C2CA22F9
:0C929000E0FBA3E0FAA3E0F91209DCFF08
:10929C0012939940FBD2C4C2CBC2CA8F900000D2A9
:0692AC00CA0000C2CA2244
:1091BB00C2CA7F30129510000012951000007F0C70
:1091CB0012951000007F0112951000007F0612957A
:0491DB00100000225E
:10942A007F0112951000007B017A0879987D007CF3
:0B943A0004128E0C7DFF7FFF0297954F
:0B7EBB0090111CEBF0A3EAF0A3E9F02B
:107EC6002400F9EA3402FA901120EBF0A3EAF0A3B9
:107ED600E9F0E490111FF07F3612951090111FE023
:107EE6004480FF1295107F801295107F30129510F6
:107EF6003013031259D8E4FE90111C12929090117F
:107F06001DE475F001120ABD0EEEB410EB7E109062
:107F16001120129290901121E475F001120ABD0E03
:107F2600EEB420EB90111FE004F0E0C3942040A7CC
:017F36002228
:107B1400AE077F36129510EDD394014006ED24FE96
:107B2400FF8002AF05EFC454F0240F4480FF129588
:107B340010EEC313FFEDD3940140047C0880027C53
:107B440000EF2C4480FF1295107F30129510EE3018
:107B5400E02175F000EDA42487F582E5F03409F501
:107B6400832DF583E5822EF582E43583F583E0FFEA
:107B740012929C3000047FFF801E75F000EDA42457
:107B840088F582E5F03409F5832DF583E5822EF539
:0B7B940082E43583F583E0FF02929C41
:1093B6001209DCFF6015640A6011EFD39480400245
:0D93C600D322740129F9E43AFA80E5C322AC
:10971900900C9BE004F0E05403F0E4900C98F022E4
:0B63F30090111CEBF0A3EAF0A3E9F00E
:1063FE001293B6921690111CA3E0FAA3E04A700312
:10640E0002653F90111CE0FBA3E0FAA3E0F912092C
:10641E00DCFF700302653F640A700302653F901152
:10642E0020EFF0900C98E004F0E0D39410400312AB
:10643E00971990112174FFF0A37403F0A37426F042
:10644E00901120E0FFC39420406EEFD39480501043
:10645E00EF75F010A42436F974FF35F0FAA3804FCF
:10646E0090111DE475F001120ABD901120E07F001D
:10647E00FE90111CE0FBA3E0FAA3E0F91209DC2F59
:10648E00FFE43EFEC3EF9490EE94D7402BD3EF94EF
:10649E00ABEE94D75022EFC4F8540FC868FFEEC489
:1064AE0054F048FE74362FF9748E3EFA9011217412
:1064BE00FFF0A3EAF0A3E9F0900C98E060071490C7
:1064CE00111FF0800AE490111FF0900C9804F03028
:1064DE00160A90111FE0FFC3740F9FF0E4FF901196
:1064EE0021E0FBA3E0FAA3E0F98F82758300120985
:1064FE00F5FE900C9BE0C454F02F75F010A4249878
:10650E00F582E5F03408F583C083C08290111FE058
:10651E00D082D0832582F582E43583F583EEF00FA9
:10652E00EFB410BA90111DE475F001120ABD0264A9
:01653E00114B
:01653F002239
:08811600901081EFF0A3EDF0E1
:10811E00EB75F010A424A6F9740035F0FA901085D2
:10812E0074FFF0A3EAF0A3E9F0E4FF901085E0FB02
:10813E00A3E0FAA3E0F98F827583001209F5FE9091
:10814E001084E05EFE901081E0C454F02F75F010A4
:10815E00A42498F582E5F03408F583C083C082909C
:10816E001082E0D082D0832582F582E43583F583B8
:07817E00EEF00FEFB410B4A6
:0181850022D7
:10958300900C9BEFF0900C98EDF01263F37B017A53
:06959300087998027EBB7E
:1096E40090108474FFF01281167B017A0879980235
:0296F4007EBB3B
:0A848C00901381EFF0A3EDF0AC03B4
:10849600E4A3F0EC75F00584FCD3940540027C055A
:1084A6007E01EEC39C500F901383E01313543FF0EC
:1084B60044C0F00E80EC901381E0FFA3E0FDECD306
:1084C600940040047EFF80027E00901084EEF07BD4
:1084D60004128116901381E0FFA3E004FDA3E0904F
:1084E6001084F07B051281167B017A087998027E4A
:0184F600BBCA
:09979500900C99EDF0A3EFF02215
:108BFE00900C99E0FFF46029A3E0FDF46023900847
:108C0E0096E475F001120ABDABF0FABA0113BB2C53
:108C1E0010E4900896F0A3F0A2179200127B14B203
:028C2E0017220B
:10367F004F4B002B4350494E3A204E4F5420494E4A
:10368F00534552544544004552524F52002B43501C
:10369F00494E3A205245414459002B4350494E3A26
:1036AF00204E4F542052454144590025642C256427
:1036BF000061742B6370696E3F2072657475726E52
:1036CF00202562640D0A002B435245473A200025FE
:1036DF0062642C256264004174436D6443625F63CE
:1036EF007265673A202562642C2562640D0A0061B9
:1036FF00742B637265673F2072657475726E202537
:10370F0062640D0A002B4353513A20004174436DFC
:10371F006443625F6373713A202562642C2562648F
:10372F000D0A0061742B6373713F2072657475729B
:10373F006E202562640D0A0041540D0A0041542B7E
:10374F004350494E3F0D0A0041542B434F50533DB8
:10375F00300D0A0041542B435245473F0D0A00419B
:10376F00542B434C43433D310D0A0041542B434DE1
:10377F0047463D310D0A0041542B434C564C3D34C6
:10378F000D0A0041542B4353510D0A0041542B4352
:10379F00504F460D0A0047534D5F5265706F776566
:1037AF00720D0A0047534D5F496E69743A310D0A25
:1037BF000047534D5F4765744373710D0A004154C1
:1037CF002B434C564C3D2562640D0A0047534D5F09
:1037DF00536574566F6C756D2028256264293A20E5
:1037EF0025730D0A00415444003B0D0A0041542B30
:1037FF00434855500D0A0047534D5F496E69743A5F
:10380F00320D0A0047534D5F496E69743A330D0A02
:10381F000047534D5F496E69743A340D0A004753A0
:10382F004D5F4174436D643A256264202D202562FB
:10383F00640D0A00415420636D64206578656375DB
:10384F0074652031306564204661696C203A20250B
:10385F006264205B25735D20210D0A0043616C6C4F
:10386F004F757454696D653A2025640D0A004154F3
:10387F002B434C43430D0A004154410D0A004E4F58
:10388F00524D414C20504F57455220444F574E00F8
:10389F00554E4445522D564F4C5441474520504F9D
:1038AF0057455220444F574E004E4F204449414CEC
:1038BF00544F4E45004E4F204341525249455200FE
:1038CF0052494E47002B434C43433A20002B44545C
:1038DF004D463A20002B525844544D463A20002B67
:1038EF00434F4C503A002B51544F4E454445543A98
:1038FF000041542B434D47533D002B434D47533A03
:10390F0000727370547970653A256264202D2025FA
:10391F00640D0A002562642C2562642C2562640004
:10392F00434C43433A202562640D0A000D0A2D2DA6
:10393F002D2D50614F70656E2D2D2D2D0D0A0025EB
:10394F0062640044544D463A202562640D0A00FF1C
:10395F003682FF3696FF369CFF36A9FF3696FF3626
:10396F00D6FF3696FF3714FF388DFF389FFF38B8D4
:10397F00FF38C4FF38CFFF38D4FF38DCFF38E4FFFF
:10398F0038EEFF38F5FF3900FF3909FF36964154FD
:0B399F002B5654533D2230220D0A002D
:104B9900411268FF41126FFFC10BC10CC10A4112DA
:104BA9004D0041124E0041124F0041125000411276
:104BB90051004112A1FF4112A20060301271FF376A
:104BC90047FF8CF4FF374CFF5CDBFF3757FF8CF452
:104BD900FF3763FF5FC7FF376EFF8D23FF377AFF0C
:104BE9008CF4FF3786FF8CF4FF3792FF613742124E
:104BF9006B00004212690000421266000041127007
:014C090000AA
:108CF4009010D074FFF0A37436F0A3747FF0126F59
:108D040063EFF47002EEF460037F042290124DE0EE
:0E8D140004F0C3940A4005E4F07FFF227F00C4
:018D2200222E
:105CDB00E4901074F074FFA3F0A3F0E4A3F0A3F02E
:105CEB00A3F0A3EBF0A3EAF0A3E9F0E4901079F0B2
:105CFB00901079E0FFC394044003025DC0EF75F090
:105D0B0003A4245EF582E43439F583E493F974013A
:105D1B0093FA7402939010D0C9F0A3EAF0A3E9F0C0
:105D2B0090107AE0FBA3E0FAA3E0F9126F63EFF4B3
:105D3B007002EEF46076901079E0FF7E00901075A3
:105D4B00EEF0A3EFF06401706C901075E0FEA3E031
:105D5B0090395E75F003120D3DEE75F003A42583AB
:105D6B00F583E493FB740193FA740293F91290494F
:105D7B007E0090107AE0FBA3E0FAA3E02FF9EE3A55
:105D8B00FA9010D074FFF0A37436F0A374BAF0A39A
:105D9B007401F0A37410F0A37477F0A37401F0A353
:105DAB007410F0A37478F0123A338009901079E0F4
:105DBB0004F0025CFB901075E0FEA3E0FFEE707345
:105DCB00EF14604014606014601124037065901030
:105DDB007474FFF090126F14F0805890124EE0C361
:105DEB00940A400D90107474FFF0E490124EF08002
:105DFB000BE4901074F090124EE004F090126F745C
:105E0B00FDF0802F90124EE0C3940A400D90107459
:105E1B0074FFF0E490124EF08019E4901074F0903F
:105E2B00124EE004F0800C90126F74FCF090107422
:105E3B007404F07BFF7A3679C0901074E090111FD8
:095E4B00F0122D19901074E0FF13
:015E5400222B
:105FC700E4901074F074FFA3F0A3F0E4A3F0A3F03F
:105FD700A3F0A3EBF0A3EAF0A3E9F0E4901079F0C3
:105FE700901079E0FFC3940240030260D4EF75F08C
:105FF70003A4246AF582E43439F583E493F9740140
:1060070093FA7402939010D0C9F0A3EAF0A3E9F0D1
:1060170090107AE0FBA3E0FAA3E0F9126F63EFF4C4
:106027007002EEF470030260CB90107BEE8FF012DB
:106037000ABD901079E0FF7E00901075EEF0A3EF97
:10604700F0640160030260D4901075E0FEA3E09055
:10605700396A75F003120D3DEE75F003A42583F53B
:1060670083E493FB740193FA740293F91290497EC7
:106077000090107AE0FBA3E0FAA3E02FF9EE3AFADA
:106087009010D074FFF0A37436F0A374DEF0A374FD
:1060970001F0A37410F0A37477F0A37401F0A37454
:1060A70010F0A37478F0123A337BFF7A3679E690D2
:1060B7001077E090111FF0901078E0901120F01207
:1060C7002D198009901079E004F0025FE7901075B0
:1060D700E0FEA3E0FFEE7041EF14600E04703A900B
:1060E700124FE0C3941440268017901078E0B40153
:1060F700079010747404800E90124FE0C3941440FC
:106107000D90107474FFF0E490124FF0800BE49040
:106117001074F090124FE004F07BFF7A3679FE900E
:0F6127001074E090111FF0122D19901074E0FF0A
:016136002246
:10613700E4901074F074FFA3F0A3F0E4A3F0A3F0CD
:10614700A3F0A3EBF0A3EAF0A3E9F0C20AE49010EE
:1061570079F0901079E0FFC394024003026246EFA2
:1061670075F003A42470F582E43439F583E493F9D8
:10617700740193FA7402939010D0C9F0A3EAF0A3C4
:10618700E9F090107AE0FBA3E0FAA3E0F9126F635D
:10619700EFF47002EEF4700302623D90107BEE8F15
:1061A700F0120ABD901079E0FF7E00901075EEF0B6
:1061B700A3EFF064016003026246901075E0FEA34E
:1061C700E090397075F003120D3DEE75F003A425CC
:1061D70083F583E493FB740193FA740293F91290A5
:1061E700497E0090107AE0FBA3E0FAA3E02FF9EED6
:1061F7003AFA9010D074FFF0A37436F0A374DEF06F
:10620700A37401F0A37410F0A37477F0A37401F0E2
:10621700A37410F0A37478F0123A337BFF7A3779BE
:106227001B901077E090111FF0901078E0901120EC
:10623700F0122D198009901079E004F0026159904D
:106247001075E0FEA3E0FFEE7038EF1460240470D1
:1062570031901250E0B40A0D90107474FFF0E4907E
:106267001250F0801DE4901074F0901250E004F08A
:106277008010901077E090126FF0D20B901074742A
:1062870004F07BFF7A377932901074E090111FF099
:08629700122D19901074E0FFB4
:01629F0022DC
:108D23009010D074FFF0A37436F0A3747FF0126F29
:108D330063EFF47002EEF460037F0422901251E0BB
:0E8D430004F0C3940A4005E4F07FFF227F0095
:018D510022FF
:1091DF007BFF7A37799B128BCB901268740AF090D1
:1091EF00126D7407F0A374D0F0D20B7BFF7A37792E
:0491FF00A5022D197F
:1092B200D2F890126D7403F0A374E8F090126874FF
:1092C20001F090126F74FFF0D20BFB7A3779B30280
:0292D2002D1954
:108E8F00901268E06407602190126D7403F0A37470
:108E9F00E8F09012687404F09012A17407F0D20AEF
:0A8EAF007BFF7A3779C0122D1922DB
:107DB800901080EFF090126D7403F0A374E8F090C7
:107DC80012687404F09012A17406F090111F74FFE9
:107DD800F0A37437F0A374CDF0A3EFF07B017A120F
:107DE8007952122D139012A1E0FF75F006A42471A8
:107DF800F582E43412F5837401F0A37412F0A374CD
:107E080052F0901080E090111FF0EF75F006A42456
:107E180071F582E43412F583E0F9A3E0FAA3E09067
:107E28001120C9F0A3EAF0A3E9F07BFF7A3779DBE8
:037E3800022D19FF
:108562009010ACEBF0A3EAF0A3E9F0901268E0FF00
:1085720064056008EF64096003300A467BFF7A37BE
:1085820079F4128BCB9010ACE0FBA3E0FAA3E0F9F4
:10859200128BCB7BFF7A3779F8128BCB9011ACE040
:1085A200FF90126BE4F0A3EFF0A37403F0A374E85E
:1085B200F09012687406F0C20CE4901270F0D2804F
:0485C200D322C322DB
:1094AC00D2807BFF7A3779FC128BCB9012687405D3
:0994BC00F0E4901266F0A3F02226
:10301300901268E0B40B00400302334D903026F861
:1030230028287302306E0230820230AE0230DA0298
:1030330031530231DD0231F10232810232DF0232D9
:10304300F802304790126D74FFF5F0120ABD45F097
:10305300600302334DC2F890126D743AF0A3749872
:10306300F0E4901268F09012A2F02290126D74FFB7
:10307300F5F0120ABD45F0600302334D0292B2909F
:10308300126D74FFF5F0120ABD45F0600302334D73
:10309300D2C190126D7404F0A374B0F090126874EE
:1030A30002F07BFF7A3879060231AB90126D74FF20
:1030B300F5F0120ABD45F0600302334DC2C1901210
:1030C3006D7402F0A37458F09012687403F07BFFE0
:1030D3007A3879130231AB90126D74FFF5F0120A4E
:1030E300BD45F0600302334D9012687404F0E49020
:1030F30012A1F0A3F090111F74FFF0A37437F0A393
:1031030074CDF09011B2E0901122F07B017A127924
:1031130052122D139012957401F0A37412F0A3743C
:1031230052F09012A1E075F006A42471F582E43404
:1031330012F583E0FBA3E0FAA3E0F9128BCB901224
:103143006D7407F0A374D0F07BFF7A387920805830
:1031530090126D74FFF5F0120ABD45F0600302335F
:103163004D9012A2E004F0C394159012A1E0503BDD
:1031730075F006A42471F582E43412F583E0FBA311
:10318300E0FAA3E0F9128BCB90126D7407F0A374ED
:10319300D0F07BFF7A38792D9012A1E090111FF0C7
:1031A3009012A2E0901120F0022D1990111FF075DA
:1031B300F006A42471F582E43412F583E0F9A3E068
:1031C300FAA3E0901120C9F0A3EAF0A3E9F07BFF92
:1031D3007A387943122D190291DF90126D74FFF53D
:1031E300F0120ABD45F0600302334D028E8F901238
:1031F3006D74FFF5F0120ABD45F0600302334D9084
:10320300126D7403F0A374E8F07BFF7A38796B9046
:10321300126BE0FFA3E090111FCFF0A3EFF0122D8C
:103223001990126B74FFF5F0120ABD45F070461247
:1032330094AC7F08127965E4901266F0A3F09011C4
:10324300C6E075F00CA4247FF9741135F0FA7B0104
:10325300129049EFD3940040109012687409F090D3
:10326300126BE4F0A37402F02212961C901145E451
:10327300F0A37405F07BFF7A38797D028BCB901233
:103283006D74FFF5F0120ABD45F0600302334D90F3
:10329300126D7403F0A374E8F090126974FFF5F0F3
:1032A300120ABD45F0600302334D7BFF7A387987FC
:1032B300128BCB9011C57415F09012687408F0C28C
:1032C300809011A9E0FFA3E0901266CFF0A3EFF086
:1032D3009011B2E0FF901197F0027DB890126D74D7
:1032E300FFF5F0120ABD45F0706090126D7403F0A3
:1032F300A374E8F02290126D74FFF5F0120ABD4535
:10330300F0704790126D7403F0A374E8F090126BA1
:1033130074FFF5F0120ABD45F0702F9011C6E0C39B
:103323009402501BE004F07B017A117947E0FD120F
:10333300705B50E79011C57414F07F0E027965122B
:0B33430094AC7F08127965128EB9224D
:1018430074FF901077F0A3F0E4A3F0A3F0A3EBF000
:10185300A3EAF0A3E9F0E4901079F0A3F0901079F3
:10186300E0FEA3E0FFC3940DEE64809480505F908C
:10187300397675F003EF120D3DEE75F003A4258361
:10188300F583E493F9740193FA7402939010D0C929
:10189300F0A3EAF0A3E9F090107BE0FBA3E0FAA346
:1018A300E0F9126F63EFF47002EEF46011901079B7
:1018B300E0FFA3E0901077CFF0A3EFF0801090103B
:1018C3007AE004F07097901079E004F0808F7BFF4A
:1018D3007A397910901268E090111FF0901077E038
:1018E300FFA3E0901120CFF0A3EFF0122D19901079
:1018F30077E0FEA3E0FFEE6003021CCCEFB40A0026
:101903004003021CCC90190FF828287302192D02EA
:10191300192D02192D02194E0219890219B0021A42
:10192300EE021B90021CCC021C2E901268E0FF6496
:10193300066009EF64086004EFB4090C12965B902B
:101943001145E4F0A37405F00291DF901268E0B44E
:1019530006269011C6E075F00CA4247FF9741135A6
:10196300F0FA7B01129049EFD39400400B90126878
:101973007409F090126B8026901268E0640970037A
:10198300021CCC021AE3901268E064077003021C85
:10199300CC7407F09011ABE0B4010A901269E4F043
:1019A300A37402F0221294AC7F0802796590398502
:1019B300E493F9740193FA7402939010D0C9F0A3DD
:1019C300EAF0A3E9F090107BE0FBA3E0FAA3E0F9CF
:1019D300126F63901079EEF0A3EFF0901079E0F4BA
:1019E3007003A3E0F47003021CCC903985E493FBED
:1019F300740193FA740293F912904990107AE02FCC
:101A0300FF901079E0340090107C8FF0120ABD90A3
:101A130010D074FFF0A37439F0A37423F0A37401FE
:101A2300F0A37410F0A37479F0A37401F0A37410FD
:101A3300F0A3747EF0A37401F0A37410F0A3747F79
:101A4300F090107BE0FBA3E0FAA3E0F9123A337BBA
:101A5300FF7A39792F90107FE090111FF0122D1922
:101A630090107FE070319011C57415F09012687476
:101A730008F0E490126BF0A3F09011A9E0FFA3E04B
:101A8300901266CFF0A3EFF09011B2E0FF901197A0
:101A9300F0127DB8C2802290107FE06403702B2087
:101AA3000C0FD20C9011ACE0FF90126BE4F0A3EF9B
:101AB300F0901270E004F064056003021CCC7BFF1D
:101AC3007A39793B122D19C2802290107FE0640687
:101AD3006003021CCC901268E064097003021CCC02
:101AE3001294AC7F08127965028EB9903988E49319
:101AF300F9740193FA7402939010D0C9F0A3EAF039
:101B0300A3E9F090107BE0FBA3E0FAA3E0F9126FE6
:101B130063901079EEF0A3EFF0901079E0F4700386
:101B2300A3E0F47003021CCC903988E493FB7401A6
:101B330093FA740293F912904990107AE02FFF9070
:101B43001079E0340090107C8FF0120ABD9010D011
:101B530074FFF0A37439F0A3744EF0A37401F0A3DF
:101B63007410F0A3747FF090107BE0FBA3E0FAA362
:101B7300E0F9123A3390107FE0FE24D090136FF017
:101B83007BFF7A39795290111FEE021CC890398B72
:101B9300E493F9740193FA7402939010D0C9F0A3FB
:101BA300EAF0A3E9F090107BE0FBA3E0FAA3E0F9ED
:101BB300126F63901079EEF0A3EFF0901079E0F4D8
:101BC3007003A3E0F47003021CCC90398BE493FB05
:101BD300740193FA740293F912904990107AE02FEA
:101BE300FF901079E0340090107C8FF0120ABD90C2
:101BF30010D074FFF0A37439F0A3744EF0A37401F2
:101C0300F0A37410F0A3747FF090107BE0FBA3E0CB
:101C1300FAA3E0F9123A3390107FE090136FF07B50
:101C2300FF7A39795290111F021CC8903991E493BD
:101C3300F9740193FA7402939010D0C9F0A3EAF0F7
:101C4300A3E9F090107BE0FBA3E0FAA3E0F9126FA5
:101C530063901079EEF0A3EFF0901079E0F4700345
:101C6300A3E0F46064903991E493FB740193FA74F4
:101C73000293F912904990107AE02FFF901079E0C7
:101C8300340090107C8FF0120ABD9010D074FFF0D6
:101C9300A37439F0A3744EF0A37401F0A37410F08D
:101CA300A3747FF090107BE0FBA3E0FAA3E0F912AA
:101CB3003A3390107FE024D090136FF07BFF7A3992
:091CC300795290111FF0122D1945
:011CCC0022F5
:0B691600901074EBF0A3EAF0A3E9F08E
:10692100901074E0FBA3E0FAA3E0F9AE04AF058F89
:10693100828E83E4120A34901268E06404600302D8
:106941006A289012A1E0FFC394084003026A28EF6D
:1069510075F006A42474F582E43412F583A3E0FAF9
:10696100A3E04A7003026A36901074E0FBA3E0FAD8
:10697100A3E0F9C0029012A1E075F006A42474F519
:1069810082E43412F583A3E0FAA3E0F5828A83D08E
:1069910002120D73EF24FC600B2405606F24FE606E
:1069A10003026A36E49012A2F09012A1E004C394AB
:1069B10008503FE004F0E075F006A42471F582E48C
:1069C1003412F583E0FBA3E0FAA3E0F9128BCB903C
:1069D100126D7403F0A374E8F07BFF7A38792D907F
:1069E10012A1E090111FF09012A2E0901120F0028C
:1069F1002D1990126D7427F0A37410F09012687421
:106A010005F09011C5E06415702B80079011C5E069
:106A1100B4151190126D7403F0A374E8F09012682C
:106A21007408F0220291DF901074E0FBA3E0FAA356
:056A3100E0F91218431A
:016A3600223D
:058E6400901076EFF014
:108E690078777C107D017BFF7A39799D7E007F0DB3
:108E79001209B6901076E0243090107FF07B017AC9
:068E8900107977028BCB8B
:106E660025732562643A00257325750025732573FD
:106E760000257500446F776E6C6F6164204E616DFE
:106E8600656C697374204572723A28206E6F74209F
:106E9600696E2073657474696E672029210D0A0076
:106EA600433A002564005265764E616D656C6973E0
:106EB6007428436E743A2564290D0A00523A002557
:106EC600753B004E3A0054313A0054323A0054337E
:106ED6003A004964783A25642D282564293B2052D6
:106EE6003A25753B204E3A25733B2054313A25739B
:106EF6003B2054323A25733B2054333A25733B0DDD
:106F06000A00446F776E6C6F6164204E616D656C2C
:106F1600697374204F4B21202328257529230D0AD8
:106F260000446F776E6C6F6164204E616D656C69AD
:106F36007374204572723A28257523257529210D0B
:106F46000A00969798939495909192A09FA19C9EE3
:0D6F56009D999B9AA8A9AAA6A5A7A2A4A3ED
:104C0A004112F7004112F800C11A4212A5000041F0
:074C1A0012A4004112A3FFE8
:10922700C374A1949FFF74119411CF2480CF34008D
:10923700FE7B017A1179A1901122E4F0A37402F068
:03924700027B9F08
:0A000E00E49011A1F0A3F002922784
:10969800D39011A2E094649011A1E09400400312C9
:0396A800000E228F
:0B8A0A009010CDE0FBA3E0FAA3E0F920
:0B8A150090111AEBF0A3EAF0A3E9F0C7
:108A20007C007D50120A56E42FFFEE3401FE9011B7
:108A30001AE0FBA3E0FAA3E0F9901122E4F0A3749A
:058A400050F0027B9FD5
:0B8CC40090111AEBF0A3EAF0A3E9F016
:108CCF007C007D50120A56E42FFFEE3401FE901106
:108CDF001AE0FBA3E0FAA3E0F9901122E4F0A374E9
:058CEF0050F00285C6F3
:0B882A009010C8EBF0A3EAF0A3E9F007
:1088350074FFA3F0A3F07D01127C2A9010CBEEF01B
:10884500A3EFF0F47002EEF4601F9010CBE0FEA3EE
:10885500E0FF9010C8E0FBA3E0FAA3E0F9128CC496
:0D8865009010CBE0FEA3E0FF227EFF7FFF1E
:0188720022E3
:0B8028009010CDEBF0A3EAF0A3E9F00C
:1080330074FFA3F0A3F0120AE9FFAEF07D01127CF6
:108043002A9010D0EEF0A3EFF0F47002EEF4601477
:108053009010D0E0FEA3E0FF128A0A9010D0E0FE59
:10806300A3E0FF229011A1E0FEA3E0FFC39464EE1E
:1080730094005023128A0A9011A2E004F070069033
:1080830011A1E004F01292279011A2E024FFFF90C7
:0B80930011A1E034FFFE227EFF7FFF02
:01809E0022BF
:088186009010C8EEF0A3EFF029
:10818E009011A1E0FCA3E0FDD39FEC9E4058ED249E
:10819E00FFFFEC34FFFE9010C8E0B50616A3E0B565
:1081AE0007119011A2E024FFF09011A1E034FFF02E
:1081BE000292279011A2E024FFF09011A1E034FF6B
:1081CE00F01292279011A1E0FEA3E0FF7B017A103E
:1081DE0079CA128CC49010C8E0FEA3E0FF7B017A2E
:0681EE001079CA128A1587
:0181F4002268
:109708007D01127C2AEFF47002EEF4600312818668
:01971800222E
:0B447A009010C8EBF0A3EAF0A3E9F0FB
:1044850012942A2000030245A89010C8A3E0FAA3BD
:10449500E0242CF9E43AFA90111BE075F00CA429FC
:1044A500F9EA35F0FED3E99400EE94005003024694
:1044B500CFE4F090111BE0FFC3940340030246CF05
:1044C50090111F74FFF0A3746EF0A37466F0A374CB
:1044D500FFF0A37429F0A374BFF0EF04A3F07B01F0
:1044E5007A1079CB122D1390111BE004FF7B017A12
:1044F5001079CBE4FD1295839010C8E0FBA3E0FA98
:10450500A3E0242CF9E43AFA90111BE075F00CA411
:1045150029F9EA35F0FAE004FF7D0512958390113B
:104525001BE0FF2402FE9012F7E06E706D9011C53E
:10453500E0FE64046005EE6405705F9010C8E0FB62
:10454500A3E0FAA3E0242CF9E43AFAEF75F00CA401
:1045550029F9EA35F0FA129049EF2405FD90111B6F
:10456500E004FF1297959010C8E0FBA3E0FAA3E0E2
:10457500242CF9E43AFA90111BE075F00CA429F902
:10458500EA35F0FA129049EF2405C3940F400B90D9
:10459500111BE004FF7D0F12979590111BE004F0AD
:1045A5000244B89010C8E0FBA3E0FAA3E0F9120AB0
:1045B500E9D39400E5F0940040717BFF7A2979AE48
:1045C500E4FD7F0112958390111F74FFF0A3746EB3
:1045D500F0A3746DF0A374FFF0A37429F0A374AE77
:1045E500F09010C8E0FBA3E0FAA3E0F9120AE9FF96
:1045F500901125E5F0F0A3EFF07B017A1079CB124D
:104605002D137B017A1079CBE4FD7F011295839000
:1046150012F7E070469011C5E0FF64046005EF6491
:104625000570387B017A1079CB80267BFF7A297952
:10463500AEE4FD7F011295839012F7E0701D901195
:10464500C5E0FF64046004EFB405107BFF7A2979A7
:10465500AE129049AD077F0112979590111F74FF17
:10466500F0A3746EF0A37472F0A374FFF0A3742921
:10467500F0A374B9F09010C8E0FBA3E0FAA3E0241E
:1046850002F9E43AFA901125EBF0A3EAF0A3E9F078
:104695007B017A1079CB122D137B017A1079CBE44B
:1046A500FD7F021295839012F7E0B4011D9011C5AC
:1046B500E0FF64046004EFB405107B017A1079CB48
:0A46C500129049AD077F021297958D
:0146CF0022C8
:100026007B017A1279A77D507C00128E0CE4901227
:10003600F7F0A3F09011C57404F07B017A1279A74A
:05004600C20002447A33
:107599009012F7E014605124FC400302763870031E
:1075A90002765324056003027658E49012F7F0A39B
:1075B900F09012A7E0FFA3E0901076CF80249010FE
:1075C90076E0FEA3E0FFD39400EE94005003027628
:1075D900589012F8E004F07C007D0A120A689010B5
:1075E90076EEF0A3EFF080D69012A7E0FEA3E0FFBD
:1075F900901076EEF0A3EFF07B017A10797812887B
:107609002AEFF47002EEF4601E9010CB7401F0A31F
:107619007410F0A37478F0A3E4F0A37450F07B0124
:107629007A1279A71289047B017A1279A9801290BA
:1076390012F7E075F00CA424BBF9741235F0FA7B4B
:0F764900011290499012F8EFF022129729C21AFD
:01765800220F
:05253E00901075EFF0A4
:10254300640B60030225DA9012F7E06405706230D1
:102553001A137B017A1279A77D50FC128E0CE4903A
:1025630012F8F0804CD39012A8E094009012A7E0E8
:10257300940040377B017A1279D3129049EFD394B8
:102583000040287B017A1279A7128028EFF47002A9
:10259300EEF46005129607800312961C7B017A12F3
:1025A30079A77D507C00128E0C800312961CD21AE0
:1025B300229012F7E004F0E075F00684E5F0F012E3
:1025C3007599E49012A4F0A3F0A3F09012F7E064DD
:1025D30005600302276122901075E0B40E15901276
:1025E300F7E0C394045005E004F08022E49012F76E
:1025F300F0801B901075E0B40D1A9012F7E0D3949D
:10260300004005E014F080069012F77404F0127590
:1026130099022758901075E0640A600302272090FE
:1026230012F7E014603C24FC40030226E27003022C
:1026330027162405600302271E9012F8E0D39400A6
:10264300401DE014F09012A7E0FEA3E0FF7C007DA4
:102653000A120A689012A7EEF0A3EFF002271E02F7
:1026630027279012A5E07002A3E070599012F8E0BA
:10267300FF24A9F582E43412F583E07048EFD39484
:1026830000403A9012F8E024A9F582E43412F5836D
:10269300E4F09012F8E014F0E0FF24A9F582E434AA
:1026A30012F583E0D39480401C74A92FF582E4349F
:1026B30012F583E4F09012F8E014F08008E490122D
:1026C300F7F01275999012F8E0FF24A9F582E4342B
:1026D30012F583E4F074AA2FF582E4341280279074
:1026E30012F8E0D394004024E014F0E0FF9012F7D6
:1026F300E075F00CA424BBF582E43412F583E58283
:102703002FF582E43583F583E4F0800F9012F7E030
:10271300148004E49012F7F01275998038901075C4
:10272300E0B40F030281F5901075E06463702F909D
:1027330012F7E0B40128A3E024A9F582E43412F5EA
:1027430083E0601AD3948040069012F8E004F0907E
:1027530012F8E004F0E49012A4F0A3F0A3F09010B8
:1027630075E0FFC394005003022913EFD39409408B
:10277300030229139012F7E0FB14605A24FC400370
:102783000228E2240560030229139012F8E0C3949F
:1027930004502F9012A7E0FEA3E0FF7C007D0A12F5
:1027A3000A569012A7EEF0A3EFF0901075E0FF9099
:1027B30012A8E02FF09012A7E03400F09012F8E096
:1027C30004F09012A7E07002A3E0600302291390C3
:1027D30012F8F0022913901075E0FF9012A3E06F36
:1027E30060269012F8E024A9F582E43412F583E020
:1027F3006016D3948040069012F8E004F09012F82B
:10280300E004F0E49012A4F0901075E0FF701B90C8
:1028130012A4E090294A93FE9012F8E024A9F582CD
:10282300E43412F583EEF00228CA9012F8E0FE2495
:10283300AAF582E43412F583E4F09012A4E0FDEFEC
:102843006409705AEDC394025009ED2459FF74A929
:102853002E8013ED64026004EDB40315ED2477FFBD
:102863009012F8E024A9F582E43412F583EFF080A6
:1028730056EDB404129012F8E024A9F582E4341260
:10288300F583742EF08040ED6405703B9012F8E000
:1028930024A9F582E43412F583742CF08029901076
:1028A30075E01475F003A42DFFEDD3940240047E6C
:1028B3005E80027E41EF2EFF9012F8E024A9F5829C
:1028C300E43412F583EFF09012A4E004F0E075F025
:1028D3000684E5F0F0A37403F0A374E8F08031906C
:1028E30012F8E0C3940B5028901075E02430FF9049
:1028F30012F8E0FE04F0EB75F00CA424BBF582E4BF
:102903003412F583E5822EF582E43583F583EFF007
:10291300901075E09012A3F07B017A1279A79012C0
:10292300F7E0D394014003D38001C3920012447AA9
:012933002281
:10906F007B017A1279A77D507C00128E0CE490124E
:10907F00F7F0A3F09011C57405F07B017A1279A770
:05908F00C20002447A5A
:05492400901075EFF09A
:10492900640B6003024A0B9012F7E06402702A30AC
:104939001A177B017A1279A77D50FC128E0CE4902C
:1049490012F8F09012F7F080109012A7E0FEA3E0A1
:10495900FF129708D21A0296319012F7E004F0E09C
:1049690075F00384AFF0EFF0146046147003024A47
:104979000224026003024AD8E49012F8F09012A7C8
:10498900E0FFA3E0901076CF8021901076E0FEA39F
:10499900E0FFD39400EE940040659012F8E004F033
:1049A9007C007D0A120A68901076EEF0A3EFF08081
:1049B900D99012A7E0FEA3E0FF7B017A1079781263
:1049C900882AEFF47002EEF4601E9010CB7401F0A7
:1049D900A37410F0A37478F0A3E4F0A37450F07BEF
:1049E900017A1279A71289047B017A1279A91290A6
:1049F900499012F8EFF0024AD8129739C21A2202E6
:104A09004AD8901075E0640A6003024AE39012F7ED
:104A1900E014603314607424026003024AD89012CF
:104A2900F8E0D39400401DE014F09012A7E0FEA333
:104A3900E0FF7C007D0A120A689012A7EEF0A3EF4E
:104A4900F0024AD8024AEAE49012F7F09012A9F06B
:104A59009012A7E0FFA3E0901076CFF0A3EFF0E467
:104A69009012F8F0901076E0FEA3E0FFD39400EEE8
:104A79009400405B9012F8E004F07C007D0A120A71
:104A890068901076EEF0A3EFF080D9E49012F7F079
:104A99009012A9F09012A7E0FFA3E0901076CFF052
:104AA900A3EFF0E49012F8F0901076E0FEA3E0FF97
:104AB900D39400EE940040179012F8E004F07C00C3
:104AC9007D0A120A68901076EEF0A3EFF080D9E41F
:104AD9009012A4F0A3F0A3F0800A901075E0B40F2F
:104AE900030281F5901075E0FFC394004050EFD3A5
:104AF9009409504A9012F7E07044A3E0C39404501B
:104B09002F9012A7E0FEA3E0FF7C007D0A120A564F
:104B19009012A7EEF0A3EFF0901075E0FF9012A8A5
:104B2900E02FF09012A7E03400F09012F8E004F0C2
:104B39009012A7E07002A3E070049012F8F07B01D4
:094B49007A1279A7C20012447A25
:014B52002240
:109599009011C57406F012942A7BFF7A297997E411
:0695A900FD7F0102958325
:10952800EF24F6600E24FB600A2404700912000E72
:079538000296311281F522B9
:1081F5009011C57403F012942A7BFF7A297968E4FB
:10820500FDFF1295837BFF7A297978E4FD7F0112C2
:1082150095837BFF7A297986E4FD7F021295837B1E
:10822500FF7A2A796EE4FD7F0312958390111F74FE
:10823500FFF0A3746EF0A37477F09011A1E0FFA393
:10824500E0901122CFF0A3EFF07B017A1079C812EC
:0F8255002D137B017A1079C87D067F0302958374
:1092F600EF24FE601214601224F9601124FB600D45
:10930600240E700C02002602906F029599128AF4C0
:019316002234
:1092D400D39011A2E09F9011A1E09E40147B017AEB
:1092E400107976128CC47B017A107976C20012440C
:0192F4007AFF
:0192F5002256
:10705B00901079EDF0901076EBF0A3EAF0A3E9F045
:10706B00242CF9E43AFAA3E075F00CA429F9EA35DB
:10707B00F0FA129049EFD39400500302714590102F
:10708B0076E0FBA3E0FAA3E0242CF9E43AFAA3E0C0
:10709B0075F00CA429F9EA35F0FA12856240030267
:1070AB00714312942A901076E0FBA3E0FAA3E0243C
:1070BB0002F9E43AFA129049EF90111F703074FF05
:1070CB00F0A3746EF0A3746DF0A374FFF0A3742A95
:1070DB00F0A374ECF0901076E0FBA3E0FAA3E0F9D8
:1070EB00120AE9FF901125E5F0F0A3EF803174FF50
:1070FB00F0A3746EF0A37472F0A374FFF0A3742A60
:10710B00F0A374ECF0901076E0FBA3E0FAA3E0247C
:10711B0002F9E43AFA901125EBF0A3EAF0A3E9F0B7
:10712B007B017A10797A122D137B017A10797AE42C
:0B713B00FD7F01129583D322C322C305
:017146002226
:100E7E009010CAEBF0A3EAF0A3E9F09011C5E0647C
:100E8E000260147BFF7A6E797A122D19900C9FE016
:100E9E00700302136180F5901145E4F0A3740FF016
:100EAE009010D074FFF0A3746EF0A374A6F090109F
:100EBE00CAE0FBA3E0FAA3E0F9126F63901074EEA0
:100ECE00F0A3EFF0F47002EEF4603AE02402FF902B
:100EDE001074E034009010CB8FF0120ABD9010D039
:100EEE0074FFF0A3746EF0A374A9F0A37401F0A3C1
:100EFE007410F0A37476F09010CAE0FBA3E0FAA38E
:100F0E00E0F9123A337BFF7A6E79AC901076E0FFFF
:100F1E00A3E090111FCFF0A3EFF0122D19E4901063
:100F2E0074F0A3F0901076E0FEA3E0FFC39010756E
:100F3E00E09FEE6480F8901074E0648098400302A5
:100F4E00130E9010D074FFF0A3746EF0A374C2F061
:100F5E009010CAE0FBA3E0FAA3E0F9126F639010C1
:100F6E0078EEF0A3EFF0F47002EEF470030212F1DB
:100F7E00E02402FF901078E034009010CB8FF01236
:100F8E000ABD7B017A10797A7D507C00128E0C900E
:100F9E0010D074FFF0A3746EF0A374C5F0A37401A7
:100FAE00F0A37410F0A3747AF09010CAE0FBA3E0E3
:100FBE00FAA3E0F9123A339010D074FFF0A3746ED6
:100FCE00F0A374C9F09010CAE0FBA3E0FAA3E0F915
:100FDE00126F63901078EEF0A3EFF0F47002EEF45F
:100FEE007003021070E02402FF901078E03400903D
:100FFE0010CB8FF0120ABDE4901078F0A3F0901091
:10100E00CAE0FBA3E0FAA3E0F91209DC643B6040FE
:10101E00901078E0FEA3E0FFC3942AEE64809480E3
:10102E00502E9010CAA3E475F001120AD3A9F0FA5B
:10103E001209DCFD747C2FF58274103EF583EDF001
:10104E00901079E004F070B6901078E004F080AE65
:10105E00901078E0FEA3E0247CF58274103EF583B8
:10106E00E4F09010D074FFF0A3746EF0A374CCF083
:10107E009010CAE0FBA3E0FAA3E0F9126F639010A0
:10108E0078EEF0A3EFF0F47002EEF4700302111B91
:10109E00E02403FF901078E034009010CB8FF01214
:1010AE000ABDE4901078F0A3F09010CAE0FBA3E024
:1010BE00FAA3E0F91209DC643B6040901078E0FE80
:1010CE00A3E0FFC3940CEE64809480502E9010CA5F
:1010DE00A3E475F001120AD3A9F0FA1209DCFD742B
:1010EE00A62FF58274103EF583EDF0901079E00492
:1010FE00F070B6901078E004F080AE901078E0FEBC
:10110E00A3E024A6F58274103EF583E4F09010D08F
:10111E0074FFF0A3746EF0A374D0F09010CAE0FBCD
:10112E00A3E0FAA3E0F9126F63901078EEF0A3EF4C
:10113E00F0F47002EEF470030211C6E02403FF9087
:10114E001078E034009010CB8FF0120ABDE49010AE
:10115E0078F0A3F09010CAE0FBA3E0FAA3E0F91236
:10116E0009DC643B6040901078E0FEA3E0FFC3947E
:10117E000CEE64809480502E9010CAA3E475F0019A
:10118E00120AD3A9F0FA1209DCFD74B22FF582749B
:10119E00103EF583EDF0901079E004F070B69010EB
:1011AE0078E004F080AE901078E0FEA3E024B2F573
:1011BE008274103EF583E4F09010D074FFF0A374A7
:1011CE006EF0A374D4F09010CAE0FBA3E0FAA3E093
:1011DE00F9126F63901078EEF0A3EFF0F47002EE58
:1011EE00F47003021271E02403FF901078E03400D3
:1011FE009010CB8FF0120ABDE4901078F0A3F0900F
:10120E0010CAE0FBA3E0FAA3E0F91209DC643B602C
:10121E0040901078E0FEA3E0FFC3940CEE6480943F
:10122E0080502E9010CAA3E475F001120AD3A9F0D3
:10123E00FA1209DCFD74BE2FF58274103EF583EDB3
:10124E00F0901079E004F070B6901078E004F08021
:10125E00AE901078E0FEA3E024BEF58274103EF549
:10126E0083E4F07B017A10797A128028901078EE60
:10127E00F0FCA3EFF0FD901075E02401FE901074C9
:10128E00E0340090111FF0A3CEF0ED2401FEE43CFB
:10129E00A3F0A3CEF090107AE0FFA3E0901123CF3D
:1012AE00F0A3EFF0A37401F0A37410F0A3747CF01C
:1012BE00A37401F0A37410F0A374A6F0A37401F04C
:1012CE00A37410F0A374B2F0A37401F0A37410F021
:1012DE00A374BEF07BFF7A6E79D8122D19900C9FF5
:1012EE00E070FA901078E0F47003A3E0F4601190CF
:1012FE001075E004F07006901074E004F0020F32E6
:10130E00901076E0FEA3E0FF901074E0B50617A3F0
:10131E00E0B507127BFF7A6F79089011A1E0FFA369
:10132E00E090111F801F7BFF7A6F7927901074E079
:10133E00FFA3E090111FCFF0A3EFF0901078E0FF25
:10134E00A3E0901121CFF0A3EFF0122D19900C9F76
:03135E00E070FA42
:011361002269
:1096F600AD071FED600BE4FEEEC3946E50F20E80D4
:01970600F76B
:01970700223F
:1095AF00D2FB0000000000D2FA0000000000C2FB56
:0695BF0000000000002284
:1095C500C2FB0000000000D2FA0000000000D2FB40
:0695D5000000000000226E
:089094001295AF7FA0128ABB08
:10909C00E4FFD2FA000000000030FB09EFC394FAA1
:0C90AC0050030F80F4C2FA000000000026
:0190B8002295
:10008E00D2FBC2FA0000000000D2FA00000000000D
:05009E00C2FAC2FB22C2
:1096AB00C2FBC2FA0000000000D2FA00000000006A
:0396BB00C2FA22CE
:108ABB00E4FEC2FA0000000000EF30E703D38001B0
:108ACB00C392FBEF25E0FF0000000000D2FA00008C
:108ADB00000000C2FA0EEEB408D8C2FA0000000083
:088AEB0000D2FB0000000000B6
:018AF3002260
:108DDE00C2FA0000000000D2FB0000000000E4FE1A
:108DEE00D2FA0000000000EF25E0FFA2FBE4334FB3
:0D8DFE00FFC2FA00000000000EEEB408E312
:018E0B002244
:107B9F0090111DEEF0A3EFF0A3EBF0A3EAF0A3E931
:107BAF00F0C2F9805590112274FFF5F0120AD345F7
:107BBF00F0606090111FE0FBA3E475F001120AD38F
:107BCF00A9F0FA1209DCFF128ABB12909C90111EC9
:107BDF00E004F0700690111DE004F090111EE054C7
:107BEF003F70C2D3901123E09400901122E09400D3
:107BFF0040B31295C57F641296F612909490111DA2
:107C0F00E0FF128ABB12909CA3E0FF128ABB129076
:0B7C1F009C80921295C57F640296F6CF
:0485C600AD07AC064B
:1085CA00129094ECFF128ABB12909CAF05128ABBE0
:1085DA0012909C1295AF7FA1128ABB12909CD390E5
:1085EA001123E09401901122E09400401FA3E0249B
:1085FA00FFF0901122E034FFF0128DDEEF120A2212
:10860A001296AB740129F9E43AFA80D2128DDEEFA0
:0E861A00120A2212008E1295C5901124E0FF64
:01862800222F
:1073EB0054616C6B54696D653A2025750D0A00521A
:1073FB00696E67496E54733A202562640D0A005218
:10740B00696E674F757454733A202562640D0A00D8
:10741B00546F6E65456E3A202562640D0A00436118
:10742B006D6572614F6E3A202562640D0A005265DC
:10743B00616C7954696D653A202562640D0A0055BB
:10744B006E6C6F636B4B657920313A202562640D4E
:10745B000A00556E6C6F636B4B657920323A2025B1
:10746B0062640D0A0054616C6B566F6C756D3A203B
:10747B002562640D0A00536D7354656C3A202573B5
:10748B000D0A004E616D65436F756E743A2025755C
:10749B000D0A00507377436F756E743A2025750D86
:1074AB000A0043617264436F756E743A2025750D43
:0D74BB000A00257325750025730025750056
:104C21004111C50148119F00000000000000004231
:104C310011C3FFFF4211450000411197034111C605
:104C410000421199000041119C004111980044114A
:0E4C5100C70000000041119B0442119D012C80
:1062A0007B017A1179A7901122E4F0A3741CF0E429
:1062B000FFFE1285C69011A7E0B45A08A3E0B461AE
:1062C000033000589011A7745AF0A37461F0A3E44E
:1062D000F0A3741EF0A37401F0A3740FF0A3740173
:1062E000F0A3F0A3740AF0A37401F0A304F0A37464
:1062F00005F0A3120D0C000A2C2A7B017A1179B744
:106300007D0C7C00128E0C7B017A1179A7901122F2
:10631000E4F0A3741CF0E4FFFE127B9F7BFF7A7312
:1063200079EB9011A9E0FFA3E090111FCFF0A3EF4C
:10633000F0122D197BFF7A7379FA9011ABE090116E
:106340001FF0122D197BFF7A74790A9011ACE0903E
:10635000111FF0122D197BFF7A74791B9011ADE09B
:1063600090111FF0122D197BFF7A7479299011AECC
:10637000E090111FF0122D197BFF7A74793990117A
:10638000AFE090111FF0122D197BFF7A74794A90BB
:1063900011B0E090111FF0122D197BFF7A74795D16
:1063A0009011B1E090111FF0122D197BFF7A7479D2
:1063B000709011B2E090111FF0122D1990111F74FE
:1063C00001F0A37411F0A374B7F07BFF7A747981A4
:1063D000122D199011B2E0D3940540037403F0908C
:1063E00011B2E0901197F09011AEE06003D2E92273
:0363F000C2E922DD
:107659007B017A11799F901122E4F0A37408F07FDD
:10766900807E001285C690119FE0645A7004A3E0E1
:107679006461602C90119F745AF0A37461F0E4A3C3
:10768900F0A3F0A3F0A3F0A3F0A3F07B017A1179A2
:107699009F901122F0A37408F07F807E00127B9FD7
:1076A9007BFF7A74798E9011A1E0FFA3E090111FFE
:1076B900CFF0A3EFF0122D197BFF7A74799E901108
:1076C900A3E0FFA3E090111FCFF0A3EFF0122D1953
:1076D9007BFF7A7479AD9011A5E0FFA3E090111FAB
:1076E900CFF0A3EFF0122D191296981296BE0296BA
:0176F900D1BF
:10873C00ED24FE60171460222402702D7C007D5005
:10874C00120A56E42FFF74013EFE801DEF7802C31F
:10875C0033CE33CED8F92440800A7C007D06120A31
:10876C005674682FFF74203EFE7B017A1079D990E5
:10877C001122E4F0A37402F01285C69010D9E0FE29
:03878C00A3E0FF68
:01878F0022C7
:0B7C2A009010D2EEF0A3EFF0A3EDF0FD
:107C3500E4A3F0A3F0ED24FE600C14600E240270A2
:107C4500199011A180089011A380039011A5E0FF60
:107C5500A3E09010D7CFF0A3EFF09010D7E0FCA3EE
:107C6500E0FD9010D5E0FEA3E0FFC39DEE9C5035EE
:107C75009010D4E0FD12873C9010D2E0B5060EA31B
:107C8500E0B507099010D5E0FEA3E0FF22EFF47000
:107C950002EEF460109010D6E004F070BD9010D59F
:097CA500E004F080B57EFF7FFFD2
:017CAE0022B3
:108EB9009011C57401F074FF9011C3F0A3F0E49010
:108EC9001145F0A3F0901198F090126BF0A3F09077
:098ED9001266F0A3F0FF02722FF3
:108AF4009011C57402F012942A7BFF7A2979537D70
:108B0400017F011295837BFF7A2979637D017F02BE
:108B14001295837B037D067F021296E4E4901199FB
:088B2400F0A3F090119CF02277
:1084200012942A7BFF7A2979AEE4FD7F01129583AD
:10843000901199E0FEA3E0FFD39400EE9400901118
:108440001F74FF401CF0A37474F0A374BDF0A374F8
:10845000FFF0A37429F0A374AEF0A3EEF0A3EF80B5
:1084600014F0A37474F0A374C2F0A374FFF0A374A7
:1084700029F0A374AEF07B017A107976122D137B6C
:0C848000017A107976E4FD7F01029583FB
:108D52009011C57407F07E00901199EEF0A3EFF028
:108D620090119C7401F0EF7001F01284207B017A63
:0F8D72001179477D507C00128E0C7F0F027965BE
:106C6200901075EFF024F67003026CEF24FB6003C2
:106C7200026D1D901199E0FEA3E0FFD39400EE9403
:106C820000404C7B017A11794712882AEFF4700296
:106C9200EEF4603BE49011C6F07B017A117947FD76
:106CA20012705B500C7F0C1279659011C57414F050
:106CB200227B017A117973129049EF700512961CAA
:106CC200800312965B901145E4F0A37405F0221242
:106CD20097497F04127965901145E4F0A37405F099
:106CE200E4901199F0A3F090119CF0802E90119CE9
:106CF200E0D39400401FE014F0901199E0FEA3E06D
:106D0200FF7C007D0A120A68901199EEF0A3EFF061
:106D12001284208006128D81128EB9901075E0FFC8
:106D2200C39400403EEFD39409503890119CE0C3C5
:106D32009404502FE004F0901199E0FEA3E0FF7C50
:106D4200007D0A120A56901199EEF0A3EFF090100E
:106D520075E0FF90119AE02FF0901199E03400F065
:046D62001284202255
:067D34009011C7120D00C2
:107D3A0012942A9011C5E0B40E0D7BFF7A2A797548
:107D4A00E4FD7F0112958390109774FFF0A3742AC3
:107D5A00F0A37452F07B017A10797612868CE4FDD6
:107D6A0090119CE0FCEDC39C5016ED2FFBE43EFA0B
:107D7A0074762BF58274103AF583742AF00D80E03C
:107D8A00ED2FFFE43EFE74762FF58274103EF583E4
:107D9A00E4F07B017A107976FD7F021295837B01EC
:0E7DAA007A107976129049AD077F0202979504
:1093D3009011C5740EF09011C7120D0C000000001F
:0D93E300E490119CF0127D3A7F0202796542
:106D6600901075EFF024F6606724FB7003026E0343
:106D760024046003026E06E4FFFEFDFC9011C7E0EA
:106D8600F8A3E0F9A3E0FAA3E0FBD3120C694027CD
:106D960090119CE0B406209011B3E0FCA3E0FDA3A3
:106DA600E0FEA3E0FF9011C7E0F8A3A3A3E0C3129F
:106DB6000C697003028AF412961C7F05127965909D
:106DC60011C7120D0C00000000E490119CF08030F9
:106DD60090119CE0D39400401FE014F09011C7E09E
:106DE600FCA3E0FDA3E0FEA3E0FFE47B0AFAF9F8CA
:106DF600120BD7127D348008128D818000128EB955
:106E0600901075E0FFC394004055EFD39409504F9E
:106E160090119CE0C394065046E004F09011C7E040
:106E2600FCA3E0FDA3E0FEA3E0FFE47B0AFAF9F889
:106E3600120B4C9011C7120D009011C7E0F8A3E099
:106E4600F9A3E0FAA3E0FB901075E0FFE4FCFDFE79
:106E5600EB2FFFEE3AFEED39FDEC38FC127D3422C5
:10654000901075EFF024F5601C14601F1460221485
:10655000605E1470030266162405600302667812FA
:106560008EB90266781292030266781293D302669D
:10657000789011A1E0FEA3E0FFD39400EE940050C8
:1065800003026678EF24FFFFEE34FFFEC39011C4D0
:10659000E09F9011C3E09E500EA3E004F0706A905B
:1065A00011C3E004F08062E49011C3F0A3F08059BD
:1065B0009011A1E0FEA3E0FFD39400EE94005003FD
:1065C0000266789011C3E0FCA3E0FD9FEC9E50258D
:1065D000ED9400EC9400400DE024FFF09011C3E036
:1065E00034FFF08024EF24FFFFEE34FF9011C3F05E
:1065F000A3EFF080149011A2E024FFFE9011A1E01F
:1066000034FF9011C3F0A3CEF09011C3E0FEA3E0DD
:10661000FF1292D480629011A1E0FCA3E0FD9011E2
:10662000C3E0FEA3E0FFC39DEE9C5047E49011C67B
:10663000F07B017A117947128CC47B017A1179477A
:10664000E4FD12705B500D9011C57414F07F0C12B4
:10665000796580247B017A117973129049EF700576
:1066600012961C800312965B901145E4F0A374050A
:10667000F08005E4FF128D52901075E0FFD3940076
:0C6680004009EFD394095003128D522200
:1074C800901075EFF0C39400405EE0FBD394095030
:1074D8005790119CE0C39402503AE004F09011993F
:1074E800E0FEA3E0FF7C007D0A120A56901199EE97
:1074F800F0A3EFF0EBFF7E00E02FF0901199E03E53
:10750800F0D3A3E0940D901199E094005003027514
:1075180098EE8009901075E0FF901199E4F0A3EFC0
:10752800F090119C7401F022901075E0B40F028065
:1075380007901075E0B40A03028EB9901075E064E4
:107548000B704D901199E0FEA3E0FFC39404EE94F4
:1075580000400EEF940CEE94005006EF2412FF80CA
:107568002C901199E0FEA3E0FFEE7024EF24FE605A
:107578001114601124F76010146010240C701102AB
:1075880081F50282D30283B10291287F1E125E55D3
:0175980022D0
:1087DF00901075EFF0C39400400AE0FFD394095056
:1087EF0003028E64901075E024F3601014601A1465
:1087FF006004240570241294AC028EB9901197E096
:10880F00C394055015E004800B901197E0D39401A9
:0B881F004008E014F0E0FF127DB822DA
:104D690012942A9011C5E024EAB409004003024EC6
:104D7900BC904D8875F003A4C58325F0C5837302E3
:104D89004DA3024DBF024DDB024DF7024E48024EC4
:104D990063024E7E024E13024E9990111F74FFF06A
:104DA900A37474F0A374C2F0A374FFF0A3742AF07F
:104DB900A374F6024EB290111F74FFF0A37474F03D
:104DC900A374C2F0A374FFF0A3742BF0A3740102BF
:104DD9004EB290111F74FFF0A37474F0A374C2F063
:104DE900A374FFF0A3742BF0A3740D024EB29011BB
:104DF9001F74FFF0A37474F0A374C2F0A374FFF0DE
:104E0900A3742BF0A37418024EB290111F74FFF013
:104E1900A37474F0A374C2F0A374FFF0A3742BF00D
:104E2900A37436F07B017A107976122D13901199BB
:104E3900E07002A3E06004D2E98078C2E98074904E
:104E4900111F74FFF0A37474F0A374C2F0A374FF6C
:104E5900F0A3742BF0A3743E804F90111F74FFF0E0
:104E6900A37474F0A374C2F0A374FFF0A3742CF0BC
:104E7900A37464803490111F74FFF0A37474F0A3B9
:104E890074C2F0A374FFF0A3742CF0A3747C80198E
:104E990090111F74FFF0A37474F0A374C2F0A3748B
:104EA900FFF0A3742CF0A37494F07B017A10797647
:104EB900122D139011C5E06419702B7B017A1079BA
:104EC90076FD7F01129583901199E07004A3E06447
:104ED900017BFF70067A2B794A80047A2B794D7D04
:104EE900067F03024F7A9011C5E0FF641D6005EF4C
:104EF9006417702B7B017A107976E4FD7F01129596
:104F090083901199E07004A3E064017BFF70067A35
:104F19002B794A80047A2B794D7D067F0280527B5A
:104F2900017A107976E4FD7F01129583901199E059
:104F3900FEA3E0FFD39400EE9400403890111F7453
:104F4900FFF0A37474F0A374C5F0A3EEF0A3EFF01F
:104F59007B017A107976122D137B017A10797612FA
:104F69009049C374109FC313FD7B017A1079767F32
:044F79000212958308
:014F7D002211
:105E55009011C5EFF024EAB409004003025F7D907C
:105E65005E7275F003A4C58325F0C58373025E8D4C
:105E7500025EAB025EC5025EE0025F13025F2D02A9
:105E85005F47025EFA025F6190119B7403F0901107
:105E95009D7401F0A3742CF09011A9E0FFA3E0908C
:105EA5001199CF025F7990119B7402F090119DE4D6
:105EB500F0A304F09011ABE0FF901199E4025F7933
:105EC50090119B7402F090119DE4F0A3745AF09028
:105ED50011ACE0FF901199E4025F7990119B740178
:105EE500F090119DE4F0A304F09011ADE0FF901146
:105EF50099E4025F7990119B7401F090119DE4F093
:105F0500A304F09011AEE0FF901199E48066901122
:105F15009B7402F090119DE4F0A37463F09011AFAF
:105F2500E0FF901199E4804C90119B7401F0901161
:105F35009DE4F0A37409F09011B0E0FF901199E48D
:105F4500803290119B7401F090119DE4F0A37409C7
:105F5500F09011B1E0FF901199E4801890119B74B5
:105F650001F090119DE4F0A37405F09011B2E0FFEB
:105F7500901199E4F0A3EFF0E490119CF090119941
:105F8500E0FEA3E0FFD3EF9400EE9400400F9011E4
:105F95009CE004F07C007D0A120A6880E89011C537
:105FA500E0FF64196013EF641D600EEF641B600968
:105FB500EF641C6004EFB41E0690119C7401F0029E
:025FC5004D6924
:10516E00901076ECF0A3EDF0EF24EAB409004003C2
:10517E0002533990518F75F003A4C58325F0C58372
:10518E00730251AA0251D50251F902521D02527BED
:10519E0002529E0252CF02524C025301901076E000
:1051AE00FFA3E09011A9CFF0A3EFF0C374A994A7C9
:1051BE00FF74119411FE7B017A1179A9901122E4EA
:1051CE00F0A374020252FB901076A3E09011ABF0A4
:1051DE00C374AB94A7FF74119411FE7B017A1179FD
:1051EE00AB901122E4F0A3040252FB901076A3E0E0
:1051FE009011ACF0C374AC94A7FF74119411FE7BA4
:10520E00017A1179AC901122E4F0A3040252FB90C2
:10521E001076E07002A3E07003FF80027F01901110
:10522E00ADEFF0C374AD94A7FF74119411FE7B0122
:10523E007A1179AD901122E4F0A3040252FB901082
:10524E0076E07002A3E07003FF80027F019011AE42
:10525E00EFF0C374AE94A7FF74119411FE7B017A24
:10526E001179AE901122E4F0A3040252FB90107655
:10527E00A3E09011AFF0C374AF94A7FF7411941113
:10528E00FE7B017A1179AF901122E4F0A304805DC8
:10529E00901076E0FEA3E0FFD39400EE940050034E
:1052AE000253399011B0EFF074B094A7FF741194BB
:1052BE0011FE7B017A1179B0901122E4F0A30480E3
:1052CE002C901076E0FEA3E0FFD39400EE94004005
:1052DE005A9011B1EFF074B194A7FF74119411FEAE
:1052EE007B017A1179B1901122E4F0A304F0127BC4
:1052FE009F8038901076E0FEA3E0FFD39400EE94EA
:10530E000040289011B2EFF074B294A7FF7411947C
:10531E0011FE7B017A1179B2901122E4F0A304F010
:0E532E00127B9F9011B2E0901197F00296074B
:10585000901075EFF090119CE0B46302807B901083
:1058600075E024F5605324FC604D2405706E9011A2
:10587000C5E0FF64196010EF641D600BEF641760F2
:105880000690119CE0700E9011AEE06004D2E980A9
:1058900002C2E9804490119CE014F0901199E0FE5E
:1058A000A3E0FF7C007D0A120A68901199EEF0A334
:1058B000EFF0124D698025802090119CE0D3940078
:1058C00040179011C5E0FF901199E0FCA3E0FD1294
:1058D000516E90119C7463F022028AF4901075E06E
:1058E000FFC3940050030259D4EFD394094003023C
:1058F00059D49011C5E0FF64196009EF641D60047C
:10590000EFB4171290119C7401F0901075E0FF90A5
:105910001199E40259D09011C5E0FF641B6004EFB7
:10592000B41C1C901075E0FFD3940050030259D4AE
:1059300090119C7401F07E00901199140259D0903E
:1059400011C5E0B41E27901075E0FFD394005003FA
:105950000259D47E0090119EE09F90119DE09E40E0
:105960007390119C7401F090119914806390119BB5
:10597000E0FFA3E0C39F505C901199E0FEA3E0FF1D
:105980007C007D0A120A5690119DE0FCA3E0FDC345
:105990009FEC9E403F90119CE004F0901199EEF036
:1059A000A3EFF0901075E0F92FFFE43EFEC3ED9FEA
:1059B000EC9E4011E9FF90119AE02FF0901199E0D0
:1059C0003400F0800F90119DE0FFA3E0901199CF7B
:0859D000F0A3EFF0124D692273
:105B5B00901074EFF0901145E4F0A3741EF09011C7
:105B6B00C5E014B41E004003025CAB905B8475F07F
:105B7B0003A4C58325F0C58373025BDE025BE902D8
:105B8B005BF4025BFF025C0A025C15025C53025C75
:105B9B0020025C2B025C35025C3F025C49025C67B5
:105BAB00025C5D025C71025C7B025C85025C8F02B5
:105BBB005CAB025C99025C99025CA3025CA3025C85
:105BCB00A3025CA3025CA3025CA3025CA3025CA322
:105BDB00025CA3901074E0FF126540025CAB901066
:105BEB0074E0FF1274C8025CAB901074E0FF129269
:105BFB00F6025CAB901074E0FF12253E025CAB909A
:105C0B001074E0FF124924025CAB901074E0FF1299
:105C1B009528025CAB901074E0FF129317025CABFB
:105C2B00901074E0FF1221198076901074E0FF122F
:105C3B0056A6806C901074E0FF12953F8062901016
:105C4B0074E0FF12668C8058901074E0FF126C6247
:105C5B00804E901074E0FF126D668044901074E0DB
:105C6B00FF123CCC803A901074E0FF1293388030D6
:105C7B00901074E0FF1254F48026901074E0FF1221
:105C8B00533C801C901074E0FF12955680129010BC
:105C9B0074E0FF1287DF8008901074E0FF125850F9
:105CAB00D3901146E0940A901145E0940040209067
:105CBB0011C5E0FF640E600EEF640C6009EF640722
:105CCB006004EFB40109901145E4F0A3740AF022CB
:1084F700901074EBF0A3EAF0A3E9F09011C5E02423
:10850700F1605724FE60071460502402700E90102B
:1085170074E0FBA3E0FAA3E0F9028A45901074E047
:10852700FBA3E0FAA3E0F91276FAEFF47002EEF497
:10853700600E9011AFE0FDD200E4FF129359800363
:108547001296469011C5E0FF6415600EEF64146043
:0B85570009901145E4F0A37405F02228
:108EE200436865636B5073773A25750D0A004164D8
:108EF200645073774974656D20310D0A002573251E
:098F02007500257325002575009A
:0E4C5F004113690041136A00C10DC10EC10F5F
:10924A00C374A3949FFF74119411CF2480CF340068
:10925A00FE7B017A1179A3901122E4F0A37402F043
:03926A00027B9FE5
:0A977700E49011A3F0A3F002924A5F
:1096BE00D39011A4E0940A9011A3E09400400312F9
:0396CE0097772269
:0B8F5D0090107CE0FBA3E0FAA3E0F919
:108F6800EF7802C333CE33CED8F92440FFEE342055
:0D8F7800FE901122E4F0A37404F0027B9F30
:1093F000EF7802C333CE33CED8F92440FFEE3420C9
:0D940000FE901122E4F0A37404F00285C672
:087FB000901076EEF0A3EFF053
:107FB800E4A3F0A3F07BFF7A8E79E290111FEEF034
:107FC800A3EFF0122D199011A3E07002A3E0700244
:107FD800C322E4901078F0A3F09011A3E0FCA3E092
:107FE800FD901078E0FEA3E0FFC39DEE9C502F7B30
:107FF800017A10797A1293F0901076E0FEA3E0FFF0
:1080080090107CE0B50607A3E0B50702D3229010D4
:0F80180079E004F070C3901078E004F080BBC3EF
:018027002236
:0B7E3B0090107CEBF0A3EAF0A3E9F04C
:107E460074FFA3F0A3F0120AE9FFAEF07D02127CE4
:107E56002A90107FEEF0A3EFF0F47002EEF4601DAE
:107E66007BFF7A8E79F0122D1990107FE0FEA3E049
:107E7600FF128F5D90107FE0FEA3E0FF229011A31A
:107E8600E0FEA3E0FFC3940AEE94005023128F5D38
:107E96009011A4E004F070069011A3E004F0129291
:107EA6004A9011A4E024FFFF9011A3E034FFFE22C4
:047EB6007EFF7FFFCD
:017EBA0022A5
:0882640090107AEEF0A3EFF098
:10826C009011A3E0FCA3E0FDD39FEC9E4058ED24BD
:10827C00FFFFEC34FFFE90107AE0B50616A3E0B5D4
:10828C0007119011A4E024FFF09011A3E034FFF04B
:10829C0002924A9011A4E024FFF09011A3E034FF65
:1082AC00F012924A9011A3E0FEA3E0FF7B017A103A
:1082BC00797C1293F090107AE0FEA3E0FF7B017AB8
:0682CC0010797C128F689E
:0182D2002289
:0890B900901078EEF0A3EFF037
:1090C1008013EFF47002EEF4601212826490107853
:0C90D100E0FEA3E0FF7D02127C2A80E696
:0190DD002270
:08334E007B017A13795FD200C4
:0B33560090107CEBF0A3EAF0A3E9F07C
:1033610012942A9011C5E0B40D0F7BFF7A2A79756A
:10337100E4FDFF1295830234079011C5E0640C70DF
:103381000302340790107CE0FBA3E0FAA3E0F912FA
:103391000AE9D39400E5F094007BFF7A2C79A3E449
:1033A100FDFF404912958390111F74FFF0A3748EA5
:1033B100F0A374FFF0A374FFF0A3742CF0A374A323
:1033C100F090107CE0FBA3E0FAA3E0F9120AE9FF18
:1033D100901125E5F0F0A3EFF07B017A10797F12CF
:1033E1002D137B017A10797FE4FDFF800012958314
:1033F100901369E070107B017A10797F129049ADCA
:1034010007E4FF12979520000302367E90107CE0BE
:10341100FBA3E0FAA3E0F9900002120CA0E4FBFA8E
:10342100F9F8C3120C69400302350190111F74FFB2
:10343100F0A3748FF0A37404F0A374FFF0A3742AB3
:10344100F0A37452F00B7A10797F122D139013614F
:10345100E0FCA3E0FDA3E0FEA3E0FF9010A0120DAD
:1034610000E490109FF0E4FFFEFDFC9010A0E0F856
:10347100A3E0F9A3E0FAA3E0FBD3120C69403F7B80
:10348100FF7A2A795212904990109FE02F247FF5FC
:1034910082E43410F583742AF09010A0E0FCA3E0DC
:1034A100FDA3E0FEA3E0FFE47B0AFAF9F8120BD7D3
:1034B1009010A0120D0090109FE004F080A87BFFF7
:1034C1007A2A795212904990109FE02F247FF58239
:1034D100E43410F583E4F07B017A10797FFD7F01FC
:1034E1001295839011C5E0640D60047F0180027F15
:1034F10000901369E06F703A7B017A10797F802820
:103501007BFF7A2A7952E4FD7F011295839011C5E0
:10351100E0640D60047F0180027F00901369E0B5D3
:1035210007107BFF7A2A7952129049AD077F011269
:1035310097959011C5E0640C700302367E90107C63
:10354100E0FBA3E0FAA3E0F9900006120CA0E4FB73
:10355100FAF9F8C3120C69400302363F90111F7447
:10356100FFF0A3748FF0A37404F0A374FFF0A374AD
:103571002AF0A37464F00B7A10797F122D13901343
:1035810065E0FCA3E0FDA3E0FEA3E0FF9010A01224
:103591000D00E490109FF0E4FFFEFDFC9010A0E010
:1035A100F8A3E0F9A3E0FAA3E0FBD3120C69403FD2
:1035B1007BFF7A2A796412904990109FE02F247F33
:1035C100F582E43410F583742AF09010A0E0FCA396
:1035D100E0FDA3E0FEA3E0FFE47B0AFAF9F8120B99
:1035E100D79010A0120D0090109FE004F080A87BEE
:1035F100FF7A2A796412904990109FE02F247FF579
:1036010082E43410F583E4F07BFF7A2A795CFD7F54
:10361100021295837B017A10797FE4FD7F03129575
:10362100839011C5E0640D60047F0280027F0190E8
:103631001369E06F70477B017A10797F80357BFFDA
:103641007A2A795CE4FD7F021295837BFF7A2A79DD
:1036510064E4FD7F031295839011C5E0640D60045D
:103661007F0280027F01901369E0B507107BFF7A2A
:0D3671002A7964129049AD077F03129795E6
:01367E002229
:1090DE007B017A13795F7D0A7C00128E0CE490136B
:1090EE0069F0A3F09011C57409F07B017A13795FD2
:0590FE00D20002335610
:05211900901075EFF0CD
:10211E00640B6003022266901369E064036003029D
:10212E0021EE300D147B017A13795F7D0AFC128E3D
:10213E000CE490136AF00221EED3901360E0940049
:10214E0090135FE0940050030221EBE4FFFEFDFCD0
:10215E00901361E0F8A3E0F9A3E0FAA3E0FB120C00
:10216E0069607A901365E0FCA3E0FDA3E0FEA3E0B6
:10217E00FF901361E0F8A3A3A3E0C3120C69705D96
:10218E0090135FE0FFA3E0901078CFF0A3EFF090F4
:10219E001361A3A3E0FFA3E090107ACFF0A3EFF0BA
:1021AE007B017A107978127E3BEFF47002EEF460C8
:1021BE0005129607800312961C7B017A13795F7DB8
:1021CE000A7C00128E0CD20D901361120D0C0000C1
:1021DE000000901365120D0C000000002202961CE8
:1021EE00901369E004F0E05403FFF0E4A3F0EF1461
:1021FE00604914604B14605A240360030223CCE43C
:10220E00901369F090135FE0FFA3E0901076CF80FB
:10221E0024901076E0FEA3E0FFD39400EE940050DD
:10222E00030223CC90136AE004F07C007D0A120AAC
:10223E0068901076EEF0A3EFF080D69013618003D5
:10224E00901365120D0C00000000E490136AF0026A
:10225E0023CC129729C20D22901075E0640A6003F8
:10226E000223C2901369E014603C14700302231C15
:10227E00147003022387240360030223CC90136A95
:10228E00E0D39400401DE014F090135FE0FEA3E055
:10229E00FF7C007D0A120A6890135FEEF0A3EFF048
:1022AE000223CC0223C990136AE0D39400401FE0AE
:1022BE0014F0901361E0FCA3E0FDA3E0FEA3E0FFA9
:1022CE00E47B0AFAF9F8120BD7901361806690132B
:1022DE0069E014F0E4A3F090135FE0FFA3E0901028
:1022EE0076CF8024901076E0FEA3E0FFD39400EE2C
:1022FE00940050030223CC90136AE004F07C007D1E
:10230E000A120A68901076EEF0A3EFF080D69013C2
:10231E006AE0D394004023E014F0901365E0FCA330
:10232E00E0FDA3E0FEA3E0FFE47B0AFAF9F8120B4E
:10233E00D7901365120D000223CC901369E014F0B0
:10234E00E4A3F0901361A3A3E0FFA3E0901076CF77
:10235E008021901076E0FEA3E0FFD39400EE94006F
:10236E00405C90136AE004F07C007D0A120A6890CB
:10237E001076EEF0A3EFF080D9E4901369F0A3F09D
