:03000000027A8BF6
:0C7A8B00787FE4F6D8FD758123027AD2E2
:10919A0025730044746D66446174613A2030782501
:1091AA00623032580D0A005573724B657920256278
:0491BA00640D0A0036
:094B4E00421386000041138800A7
:104207007F647E00129026C2AF30C0FD12714A1241
:1042170087931286E912947D128F37128F887FE871
:104227007E031290261291BED2AF7F647E00129059
:1042370026C2001262A312765C7F647E001290266B
:104247001292B5129463128EBC7F11127968900C8A
:10425700ABE0600C7B017A0C79B4120E7E1294E10C
:10426700900CB3E0602B9011277401F0A3740EF04B
:10427700A374B4F07BFF7A91799A122D197B017A96
:104287000E79B4900CB0E0FCA3E0FD12691912940A
:10429700FA1259DB901377E0FF60427BFF7A91793E
:1042A7009D901127F0122D199011B8E0FF90137708
:1042B700E0B5070C9011B7E0FDD200E4FF12935C64
:1042C7009011B9E0FF901377E0B5070C9011B7E0B4
:1042D700FDD2007F0112935CE4901377F0201B035B
:1042E700024449C21B1288BF126A3A901388EFF042
:1042F700F4601E7F10127F3A7BFF7A9179B1901399
:1043070088E0901127F0122D19901388E0FF125BB7
:104317005E1267D7128C33123013128C01901386FA
:10432700E475F001120ABDFED3E5F094E8EE9403BC
:104337005003024419E4901386F0A3F0B28112945B
:104347009690114DE07002A3E06025901273E07023
:1043570002A3E0701B90126EE07002A3E070119050
:10436700114D74FFF5F0120ABD45F07003128EBCB3
:104377009011CDE06415704612894B90126EE0FEE5
:10438700A3E0FF4E60159011B1E0FCA3E0FDEFB58F
:104397000509EEB504057F0D12796890126EE0707D
:1043A70002A3E0601990126E74FFF5F0120ABD4582
:1043B700F0700B1294AF7F08127968128EBC9011BF
:1043C700A0E004F0E075F00F84E5F0F09011CDE087
:1043D7006401703E90114DE07002A3E070349011BB
:1043E700CBE0F47003A3E0F470289011A0E0FF6025
:1043F7000964056005EF640A7018EFB40A047F01C9
:10440700800D9011A0E0B405047F0080027F0212A6
:104417007232D39012AEE094009012ADE094004057
:10442700219011CDE0B4041A9012AEE024FFF09071
:1044370012ADE034FFF0E07002A3E070057F631275
:10444700253E300B099011CDE0B40102C20B2011BB
:104457000302425512136230120E7F10127F3A7B0D
:0E446700017A13794E1284FA129463024255C0
:108B660055415254315F636F6E666967204F4B21E2
:108B76000D0A0055415254335F636F6E6669672074
:108B86004F4B210D0A0052657365744B6579546924
:058B96006D650D0A00F1
:104B57004113770041137300411374004113781F09
:104B670041137B1F421379000041137500411376EF
:064B77000042137C000067
:109026007C007D07120A56E4FDC3ED9FEC9E5015A9
:10903600E4FBFA0BBB00010AEB646E4A70F50DBD4A
:0590460000010C80E4B4
:01904B002202
:0E976C0090114CEFF0128FFF90114CE0FF2295
:0B904C00901124EBF0A3EAF0A3E9F080
:10905700E4FF901124E0FBA3E475F001120AD3A901
:0A906700F0FA1209DC60030F80E844
:0190710022DC
:10957000E4FF1209DC600E0FB4D7011F740129F952
:05958000E43AFA80ED61
:0195850022C3
:0B6F66009010D5EBF0A3EAF0A3E9F0D7
:106F7100E49010DBF0A3F0A3F0A3F09010D5E0FBB8
:106F8100A3E0FAA3E0F99010DBE0FEA3E0F5828E26
:106F9100831209F5FF70030270599010D8E0FBA32A
:106FA100E0FAA3E0F91209DC6F600302704590106A
:106FB100DDF0A3F09010D8E0FBA3E0FAA3E0F99094
:106FC10010DDE0FEA3E0F5828E831209F560519099
:106FD10010DDA3E0FF9010DCE02FFF9010DBE03E1E
:106FE100FE9010D5E0FBA3E0FAA3E0F98F828E8337
:106FF1001209F5FF9010D8E0FBA3E0FAA3E0F990A5
:1070010010DDE0FCA3E0F5828C831209F5B50710D1
:107011009010DEE004F0709C9010DDE004F08094AC
:107021009010D8E0FBA3E0FAA3E0F99010DDE0FEB8
:10703100A3E0F5828E831209F570099010DBE0FE62
:10704100A3E0FF229010DCE004F06003026F7C906B
:0C70510010DBE004F0026F7C7EFF7FFF8C
:01705D002210
:108E0F00901124EBF0A3EAF0A3E9F0ED1DAE04708E
:108E1F00011C4E6016901124E0FBA3E475F00112C3
:0C8E2F000AD3A9F0FAE4120A2280E02223
:108907009010D0EBF0A3EAF0A3E9F09010D674FF33
:10891700F5F0120AD345F0602A9010D3E0FBA3E4E8
:1089270075F001120AD3A9F0FA1209DCFF9010D0F2
:10893700E0FBA3E475F001120AD3A9F0FAEF120ADB
:048947002280C822A0
:0B868F0090109CEBF0A3EAF0A3E9F0D0
:10869A00E4FFFE90109FE0FBA3E0FAA3E0F91209C1
:1086AA00DC602D90109FA3E475F001120AD3A9F0A3
:1086BA00FA1209DCFD90109CE0FBA3E475F00112AC
:1086CA000AD3A9F0FAED120A220FBF00010E80C3E5
:0F86DA0090109CE0FBA3E0FAA3E0F9E4020A226F
:108DB3009010C5EBF0A3EAF0A3E9F0ED1DAE04704B
:108DC300011C4E60179010C5E0FBA3E475F001127F
:0E8DD3000AD3A9F0FA1209DC60E1C322D32210
:10714A0090107D74FFF0E490107CF07B017A107946
:10715A007C7F011246CB7B017A10797C7F02124632
:10716A00CB7B017A10797C7F031246CB90107D7419
:10717A0060F07B017A10797CE4FF1246CB90107D97
:10718A007401F0FB7A10797C7F041246CB90107D53
:10719A007430F07B017A10797C7F051246CB90100F
:1071AA007D74F3F07B017A10797C7F061246CB90CE
:1071BA00107D7448F07B017A10797C7F071246CBE8
:1071CA0090107C7403F0A37413F07B017A10797C1D
:1071DA00E4FF1246CB90107D741AF07B017A107985
:1071EA007C7F041246CB90107D740CF07B017A10E0
:1071FA00797C7F051246CB90107D7437F07B017A3B
:10720A0010797C7F071246CB90107D7404F07B01C5
:10721A007A10797C7F061246CBC2F8C2C1D2FAD262
:07722A00FBD2F9C2C3C284CC
:01723100223A
:1086E90090107C7440F0A37402F0A3120D0C0001E9
:1086F900C2009010837401F0E4A3F0A304F0A3F086
:10870900E4A3F07B017A10797C7F01121CCD7BFFF9
:108719007A8B7966122D199010877402F07B017A91
:1087290010797C7F03121CCD7F58128FB07BFF7AA2
:068739008B7979022D1975
:10879300E490107CF0A3F0A304F0E4A3F0A3F0A30F
:1087A3007496F0A37488F0A37401F0FB7A10797CBB
:1087B300E4FF124F8190108174FEF0A374F2F07BFA
:1087C300017A10797C7F01124F8190108174FCF043
:0F87D300A374B5F07B017A10797C7F04024F818B
:10947D0090107E7401F0E490107DF090107CF07BE4
:09948D00017A10797CFF02862CA3
:106A3A00901373E014603614605314606414700386
:106A4A00026B25147003026B3924056003026B552F
:106A5A0075A0F0E5A054F064F07003026B55901332
:106A6A00747414F09013737401F0026B55E5A0541A
:106A7A00F0FFBFF004E4026B51901374E014F0606D
:106A8A0003026B559013737402F0026B55E5A04430
:106A9A000F90107CF0E0F5A09013737403F0026B72
:106AAA005590107CE5A0F075A0F09013737404F073
:106ABA0090107CE0120D496B22776B1F7B6B1C7D5B
:106ACA006B197E6B16B76B13BB6B10BD6B0DBE6B70
:106ADA000AD76B07DB6B04DD6B01DE6AFEE76AFB34
:106AEA00EB6AF8ED6AF5EE00006B557F04227F0829
:106AFA00227F0B227F0F227F03227F07227F002221
:106B0A007F0E227F02227F06227F0A227F0D227FAA
:106B1A0001227F05227F09227F0C22E5A054F0FF83
:106B2A00BFF0289013737405F0A37414F0801CE569
:106B3A00A054F064F060089013737404F0800C9011
:0D6B4A001374E014F07004901373F07FFFDB
:016B5700221B
:1067D700901375E0146040046003026862A2CDE480
:1067E7003325E0FFA2CCE4334F25E0FFA2C0E4331A
:1067F7004F25E0FFA285E4334F25E0FFA286E4336F
:106807004FFF901378E06F6052901376741EF090EC
:1068170013757401F08044A2CDE43325E0FFA2CCC8
:10682700E4334F25E0FFA2C0E4334F25E0FFA28504
:10683700E4334F25E0FFA286E4334FFF901378E05F
:10684700B50707E4901375F08011901376E014F004
:106857007009901375F0901378EFF0901378E0FFBC
:1068670090137BE0FE6F6079EE5401FEEF54016EEA
:10687700601C901378E020E0159011B7E0FDC2008E
:10688700E4FF12935C90114DE4F0A37405F09013AC
:106897007BE05402FF901378E0FE54026F6019EE1C
:1068A70020E1159011B7E0FDC2007F0112935C90C3
:1068B700114DE4F0A37405F090137BE05404FF90AE
:1068C7001378E054046F6011A37427F0A37410F0D9
:1068D7007BFF7A8B798C122D19901378E090137BBC
:1068E700F090137BE020E229901379E07002A3E097
:1068F700601F90137974FFF5F0120ABD45F070110F
:10690700D2001262A312975C90114DE4F0A37405B4
:01691700F08F
:01691800225C
:10935C00747C2FF582E43413F583EDF0EF7004D2B6
:10936C00C38006EFB40102D284A20092010294C819
:1094960090137CE0600614F07002C2C390137DE066
:0994A600600614F07002C2842279
:1000A600000000384492BAFE828244380000000004
:1000B60000000038448282FEBA92443800000000F4
:1000C6000000003854AAAAAAC692443800000000CC
:1000D600000000384482AAF68A82443800000000F4
:1000E60000003C42A599FF99A5423C000000000093
:1000F60000000000000000000003030000000000F4
:100106000003030F0F3F3FFFFFFFFF00000000004B
:1001160000000000422418182442000000000000DD
:100126000000003844BAC6AAAAAA54380000000043
:1001360000000000000000000000000000000000B9
:100146000000183C3C3C1818180018180000000065
:10015600006363632200000000000000000000004E
:1001660000000036367F3636367F36360000000011
:100176000C0C3E6361603E030343633E0C0C0000BF
:1001860000000000006163060C18336300000000E5
:100196000000001C36361C3B6E66663B0000000005
:1001A6000030303060000000000000000000000059
:1001B60000000C18183030303018180C0000000001
:1001C6000000180C0C060606060C0C1800000000B1
:1001D6000000000042663CFF3C6642000000000052
:1001E60000000000181818FF18181800000000007A
:1001F6000000000000000000000018181830000081
:1002060000000000000000FF0000000000000000E9
:1002160000000000000000000000181800000000A8
:1002260000000103070E1C3870E0C08000000000CB
:1002360000003E6363636B6B6363633E0000000014
:1002460000000C1C3C0C0C0C0C0C0C3F00000000BD
:1002560000003E6303060C183061637F0000000057
:1002660000003E6303031E030303633E0000000019
:100276000000060E1E3666667F06060F00000000AA
:1002860000007F6060607E030363733E0000000031
:1002960000001C3060607E636363633E0000000004
:1002A60000007F630306060C0C18181800000000F7
:1002B60000003E6363633E636363633E00000000C9
:1002C60000003E636363633F0303063C00000000D7
:1002D60000000000001818000000181800000000B8
:1002E6000000000000181800000018181830000060
:1002F600000000060C18306030180C0600000000E4
:100306000000000000007E00007E000000000000EB
:100316000000006030180C060C1830600000000069
:1003260000003E6363060C0C0C000C0C0000000081
:1003360000003E63636F6B6B6E60603E0000000002
:100346000000081C366363637F636363000000007C
:1003560000007E3333333E333333337E00000000F8
:1003660000001E33616060606061331E00000000A3
:1003760000007C36333333333333367C00000000E1
:1003860000007F3331343C343031337F00000000CD
:1003960000007F3331343C343030307800000000C8
:1003A60000001E336160606F6363371D000000004C
:1003B6000000636363637F6363636363000000003D
:1003C60000003C18181818181818183C00000000EF
:1003D60000000F06060606060666663C00000000DC
:1003E6000000733336363C36363333730000000074
:1003F60000007830303030303031337F000000007C
:10040600000063777F6B63636363636300000000D0
:1004160000006363737B7F6F6763636300000000A4
:1004260000001C36636363636363361C00000000D0
:1004360000007E3333333E30303030780000000029
:1004460000003E6363636363636B6F3E06070000F1
:1004560000007E3333333E363633337300000000FC
:1004660000003E6363301C060363633E0000000029
:100476000000FFDB991818181818183C0000000037
:1004860000006363636363636363633E00000000AD
:10049600000063636363636363361C080000000047
:1004A600000063636363636B6B7F36360000000096
:1004B6000000C3C3663C18183C66C3C300000000B6
:1004C6000000C3C3C3663C181818183C000000009F
:1004D60000007F6343060C183061637F0000000054
:1004E60000003C30303030303030303C000000000E
:1004F600000080C0E070381C0E07030100000000F9
:1005060000003C0C0C0C0C0C0C0C0C3C000000000D
:10051600081C366300000000000000000000000018
:10052600000000000000000000000000FF000000C6
:1005360018180C0000000000000000000000000079
:1005460000000000003C46063E66663B00000000D8
:1005560000007030303C36333333336E0000000019
:1005660000000000003E63606060633E0000000023
:1005760000000E06061E36666666663B0000000034
:1005860000000000003E63637E60633E00000000E2
:1005960000001C3632307C303030307800000000ED
:1005A60000000000003B666666663E06663C00008C
:1005B6000000703030363B333333337300000000B5
:1005C60000000C0C001C0C0C0C0C0C1E0000000097
:1005D60000000606000E060606060666663C0000D5
:1005E60000007030303333363C3633730000000081
:1005F60000001C0C0C0C0C0C0C0C0C1E000000005B
:1006060000000000006E7F6B6B6B6B6B00000000E0
:1006160000000000006E3333333333330000000034
:1006260000000000003E63636363633E0000000059
:1006360000000000006E333333333E303078000064
:1006460000000000003B666666663E06060F000078
:1006560000000000006E3B333030307800000000B0
:1006660000000000003E63380E03633E00000000F9
:1006760000000818187E181818181B0E0000000035
:1006860000000000006666666666663B00000000C5
:100696000000000000636336361C1C0800000000E2
:1006A60000000000006363636B6B7F360000000090
:1006B600000000000063361C1C1C366300000000AE
:1006C600000000000063636363633F03063C0000B1
:1006D60000000000007F660C1830637F00000000F9
:1006E60000000E18181870181818180E00000000D0
:1006F6000000181818181800181818181800000004
:100706000000701818180E1818181870000000004D
:1007160000003B6E0000000000000000000000002A
:100726000070D8D870000000000000000000000033
:100736000000C6C66676DCCCC6C600000000000017
:100746000000F80C0C0C0C0C0CFE00000000000065
:1007560000007018181818386C66000000000000B9
:100766000000FE0C0C0C0C0C0C0C00000000000031
:1007760000007C060606666666660000000000004D
:1007860000001818181818181818000000000000A3
:1007960000007818303030303030000000000000A3
:1007A6000000FCC6C6C6C6C6C6C6000000000000DD
:1007B6000000CCC6C6C6C6C6C67C00000000000047
:1007C60000001818181800000000000000000000C3
:1007D60000007018181818181818180000000000E3
:1007E60000007C0606060606067C000000000000E7
:1007F600C0C0FC060606060C181800000000000023
:100806000000FC66C6C6C6C6C6FE000000000000A4
:100816000000DC7666C6C6C6C6DC00000000000026
:1008260000001818181818181818181818000000BA
:100836000000380C0C0C0C0C0C3C000000000000F6
:1008460000007C66C6C6C6C6CC7800000000000064
:1008560000006666663636361C7000000000000032
:100866000000F84CCCCCCC6C0C0C0C0C0E00000030
:100876000000FC46C6C6E606867C000000000000B6
:1008860000666C38181818181818000000000000C8
:100896000000EE666634180C06FE0000000000003C
:1008A6000000FC060666646C6E6060600000000076
:1008B6000000F80C0C0C0C0C0C0C000000000000E6
:1008C6000000D6D6D6D6D6F6E67C0000000000009C
:1008D6000000FC6666666666E6E60000000000004C
:104B7D00410CA300410CA000C11742089E0000414A
:074B8D000CA1FF410CA2FF87
:10939C007590FFC2C4D2CBD2CA0000E59030E7036F
:0C93AC00D38001C39202C2CA0000A202DA
:0193B8002292
:1095130012939C40FBC2C4C2CBC2CA00008F90000E
:0895230000D2CA0000C2CA22F6
:0C929300E0FBA3E0FAA3E0F91209DCFF05
:10929F0012939C40FBD2C4C2CBC2CA8F900000D2A3
:0692AF00CA0000C2CA2241
:1091BE00C2CA7F30129513000012951300007F0C67
:1091CE0012951300007F0112951300007F06129571
:0491DE001300002258
:10942D007F0112951300007B017A0879A07D007CE5
:0B943D0004128E0F7DFF7FFF02979846
:0B7EBE00901124EBF0A3EAF0A3E9F020
:107EC9002400F9EA3402FA901128EBF0A3EAF0A3AE
:107ED900E9F0E4901127F07F36129513901127E00D
:107EE9004480FF1295137F801295137F30129513EA
:107EF9003013031259DBE4FE90112412929390116E
:107F090025E475F001120ABD0EEEB410EB7E109057
:107F19001128129293901129E475F001120ABD0EED
:107F2900EEB420EB901127E004F0E0C3942040A7C1
:017F39002225
:107B1700AE077F36129513EDD394014006ED24FE90
:107B2700FF8002AF05EFC454F0240F4480FF129585
:107B370013EEC313FFEDD3940140047C0880027C4D
:107B470000EF2C4480FF1295137F30129513EE300F
:107B5700E02175F000EDA4248FF582E5F03409F5F6
:107B6700832DF583E5822EF582E43583F583E0FFE7
:107B770012929F3000047FFF801E75F000EDA42451
:107B870090F582E5F03409F5832DF583E5822EF52E
:0B7B970082E43583F583E0FF02929F3B
:1093B9001209DCFF6015640A6011EFD39480400242
:0D93C900D322740129F9E43AFA80E5C322A9
:10971C00900CA3E004F0E05403F0E4900CA0F022D1
:0B63F600901124EBF0A3EAF0A3E9F003
:106401001293B99216901124A3E0FAA3E04A700303
:10641100026542901124E0FBA3E0FAA3E0F912091E
:10642100DCFF7003026542640A7003026542901149
:1064310028EFF0900CA0E004F0E0D3941040031298
:10644100971C90112974FFF0A37403F0A37426F034
:10645100901128E0FFC39420406EEFD39480501038
:10646100EF75F010A42436F974FF35F0FAA3804FCC
:10647100901125E475F001120ABD901128E07F000A
:10648100FE901124E0FBA3E0FAA3E0F91209DC2F4E
:10649100FFE43EFEC3EF9490EE94D7402BD3EF94EC
:1064A100ABEE94D75022EFC4F8540FC868FFEEC486
:1064B10054F048FE74362FF9748E3EFA9011297407
:1064C100FFF0A3EAF0A3E9F0900CA0E060071490BC
:1064D1001127F0800AE4901127F0900CA004F0300D
:1064E100160A901127E0FFC3740F9FF0E4FF90118B
:1064F10029E0FBA3E0FAA3E0F98F8275830012097A
:10650100F5FE900CA3E0C454F02F75F010A424A064
:10651100F582E5F03408F583C083C082901127E04D
:10652100D082D0832582F582E43583F583EEF00FA6
:10653100EFB410BA901125E475F001120ABD02649E
:016541001445
:016542002236
:08811900901089EFF0A3EDF0D6
:10812100EB75F010A424A6F9740035F0FA90108DC7
:1081310074FFF0A3EAF0A3E9F0E4FF90108DE0FBF7
:10814100A3E0FAA3E0F98F827583001209F5FE908E
:10815100108CE05EFE901089E0C454F02F75F01091
:10816100A424A0F582E5F03408F583C083C0829091
:10817100108AE0D082D0832582F582E43583F583AD
:07818100EEF00FEFB410B4A3
:0181880022D4
:10958600900CA3EFF0900CA0EDF01263F67B017A3D
:069596000879A0027EBE70
:1096E70090108C74FFF01281197B017A0879A0021F
:0296F7007EBE35
:0A848F00901389EFF0A3EDF0AC03A9
:10849900E4A3F0EC75F00584FCD3940540027C0557
:1084A9007E01EEC39C500F90138BE01313543FF0E1
:1084B90044C0F00E80EC901389E0FFA3E0FDECD3FB
:1084C900940040047EFF80027E0090108CEEF07BC9
:1084D90004128119901389E0FFA3E004FDA3E09041
:1084E900108CF07B051281197B017A0879A0027E34
:0184F900BEC4
:09979800900CA1EDF0A3EFF0220A
:108C0100900CA1E0FFF46029A3E0FDF4602390083B
:108C11009EE475F001120ABDABF0FABA0113BB2C48
:108C210010E490089EF0A3F0A2179200127B17B2F5
:028C3100172208
:10367A004F4B002B4350494E3A204E4F5420494E4F
:10368A00534552544544004552524F52002B435021
:10369A00494E3A205245414459002B4350494E3A2B
:1036AA00204E4F542052454144590025642C25642C
:1036BA000061742B6370696E3F2072657475726E57
:1036CA00202562640D0A002B435245473A20002503
:1036DA0062642C256264004174436D6443625F63D3
:1036EA007265673A202562642C2562640D0A0061BE
:1036FA00742B637265673F2072657475726E20253C
:10370A0062640D0A002B4353513A20004174436D01
:10371A006443625F6373713A202562642C25626494
:10372A000D0A0061742B6373713F207265747572A0
:10373A006E202562640D0A0041540D0A0041542B83
:10374A004350494E3F0D0A0041542B434F50533DBD
:10375A00300D0A0041542B435245473F0D0A0041A0
:10376A00542B434C43433D310D0A0041542B434DE6
:10377A0047463D310D0A0041542B434C564C3D34CB
:10378A000D0A0041542B4353510D0A0041542B4357
:10379A00504F460D0A0047534D5F5265706F77656B
:1037AA00720D0A0047534D5F496E69743A310D0A2A
:1037BA000047534D5F4765744373710D0A004154C6
:1037CA002B434C564C3D2562640D0A0047534D5F0E
:1037DA00536574566F6C756D2028256264293A20EA
:1037EA0025730D0A00415444003B0D0A0041542B35
:1037FA00434855500D0A0047534D5F496E69743A64
:10380A00320D0A0047534D5F496E69743A330D0A07
:10381A000047534D5F496E69743A340D0A004753A5
:10382A004D5F4174436D643A256264202D20256200
:10383A00640D0A00415420636D64206578656375E0
:10384A0074652031306564204661696C203A202510
:10385A006264205B25735D20210D0A0043616C6C54
:10386A004F757454696D653A2025640D0A004154F8
:10387A002B434C43430D0A004154410D0A004E4F5D
:10388A00524D414C20504F57455220444F574E00FD
:10389A00554E4445522D564F4C5441474520504FA2
:1038AA0057455220444F574E004E4F204449414CF1
:1038BA00544F4E45004E4F20434152524945520003
:1038CA0052494E47002B434C43433A20002B445461
:1038DA004D463A20002B525844544D463A20002B6C
:1038EA00434F4C503A002B51544F4E454445543A9D
:1038FA000041542B434D47533D002B434D47533A08
:10390A0000727370547970653A256264202D2025FF
:10391A00640D0A002562642C2562642C2562640009
:10392A00434C43433A202562640D0A000D0A2D2DAB
:10393A002D2D50614F70656E2D2D2D2D0D0A0025F0
:10394A0062640044544D463A202562640D0A00FF21
:10395A00367DFF3691FF3697FF36A4FF3691FF3644
:10396A00D1FF3691FF370FFF3888FF389AFF38B3F7
:10397A00FF38BFFF38CAFF38CFFF38D7FF38DFFF1D
:10398A0038E9FF38F0FF38FBFF3904FF369141541C
:0B399A002B5654533D2230220D0A0032
:104B9400411270FF411277FFC10BC10CC10A4112CF
:104BA400550041125600411257004112580041125B
:104BB40059004112A9FF4112AA0060301279FF374F
:104BC40042FF8CF7FF3747FF5CDEFF3752FF8CF75D
:104BD400FF375EFF5FCAFF3769FF8D26FF3775FF1A
:104BE4008CF7FF3781FF8CF7FF378DFF613A421254
:104BF400730000421271000042126E0000411278EC
:014C040000AF
:108CF7009010D874FFF0A37436F0A3747AF0126F53
:108D070066EFF47002EEF460037F0422901255E0E0
:0E8D170004F0C3940A4005E4F07FFF227F00C1
:018D2500222B
:105CDE00E490107CF074FFA3F0A3F0E4A3F0A3F023
:105CEE00A3F0A3EBF0A3EAF0A3E9F0E4901081F0A7
:105CFE00901081E0FFC394044003025DC3EF75F082
:105D0E0003A42459F582E43439F583E493F974013C
:105D1E0093FA7402939010D8C9F0A3EAF0A3E9F0B5
:105D2E00901082E0FBA3E0FAA3E0F9126F66EFF4A5
:105D3E007002EEF46076901081E0FF7E0090107D90
:105D4E00EEF0A3EFF06401706C90107DE0FEA3E026
:105D5E0090395975F003120D3DEE75F003A42583AD
:105D6E00F583E493FB740193FA740293F912904C49
:105D7E007E00901082E0FBA3E0FAA3E02FF9EE3A4A
:105D8E00FA9010D874FFF0A37436F0A374B5F0A394
:105D9E007401F0A37410F0A3747FF0A37401F0A348
:105DAE007410F0A37480F0123A2E8009901081E0E6
:105DBE0004F0025CFE90107DE0FEA3E0FFEE707337
:105DCE00EF1460401460601460112403706590102D
:105DDE007C74FFF090127714F08058901256E0C346
:105DEE00940A400D90107C74FFF0E4901256F080EF
:105DFE000BE490107CF0901256E004F09012777441
:105E0E00FDF0802F901256E0C3940A400D90107C46
:105E1E0074FFF0E4901256F08019E490107CF0902C
:105E2E001256E004F0800C90127774FCF090107C07
:105E3E007404F07BFF7A3679BB90107CE0901127CA
:095E4E00F0122D1990107CE0FF08
:015E57002228
:105FCA00E490107CF074FFA3F0A3F0E4A3F0A3F034
:105FDA00A3F0A3EBF0A3EAF0A3E9F0E4901081F0B8
:105FEA00901081E0FFC3940240030260D7EF75F07E
:105FFA0003A42465F582E43439F583E493F9740142
:10600A0093FA7402939010D8C9F0A3EAF0A3E9F0C6
:10601A00901082E0FBA3E0FAA3E0F9126F66EFF4B6
:10602A007002EEF470030260CE901083EE8FF012CD
:10603A000ABD901081E0FF7E0090107DEEF0A3EF84
:10604A00F0640160030260D790107DE0FEA3E09047
:10605A00396575F003120D3DEE75F003A42583F53D
:10606A0083E493FB740193FA740293F912904C7EC1
:10607A0000901082E0FBA3E0FAA3E02FF9EE3AFACF
:10608A009010D874FFF0A37436F0A374D9F0A374F7
:10609A0001F0A37410F0A3747FF0A37401F0A37449
:1060AA0010F0A37480F0123A2E7BFF7A3679E190D1
:1060BA00107FE0901127F0901080E0901128F012E4
:1060CA002D198009901081E004F0025FEA90107D9A
:1060DA00E0FEA3E0FFEE7041EF14600E04703A9008
:1060EA001257E0C3941440268017901080E0B40140
:1060FA000790107C7404800E901257E0C3941440E9
:10610A000D90107C74FFF0E4901257F0800BE4902D
:10611A00107CF0901257E004F07BFF7A3679F99000
:0F612A00107CE0901127F0122D1990107CE0FFEF
:016139002243
:10613A00E490107CF074FFA3F0A3F0E4A3F0A3F0C2
:10614A00A3F0A3EBF0A3EAF0A3E9F0C20AE49010EB
:10615A0081F0901081E0FFC394024003026249EF8C
:10616A0075F003A4246BF582E43439F583E493F9DA
:10617A00740193FA7402939010D8C9F0A3EAF0A3B9
:10618A00E9F0901082E0FBA3E0FAA3E0F9126F664F
:10619A00EFF47002EEF47003026240901083EE8F07
:1061AA00F0120ABD901081E0FF7E0090107DEEF0A3
:1061BA00A3EFF06401600302624990107DE0FEA340
:1061CA00E090396B75F003120D3DEE75F003A425CE
:1061DA0083F583E493FB740193FA740293F91290A2
:1061EA004C7E00901082E0FBA3E0FAA3E02FF9EEC8
:1061FA003AFA9010D874FFF0A37436F0A374D9F069
:10620A00A37401F0A37410F0A3747FF0A37401F0D7
:10621A00A37410F0A37480F0123A2E7BFF7A3779B8
:10622A001690107FE0901127F0901080E0901128CE
:10623A00F0122D198009901081E004F002615C903F
:10624A00107DE0FEA3E0FFEE7038EF1460240470C6
:10625A0031901258E0B40A0D90107C74FFF0E4906B
:10626A001258F0801DE490107CF0901258E004F06F
:10627A00801090107FE0901277F0D20B90107C740F
:10628A0004F07BFF7A37792D90107CE0901127F08B
:08629A00122D1990107CE0FFA9
:0162A20022D9
:108D26009010D874FFF0A37436F0A3747AF0126F23
:108D360066EFF47002EEF460037F0422901259E0AD
:0E8D460004F0C3940A4005E4F07FFF227F0092
:018D540022FC
:1091E2007BFF7A377996128BCE901270740AF090C8
:1091F20012757407F0A374D0F0D20B7BFF7A377923
:04920200A0022D1980
:1092B500D2F89012757403F0A374E8F090127074EC
:1092C50001F090127774FFF0D20BFB7A3779AE027A
:0292D5002D1951
:108E9200901270E0640760219012757403F0A3745D
:108EA200E8F09012707404F09012A97407F0D20ADC
:0A8EB2007BFF7A3779BB122D1922DD
:107DBB00901088EFF09012757403F0A374E8F090B4
:107DCB0012707404F09012A97406F090112774FFCE
:107DDB00F0A37437F0A374C8F0A3EFF07B017A1211
:107DEB00795A122D139012A9E0FF75F006A424798D
:107DFB00F582E43412F5837401F0A37412F0A374CA
:107E0B005AF0901088E0901127F0EF75F006A4243B
:107E1B0079F582E43412F583E0F9A3E0FAA3E0905C
:107E2B001128C9F0A3EAF0A3E9F07BFF7A3779D6E2
:037E3B00022D19FC
:108565009010B4EBF0A3EAF0A3E9F0901270E0FFED
:1085750064056008EF64096003300A467BFF7A37BB
:1085850079EF128BCE9010B4E0FBA3E0FAA3E0F9EB
:10859500128BCE7BFF7A3779F3128BCE9011B4E034
:1085A500FF901273E4F0A3EFF0A37403F0A374E853
:1085B500F09012707406F0C20CE4901278F0D2803C
:0485C500D322C322D8
:1094AF00D2807BFF7A3779F7128BCE9012707405CA
:0994BF00F0E490126EF0A3F0221B
:10301300901270E0B40B004003023348903026F85E
:1030230028287302306E0230820230AE0230DA0298
:1030330031530231DD0231F102327C0232DA0232E3
:10304300F302304790127574FFF5F0120ABD45F094
:103053006003023348C2F8901275743AF0A374986F
:10306300F0E4901270F09012AAF02290127574FF9F
:10307300F5F0120ABD45F060030233480292B590A1
:10308300127574FFF5F0120ABD45F0600302334870
:10309300D2C19012757404F0A374B0F090127074DE
:1030A30002F07BFF7A3879010231AB90127574FF1D
:1030B300F5F0120ABD45F06003023348C2C1901215
:1030C300757402F0A37458F09012707403F07BFFD0
:1030D3007A38790E0231AB90127574FFF5F0120A4B
:1030E300BD45F060030233489012707404F0E4901D
:1030F30012A9F0A3F090112774FFF0A37437F0A383
:1031030074C8F09011BAE090112AF07B017A127919
:103113005A122D1390129D7401F0A37412F0A3742C
:103123005AF09012A9E075F006A42479F582E434EC
:1031330012F583E0FBA3E0FAA3E0F9128BCE901221
:10314300757407F0A374D0F07BFF7A38791B80582D
:1031530090127574FFF5F0120ABD45F06003023357
:10316300489012AAE004F0C394159012A9E0503BD2
:1031730075F006A42479F582E43412F583E0FBA309
:10318300E0FAA3E0F9128BCE9012757407F0A374E2
:10319300D0F07BFF7A3879289012A9E0901127F0BC
:1031A3009012AAE0901128F0022D19901127F075C2
:1031B300F006A42479F582E43412F583E0F9A3E060
:1031C300FAA3E0901128C9F0A3EAF0A3E9F07BFF8A
:1031D3007A38793E122D190291E290127574FFF537
:1031E300F0120ABD45F06003023348028E9290123A
:1031F3007574FFF5F0120ABD45F060030233489081
:1032030012757403F0A374E8F07BFF7A3879669043
:103213001273E0FFA3E0901127CFF0A3EFF0122D7C
:103223001990127374FFF5F0120ABD45F070411244
:1032330094AFE490126EF0A3F09011CEE075F00C11
:10324300A42487F9741135F0FA7B0112904CEFD363
:10325300940040109012707409F0901273E4F0A37C
:103263007402F02212961F90114DE4F0A37405F03E
:103273007BFF7A387978028BCE90127574FFF5F064
:10328300120ABD45F060030233489012757403F0CF
:10329300A374E8F090127174FFF5F0120ABD45F0C3
:1032A30060030233487BFF7A387982128BCE901108
:1032B300CD7415F09012707408F0C2809011B1E0D3
:1032C300FFA3E090126ECFF0A3EFF09011BAE0FFEE
:1032D30090119FF0027DBB90127574FFF5F0120AF6
:1032E300BD45F070609012757403F0A374E8F0228A
:1032F30090127574FFF5F0120ABD45F070479012F5
:10330300757403F0A374E8F090127374FFF5F01270
:103313000ABD45F0702F9011CEE0C39402501BE01C
:1033230004F07B017A11794FE0FD12705E50E79053
:1033330011CD7414F07F0E0279681294AF7F0812D6
:063343007968128EBC2225
:1018430074FF90107FF0A3F0E4A3F0A3F0A3EBF0F8
:10185300A3EAF0A3E9F0E4901081F0A3F0901081E3
:10186300E0FEA3E0FFC3940DEE64809480505F908C
:10187300397175F003EF120D3DEE75F003A4258366
:10188300F583E493F9740193FA7402939010D8C921
:10189300F0A3EAF0A3E9F0901083E0FBA3E0FAA33E
:1018A300E0F9126F66EFF47002EEF46011901081AC
:1018B300E0FFA3E090107FCFF0A3EFF08010901033
:1018C30082E004F07097901081E004F0808F7BFF3A
:1018D3007A39790B901270E0901127F090107FE025
:1018E300FFA3E0901128CFF0A3EFF0122D19901071
:1018F3007FE0FEA3E0FFEE6003021CCCEFB40A001E
:101903004003021CCC90190FF828287302192D02EA
:10191300192D02192D02194E0219890219B0021A42
:10192300EE021B90021CCC021C2E901270E0FF648E
:10193300066009EF64086004EFB4090C12965E9028
:10194300114DE4F0A37405F00291E2901270E0B43B
:1019530006269011CEE075F00CA42487F974113596
:10196300F0FA7B0112904CEFD39400400B9012706D
:101973007409F09012738026901270E0640970036A
:10198300021CCC021AE3901270E064077003021C7D
:10199300CC7407F09011B3E0B4010A901271E4F033
:1019A300A37402F0221294AF7F0802796890398001
:1019B300E493F9740193FA7402939010D8C9F0A3D5
:1019C300EAF0A3E9F0901083E0FBA3E0FAA3E0F9C7
:1019D300126F66901081EEF0A3EFF0901081E0F4A7
:1019E3007003A3E0F47003021CCC903980E493FBF2
:1019F300740193FA740293F912904C901082E02FC1
:101A0300FF901081E034009010848FF0120ABD9093
:101A130010D874FFF0A37439F0A3741EF0A37401FB
:101A2300F0A37410F0A37481F0A37401F0A37410F5
:101A3300F0A37486F0A37401F0A37410F0A3748769
:101A4300F0901083E0FBA3E0FAA3E0F9123A2E7BB7
:101A5300FF7A39792A901087E0901127F0122D1917
:101A6300901087E070319011CD7415F0901270745E
:101A730008F0E4901273F0A3F09011B1E0FFA3E03B
:101A830090126ECFF0A3EFF09011BAE0FF90119F88
:101A9300F0127DBBC28022901087E06403702B207C
:101AA3000C0FD20C9011B4E0FF901273E4F0A3EF8B
:101AB300F0901278E004F064056003021CCC7BFF15
:101AC3007A397936122D19C28022901087E0640684
:101AD3006003021CCC901270E064097003021CCCFA
:101AE3001294AF7F08127968028EBC903983E49315
:101AF300F9740193FA7402939010D8C9F0A3EAF031
:101B0300A3E9F0901083E0FBA3E0FAA3E0F9126FDE
:101B130066901081EEF0A3EFF0901081E0F4700373
:101B2300A3E0F47003021CCC903983E493FB7401AB
:101B330093FA740293F912904C901082E02FFF9065
:101B43001081E034009010848FF0120ABD9010D8F9
:101B530074FFF0A37439F0A37449F0A37401F0A3E4
:101B63007410F0A37487F0901083E0FBA3E0FAA352
:101B7300E0F9123A2E901087E0FE24D0901377F00C
:101B83007BFF7A39794D901127EE021CC890398674
:101B9300E493F9740193FA7402939010D8C9F0A3F3
:101BA300EAF0A3E9F0901083E0FBA3E0FAA3E0F9E5
:101BB300126F66901081EEF0A3EFF0901081E0F4C5
:101BC3007003A3E0F47003021CCC903986E493FB0A
:101BD300740193FA740293F912904C901082E02FDF
:101BE300FF901081E034009010848FF0120ABD90B2
:101BF30010D874FFF0A37439F0A37449F0A37401EF
:101C0300F0A37410F0A37487F0901083E0FBA3E0BB
:101C1300FAA3E0F9123A2E901087E0901377F07B45
:101C2300FF7A39794D901127021CC890398CE493BF
:101C3300F9740193FA7402939010D8C9F0A3EAF0EF
:101C4300A3E9F0901083E0FBA3E0FAA3E0F9126F9D
:101C530066901081EEF0A3EFF0901081E0F4700332
:101C6300A3E0F4606490398CE493FB740193FA74F9
:101C73000293F912904C901082E02FFF901081E0B4
:101C830034009010848FF0120ABD9010D874FFF0C6
:101C9300A37439F0A37449F0A37401F0A37410F092
:101CA300A37487F0901083E0FBA3E0FAA3E0F9129A
:101CB3003A2E901087E024D0901377F07BFF7A3987
:091CC300794D901127F0122D1942
:011CCC0022F5
:0B69190090107CEBF0A3EAF0A3E9F083
:1069240090107CE0FBA3E0FAA3E0F9AE04AF058F7E
:10693400828E83E4120A34901270E06404600302CD
:106944006A2B9012A9E0FFC394084003026A2BEF5C
:1069540075F006A4247CF582E43412F583A3E0FAEE
:10696400A3E04A7003026A3990107CE0FBA3E0FACA
:10697400A3E0F9C0029012A9E075F006A4247CF506
:1069840082E43412F583A3E0FAA3E0F5828A83D08B
:1069940002120D73EF24FC600B2405606F24FE606B
:1069A40003026A39E49012AAF09012A9E004C39495
:1069B40008503FE004F0E075F006A42479F582E481
:1069C4003412F583E0FBA3E0FAA3E0F9128BCE9036
:1069D40012757403F0A374E8F07BFF7A3879289079
:1069E40012A9E0901127F09012AAE0901128F00269
:1069F4002D199012757427F0A37410F0901270740E
:106A040005F09011CDE06415702B80079011CDE056
:106A1400B415119012757403F0A374E8F090127019
:106A24007408F0220291E290107CE0FBA3E0FAA348
:056A3400E0F912184317
:016A3900223A
:058E670090107EEFF009
:108E6C00787F7C107D017BFF7A3979987E007F0DAD
:108E7C001209B690107EE02430901087F07B017AB6
:068E8C0010797F028BCE7D
:106E690025732562643A00257325750025732573FA
:106E790000257500446F776E6C6F6164204E616DFB
:106E8900656C697374204572723A28206E6F74209C
:106E9900696E2073657474696E672029210D0A0073
:106EA900433A002564005265764E616D656C6973DD
:106EB9007428436E743A2564290D0A00523A002554
:106EC900753B004E3A0054313A0054323A0054337B
:106ED9003A004964783A25642D282564293B2052D3
:106EE9003A25753B204E3A25733B2054313A257398
:106EF9003B2054323A25733B2054333A25733B0DDA
:106F09000A00446F776E6C6F6164204E616D656C29
:106F1900697374204F4B21202328257529230D0AD5
:106F290000446F776E6C6F6164204E616D656C69AA
:106F39007374204572723A28257523257529210D08
:106F49000A00969798939495909192A09FA19C9EE0
:0D6F59009D999B9AA8A9AAA6A5A7A2A4A3EA
:104C05004112FF0041130000C11A4212AD000041DC
:074C150012AC004112ABFFDD
:10922A00C374A994A7FF74119411CF2480CF34007A
:10923A00FE7B017A1179A990112AE4F0A37402F055
:03924A00027BA202
:0A000E00E49011A9F0A3F002922A79
:10969B00D39011AAE094649011A9E09400400312B6
:0396AB00000E228C
:0B8A0D009010D5E0FBA3E0FAA3E0F915
:0B8A1800901122EBF0A3EAF0A3E9F0BC
:108A23007C007D50120A56E42FFFEE3401FE9011B4
:108A330022E0FBA3E0FAA3E0F990112AE4F0A37487
:058A430050F0027BA2CF
:0B8CC700901122EBF0A3EAF0A3E9F00B
:108CD2007C007D50120A56E42FFFEE3401FE901103
:108CE20022E0FBA3E0FAA3E0F990112AE4F0A374D6
:058CF20050F00285C9ED
:0B882D009010D0EBF0A3EAF0A3E9F0FC
:1088380074FFA3F0A3F07D01127C2D9010D3EEF00D
:10884800A3EFF0F47002EEF4601F9010D3E0FEA3E3
:10885800E0FF9010D0E0FBA3E0FAA3E0F9128CC788
:0D8868009010D3E0FEA3E0FF227EFF7FFF13
:0188750022E0
:0B802B009010D5EBF0A3EAF0A3E9F001
:1080360074FFA3F0A3F0120AE9FFAEF07D01127CF3
:108046002D9010D8EEF0A3EFF0F47002EEF4601469
:108056009010D8E0FEA3E0FF128A0D9010D8E0FE43
:10806600A3E0FF229011A9E0FEA3E0FFC39464EE13
:1080760094005023128A0D9011AAE004F070069025
:1080860011A9E004F012922A9011AAE024FFFF90B1
:0B80960011A9E034FFFE227EFF7FFFF7
:0180A10022BC
:088189009010D0EEF0A3EFF01E
:108191009011A9E0FCA3E0FDD39FEC9E4058ED2493
:1081A100FFFFEC34FFFE9010D0E0B50616A3E0B55A
:1081B10007119011AAE024FFF09011A9E034FFF01B
:1081C10002922A9011AAE024FFF09011A9E034FF55
:1081D100F012922A9011A9E0FEA3E0FF7B017A1030
:1081E10079D2128CC79010D0E0FEA3E0FF7B017A18
:0681F1001079D2128A1879
:0181F7002265
:10970B007D01127C2DEFF47002EEF460031281895F
:01971B00222B
:0B4475009010D0EBF0A3EAF0A3E9F0F8
:1044800012942D2000030245A39010D0A3E0FAA3BC
:10449000E0242CF9E43AFA901123E075F00CA429F9
:1044A000F9EA35F0FED3E99400EE94005003024699
:1044B000CAE4F0901123E0FFC3940340030246CA0C
:1044C00090112774FFF0A3746EF0A37469F0A374C5
:1044D000FFF0A37429F0A374BFF0EF04A3F07B01F5
:1044E0007A1079D3122D13901123E004FF7B017A07
:1044F0001079D3E4FD1295869010D0E0FBA3E0FA8A
:10450000A3E0242CF9E43AFA901123E075F00CA40E
:1045100029F9EA35F0FAE004FF7D0512958690113D
:1045200023E0FF2402FE9012FFE06E706D9011CD2B
:10453000E0FE64046005EE6405705F9010D0E0FB5F
:10454000A3E0FAA3E0242CF9E43AFAEF75F00CA406
:1045500029F9EA35F0FA12904CEF2405FD90112369
:10456000E004FF1297989010D0E0FBA3E0FAA3E0DC
:10457000242CF9E43AFA901123E075F00CA429F9FF
:10458000EA35F0FA12904CEF2405C3940F400B90DB
:104590001123E004FF7D0F129798901123E004F09F
:1045A0000244B39010D0E0FBA3E0FAA3E0F9120AB2
:1045B000E9D39400E5F0940040717BFF7A2979AE4D
:1045C000E4FD7F0112958690112774FFF0A3746EAD
:1045D000F0A37470F0A374FFF0A37429F0A374AE79
:1045E000F09010D0E0FBA3E0FAA3E0F9120AE9FF93
:1045F00090112DE5F0F0A3EFF07B017A1079D31242
:104600002D137B017A1079D3E4FD7F0112958690FA
:1046100012FFE070469011CDE0FF64046005EF6486
:104620000570387B017A1079D380267BFF7A29794F
:10463000AEE4FD7F011295869012FFE0701D90118F
:10464000CDE0FF64046004EFB405107BFF7A2979A4
:10465000AE12904CAD077F0112979890112774FF0E
:10466000F0A3746EF0A37475F0A374FFF0A3742923
:10467000F0A374B9F09010D0E0FBA3E0FAA3E0241B
:1046800002F9E43AFA90112DEBF0A3EAF0A3E9F075
:104690007B017A1079D3122D137B017A1079D3E440
:1046A000FD7F021295869012FFE0B4011D9011CD9E
:1046B000E0FF64046004EFB405107B017A1079D345
:0A46C00012904CAD077F021297988C
:0146CA0022CD
:100026007B017A1279AF7D507C00128E0FE490121C
:10003600FFF0A3F09011CD7404F07B017A1279AF32
:05004600C20002447538
:10759C009012FFE014605124FC400302763B700310
:1075AC000276562405600302765BE49012FFF0A38A
:1075BC00F09012AFE0FFA3E090107ECF80249010EB
:1075CC007EE0FEA3E0FFD39400EE9400500302761D
:1075DC005B901300E004F07C007D0A120A689010A6
:1075EC007EEEF0A3EFF080D69012AFE0FEA3E0FFAA
:1075FC0090107EEEF0A3EFF07B017A107980128868
:10760C002DEFF47002EEF4601E9010D37401F0A311
:10761C007410F0A37480F0A3E4F0A37450F07B0119
:10762C007A1279AF1289077B017A1279B1801290A4
:10763C0012FFE075F00CA424C3F9741235F0FA7B38
:0F764C000112904C901300EFF02212972CC21AEB
:01765B00220C
:05253E0090107DEFF09C
:10254300640B60030225DA9012FFE06405706230C9
:102553001A137B017A1279AF7D50FC128E0FE4902F
:102563001300F0804CD39012B0E094009012AFE0CF
:10257300940040377B017A1279DB12904CEFD394AD
:102583000040287B017A1279AF12802BEFF470029E
:10259300EEF4600512960A800312961F7B017A12ED
:1025A30079AF7D507C00128E0F800312961FD21AD2
:1025B300229012FFE004F0E075F00684E5F0F012DB
:1025C300759CE49012ACF0A3F0A3F09012FFE064CA
:1025D3000560030227612290107DE0B40E1590126E
:1025E300FFE0C394045005E004F08022E49012FF5E
:1025F300F0801B90107DE0B40D1A9012FFE0D3948D
:10260300004005E014F080069012FF7404F0127588
:102613009C02275890107DE0640A600302272090F3
:1026230012FFE014603C24FC40030226E270030224
:1026330027162405600302271E901300E0D394009D
:10264300401DE014F09012AFE0FEA3E0FF7C007D9C
:102653000A120A689012AFEEF0A3EFF002271E02EF
:1026630027279012ADE07002A3E07059901300E0A9
:10267300FF24B1F582E43412F583E07048EFD3947C
:1026830000403A901300E024B1F582E43412F5835C
:10269300E4F0901300E014F0E0FF24B1F582E43499
:1026A30012F583E0D39480401C74B12FF582E43497
:1026B30012F583E4F0901300E014F08008E4901224
:1026C300FFF012759C901300E0FF24B1F582E4340F
:1026D30012F583E4F074B22FF582E434128027906C
:1026E3001300E0D394004024E014F0E0FF9012FFC5
:1026F300E075F00CA424C3F582E43412F583E5827B
:102703002FF582E43583F583E4F0800F9012FFE028
:10271300148004E49012FFF012759C803890107DB1
:10272300E0B40F030281F890107DE06463702F9092
:1027330012FFE0B40128A3E024B1F582E43412F5DA
:1027430083E0601AD394804006901300E004F09075
:102753001300E004F0E49012ACF0A3F0A3F09010A7
:102763007DE0FFC394005003022913EFD394094083
:10277300030229139012FFE0FB14605A24FC400368
:102783000228E224056003022913901300E0C39496
:1027930004502F9012AFE0FEA3E0FF7C007D0A12ED
:1027A3000A569012AFEEF0A3EFF090107DE0FF9089
:1027B30012B0E02FF09012AFE03400F0901300E07D
:1027C30004F09012AFE07002A3E0600302291390BB
:1027D3001300F002291390107DE0FF9012ABE06F1D
:1027E3006026901300E024B1F582E43412F583E00F
:1027F3006016D394804006901300E004F090130019
:10280300E004F0E49012ACF090107DE0FF701B90B8
:1028130012ACE090294A93FE901300E024B1F582B4
:10282300E43412F583EEF00228CA901300E0FE248C
:10283300B2F582E43412F583E4F09012ACE0FDEFDC
:102843006409705AEDC394025009ED2459FF74B121
:102853002E8013ED64026004EDB40315ED2477FFBD
:10286300901300E024B1F582E43412F583EFF08095
:1028730056EDB40412901300E024B1F582E434124F
:10288300F583742EF08040ED6405703B901300E0F7
:1028930024B1F582E43412F583742CF0802990106E
:1028A3007DE01475F003A42DFFEDD3940240047E64
:1028B3005E80027E41EF2EFF901300E024B1F5828B
:1028C300E43412F583EFF09012ACE004F0E075F01D
:1028D3000684E5F0F0A37403F0A374E8F08031906C
:1028E3001300E0C3940B502890107DE02430FF9038
:1028F3001300E0FE04F0EB75F00CA424C3F582E4AE
:102903003412F583E5822EF582E43583F583EFF007
:1029130090107DE09012ABF07B017A1279AF9012A8
:10292300FFE0D394014003D38001C39200124475A6
:012933002281
:109072007B017A1279AF7D507C00128E0FE4901240
:10908200FFF0A3F09011CD7405F07B017A1279AF55
:05909200C2000244755C
:05491F0090107DEFF097
:10492400640B6003024A069012FFE06402702A30AE
:104934001A177B017A1279AF7D50FC128E0FE49026
:104944001300F09012FFF080109012AFE0FEA3E08D
:10495400FF12970BD21A0296349012FFE004F0E093
:1049640075F00384AFF0EFF014604614700302494D
:10497400FD24026003024AD3E4901300F09012AFC6
:10498400E0FFA3E090107ECF802190107EE0FEA394
:10499400E0FFD39400EE94004065901300E004F02F
:1049A4007C007D0A120A6890107EEEF0A3EFF0807E
:1049B400D99012AFE0FEA3E0FF7B017A1079801258
:1049C400882DEFF47002EEF4601E9010D37401F0A1
:1049D400A37410F0A37480F0A3E4F0A37450F07BEC
:1049E400017A1279AF1289077B017A1279B1129098
:1049F4004C901300EFF0024AD312973CC21A2202E1
:104A04004AD390107DE0640A6003024ADE9012FFEC
:104A1400E014603314607424026003024AD39013D8
:104A240000E0D39400401DE014F09012AFE0FEA328
:104A3400E0FF7C007D0A120A689012AFEEF0A3EF4B
:104A4400F0024AD3024AE5E49012FFF09012B1F06A
:104A54009012AFE0FFA3E090107ECFF0A3EFF0E45C
:104A6400901300F090107EE0FEA3E0FFD39400EEDC
:104A74009400405B901300E004F07C007D0A120A6D
:104A84006890107EEEF0A3EFF080D9E49012FFF06E
:104A94009012B1F09012AFE0FFA3E090107ECFF03F
:104AA400A3EFF0E4901300F090107EE0FEA3E0FF8B
:104AB400D39400EE94004017901300E004F07C00BF
:104AC4007D0A120A6890107EEEF0A3EFF080D9E41C
:104AD4009012ACF0A3F0A3F0800A90107DE0B40F24
:104AE400030281F890107DE0FFC394004050EFD39F
:104AF4009409504A9012FFE07044A3E0C394045018
:104B04002F9012AFE0FEA3E0FF7C007D0A120A564C
:104B14009012AFEEF0A3EFF090107DE0FF9012B092
:104B2400E02FF09012AFE03400F0901300E004F0B6
:104B34009012AFE07002A3E07004901300F07B01C8
:094B44007A1279AFC20012447527
:014B4D002245
:10959C009011CD7406F012942D7BFF7A297997E403
:0695AC00FD7F010295861F
:10952B00EF24F6600E24FB600A2404700912000E6F
:07953B000296341281F822B0
:1081F8009011CD7403F012942D7BFF7A297968E4ED
:10820800FDFF1295867BFF7A297978E4FD7F0112BC
:1082180095867BFF7A297986E4FD7F021295867B15
:10822800FF7A2A796EE4FD7F0312958690112774F0
:10823800FFF0A3746EF0A3747AF09011A9E0FFA385
:10824800E090112ACFF0A3EFF07B017A1079D012D9
:0F8258002D137B017A1079D07D067F0302958666
:1092F900EF24FE601214601224F9601124FB600D42
:10930900240E700C02002602907202959C128AF7B4
:019319002231
:1092D700D39011AAE09F9011A9E09E40147B017AD8
:1092E70010797E128CC77B017A10797EC2001244F6
:0192F7007501
:0192F8002253
:10705E00901081EDF090107EEBF0A3EAF0A3E9F032
:10706E00242CF9E43AFAA3E075F00CA429F9EA35D8
:10707E00F0FA12904CEFD394005003027148901026
:10708E007EE0FBA3E0FAA3E0242CF9E43AFAA3E0B5
:10709E0075F00CA429F9EA35F0FA12856540030261
:1070AE00714612942D90107EE0FBA3E0FAA3E0242B
:1070BE0002F9E43AFA12904CEF901127703074FFF7
:1070CE00F0A3746EF0A37470F0A374FFF0A3742A8F
:1070DE00F0A374ECF090107EE0FBA3E0FAA3E0F9CD
:1070EE00120AE9FF90112DE5F0F0A3EF803174FF45
:1070FE00F0A3746EF0A37475F0A374FFF0A3742A5A
:10710E00F0A374ECF090107EE0FBA3E0FAA3E02471
:10711E0002F9E43AFA90112DEBF0A3EAF0A3E9F0AC
:10712E007B017A107982122D137B017A107982E419
:0B713E00FD7F01129586D322C322C3FF
:017149002223
:100E7E009010D2EBF0A3EAF0A3E9F09011CDE0646C
:100E8E000260147BFF7A6E797D122D19900CA7E00B
:100E9E00700302136180F590114DE4F0A3740FF00E
:100EAE009010D874FFF0A3746EF0A374A9F0901094
:100EBE00D2E0FBA3E0FAA3E0F9126F6690107CEE8D
:100ECE00F0A3EFF0F47002EEF4603AE02402FF902B
:100EDE00107CE034009010D38FF0120ABD9010D821
:100EEE0074FFF0A3746EF0A374ACF0A37401F0A3BE
:100EFE007410F0A3747EF09010D2E0FBA3E0FAA37E
:100F0E00E0F9123A2E7BFF7A6E79AF90107EE0FFF9
:100F1E00A3E0901127CFF0A3EFF0122D19E490105B
:100F2E007CF0A3F090107EE0FEA3E0FFC390107D56
:100F3E00E09FEE6480F890107CE06480984003029D
:100F4E00130E9010D874FFF0A3746EF0A374C5F056
:100F5E009010D2E0FBA3E0FAA3E0F9126F669010B6
:100F6E0080EEF0A3EFF0F47002EEF470030212F1D3
:100F7E00E02402FF901080E034009010D38FF01226
:100F8E000ABD7B017A1079827D507C00128E0F9003
:100F9E0010D874FFF0A3746EF0A374C8F0A374019C
:100FAE00F0A37410F0A37482F09010D2E0FBA3E0D3
:100FBE00FAA3E0F9123A2E9010D874FFF0A3746ED3
:100FCE00F0A374CCF09010D2E0FBA3E0FAA3E0F90A
:100FDE00126F66901080EEF0A3EFF0F47002EEF454
:100FEE007003021070E02402FF901080E034009035
:100FFE0010D38FF0120ABDE4901080F0A3F0901081
:10100E00D2E0FBA3E0FAA3E0F91209DC643B6040F6
:10101E00901080E0FEA3E0FFC3942AEE64809480DB
:10102E00502E9010D2A3E475F001120AD3A9F0FA53
:10103E001209DCFD74842FF58274103EF583EDF0F9
:10104E00901081E004F070B6901080E004F080AE55
:10105E00901080E0FEA3E02484F58274103EF583A8
:10106E00E4F09010D874FFF0A3746EF0A374CFF078
:10107E009010D2E0FBA3E0FAA3E0F9126F66901095
:10108E0080EEF0A3EFF0F47002EEF4700302111B89
:10109E00E02403FF901080E034009010D38FF01204
:1010AE000ABDE4901080F0A3F09010D2E0FBA3E014
:1010BE00FAA3E0F91209DC643B6040901080E0FE78
:1010CE00A3E0FFC3940CEE64809480502E9010D257
:1010DE00A3E475F001120AD3A9F0FA1209DCFD742B
:1010EE00AE2FF58274103EF583EDF0901081E00482
:1010FE00F070B6901080E004F080AE901080E0FEAC
:10110E00A3E024AEF58274103EF583E4F09010D87F
:10111E0074FFF0A3746EF0A374D3F09010D2E0FBC2
:10112E00A3E0FAA3E0F9126F66901080EEF0A3EF41
:10113E00F0F47002EEF470030211C6E02403FF9087
:10114E001080E034009010D38FF0120ABDE490109E
:10115E0080F0A3F09010D2E0FBA3E0FAA3E0F91226
:10116E0009DC643B6040901080E0FEA3E0FFC39476
:10117E000CEE64809480502E9010D2A3E475F00192
:10118E00120AD3A9F0FA1209DCFD74BA2FF5827493
:10119E00103EF583EDF0901081E004F070B69010E3
:1011AE0080E004F080AE901080E0FEA3E024BAF55B
:1011BE008274103EF583E4F09010D874FFF0A3749F
:1011CE006EF0A374D7F09010D2E0FBA3E0FAA3E088
:1011DE00F9126F66901080EEF0A3EFF0F47002EE4D
:1011EE00F47003021271E02403FF901080E03400CB
:1011FE009010D38FF0120ABDE4901080F0A3F090FF
:10120E0010D2E0FBA3E0FAA3E0F91209DC643B6024
:10121E0040901080E0FEA3E0FFC3940CEE64809437
:10122E0080502E9010D2A3E475F001120AD3A9F0CB
:10123E00FA1209DCFD74C62FF58274103EF583EDAB
:10124E00F0901081E004F070B6901080E004F08011
:10125E00AE901080E0FEA3E024C6F58274103EF539
:10126E0083E4F07B017A10798212802B901080EE4D
:10127E00F0FCA3EFF0FD90107DE02401FE90107CB9
:10128E00E03400901127F0A3CEF0ED2401FEE43CF3
:10129E00A3F0A3CEF0901082E0FFA3E090112BCF2D
:1012AE00F0A3EFF0A37401F0A37410F0A37484F014
:1012BE00A37401F0A37410F0A374AEF0A37401F044
:1012CE00A37410F0A374BAF0A37401F0A37410F019
:1012DE00A374C6F07BFF7A6E79DB122D19900CA7E2
:1012EE00E070FA901080E0F47003A3E0F4601190C7
:1012FE00107DE004F0700690107CE004F0020F32D6
:10130E0090107EE0FEA3E0FF90107CE0B50617A3E0
:10131E00E0B507127BFF7A6F790B9011A9E0FFA35E
:10132E00E0901127801F7BFF7A6F792A90107CE066
:10133E00FFA3E0901127CFF0A3EFF0901080E0FF15
:10134E00A3E0901129CFF0A3EFF0122D19900CA766
:03135E00E070FA42
:011361002269
:1096F900AD071FED600BE4FEEEC3946E50F20E80D1
:01970900F768
:01970A00223C
:1095B200D2FB0000000000D2FA0000000000C2FB53
:0695C20000000000002281
:1095C800C2FB0000000000D2FA0000000000D2FB3D
:0695D8000000000000226B
:089097001295B27FA0128ABEFF
:10909F00E4FFD2FA000000000030FB09EFC394FA9E
:0C90AF0050030F80F4C2FA000000000023
:0190BB002292
:10008E00D2FBC2FA0000000000D2FA00000000000D
:05009E00C2FAC2FB22C2
:1096AE00C2FBC2FA0000000000D2FA000000000067
:0396BE00C2FA22CB
:108ABE00E4FEC2FA0000000000EF30E703D38001AD
:108ACE00C392FBEF25E0FF0000000000D2FA000089
:108ADE00000000C2FA0EEEB408D8C2FA0000000080
:088AEE0000D2FB0000000000B3
:018AF600225D
:108DE100C2FA0000000000D2FB0000000000E4FE17
:108DF100D2FA0000000000EF25E0FFA2FBE4334FB0
:0D8E0100FFC2FA00000000000EEEB408E30E
:018E0E002241
:107BA200901125EEF0A3EFF0A3EBF0A3EAF0A3E926
:107BB200F0C2F9805590112A74FFF5F0120AD345EC
:107BC200F06060901127E0FBA3E475F001120AD384
:107BD200A9F0FA1209DCFF128ABE12909F901126B8
:107BE200E004F07006901125E004F0901126E054B4
:107BF2003F70C2D390112BE0940090112AE09400C0
:107C020040B31295C87F641296F91290979011258D
:107C1200E0FF128ABE12909FA3E0FF128ABE12906A
:0B7C22009F80921295C87F640296F9C3
:0485C900AD07AC0648
:1085CD00129097ECFF128ABE12909FAF05128ABED1
:1085DD0012909F1295B27FA1128ABE12909FD390D6
:1085ED00112BE0940190112AE09400401FA3E02488
:1085FD00FFF090112AE034FFF0128DE1EF120A2204
:10860D001296AE740129F9E43AFA80D2128DE1EF97
:0E861D00120A2212008E1295C890112CE0FF56
:01862B00222C
:1073EE0054616C6B54696D653A2025750D0A005217
:1073FE00696E67496E54733A202562640D0A005215
:10740E00696E674F757454733A202562640D0A00D5
:10741E00546F6E65456E3A202562640D0A00436115
:10742E006D6572614F6E3A202562640D0A005265D9
:10743E00616C7954696D653A202562640D0A0055B8
:10744E006E6C6F636B4B657920313A202562640D4B
:10745E000A00556E6C6F636B4B657920323A2025AE
:10746E0062640D0A0054616C6B566F6C756D3A2038
:10747E002562640D0A00536D7354656C3A202573B2
:10748E000D0A004E616D65436F756E743A20257559
:10749E000D0A00507377436F756E743A2025750D83
:1074AE000A0043617264436F756E743A2025750D40
:0D74BE000A00257325750025730025750053
:104C1C004111CD014811A700000000000000004226
:104C2C0011CBFFFF42114D000041119F034111CEEA
:104C3C00004211A100004111A4004111A000441137
:0E4C4C00CF000000004111A3044211A5012C6D
:1062A3007B017A1179AF90112AE4F0A3741CF0E416
:1062B300FFFE1285C99011AFE0B45A08A3E0B461A0
:1062C300033000589011AF745AF0A37461F0A3E443
:1062D300F0A3741EF0A37401F0A3740FF0A3740170
:1062E300F0A3F0A3740AF0A37401F0A304F0A37461
:1062F30005F0A3120D0C000A2C2A7B017A1179BF39
:106303007D0C7C00128E0F7B017A1179AF90112ADC
:10631300E4F0A3741CF0E4FFFE127BA27BFF7A730C
:1063230079EE9011B1E0FFA3E0901127CFF0A3EF36
:10633300F0122D197BFF7A7379FD9011B3E0901160
:1063430027F0122D197BFF7A74790D9011B4E09028
:106353001127F0122D197BFF7A74791E9011B5E085
:10636300901127F0122D197BFF7A74792C9011B6B6
:10637300E0901127F0122D197BFF7A74793C90116C
:10638300B7E0901127F0122D197BFF7A74794D90A5
:1063930011B8E0901127F0122D197BFF7A74796000
:1063A3009011B9E0901127F0122D197BFF7A7479BF
:1063B300739011BAE0901127F0122D1990112774E0
:1063C30001F0A37411F0A374BFF07BFF7A74798496
:1063D300122D199011BAE0D3940540037403F09081
:1063E30011BAE090119FF09011B6E06003D2E92258
:0363F300C2E922DA
:10765C007B017A1179A790112AE4F0A37408F07FCA
:10766C00807E001285C99011A7E0645A7004A3E0D3
:10767C006461602C9011A7745AF0A37461F0E4A3B8
:10768C00F0A3F0A3F0A3F0A3F0A3F07B017A11799F
:10769C00A790112AF0A37408F07F807E00127BA2C1
:1076AC007BFF7A7479919011A9E0FFA3E0901127E8
:1076BC00CFF0A3EFF0122D197BFF7A7479A1901102
:1076CC00ABE0FFA3E0901127CFF0A3EFF0122D1940
:1076DC007BFF7A7479B09011ADE0FFA3E090112795
:1076EC00CFF0A3EFF0122D1912969B1296C10296B1
:0176FC00D4B9
:10873F00ED24FE60171460222402702D7C007D5002
:10874F00120A56E42FFF74013EFE801DEF7802C31C
:10875F0033CE33CED8F92440800A7C007D06120A2E
:10876F005674682FFF74203EFE7B017A1079E190DA
:10877F00112AE4F0A37402F01285C99010E1E0FE13
:03878F00A3E0FF65
:0187920022C4
:0B7C2D009010DAEEF0A3EFF0A3EDF0F2
:107C3800E4A3F0A3F0ED24FE600C14600E2402709F
:107C4800199011A980089011AB80039011ADE0FF45
:107C5800A3E09010DFCFF0A3EFF09010DFE0FCA3DB
:107C6800E0FD9010DDE0FEA3E0FFC39DEE9C5035E3
:107C78009010DCE0FD12873F9010DAE0B5060EA305
:107C8800E0B507099010DDE0FEA3E0FF22EFF470F5
:107C980002EEF460109010DEE004F070BD9010DD8C
:097CA800E004F080B57EFF7FFFCF
:017CB10022B0
:108EBC009011CD7401F074FF9011CBF0A3F0E490FD
:108ECC00114DF0A3F09011A0F0901273F0A3F0905C
:098EDC00126EF0A3F0FF027232E5
:108AF7009011CD7402F012942D7BFF7A2979537D62
:108B0700017F011295867BFF7A2979637D017F02B8
:108B17001295867B037D067F021296E7E49011A1EA
:088B2700F0A3F09011A4F0226C
:1084230012942D7BFF7A2979AEE4FD7F01129586A4
:108433009011A1E0FEA3E0FFD39400EE940090110D
:108443002774FF401CF0A37474F0A374C0F0A374EA
:10845300FFF0A37429F0A374AEF0A3EEF0A3EF80B2
:1084630014F0A37474F0A374C5F0A374FFF0A374A1
:1084730029F0A374AEF07B017A10797E122D137B61
:0C848300017A10797EE4FD7F01029586ED
:108D55009011CD7407F07E009011A1EEF0A3EFF015
:108D65009011A47401F0EF7001F01284237B017A55
:0F8D750011794F7D507C00128E0F7F0F027968AD
:106C650090107DEFF024F67003026CF224FB6003B4
:106C7500026D209011A1E0FEA3E0FFD39400EE94F5
:106C850000404C7B017A11794F12882DEFF4700288
:106C9500EEF4603BE49011CEF07B017A11794FFD63
:106CA50012705E500C7F0C1279689011CD7414F03F
:106CB500227B017A11797B12904CEF700512961F99
:106CC500800312965E90114DE4F0A37405F0221234
:106CD500974C7F0412796890114DE4F0A37405F088
:106CE500E49011A1F0A3F09011A4F0802E9011A4CE
:106CF500E0D39400401FE014F09011A1E0FEA3E062
:106D0500FF7C007D0A120A689011A1EEF0A3EFF056
:106D15001284238006128D84128EBC90107DE0FFB4
:106D2500C39400403EEFD3940950389011A4E0C3BA
:106D35009404502FE004F09011A1E0FEA3E0FF7C45
:106D4500007D0A120A569011A1EEF0A3EFF0901003
:106D55007DE0FF9011A2E02FF09011A1E03400F04A
:046D6500128423224F
:067D37009011CF120D00B7
:107D3D0012942D9011CDE0B40E0D7BFF7A2A79753A
:107D4D00E4FD7F0112958690109F74FFF0A3742AB5
:107D5D00F0A37452F07B017A10797E12868FE4FDC8
:107D6D009011A4E0FCEDC39C5016ED2FFBE43EFA00
:107D7D00747E2BF58274103AF583742AF00D80E031
:107D8D00ED2FFFE43EFE747E2FF58274103EF583D9
:107D9D00E4F07B017A10797EFD7F021295867B01DE
:0E7DAD007A10797E12904CAD077F02029798F3
:1093D6009011CD740EF09011CF120D0C000000000C
:0D93E600E49011A4F0127D3D7F0202796831
:106D690090107DEFF024F6606724FB7003026E0635
:106D790024046003026E09E4FFFEFDFC9011CFE0DC
:106D8900F8A3E0F9A3E0FAA3E0FBD3120C694027CA
:106D99009011A4E0B406209011BBE0FCA3E0FDA390
:106DA900E0FEA3E0FF9011CFE0F8A3A3A3E0C31294
:106DB9000C697003028AF712961F7F051279689091
:106DC90011CF120D0C00000000E49011A4F08030E6
:106DD9009011A4E0D39400401FE014F09011CFE08B
:106DE900FCA3E0FDA3E0FEA3E0FFE47B0AFAF9F8C7
:106DF900120BD7127D378008128D848000128EBC49
:106E090090107DE0FFC394004055EFD39409504F93
:106E19009011A4E0C394065046E004F09011CFE02D
:106E2900FCA3E0FDA3E0FEA3E0FFE47B0AFAF9F886
:106E3900120B4C9011CF120D009011CFE0F8A3E086
:106E4900F9A3E0FAA3E0FB90107DE0FFE4FCFDFE6E
:106E5900EB2FFFEE3AFEED39FDEC38FC127D3722BF
:1065430090107DEFF024F5601C14601F146022147A
:10655300605E1470030266192405600302667B12F1
:106563008EBC02667B12920602667B1293D602668B
:106573007B9011A9E0FEA3E0FFD39400EE940050BA
:106583000302667BEF24FFFFEE34FFFEC39011CCC2
:10659300E09F9011CBE09E500EA3E004F0706A9050
:1065A30011CBE004F08062E49011CBF0A3F08059AA
:1065B3009011A9E0FEA3E0FFD39400EE94005003F2
:1065C30002667B9011CBE0FCA3E0FD9FEC9E50257F
:1065D300ED9400EC9400400DE024FFF09011CBE02B
:1065E30034FFF08024EF24FFFFEE34FF9011CBF053
:1065F300A3EFF080149011AAE024FFFE9011A9E00C
:1066030034FF9011CBF0A3CEF09011CBE0FEA3E0CA
:10661300FF1292D780629011A9E0FCA3E0FD9011D4
:10662300CBE0FEA3E0FFC39DEE9C5047E49011CE68
:10663300F07B017A11794F128CC77B017A11794F64
:10664300E4FD12705E500D9011CD7414F07F0C12A6
:10665300796880247B017A11797B12904CEF700565
:1066630012961F800312965E90114DE4F0A37405F9
:10667300F08005E4FF128D5590107DE0FFD3940068
:0C6683004009EFD394095003128D5522FA
:1074CB0090107DEFF0C39400405EE0FBD394095025
:1074DB00579011A4E0C39402503AE004F09011A12C
:1074EB00E0FEA3E0FF7C007D0A120A569011A1EE8C
:1074FB00F0A3EFF0EBFF7E00E02FF09011A1E03E48
:10750B00F0D3A3E0940D9011A1E094005003027509
:10751B009BEE800990107DE0FF9011A1E4F0A3EFAA
:10752B00F09011A47401F02290107DE0B40F028052
:10753B000790107DE0B40A03028EBC90107DE064CE
:10754B000B704D9011A1E0FEA3E0FFC39404EE94E9
:10755B0000400EEF940CEE94005006EF2412FF80C7
:10756B002C9011A1E0FEA3E0FFEE7024EF24FE604F
:10757B001114601124F76010146010240C701102A8
:10758B0081F80282D60283B402912B7F1E125E58C1
:01759B0022CD
:1087E20090107DEFF0C39400400AE0FFD39409504B
:1087F20003028E6790107DE024F3601014601A1457
:108802006004240570241294AF028EBC90119FE084
:10881200C394055015E004800B90119FE0D394019E
:0B8822004008E014F0E0FF127DBB22D4
:104D6C0012942D9011CDE024EAB409004003024EB8
:104D7C00BF904D8B75F003A4C58325F0C5837302DA
:104D8C004DA6024DC2024DDE024DFA024E4B024EB2
:104D9C0066024E81024E16024E9C90112774FFF053
:104DAC00A37474F0A374C5F0A374FFF0A3742AF079
:104DBC00A374F6024EB590112774FFF0A37474F02F
:104DCC00A374C5F0A374FFF0A3742BF0A3740102B9
:104DDC004EB590112774FFF0A37474F0A374C5F052
:104DEC00A374FFF0A3742BF0A3740D024EB59011B5
:104DFC002774FFF0A37474F0A374C5F0A374FFF0D0
:104E0C00A3742BF0A37418024EB590112774FFF005
:104E1C00A37474F0A374C5F0A374FFF0A3742BF007
:104E2C00A37436F07B017A10797E122D139011A1A8
:104E3C00E07002A3E06004D2E98078C2E98074904B
:104E4C00112774FFF0A37474F0A374C5F0A374FF5E
:104E5C00F0A3742BF0A3743E804F90112774FFF0D5
:104E6C00A37474F0A374C5F0A374FFF0A3742CF0B6
:104E7C00A37464803490112774FFF0A37474F0A3AE
:104E8C0074C5F0A374FFF0A3742CF0A3747C801988
:104E9C0090112774FFF0A37474F0A374C5F0A3747D
:104EAC00FFF0A3742CF0A37494F07B017A10797E3C
:104EBC00122D139011CDE06419702B7B017A1079AF
:104ECC007EFD7F011295869011A1E07004A3E06431
:104EDC00017BFF70067A2B794A80047A2B794D7D01
:104EEC00067F03024F7D9011CDE0FF641D6005EF3E
:104EFC006417702B7B017A10797EE4FD7F0112958B
:104F0C00869011A1E07004A3E064017BFF70067A27
:104F1C002B794A80047A2B794D7D067F0280527B57
:104F2C00017A10797EE4FD7F011295869011A1E043
:104F3C00FEA3E0FFD39400EE940040389011277448
:104F4C00FFF0A37474F0A374C8F0A3EEF0A3EFF019
:104F5C007B017A10797E122D137B017A10797E12E7
:104F6C00904CC374109FC313FD7B017A10797E7F24
:044F7C000212958602
:014F8000220E
:105E58009011CDEFF024EAB409004003025F80906E
:105E68005E7575F003A4C58325F0C58373025E9043
:105E7800025EAE025EC8025EE3025F16025F300297
:105E88005F4A025EFD025F649011A37403F09011F3
:105E9800A57401F0A3742CF09011B1E0FFA3E09079
:105EA80011A1CF025F7C9011A37402F09011A5E4B8
:105EB800F0A304F09011B3E0FF9011A1E4025F7C1D
:105EC8009011A37402F09011A5E4F0A3745AF09015
:105ED80011B4E0FF9011A1E4025F7C9011A374015A
:105EE800F09011A5E4F0A304F09011B5E0FF901133
:105EF800A1E4025F7C9011A37401F09011A5E4F075
:105F0800A304F09011B6E0FF9011A1E4806690110F
:105F1800A37402F09011A5E4F0A37463F09011B794
:105F2800E0FF9011A1E4804C9011A37401F090114E
:105F3800A5E4F0A37409F09011B8E0FF9011A1E472
:105F480080329011A37401F09011A5E4F0A37409B4
:105F5800F09011B9E0FF9011A1E480189011A3749A
:105F680001F09011A5E4F0A37405F09011BAE0FFD8
:105F78009011A1E4F0A3EFF0E49011A4F09011A126
:105F8800E0FEA3E0FFD3EF9400EE9400400F9011E1
:105F9800A4E004F07C007D0A120A6880E89011CD24
:105FA800E0FF64196013EF641D600EEF641B600965
:105FB800EF641C6004EFB41E069011A47401F00293
:025FC8004D6C1E
:1051710090107EECF0A3EDF0EF24EAB409004003B7
:1051810002533C90519275F003A4C58325F0C58369
:10519100730251AD0251D80251FC02522002527EDB
:1051A1000252A10252D202524F02530490107EE0E9
:1051B100FFA3E09011B1CFF0A3EFF0C374B194AFAE
:1051C100FF74119411FE7B017A1179B190112AE4D7
:1051D100F0A374020252FE90107EA3E09011B3F08E
:1051E100C374B394AFFF74119411FE7B017A1179EA
:1051F100B390112AE4F0A3040252FE90107EA3E0C2
:105201009011B4F0C374B494AFFF74119411FE7B88
:10521100017A1179B490112AE4F0A3040252FE90AC
:10522100107EE07002A3E07003FF80027F01901105
:10523100B5EFF0C374B594AFFF74119411FE7B0107
:105241007A1179B590112AE4F0A3040252FE90106C
:105251007EE07002A3E07003FF80027F019011B62F
:10526100EFF0C374B694AFFF74119411FE7B017A11
:105271001179B690112AE4F0A3040252FE90107E37
:10528100A3E09011B7F0C374B794AFFF74119411F8
:10529100FE7B017A1179B790112AE4F0A304805DB5
:1052A10090107EE0FEA3E0FFD39400EE9400500343
:1052B10002533C9011B8EFF074B894AFFF7411949D
:1052C10011FE7B017A1179B890112AE4F0A30480D0
:1052D1002C90107EE0FEA3E0FFD39400EE940040FA
:1052E1005A9011B9EFF074B994AFFF74119411FE93
:1052F1007B017A1179B990112AE4F0A304F0127BB1
:10530100A2803890107EE0FEA3E0FFD39400EE94DB
:105311000040289011BAEFF074BA94AFFF74119461
:1053210011FE7B017A1179BA90112AE4F0A304F0FD
:0E533100127BA29011BAE090119FF002960A32
:1058530090107DEFF09011A4E0B46302807B901070
:105863007DE024F5605324FC604D2405706E901197
:10587300CDE0FF64196010EF641D600BEF641760E7
:10588300069011A4E0700E9011B6E06004D2E98096
:1058930002C2E980449011A4E014F09011A1E0FE4B
:1058A300A3E0FF7C007D0A120A689011A1EEF0A329
:1058B300EFF0124D6C802580209011A4E0D394006A
:1058C30040179011CDE0FF9011A1E0FCA3E0FD1281
:1058D30051719011A47463F022028AF790107DE055
:1058E300FFC3940050030259D7EFD3940940030236
:1058F30059D79011CDE0FF64196009EF641D60046E
:10590300EFB417129011A47401F090107DE0FF9092
:1059130011A1E40259D39011CDE0FF641B6004EFA1
:10592300B41C1C90107DE0FFD3940050030259D7A0
:105933009011A47401F07E009011A1140259D39028
:1059430011CDE0B41E2790107DE0FFD394005003E7
:105953000259D77E009011A6E09F9011A5E09E40CA
:10596300739011A47401F09011A11480639011A39A
:10597300E0FFA3E0C39F505C9011A1E0FEA3E0FF12
:105983007C007D0A120A569011A5E0FCA3E0FDC33A
:105993009FEC9E403F9011A4E004F09011A1EEF023
:1059A300A3EFF090107DE0F92FFFE43EFEC3ED9FDF
:1059B300EC9E4011E9FF9011A2E02FF09011A1E0BD
:1059C3003400F0800F9011A5E0FFA3E09011A1CF68
:0859D300F0A3EFF0124D6C226D
:105B5E0090107CEFF090114DE4F0A3741EF09011B4
:105B6E00CDE014B41E004003025CAE905B8775F06E
:105B7E0003A4C58325F0C58373025BE1025BEC02CF
:105B8E005BF7025C02025C0D025C18025C56025C62
:105B9E0023025C2E025C38025C42025C4C025C6AA0
:105BAE00025C60025C74025C7E025C88025C9202A3
:105BBE005CAE025C9C025C9C025CA6025CA6025C73
:105BCE00A6025CA6025CA6025CA6025CA6025CA60D
:105BDE00025CA690107CE0FF126543025CAE901052
:105BEE007CE0FF1274CB025CAE90107CE0FF129250
:105BFE00F9025CAE90107CE0FF12253E025CAE9086
:105C0E00107CE0FF12491F025CAE90107CE0FF1288
:105C1E00952B025CAE90107CE0FF12931A025CAEE4
:105C2E0090107CE0FF122119807690107CE0FF121C
:105C3E0056A9806C90107CE0FF1295428062901005
:105C4E007CE0FF12668F805890107CE0FF126C652E
:105C5E00804E90107CE0FF126D69804490107CE0C5
:105C6E00FF123CC7803A90107CE0FF12933B8030CD
:105C7E0090107CE0FF1254F7802690107CE0FF120B
:105C8E00533F801C90107CE0FF12955980129010AB
:105C9E007CE0FF1287E2800890107CE0FF125853E0
:105CAE00D390114EE0940A90114DE0940040209054
:105CBE0011CDE0FF640E600EEF640C6009EF640717
:105CCE006004EFB4010990114DE4F0A3740AF022C0
:1084FA0090107CEBF0A3EAF0A3E9F09011CDE02410
:10850A00F1605724FE60071460502402700E901028
:10851A007CE0FBA3E0FAA3E0F9028A4890107CE031
:10852A00FBA3E0FAA3E0F91276FDEFF47002EEF491
:10853A00600E9011B7E0FDD200E4FF12935C800355
:10854A001296499011CDE0FF6415600EEF64146035
:0B855A000990114DE4F0A37405F0221D
:108EE500436865636B5073773A25750D0A004164D5
:108EF500645073774974656D20310D0A002573251B
:098F050075002573250025750097
:0E4C5A004113710041137200C10DC10EC10F54
:10924D00C374AB94A7FF74119411CF2480CF340055
:10925D00FE7B017A1179AB90112AE4F0A37402F030
:03926D00027BA2DF
:0A977A00E49011ABF0A3F002924D51
:1096C100D39011ACE0940A9011ABE09400400312E6
:0396D100977A2263
:0B8F6000901084E0FBA3E0FAA3E0F90E
:108F6B00EF7802C333CE33CED8F92440FFEE342052
:0D8F7B00FE90112AE4F0A37404F0027BA222
:1093F300EF7802C333CE33CED8F92440FFEE3420C6
:0D940300FE90112AE4F0A37404F00285C964
:087FB30090107EEEF0A3EFF048
:107FBB00E4A3F0A3F07BFF7A8E79E5901127EEF026
:107FCB00A3EFF0122D199011ABE07002A3E0700239
:107FDB00C322E4901080F0A3F09011ABE0FCA3E07F
:107FEB00FD901080E0FEA3E0FFC39DEE9C502F7B25
:107FFB00017A1079821293F390107EE0FEA3E0FFDA
:10800B00901084E0B50607A3E0B50702D3229010C9
:0F801B0081E004F070C3901080E004F080BBC3DC
:01802A002233
:0B7E3E00901084EBF0A3EAF0A3E9F041
:107E490074FFA3F0A3F0120AE9FFAEF07D02127CE1
:107E59002D901087EEF0A3EFF0F47002EEF4601DA0
:107E69007BFF7A8E79F3122D19901087E0FEA3E03B
:107E7900FF128F60901087E0FEA3E0FF229011AB04
:107E8900E0FEA3E0FFC3940AEE94005023128F6032
:107E99009011ACE004F070069011ABE004F012927E
:107EA9004D9011ACE024FFFF9011ABE034FFFE22AE
:047EB9007EFF7FFFCA
:017EBD0022A2
:08826700901082EEF0A3EFF08D
:10826F009011ABE0FCA3E0FDD39FEC9E4058ED24B2
:10827F00FFFFEC34FFFE901082E0B50616A3E0B5C9
:10828F0007119011ACE024FFF09011ABE034FFF038
:10829F0002924D9011ACE024FFF09011ABE034FF4F
:1082AF00F012924D9011ABE0FEA3E0FF7B017A102C
:1082BF0079841293F3901082E0FEA3E0FF7B017AA2
:0682CF00107984128F6B90
:0182D5002286
:0890BC00901080EEF0A3EFF02C
:1090C4008013EFF47002EEF4601212826790108045
:0C90D400E0FEA3E0FF7D02127C2D80E690
:0190E000226D
:083349007B017A137967D200C1
:0B335100901084EBF0A3EAF0A3E9F079
:10335C0012942D9011CDE0B40D0F7BFF7A2A797564
:10336C00E4FDFF1295860234029011CDE0640C70DE
:10337C0003023402901084E0FBA3E0FAA3E0F912FC
:10338C000AE9D39400E5F094007BFF7A2C79A3E44E
:10339C00FDFF404912958690112774FFF0A3748F9E
:1033AC00F0A37402F0A374FFF0A3742CF0A374A325
:1033BC00F0901084E0FBA3E0FAA3E0F9120AE9FF15
:1033CC0090112DE5F0F0A3EFF07B017A10798712C4
:1033DC002D137B017A107987E4FDFF80001295860E
:1033EC00901371E070107B017A10798712904CADBC
:1033FC0007E4FF129798200003023679901084E0BE
:10340C00FBA3E0FAA3E0F9900002120CA0E4FBFA93
:10341C00F9F8C3120C6940030234FC90112774FFB5
:10342C00F0A3748FF0A37407F0A374FFF0A3742AB5
:10343C00F0A37452F00B7A107987122D1390136944
:10344C00E0FCA3E0FDA3E0FEA3E0FF9010A8120DAA
:10345C0000E49010A7F0E4FFFEFDFC9010A8E0F84B
:10346C00A3E0F9A3E0FAA3E0FBD3120C69403F7B85
:10347C00FF7A2A795212904C9010A7E02F2487F5EE
:10348C0082E43410F583742AF09010A8E0FCA3E0D9
:10349C00FDA3E0FEA3E0FFE47B0AFAF9F8120BD7D8
:1034AC009010A8120D009010A7E004F080A87BFFEC
:1034BC007A2A795212904C9010A7E02F2487F5822B
:1034CC00E43410F583E4F07B017A107987FD7F01F9
:1034DC001295869011CDE0640D60047F0180027F0F
:1034EC0000901371E06F703A7B017A107987802815
:1034FC007BFF7A2A7952E4FD7F011295869011CDDB
:10350C00E0640D60047F0180027F00901371E0B5D0
:10351C0007107BFF7A2A795212904CAD077F01126B
:10352C0097989011CDE0640C70030236799010845A
:10353C00E0FBA3E0FAA3E0F9900006120CA0E4FB78
:10354C00FAF9F8C3120C69400302363A9011277449
:10355C00FFF0A3748FF0A37407F0A374FFF0A374AF
:10356C002AF0A37464F00B7A107987122D13901340
:10357C006DE0FCA3E0FDA3E0FEA3E0FF9010A81219
:10358C000D00E49010A7F0E4FFFEFDFC9010A8E005
:10359C00F8A3E0F9A3E0FAA3E0FBD3120C69403FD7
:1035AC007BFF7A2A796412904C9010A7E02F248725
:1035BC00F582E43410F583742AF09010A8E0FCA393
:1035CC00E0FDA3E0FEA3E0FFE47B0AFAF9F8120B9E
:1035DC00D79010A8120D009010A7E004F080A87BE3
:1035EC00FF7A2A796412904C9010A7E02F2487F56B
:1035FC0082E43410F583E4F07BFF7A2A795CFD7F5A
:10360C00021295867B017A107987E4FD7F0312956F
:10361C00869011CDE0640D60047F0280027F0190E2
:10362C001371E06F70477B017A10798780357BFFCF
:10363C007A2A795CE4FD7F021295867BFF7A2A79DF
:10364C0064E4FD7F031295869011CDE0640D600457
:10365C007F0280027F01901371E0B507107BFF7A27
:0D366C002A796412904CAD077F03129798E5
:01367900222E
:1090E1007B017A1379677D0A7C00128E0FE490135D
:1090F10071F0A3F09011CD7409F07B017A137967B7
:05910100D20002335111
:0521190090107DEFF0C5
:10211E00640B6003022266901371E0640360030295
:10212E0021EE300D147B017A1379677D0AFC128E35
:10213E000FE4901372F00221EED3901368E0940036
:10214E00901367E0940050030221EBE4FFFEFDFCC8
:10215E00901369E0F8A3E0F9A3E0FAA3E0FB120CF8
:10216E0069607A90136DE0FCA3E0FDA3E0FEA3E0AE
:10217E00FF901369E0F8A3A3A3E0C3120C69705D8E
:10218E00901367E0FFA3E0901080CFF0A3EFF090E4
:10219E001369A3A3E0FFA3E0901082CFF0A3EFF0AA
:1021AE007B017A107980127E3EEFF47002EEF460BD
:1021BE000512960A800312961F7B017A1379677DAA
:1021CE000A7C00128E0FD20D901369120D0C0000B6
:1021DE00000090136D120D0C000000002202961FDD
:1021EE00901371E004F0E05403FFF0E4A3F0EF1459
:1021FE00604914604B14605A240360030223CCE43C
:10220E00901371F0901367E0FFA3E090107ECF80E3
:10221E002490107EE0FEA3E0FFD39400EE940050D5
:10222E00030223CC901372E004F07C007D0A120AA4
:10223E006890107EEEF0A3EFF080D69013698003C5
:10224E0090136D120D0C00000000E4901372F0025A
:10225E0023CC12972CC20D2290107DE0640A6003ED
:10226E000223C2901371E014603C14700302231C0D
:10227E00147003022387240360030223CC9013728D
:10228E00E0D39400401DE014F0901367E0FEA3E04D
:10229E00FF7C007D0A120A68901367EEF0A3EFF040
:1022AE000223CC0223C9901372E0D39400401FE0A6
:1022BE0014F0901369E0FCA3E0FDA3E0FEA3E0FFA1
:1022CE00E47B0AFAF9F8120BD79013698066901323
:1022DE0071E014F0E4A3F0901367E0FFA3E0901018
:1022EE007ECF802490107EE0FEA3E0FFD39400EE1C
:1022FE00940050030223CC901372E004F07C007D16
:10230E000A120A6890107EEEF0A3EFF080D69013BA
:10231E0072E0D394004023E014F090136DE0FCA320
:10232E00E0FDA3E0FEA3E0FFE47B0AFAF9F8120B4E
:10233E00D790136D120D000223CC901371E014F0A0
:10234E00E4A3F0901369A3A3E0FFA3E090107ECF67
:10235E00802190107EE0FEA3E0FFD39400EE940067
:10236E00405C901372E004F07C007D0A120A6890C3
:10237E00107EEEF0A3EFF080D9E4901371F0A3F08D
